{
  "contractName": "Actions",
  "abi": [
    {
      "inputs": [
        {
          "internalType": "address",
          "name": "_AvatarPoolAddress",
          "type": "address"
        },
        {
          "internalType": "address",
          "name": "_StonePoolAddress",
          "type": "address"
        },
        {
          "internalType": "address",
          "name": "_WearablePoolAddress",
          "type": "address"
        }
      ],
      "stateMutability": "nonpayable",
      "type": "constructor"
    },
    {
      "anonymous": false,
      "inputs": [
        {
          "indexed": true,
          "internalType": "address",
          "name": "previousOwner",
          "type": "address"
        },
        {
          "indexed": true,
          "internalType": "address",
          "name": "newOwner",
          "type": "address"
        }
      ],
      "name": "OwnershipTransferred",
      "type": "event"
    },
    {
      "inputs": [],
      "name": "owner",
      "outputs": [
        {
          "internalType": "address",
          "name": "",
          "type": "address"
        }
      ],
      "stateMutability": "view",
      "type": "function"
    },
    {
      "inputs": [],
      "name": "renounceOwnership",
      "outputs": [],
      "stateMutability": "nonpayable",
      "type": "function"
    },
    {
      "inputs": [
        {
          "internalType": "address",
          "name": "newOwner",
          "type": "address"
        }
      ],
      "name": "transferOwnership",
      "outputs": [],
      "stateMutability": "nonpayable",
      "type": "function"
    },
    {
      "inputs": [],
      "name": "getAvatarPoolAddress",
      "outputs": [
        {
          "internalType": "address",
          "name": "",
          "type": "address"
        }
      ],
      "stateMutability": "view",
      "type": "function"
    },
    {
      "inputs": [
        {
          "internalType": "address",
          "name": "_AvatarPoolAddress",
          "type": "address"
        }
      ],
      "name": "setAvatarPoolAddress",
      "outputs": [],
      "stateMutability": "nonpayable",
      "type": "function"
    },
    {
      "inputs": [],
      "name": "getStonePoolAddress",
      "outputs": [
        {
          "internalType": "address",
          "name": "",
          "type": "address"
        }
      ],
      "stateMutability": "view",
      "type": "function"
    },
    {
      "inputs": [
        {
          "internalType": "address",
          "name": "_StonePoolAddress",
          "type": "address"
        }
      ],
      "name": "setStonePoolAddress",
      "outputs": [],
      "stateMutability": "nonpayable",
      "type": "function"
    },
    {
      "inputs": [],
      "name": "getWearablePoolAddress",
      "outputs": [
        {
          "internalType": "address",
          "name": "",
          "type": "address"
        }
      ],
      "stateMutability": "view",
      "type": "function"
    },
    {
      "inputs": [
        {
          "internalType": "address",
          "name": "_WearablePoolAddress",
          "type": "address"
        }
      ],
      "name": "setWearablePoolAddress",
      "outputs": [],
      "stateMutability": "nonpayable",
      "type": "function"
    },
    {
      "inputs": [
        {
          "internalType": "uint256",
          "name": "avatarID",
          "type": "uint256"
        },
        {
          "internalType": "uint256",
          "name": "stoneID",
          "type": "uint256"
        },
        {
          "internalType": "uint256",
          "name": "stoneSlot",
          "type": "uint256"
        }
      ],
      "name": "setStone",
      "outputs": [],
      "stateMutability": "nonpayable",
      "type": "function"
    },
    {
      "inputs": [
        {
          "internalType": "uint256",
          "name": "avatarID",
          "type": "uint256"
        },
        {
          "internalType": "uint256",
          "name": "wearableID",
          "type": "uint256"
        },
        {
          "internalType": "uint256",
          "name": "wearableSlot",
          "type": "uint256"
        }
      ],
      "name": "setWearables",
      "outputs": [],
      "stateMutability": "nonpayable",
      "type": "function"
    },
    {
      "inputs": [
        {
          "internalType": "uint256",
          "name": "avatarID",
          "type": "uint256"
        },
        {
          "internalType": "uint256",
          "name": "stoneID",
          "type": "uint256"
        },
        {
          "internalType": "uint256",
          "name": "stoneSlot",
          "type": "uint256"
        }
      ],
      "name": "removeStone",
      "outputs": [],
      "stateMutability": "nonpayable",
      "type": "function"
    },
    {
      "inputs": [
        {
          "internalType": "uint256",
          "name": "avatarID",
          "type": "uint256"
        },
        {
          "internalType": "uint256",
          "name": "wearableID",
          "type": "uint256"
        },
        {
          "internalType": "uint256",
          "name": "wearableSlot",
          "type": "uint256"
        }
      ],
      "name": "removeWearables",
      "outputs": [],
      "stateMutability": "nonpayable",
      "type": "function"
    },
    {
      "inputs": [
        {
          "internalType": "uint256",
          "name": "avatarID",
          "type": "uint256"
        },
        {
          "internalType": "uint256",
          "name": "stoneSlot",
          "type": "uint256"
        }
      ],
      "name": "getStoneInfo",
      "outputs": [
        {
          "internalType": "uint256",
          "name": "",
          "type": "uint256"
        }
      ],
      "stateMutability": "view",
      "type": "function"
    },
    {
      "inputs": [
        {
          "internalType": "uint256",
          "name": "avatarID",
          "type": "uint256"
        },
        {
          "internalType": "uint256",
          "name": "wearableSlot",
          "type": "uint256"
        }
      ],
      "name": "getWearableInfo",
      "outputs": [
        {
          "internalType": "uint256",
          "name": "",
          "type": "uint256"
        }
      ],
      "stateMutability": "view",
      "type": "function"
    }
  ],
  "bytecode": "0x60806040523480156200001157600080fd5b5060405162001c0d38038062001c0d833981810160405281019062000037919062000259565b620000576200004b6200012360201b60201c565b6200012b60201b60201c565b82600160006101000a81548173ffffffffffffffffffffffffffffffffffffffff021916908373ffffffffffffffffffffffffffffffffffffffff16021790555081600260006101000a81548173ffffffffffffffffffffffffffffffffffffffff021916908373ffffffffffffffffffffffffffffffffffffffff16021790555080600360006101000a81548173ffffffffffffffffffffffffffffffffffffffff021916908373ffffffffffffffffffffffffffffffffffffffff160217905550505050620002b5565b600033905090565b60008060009054906101000a900473ffffffffffffffffffffffffffffffffffffffff169050816000806101000a81548173ffffffffffffffffffffffffffffffffffffffff021916908373ffffffffffffffffffffffffffffffffffffffff1602179055508173ffffffffffffffffffffffffffffffffffffffff168173ffffffffffffffffffffffffffffffffffffffff167f8be0079c531659141344cd1fd0a4f28419497f9722a3daafe3b4186f6b6457e060405160405180910390a35050565b600080fd5b600073ffffffffffffffffffffffffffffffffffffffff82169050919050565b60006200022182620001f4565b9050919050565b620002338162000214565b81146200023f57600080fd5b50565b600081519050620002538162000228565b92915050565b600080600060608486031215620002755762000274620001ef565b5b6000620002858682870162000242565b9350506020620002988682870162000242565b9250506040620002ab8682870162000242565b9150509250925092565b61194880620002c56000396000f3fe608060405234801561001057600080fd5b50600436106100f55760003560e01c80635945f73a116100975780638da5cb5b116100665780638da5cb5b14610236578063b2cd854314610254578063f2fde38b14610284578063fc580161146102a0576100f5565b80635945f73a146101d85780635f069e80146101f45780636906a4bf14610210578063715018a61461022c576100f5565b80632f16fd09116100d35780632f16fd091461016457806332c430e91461018257806335929e01146101a0578063427d7fc0146101bc576100f5565b80631be723b8146100fa57806321f9ed261461011857806327979bcd14610134575b600080fd5b6101026102bc565b60405161010f9190610f15565b60405180910390f35b610132600480360381019061012d9190610f7a565b6102e6565b005b61014e60048036038101906101499190610fcd565b6102f8565b60405161015b919061101c565b60405180910390f35b61016c6103be565b6040516101799190610f15565b60405180910390f35b61018a6103e8565b6040516101979190610f15565b60405180910390f35b6101ba60048036038101906101b59190611063565b610412565b005b6101d660048036038101906101d19190611063565b61045e565b005b6101f260048036038101906101ed9190610f7a565b6104aa565b005b61020e60048036038101906102099190611063565b6104bc565b005b61022a60048036038101906102259190610f7a565b610508565b005b61023461051a565b005b61023e61052e565b60405161024b9190610f15565b60405180910390f35b61026e60048036038101906102699190610fcd565b610557565b60405161027b919061101c565b60405180910390f35b61029e60048036038101906102999190611063565b61061d565b005b6102ba60048036038101906102b59190610f7a565b6106a0565b005b6000600260009054906101000a900473ffffffffffffffffffffffffffffffffffffffff16905090565b6102f383838360006106b2565b505050565b6000600160009054906101000a900473ffffffffffffffffffffffffffffffffffffffff1673ffffffffffffffffffffffffffffffffffffffff166343a92f24846040518263ffffffff1660e01b8152600401610355919061101c565b600060405180830381865afa158015610372573d6000803e3d6000fd5b505050506040513d6000823e3d601f19601f8201168201806040525081019061039b9190611498565b60a0015182600581106103b1576103b06114e1565b5b6020020151905092915050565b6000600160009054906101000a900473ffffffffffffffffffffffffffffffffffffffff16905090565b6000600360009054906101000a900473ffffffffffffffffffffffffffffffffffffffff16905090565b61041a610a1e565b80600260006101000a81548173ffffffffffffffffffffffffffffffffffffffff021916908373ffffffffffffffffffffffffffffffffffffffff16021790555050565b610466610a1e565b80600360006101000a81548173ffffffffffffffffffffffffffffffffffffffff021916908373ffffffffffffffffffffffffffffffffffffffff16021790555050565b6104b78383836000610a9c565b505050565b6104c4610a1e565b80600160006101000a81548173ffffffffffffffffffffffffffffffffffffffff021916908373ffffffffffffffffffffffffffffffffffffffff16021790555050565b61051583838360016106b2565b505050565b610522610a1e565b61052c6000610e08565b565b60008060009054906101000a900473ffffffffffffffffffffffffffffffffffffffff16905090565b6000600160009054906101000a900473ffffffffffffffffffffffffffffffffffffffff1673ffffffffffffffffffffffffffffffffffffffff166343a92f24846040518263ffffffff1660e01b81526004016105b4919061101c565b600060405180830381865afa1580156105d1573d6000803e3d6000fd5b505050506040513d6000823e3d601f19601f820116820180604052508101906105fa9190611498565b60c0015182600381106106105761060f6114e1565b5b6020020151905092915050565b610625610a1e565b600073ffffffffffffffffffffffffffffffffffffffff168173ffffffffffffffffffffffffffffffffffffffff1603610694576040517f08c379a000000000000000000000000000000000000000000000000000000000815260040161068b90611593565b60405180910390fd5b61069d81610e08565b50565b6106ad8383836001610a9c565b505050565b600160009054906101000a900473ffffffffffffffffffffffffffffffffffffffff1673ffffffffffffffffffffffffffffffffffffffff16632d8a746e856040518263ffffffff1660e01b815260040161070d919061101c565b602060405180830381865afa15801561072a573d6000803e3d6000fd5b505050506040513d601f19601f8201168201806040525081019061074e91906115b3565b61078d576040517f08c379a00000000000000000000000000000000000000000000000000000000081526004016107849061162c565b60405180910390fd5b80610798578261079b565b60005b600160009054906101000a900473ffffffffffffffffffffffffffffffffffffffff1673ffffffffffffffffffffffffffffffffffffffff166343a92f24866040518263ffffffff1660e01b81526004016107f6919061101c565b600060405180830381865afa158015610813573d6000803e3d6000fd5b505050506040513d6000823e3d601f19601f8201168201806040525081019061083c9190611498565b60a001518360058110610852576108516114e1565b5b602002015114610897576040517f08c379a000000000000000000000000000000000000000000000000000000000815260040161088e90611698565b60405180910390fd5b600260009054906101000a900473ffffffffffffffffffffffffffffffffffffffff1673ffffffffffffffffffffffffffffffffffffffff16632d8a746e846040518263ffffffff1660e01b81526004016108f2919061101c565b602060405180830381865afa15801561090f573d6000803e3d6000fd5b505050506040513d601f19601f8201168201806040525081019061093391906115b3565b610972576040517f08c379a000000000000000000000000000000000000000000000000000000000815260040161096990611704565b60405180910390fd5b600160009054906101000a900473ffffffffffffffffffffffffffffffffffffffff1673ffffffffffffffffffffffffffffffffffffffff166324926eff856000846109bf5760006109c1565b865b866000806040518763ffffffff1660e01b81526004016109e696959493929190611778565b600060405180830381600087803b158015610a0057600080fd5b505af1158015610a14573d6000803e3d6000fd5b5050505050505050565b610a26610ecc565b73ffffffffffffffffffffffffffffffffffffffff16610a4461052e565b73ffffffffffffffffffffffffffffffffffffffff1614610a9a576040517f08c379a0000000000000000000000000000000000000000000000000000000008152600401610a9190611825565b60405180910390fd5b565b600160009054906101000a900473ffffffffffffffffffffffffffffffffffffffff1673ffffffffffffffffffffffffffffffffffffffff16632d8a746e856040518263ffffffff1660e01b8152600401610af7919061101c565b602060405180830381865afa158015610b14573d6000803e3d6000fd5b505050506040513d601f19601f82011682018060405250810190610b3891906115b3565b610b77576040517f08c379a0000000000000000000000000000000000000000000000000000000008152600401610b6e9061162c565b60405180910390fd5b80610b825782610b85565b60005b600160009054906101000a900473ffffffffffffffffffffffffffffffffffffffff1673ffffffffffffffffffffffffffffffffffffffff166343a92f24866040518263ffffffff1660e01b8152600401610be0919061101c565b600060405180830381865afa158015610bfd573d6000803e3d6000fd5b505050506040513d6000823e3d601f19601f82011682018060405250810190610c269190611498565b60c001518360038110610c3c57610c3b6114e1565b5b602002015114610c81576040517f08c379a0000000000000000000000000000000000000000000000000000000008152600401610c7890611698565b60405180910390fd5b600360009054906101000a900473ffffffffffffffffffffffffffffffffffffffff1673ffffffffffffffffffffffffffffffffffffffff16632d8a746e846040518263ffffffff1660e01b8152600401610cdc919061101c565b602060405180830381865afa158015610cf9573d6000803e3d6000fd5b505050506040513d601f19601f82011682018060405250810190610d1d91906115b3565b610d5c576040517f08c379a0000000000000000000000000000000000000000000000000000000008152600401610d5390611891565b60405180910390fd5b600160009054906101000a900473ffffffffffffffffffffffffffffffffffffffff1673ffffffffffffffffffffffffffffffffffffffff166324926eff85600080600086610dac576000610dae565b885b886040518763ffffffff1660e01b8152600401610dd0969594939291906118b1565b600060405180830381600087803b158015610dea57600080fd5b505af1158015610dfe573d6000803e3d6000fd5b5050505050505050565b60008060009054906101000a900473ffffffffffffffffffffffffffffffffffffffff169050816000806101000a81548173ffffffffffffffffffffffffffffffffffffffff021916908373ffffffffffffffffffffffffffffffffffffffff1602179055508173ffffffffffffffffffffffffffffffffffffffff168173ffffffffffffffffffffffffffffffffffffffff167f8be0079c531659141344cd1fd0a4f28419497f9722a3daafe3b4186f6b6457e060405160405180910390a35050565b600033905090565b600073ffffffffffffffffffffffffffffffffffffffff82169050919050565b6000610eff82610ed4565b9050919050565b610f0f81610ef4565b82525050565b6000602082019050610f2a6000830184610f06565b92915050565b6000604051905090565b600080fd5b600080fd5b6000819050919050565b610f5781610f44565b8114610f6257600080fd5b50565b600081359050610f7481610f4e565b92915050565b600080600060608486031215610f9357610f92610f3a565b5b6000610fa186828701610f65565b9350506020610fb286828701610f65565b9250506040610fc386828701610f65565b9150509250925092565b60008060408385031215610fe457610fe3610f3a565b5b6000610ff285828601610f65565b925050602061100385828601610f65565b9150509250929050565b61101681610f44565b82525050565b6000602082019050611031600083018461100d565b92915050565b61104081610ef4565b811461104b57600080fd5b50565b60008135905061105d81611037565b92915050565b60006020828403121561107957611078610f3a565b5b60006110878482850161104e565b91505092915050565b600080fd5b6000601f19601f8301169050919050565b7f4e487b7100000000000000000000000000000000000000000000000000000000600052604160045260246000fd5b6110de82611095565b810181811067ffffffffffffffff821117156110fd576110fc6110a6565b5b80604052505050565b6000611110610f30565b905061111c82826110d5565b919050565b600080fd5b600080fd5b600080fd5b600067ffffffffffffffff82111561114b5761114a6110a6565b5b61115482611095565b9050602081019050919050565b60005b8381101561117f578082015181840152602081019050611164565b60008484015250505050565b600061119e61119984611130565b611106565b9050828152602081018484840111156111ba576111b961112b565b5b6111c5848285611161565b509392505050565b600082601f8301126111e2576111e1611126565b5b81516111f284826020860161118b565b91505092915050565b60008151905061120a81610f4e565b92915050565b600067ffffffffffffffff82111561122b5761122a6110a6565b5b602082029050919050565b600080fd5b600061124e61124984611210565b611106565b9050806020840283018581111561126857611267611236565b5b835b81811015611291578061127d88826111fb565b84526020840193505060208101905061126a565b5050509392505050565b600082601f8301126112b0576112af611126565b5b60056112bd84828561123b565b91505092915050565b600067ffffffffffffffff8211156112e1576112e06110a6565b5b602082029050919050565b60006112ff6112fa846112c6565b611106565b9050806020840283018581111561131957611318611236565b5b835b81811015611342578061132e88826111fb565b84526020840193505060208101905061131b565b5050509392505050565b600082601f83011261136157611360611126565b5b600361136e8482856112ec565b91505092915050565b60008115159050919050565b61138c81611377565b811461139757600080fd5b50565b6000815190506113a981611383565b92915050565b600061024082840312156113c6576113c5611090565b5b6113d1610100611106565b9050600082015167ffffffffffffffff8111156113f1576113f0611121565b5b6113fd848285016111cd565b6000830152506020611411848285016111fb565b6020830152506040611425848285016111fb565b6040830152506060611439848285016111fb565b606083015250608061144d8482850161129b565b6080830152506101206114628482850161129b565b60a0830152506101c06114778482850161134c565b60c08301525061022061148c8482850161139a565b60e08301525092915050565b6000602082840312156114ae576114ad610f3a565b5b600082015167ffffffffffffffff8111156114cc576114cb610f3f565b5b6114d8848285016113af565b91505092915050565b7f4e487b7100000000000000000000000000000000000000000000000000000000600052603260045260246000fd5b600082825260208201905092915050565b7f4f776e61626c653a206e6577206f776e657220697320746865207a65726f206160008201527f6464726573730000000000000000000000000000000000000000000000000000602082015250565b600061157d602683611510565b915061158882611521565b604082019050919050565b600060208201905081810360008301526115ac81611570565b9050919050565b6000602082840312156115c9576115c8610f3a565b5b60006115d78482850161139a565b91505092915050565b7f596f7520617265206e6f742074686520617661746172206f776e657200000000600082015250565b6000611616601c83611510565b9150611621826115e0565b602082019050919050565b6000602082019050818103600083015261164581611609565b9050919050565b7f54686520736c6f742068617320616c7265616479206265656e2066696c6c6564600082015250565b6000611682602083611510565b915061168d8261164c565b602082019050919050565b600060208201905081810360008301526116b181611675565b9050919050565b7f596f7520617265206e6f74207468652073746f6e65206f776e65720000000000600082015250565b60006116ee601b83611510565b91506116f9826116b8565b602082019050919050565b6000602082019050818103600083015261171d816116e1565b9050919050565b61172d81611377565b82525050565b6000819050919050565b6000819050919050565b600061176261175d61175884611733565b61173d565b610f44565b9050919050565b61177281611747565b82525050565b600060c08201905061178d600083018961100d565b61179a6020830188611724565b6117a7604083018761100d565b6117b4606083018661100d565b6117c16080830185611769565b6117ce60a0830184611769565b979650505050505050565b7f4f776e61626c653a2063616c6c6572206973206e6f7420746865206f776e6572600082015250565b600061180f602083611510565b915061181a826117d9565b602082019050919050565b6000602082019050818103600083015261183e81611802565b9050919050565b7f596f7520617265206e6f7420746865207765617261626c65206f776e65720000600082015250565b600061187b601e83611510565b915061188682611845565b602082019050919050565b600060208201905081810360008301526118aa8161186e565b9050919050565b600060c0820190506118c6600083018961100d565b6118d36020830188611724565b6118e06040830187611769565b6118ed6060830186611769565b6118fa608083018561100d565b61190760a083018461100d565b97965050505050505056fea2646970667358221220572bd08996b3dae77b8c1507607fcc0fa3660b0804b593a2a2d44cd0a9cfcdc764736f6c63430008130033",
  "immutableReferences": {},
  "source": "// SPDX-License-Identifier: MIT\r\npragma solidity ^0.8.0;\r\n\r\nimport \"@openzeppelin/contracts/access/Ownable.sol\";\r\nimport \"./../Pool/StonePool.sol\";\r\nimport \"./../Pool/AvatarPool.sol\";\r\nimport \"./../Pool/WearablePool.sol\";\r\n\r\n\r\ncontract Actions is Ownable {\r\n\r\n    address private AvatarPoolAddress; \r\n    address private StonePoolAddress; \r\n    address private WearablePoolAddress; \r\n\r\n\r\n    constructor (\r\n        address _AvatarPoolAddress,\r\n        address _StonePoolAddress,\r\n        address _WearablePoolAddress\r\n    ) {\r\n        \r\n        AvatarPoolAddress = _AvatarPoolAddress;\r\n        StonePoolAddress = _StonePoolAddress;\r\n        WearablePoolAddress = _WearablePoolAddress;\r\n    }\r\n\r\n\r\n\r\n    /**\r\n        SET & GET ADDRESS\r\n     */\r\n    function getAvatarPoolAddress() public view returns (address) { return AvatarPoolAddress; }\r\n    function setAvatarPoolAddress(address _AvatarPoolAddress) public onlyOwner { AvatarPoolAddress = _AvatarPoolAddress; }\r\n\r\n    function getStonePoolAddress() public view returns (address) { return StonePoolAddress; }\r\n    function setStonePoolAddress(address _StonePoolAddress) public onlyOwner { StonePoolAddress = _StonePoolAddress; }\r\n\r\n    function getWearablePoolAddress() public view returns (address) { return WearablePoolAddress; }\r\n    function setWearablePoolAddress(address _WearablePoolAddress) public onlyOwner { WearablePoolAddress = _WearablePoolAddress; }\r\n\r\n\r\n\r\n    /**\r\n        FUNCTIONS FOR MAKE ACTIONS\r\n     */\r\n    function setStone(uint256 avatarID, uint256 stoneID, uint256 stoneSlot) public \r\n        { internalStone(avatarID, stoneID, stoneSlot, true); }\r\n\r\n    function setWearables(uint256 avatarID, uint256 wearableID, uint256 wearableSlot) public \r\n        { internalWearables(avatarID, wearableID, wearableSlot, true); }\r\n\r\n\r\n    function removeStone(uint256 avatarID, uint256 stoneID, uint256 stoneSlot) public \r\n        { internalStone(avatarID, stoneID, stoneSlot, false); }\r\n\r\n    function removeWearables(uint256 avatarID, uint256 wearableID, uint256 wearableSlot) public \r\n        { internalWearables(avatarID, wearableID, wearableSlot, false); }\r\n\r\n\r\n    function getStoneInfo(uint256 avatarID, uint256 stoneSlot) public view returns (uint256) \r\n        { return AvatarPool(AvatarPoolAddress).getAvatarInfo(avatarID).stone[stoneSlot]; }\r\n    \r\n    function getWearableInfo(uint256 avatarID, uint256 wearableSlot) public view returns (uint256) \r\n        { return AvatarPool(AvatarPoolAddress).getAvatarInfo(avatarID).wearables[wearableSlot]; }\r\n\r\n\r\n\r\n\r\n\r\n    /**\r\n        INTERNAL \r\n     */\r\n    function internalStone(uint256 avatarID, uint256 stoneID, uint256 stoneSlot, bool boolSet) internal {\r\n        // TODO: Check the slot type. If the slot is predispoted to get this NFT\r\n        \r\n        // Check avatar condiction\r\n        require(AvatarPool(AvatarPoolAddress).ownerOfNFT(avatarID), \"You are not the avatar owner\");\r\n        require(AvatarPool(AvatarPoolAddress).getAvatarInfo(avatarID).stone[stoneSlot] == (boolSet ? 0 : stoneID), \"The slot has already been filled\");\r\n\r\n        // Check stone condiction\r\n        require(StonePool(StonePoolAddress).ownerOfNFT(stoneID), \"You are not the stone owner\");\r\n        \r\n        // Set datas to avatar\r\n        AvatarPool(AvatarPoolAddress).setAvatarInfo(avatarID, false, boolSet ? stoneID : 0, stoneSlot, 0, 0);\r\n    }\r\n\r\n    function internalWearables(uint256 avatarID, uint256 wearableID, uint256 wearableSlot, bool boolSet) internal {\r\n        // TODO: Check the slot type. If the slot is predispoted to get this NFT\r\n\r\n        // Check avatar condiction\r\n        require(AvatarPool(AvatarPoolAddress).ownerOfNFT(avatarID), \"You are not the avatar owner\");\r\n        require(AvatarPool(AvatarPoolAddress).getAvatarInfo(avatarID).wearables[wearableSlot] == (boolSet ? 0 : wearableID), \"The slot has already been filled\");\r\n\r\n        // Check stone condiction\r\n        require(WearablePool(WearablePoolAddress).ownerOfNFT(wearableID), \"You are not the wearable owner\");\r\n        \r\n        // Set datas to avatar\r\n        AvatarPool(AvatarPoolAddress).setAvatarInfo(avatarID, false, 0, 0, boolSet ? wearableID : 0, wearableSlot);\r\n    }\r\n\r\n}",
  "sourcePath": "D:\\Lavoro\\21_BJ\\21_BJ_SC\\contracts\\Avatar\\Services\\Actions.sol",
  "compiler": {
    "name": "solc",
    "version": "0.8.19+commit.7dd6d404.Emscripten.clang"
  },
  "schemaVersion": "3.4.15",
  "updatedAt": "2023-10-20T15:35:45.352Z",
  "devdoc": {
    "kind": "dev",
    "methods": {
      "owner()": {
        "details": "Returns the address of the current owner."
      },
      "renounceOwnership()": {
        "details": "Leaves the contract without owner. It will not be possible to call `onlyOwner` functions. Can only be called by the current owner. NOTE: Renouncing ownership will leave the contract without an owner, thereby disabling any functionality that is only available to the owner."
      },
      "transferOwnership(address)": {
        "details": "Transfers ownership of the contract to a new account (`newOwner`). Can only be called by the current owner."
      }
    },
    "version": 1
  },
  "userdoc": {
    "kind": "user",
    "methods": {
      "getAvatarPoolAddress()": {
        "notice": "SET & GET ADDRESS"
      },
      "setStone(uint256,uint256,uint256)": {
        "notice": "FUNCTIONS FOR MAKE ACTIONS"
      }
    },
    "version": 1
  }
}