{
  "contractName": "AvatarPool",
  "abi": [
    {
      "inputs": [
        {
          "internalType": "address",
          "name": "_NFTManagerAddress",
          "type": "address"
        },
        {
          "internalType": "address",
          "name": "_RandomChoiceAddress",
          "type": "address"
        },
        {
          "internalType": "string",
          "name": "_baseUri",
          "type": "string"
        }
      ],
      "stateMutability": "nonpayable",
      "type": "constructor"
    },
    {
      "anonymous": false,
      "inputs": [
        {
          "indexed": true,
          "internalType": "address",
          "name": "owner",
          "type": "address"
        },
        {
          "indexed": true,
          "internalType": "address",
          "name": "approved",
          "type": "address"
        },
        {
          "indexed": true,
          "internalType": "uint256",
          "name": "tokenId",
          "type": "uint256"
        }
      ],
      "name": "Approval",
      "type": "event"
    },
    {
      "anonymous": false,
      "inputs": [
        {
          "indexed": true,
          "internalType": "address",
          "name": "owner",
          "type": "address"
        },
        {
          "indexed": true,
          "internalType": "address",
          "name": "operator",
          "type": "address"
        },
        {
          "indexed": false,
          "internalType": "bool",
          "name": "approved",
          "type": "bool"
        }
      ],
      "name": "ApprovalForAll",
      "type": "event"
    },
    {
      "anonymous": false,
      "inputs": [
        {
          "indexed": false,
          "internalType": "uint256",
          "name": "_fromTokenId",
          "type": "uint256"
        },
        {
          "indexed": false,
          "internalType": "uint256",
          "name": "_toTokenId",
          "type": "uint256"
        }
      ],
      "name": "BatchMetadataUpdate",
      "type": "event"
    },
    {
      "anonymous": false,
      "inputs": [
        {
          "indexed": false,
          "internalType": "uint256",
          "name": "_tokenId",
          "type": "uint256"
        }
      ],
      "name": "MetadataUpdate",
      "type": "event"
    },
    {
      "anonymous": false,
      "inputs": [
        {
          "indexed": true,
          "internalType": "address",
          "name": "previousOwner",
          "type": "address"
        },
        {
          "indexed": true,
          "internalType": "address",
          "name": "newOwner",
          "type": "address"
        }
      ],
      "name": "OwnershipTransferred",
      "type": "event"
    },
    {
      "anonymous": false,
      "inputs": [
        {
          "indexed": true,
          "internalType": "address",
          "name": "from",
          "type": "address"
        },
        {
          "indexed": true,
          "internalType": "address",
          "name": "to",
          "type": "address"
        },
        {
          "indexed": true,
          "internalType": "uint256",
          "name": "tokenId",
          "type": "uint256"
        }
      ],
      "name": "Transfer",
      "type": "event"
    },
    {
      "inputs": [
        {
          "internalType": "uint256",
          "name": "",
          "type": "uint256"
        }
      ],
      "name": "AvatarList",
      "outputs": [
        {
          "internalType": "string",
          "name": "name",
          "type": "string"
        },
        {
          "internalType": "uint256",
          "name": "id",
          "type": "uint256"
        },
        {
          "internalType": "uint256",
          "name": "level",
          "type": "uint256"
        },
        {
          "internalType": "uint256",
          "name": "ar",
          "type": "uint256"
        },
        {
          "internalType": "bool",
          "name": "alreadyMinted",
          "type": "bool"
        }
      ],
      "stateMutability": "view",
      "type": "function"
    },
    {
      "inputs": [
        {
          "internalType": "uint256",
          "name": "",
          "type": "uint256"
        },
        {
          "internalType": "uint256",
          "name": "",
          "type": "uint256"
        }
      ],
      "name": "AvatarMatrixForSeason",
      "outputs": [
        {
          "internalType": "uint256",
          "name": "quantity",
          "type": "uint256"
        },
        {
          "internalType": "uint256",
          "name": "cost",
          "type": "uint256"
        }
      ],
      "stateMutability": "view",
      "type": "function"
    },
    {
      "inputs": [
        {
          "internalType": "uint256",
          "name": "",
          "type": "uint256"
        },
        {
          "internalType": "uint256",
          "name": "",
          "type": "uint256"
        },
        {
          "internalType": "uint256",
          "name": "",
          "type": "uint256"
        }
      ],
      "name": "AvatarRarityMatrix",
      "outputs": [
        {
          "internalType": "uint256",
          "name": "",
          "type": "uint256"
        }
      ],
      "stateMutability": "view",
      "type": "function"
    },
    {
      "inputs": [
        {
          "internalType": "address",
          "name": "to",
          "type": "address"
        },
        {
          "internalType": "uint256",
          "name": "tokenId",
          "type": "uint256"
        }
      ],
      "name": "approve",
      "outputs": [],
      "stateMutability": "nonpayable",
      "type": "function"
    },
    {
      "inputs": [
        {
          "internalType": "address",
          "name": "owner",
          "type": "address"
        }
      ],
      "name": "balanceOf",
      "outputs": [
        {
          "internalType": "uint256",
          "name": "",
          "type": "uint256"
        }
      ],
      "stateMutability": "view",
      "type": "function"
    },
    {
      "inputs": [
        {
          "internalType": "uint256",
          "name": "_tokenId",
          "type": "uint256"
        }
      ],
      "name": "existNFT",
      "outputs": [
        {
          "internalType": "bool",
          "name": "",
          "type": "bool"
        }
      ],
      "stateMutability": "view",
      "type": "function"
    },
    {
      "inputs": [],
      "name": "getActionAddress",
      "outputs": [
        {
          "internalType": "address",
          "name": "",
          "type": "address"
        }
      ],
      "stateMutability": "view",
      "type": "function"
    },
    {
      "inputs": [
        {
          "internalType": "uint256",
          "name": "tokenId",
          "type": "uint256"
        }
      ],
      "name": "getApproved",
      "outputs": [
        {
          "internalType": "address",
          "name": "",
          "type": "address"
        }
      ],
      "stateMutability": "view",
      "type": "function"
    },
    {
      "inputs": [],
      "name": "getBaseUri",
      "outputs": [
        {
          "internalType": "string",
          "name": "",
          "type": "string"
        }
      ],
      "stateMutability": "view",
      "type": "function"
    },
    {
      "inputs": [],
      "name": "getNFTManagerAddress",
      "outputs": [
        {
          "internalType": "address",
          "name": "",
          "type": "address"
        }
      ],
      "stateMutability": "view",
      "type": "function"
    },
    {
      "inputs": [],
      "name": "getRandomChoiceAddress",
      "outputs": [
        {
          "internalType": "address",
          "name": "",
          "type": "address"
        }
      ],
      "stateMutability": "view",
      "type": "function"
    },
    {
      "inputs": [
        {
          "internalType": "address",
          "name": "owner",
          "type": "address"
        },
        {
          "internalType": "address",
          "name": "operator",
          "type": "address"
        }
      ],
      "name": "isApprovedForAll",
      "outputs": [
        {
          "internalType": "bool",
          "name": "",
          "type": "bool"
        }
      ],
      "stateMutability": "view",
      "type": "function"
    },
    {
      "inputs": [],
      "name": "name",
      "outputs": [
        {
          "internalType": "string",
          "name": "",
          "type": "string"
        }
      ],
      "stateMutability": "view",
      "type": "function"
    },
    {
      "inputs": [],
      "name": "owner",
      "outputs": [
        {
          "internalType": "address",
          "name": "",
          "type": "address"
        }
      ],
      "stateMutability": "view",
      "type": "function"
    },
    {
      "inputs": [
        {
          "internalType": "uint256",
          "name": "tokenId",
          "type": "uint256"
        }
      ],
      "name": "ownerOf",
      "outputs": [
        {
          "internalType": "address",
          "name": "",
          "type": "address"
        }
      ],
      "stateMutability": "view",
      "type": "function"
    },
    {
      "inputs": [
        {
          "internalType": "uint256",
          "name": "_tokenId",
          "type": "uint256"
        }
      ],
      "name": "ownerOfNFT",
      "outputs": [
        {
          "internalType": "bool",
          "name": "",
          "type": "bool"
        }
      ],
      "stateMutability": "view",
      "type": "function"
    },
    {
      "inputs": [],
      "name": "renounceOwnership",
      "outputs": [],
      "stateMutability": "nonpayable",
      "type": "function"
    },
    {
      "inputs": [
        {
          "internalType": "address",
          "name": "from",
          "type": "address"
        },
        {
          "internalType": "address",
          "name": "to",
          "type": "address"
        },
        {
          "internalType": "uint256",
          "name": "tokenId",
          "type": "uint256"
        }
      ],
      "name": "safeTransferFrom",
      "outputs": [],
      "stateMutability": "nonpayable",
      "type": "function"
    },
    {
      "inputs": [
        {
          "internalType": "address",
          "name": "from",
          "type": "address"
        },
        {
          "internalType": "address",
          "name": "to",
          "type": "address"
        },
        {
          "internalType": "uint256",
          "name": "tokenId",
          "type": "uint256"
        },
        {
          "internalType": "bytes",
          "name": "data",
          "type": "bytes"
        }
      ],
      "name": "safeTransferFrom",
      "outputs": [],
      "stateMutability": "nonpayable",
      "type": "function"
    },
    {
      "inputs": [
        {
          "internalType": "address",
          "name": "_ActionAddress",
          "type": "address"
        }
      ],
      "name": "setActionAddress",
      "outputs": [],
      "stateMutability": "nonpayable",
      "type": "function"
    },
    {
      "inputs": [
        {
          "internalType": "address",
          "name": "operator",
          "type": "address"
        },
        {
          "internalType": "bool",
          "name": "approved",
          "type": "bool"
        }
      ],
      "name": "setApprovalForAll",
      "outputs": [],
      "stateMutability": "nonpayable",
      "type": "function"
    },
    {
      "inputs": [
        {
          "internalType": "string",
          "name": "_baseUri",
          "type": "string"
        }
      ],
      "name": "setBaseURI",
      "outputs": [],
      "stateMutability": "nonpayable",
      "type": "function"
    },
    {
      "inputs": [
        {
          "internalType": "string",
          "name": "_baseUri",
          "type": "string"
        }
      ],
      "name": "setBaseUri",
      "outputs": [],
      "stateMutability": "nonpayable",
      "type": "function"
    },
    {
      "inputs": [
        {
          "internalType": "address",
          "name": "_NFTManagerAddress",
          "type": "address"
        }
      ],
      "name": "setNFTManagerAddress",
      "outputs": [],
      "stateMutability": "nonpayable",
      "type": "function"
    },
    {
      "inputs": [
        {
          "internalType": "address",
          "name": "_RandomChoiceAddress",
          "type": "address"
        }
      ],
      "name": "setRandomChoiceAddress",
      "outputs": [],
      "stateMutability": "nonpayable",
      "type": "function"
    },
    {
      "inputs": [
        {
          "internalType": "bytes4",
          "name": "interfaceId",
          "type": "bytes4"
        }
      ],
      "name": "supportsInterface",
      "outputs": [
        {
          "internalType": "bool",
          "name": "",
          "type": "bool"
        }
      ],
      "stateMutability": "view",
      "type": "function"
    },
    {
      "inputs": [],
      "name": "symbol",
      "outputs": [
        {
          "internalType": "string",
          "name": "",
          "type": "string"
        }
      ],
      "stateMutability": "view",
      "type": "function"
    },
    {
      "inputs": [
        {
          "internalType": "uint256",
          "name": "index",
          "type": "uint256"
        }
      ],
      "name": "tokenByIndex",
      "outputs": [
        {
          "internalType": "uint256",
          "name": "",
          "type": "uint256"
        }
      ],
      "stateMutability": "view",
      "type": "function"
    },
    {
      "inputs": [
        {
          "internalType": "address",
          "name": "owner",
          "type": "address"
        },
        {
          "internalType": "uint256",
          "name": "index",
          "type": "uint256"
        }
      ],
      "name": "tokenOfOwnerByIndex",
      "outputs": [
        {
          "internalType": "uint256",
          "name": "",
          "type": "uint256"
        }
      ],
      "stateMutability": "view",
      "type": "function"
    },
    {
      "inputs": [
        {
          "internalType": "uint256",
          "name": "tokenId",
          "type": "uint256"
        }
      ],
      "name": "tokenURI",
      "outputs": [
        {
          "internalType": "string",
          "name": "",
          "type": "string"
        }
      ],
      "stateMutability": "view",
      "type": "function"
    },
    {
      "inputs": [],
      "name": "totalSupply",
      "outputs": [
        {
          "internalType": "uint256",
          "name": "",
          "type": "uint256"
        }
      ],
      "stateMutability": "view",
      "type": "function"
    },
    {
      "inputs": [
        {
          "internalType": "address",
          "name": "from",
          "type": "address"
        },
        {
          "internalType": "address",
          "name": "to",
          "type": "address"
        },
        {
          "internalType": "uint256",
          "name": "tokenId",
          "type": "uint256"
        }
      ],
      "name": "transferFrom",
      "outputs": [],
      "stateMutability": "nonpayable",
      "type": "function"
    },
    {
      "inputs": [
        {
          "internalType": "address",
          "name": "from",
          "type": "address"
        },
        {
          "internalType": "address",
          "name": "_to",
          "type": "address"
        },
        {
          "internalType": "uint256",
          "name": "_tokenId",
          "type": "uint256"
        }
      ],
      "name": "transferNFT",
      "outputs": [],
      "stateMutability": "nonpayable",
      "type": "function"
    },
    {
      "inputs": [
        {
          "internalType": "address",
          "name": "newOwner",
          "type": "address"
        }
      ],
      "name": "transferOwnership",
      "outputs": [],
      "stateMutability": "nonpayable",
      "type": "function"
    },
    {
      "inputs": [
        {
          "internalType": "uint256",
          "name": "tokenRarity",
          "type": "uint256"
        },
        {
          "internalType": "uint256",
          "name": "seasonKey",
          "type": "uint256"
        },
        {
          "internalType": "address",
          "name": "to",
          "type": "address"
        },
        {
          "internalType": "string",
          "name": "name",
          "type": "string"
        }
      ],
      "name": "mintingPrivate",
      "outputs": [
        {
          "internalType": "bool",
          "name": "",
          "type": "bool"
        }
      ],
      "stateMutability": "nonpayable",
      "type": "function"
    },
    {
      "inputs": [
        {
          "internalType": "uint256",
          "name": "avatartID",
          "type": "uint256"
        }
      ],
      "name": "getAvatarInfo",
      "outputs": [
        {
          "components": [
            {
              "internalType": "string",
              "name": "name",
              "type": "string"
            },
            {
              "internalType": "uint256",
              "name": "id",
              "type": "uint256"
            },
            {
              "internalType": "uint256",
              "name": "level",
              "type": "uint256"
            },
            {
              "internalType": "uint256",
              "name": "ar",
              "type": "uint256"
            },
            {
              "internalType": "uint256[5]",
              "name": "stoneType",
              "type": "uint256[5]"
            },
            {
              "internalType": "uint256[5]",
              "name": "stone",
              "type": "uint256[5]"
            },
            {
              "internalType": "uint256[3]",
              "name": "wearables",
              "type": "uint256[3]"
            },
            {
              "internalType": "bool",
              "name": "alreadyMinted",
              "type": "bool"
            }
          ],
          "internalType": "struct BaseStructs.Avatar",
          "name": "",
          "type": "tuple"
        }
      ],
      "stateMutability": "view",
      "type": "function"
    },
    {
      "inputs": [
        {
          "internalType": "uint256",
          "name": "bIDC",
          "type": "uint256"
        },
        {
          "internalType": "bool",
          "name": "lv",
          "type": "bool"
        },
        {
          "internalType": "uint256",
          "name": "st",
          "type": "uint256"
        },
        {
          "internalType": "uint256",
          "name": "stInd",
          "type": "uint256"
        },
        {
          "internalType": "uint256",
          "name": "wr",
          "type": "uint256"
        },
        {
          "internalType": "uint256",
          "name": "wrInd",
          "type": "uint256"
        }
      ],
      "name": "setAvatarInfo",
      "outputs": [],
      "stateMutability": "nonpayable",
      "type": "function"
    },
    {
      "inputs": [
        {
          "internalType": "uint256",
          "name": "seasonID",
          "type": "uint256"
        },
        {
          "internalType": "uint256",
          "name": "rt",
          "type": "uint256"
        },
        {
          "internalType": "uint256",
          "name": "_quantity",
          "type": "uint256"
        },
        {
          "internalType": "uint256",
          "name": "_cost",
          "type": "uint256"
        }
      ],
      "name": "setAvatarPoolInfo",
      "outputs": [],
      "stateMutability": "nonpayable",
      "type": "function"
    },
    {
      "inputs": [
        {
          "internalType": "uint256",
          "name": "seasonID",
          "type": "uint256"
        },
        {
          "internalType": "uint256",
          "name": "rarityColon",
          "type": "uint256"
        }
      ],
      "name": "getAvatarPoolInfo",
      "outputs": [
        {
          "components": [
            {
              "internalType": "uint256",
              "name": "quantity",
              "type": "uint256"
            },
            {
              "internalType": "uint256",
              "name": "cost",
              "type": "uint256"
            }
          ],
          "internalType": "struct BaseStructs.NFTPoolInfo",
          "name": "",
          "type": "tuple"
        }
      ],
      "stateMutability": "view",
      "type": "function"
    },
    {
      "inputs": [
        {
          "internalType": "uint256",
          "name": "seasonID",
          "type": "uint256"
        }
      ],
      "name": "PoolIsEmpty",
      "outputs": [
        {
          "internalType": "bool",
          "name": "poolIsEmpty",
          "type": "bool"
        }
      ],
      "stateMutability": "view",
      "type": "function"
    },
    {
      "inputs": [
        {
          "internalType": "uint256",
          "name": "r1",
          "type": "uint256"
        },
        {
          "internalType": "uint256",
          "name": "r2",
          "type": "uint256"
        },
        {
          "internalType": "uint256[]",
          "name": "br",
          "type": "uint256[]"
        }
      ],
      "name": "setAvatarRarity",
      "outputs": [],
      "stateMutability": "nonpayable",
      "type": "function"
    },
    {
      "inputs": [
        {
          "internalType": "uint256",
          "name": "r1",
          "type": "uint256"
        },
        {
          "internalType": "uint256",
          "name": "r2",
          "type": "uint256"
        }
      ],
      "name": "getAvatarRarity",
      "outputs": [
        {
          "internalType": "uint256[]",
          "name": "rb",
          "type": "uint256[]"
        }
      ],
      "stateMutability": "view",
      "type": "function"
    },
    {
      "inputs": [
        {
          "internalType": "uint256",
          "name": "r1",
          "type": "uint256"
        },
        {
          "internalType": "uint256",
          "name": "r2",
          "type": "uint256"
        }
      ],
      "name": "getRarityForMinting",
      "outputs": [
        {
          "internalType": "uint256",
          "name": "rt",
          "type": "uint256"
        }
      ],
      "stateMutability": "nonpayable",
      "type": "function"
    }
  ],
  "bytecode": "0x60806040523480156200001157600080fd5b506040516200610e3803806200610e83398181016040528101906200003791906200045e565b8282826040518060400160405280600681526020017f41766174617200000000000000000000000000000000000000000000000000008152506040518060400160405280600481526020017f415654520000000000000000000000000000000000000000000000000000000081525081818160009081620000b9919062000724565b508060019081620000cb919062000724565b505050620000ee620000e26200019860201b60201c565b620001a060201b60201c565b84600c60006101000a81548173ffffffffffffffffffffffffffffffffffffffff021916908373ffffffffffffffffffffffffffffffffffffffff16021790555083600d60006101000a81548173ffffffffffffffffffffffffffffffffffffffff021916908373ffffffffffffffffffffffffffffffffffffffff16021790555082600f908162000181919062000724565b50505050505060016013819055505050506200080b565b600033905090565b6000600b60009054906101000a900473ffffffffffffffffffffffffffffffffffffffff16905081600b60006101000a81548173ffffffffffffffffffffffffffffffffffffffff021916908373ffffffffffffffffffffffffffffffffffffffff1602179055508173ffffffffffffffffffffffffffffffffffffffff168173ffffffffffffffffffffffffffffffffffffffff167f8be0079c531659141344cd1fd0a4f28419497f9722a3daafe3b4186f6b6457e060405160405180910390a35050565b6000604051905090565b600080fd5b600080fd5b600073ffffffffffffffffffffffffffffffffffffffff82169050919050565b6000620002a7826200027a565b9050919050565b620002b9816200029a565b8114620002c557600080fd5b50565b600081519050620002d981620002ae565b92915050565b600080fd5b600080fd5b6000601f19601f8301169050919050565b7f4e487b7100000000000000000000000000000000000000000000000000000000600052604160045260246000fd5b6200033482620002e9565b810181811067ffffffffffffffff82111715620003565762000355620002fa565b5b80604052505050565b60006200036b62000266565b905062000379828262000329565b919050565b600067ffffffffffffffff8211156200039c576200039b620002fa565b5b620003a782620002e9565b9050602081019050919050565b60005b83811015620003d4578082015181840152602081019050620003b7565b60008484015250505050565b6000620003f7620003f1846200037e565b6200035f565b905082815260208101848484011115620004165762000415620002e4565b5b62000423848285620003b4565b509392505050565b600082601f830112620004435762000442620002df565b5b815162000455848260208601620003e0565b91505092915050565b6000806000606084860312156200047a576200047962000270565b5b60006200048a86828701620002c8565b93505060206200049d86828701620002c8565b925050604084015167ffffffffffffffff811115620004c157620004c062000275565b5b620004cf868287016200042b565b9150509250925092565b600081519050919050565b7f4e487b7100000000000000000000000000000000000000000000000000000000600052602260045260246000fd5b600060028204905060018216806200052c57607f821691505b602082108103620005425762000541620004e4565b5b50919050565b60008190508160005260206000209050919050565b60006020601f8301049050919050565b600082821b905092915050565b600060088302620005ac7fffffffffffffffffffffffffffffffffffffffffffffffffffffffffffffffff826200056d565b620005b886836200056d565b95508019841693508086168417925050509392505050565b6000819050919050565b6000819050919050565b600062000605620005ff620005f984620005d0565b620005da565b620005d0565b9050919050565b6000819050919050565b6200062183620005e4565b6200063962000630826200060c565b8484546200057a565b825550505050565b600090565b6200065062000641565b6200065d81848462000616565b505050565b5b8181101562000685576200067960008262000646565b60018101905062000663565b5050565b601f821115620006d4576200069e8162000548565b620006a9846200055d565b81016020851015620006b9578190505b620006d1620006c8856200055d565b83018262000662565b50505b505050565b600082821c905092915050565b6000620006f960001984600802620006d9565b1980831691505092915050565b6000620007148383620006e6565b9150826002028217905092915050565b6200072f82620004d9565b67ffffffffffffffff8111156200074b576200074a620002fa565b5b62000757825462000513565b6200076482828562000689565b600060209050601f8311600181146200079c576000841562000787578287015190505b62000793858262000706565b86555062000803565b601f198416620007ac8662000548565b60005b82811015620007d657848901518255600182019150602085019450602081019050620007af565b86831015620007f65784890151620007f2601f891682620006e6565b8355505b6001600288020188555050505b505050505050565b6158f3806200081b6000396000f3fe608060405234801561001057600080fd5b50600436106102695760003560e01c806371325df911610151578063a833ef6c116100c3578063c87b56dd11610087578063c87b56dd146107a9578063e985e9c5146107d9578063eecf09d314610809578063f2fde38b14610839578063f458e27c14610855578063fc2a9ea61461088557610269565b8063a833ef6c146106dc578063a95a78c81461070d578063ab2c1b6514610741578063b6408b5f1461075d578063b88d4fde1461078d57610269565b80638da5cb5b116101155780638da5cb5b1461062e57806395d89b411461064c5780639e056ce91461066a578063a0bcfc7f14610686578063a22cb465146106a2578063a510123f146106be57610269565b806371325df91461058a578063715018a6146105a6578063793834f3146105b057806382036850146105e0578063876ffe1e1461061057610269565b80632f745c59116101ea5780634f6ccce7116101ae5780634f6ccce7146104a457806355f804b3146104d45780636352211e146104f057806368f3f6dc1461052057806369e9cae11461053e57806370a082311461055a57610269565b80632f745c59146103dc5780633ae13fd01461040c57806342842e0e1461043c57806343a92f24146104585780634d26806e1461048857610269565b80630cac36b2116102315780630cac36b21461033857806318160ddd1461035657806323b872dd1461037457806324926eff146103905780632d8a746e146103ac57610269565b8063013120ef1461026e57806301ffc9a71461029e57806306fdde03146102ce578063081812fc146102ec578063095ea7b31461031c575b600080fd5b61028860048036038101906102839190613867565b6108a1565b60405161029591906138e5565b60405180910390f35b6102b860048036038101906102b39190613958565b6108f4565b6040516102c591906139a0565b60405180910390f35b6102d6610906565b6040516102e39190613a4b565b60405180910390f35b61030660048036038101906103019190613a6d565b610998565b6040516103139190613adb565b60405180910390f35b61033660048036038101906103319190613b22565b6109de565b005b610340610af5565b60405161034d9190613a4b565b60405180910390f35b61035e610b87565b60405161036b9190613b71565b60405180910390f35b61038e60048036038101906103899190613b8c565b610b94565b005b6103aa60048036038101906103a59190613c0b565b610bf4565b005b6103c660048036038101906103c19190613a6d565b610d14565b6040516103d391906139a0565b60405180910390f35b6103f660048036038101906103f19190613b22565b610d54565b6040516104039190613b71565b60405180910390f35b61042660048036038101906104219190613dcd565b610df9565b60405161043391906139a0565b60405180910390f35b61045660048036038101906104519190613b8c565b611044565b005b610472600480360381019061046d9190613a6d565b611064565b60405161047f919061407c565b60405180910390f35b6104a2600480360381019061049d919061409e565b61122c565b005b6104be60048036038101906104b99190613a6d565b6113b7565b6040516104cb9190613b71565b60405180910390f35b6104ee60048036038101906104e99190614105565b611428565b005b61050a60048036038101906105059190613a6d565b611443565b6040516105179190613adb565b60405180910390f35b6105286114c9565b6040516105359190613adb565b60405180910390f35b61055860048036038101906105539190613b8c565b6114f3565b005b610574600480360381019061056f919061414e565b6115c1565b6040516105819190613b71565b60405180910390f35b6105a4600480360381019061059f9190614243565b611678565b005b6105ae6116be565b005b6105ca60048036038101906105c59190613867565b6116d2565b6040516105d79190614349565b60405180910390f35b6105fa60048036038101906105f59190613a6d565b61174f565b60405161060791906139a0565b60405180910390f35b610618611761565b6040516106259190613adb565b60405180910390f35b61063661178b565b6040516106439190613adb565b60405180910390f35b6106546117b5565b6040516106619190613a4b565b60405180910390f35b610684600480360381019061067f919061414e565b611847565b005b6106a0600480360381019061069b9190614105565b611893565b005b6106bc60048036038101906106b7919061436b565b6118ae565b005b6106c66118c4565b6040516106d39190613adb565b60405180910390f35b6106f660048036038101906106f19190613867565b6118ee565b6040516107049291906143ab565b60405180910390f35b61072760048036038101906107229190613a6d565b61191f565b6040516107389594939291906143d4565b60405180910390f35b61075b6004803603810190610756919061414e565b6119ea565b005b6107776004803603810190610772919061442e565b611a36565b6040516107849190613b71565b60405180910390f35b6107a760048036038101906107a29190614522565b611a74565b005b6107c360048036038101906107be9190613a6d565b611ad6565b6040516107d09190613a4b565b60405180910390f35b6107f360048036038101906107ee91906145a5565b611ae8565b60405161080091906139a0565b60405180910390f35b610823600480360381019061081e9190613867565b611b7c565b6040516108309190613b71565b60405180910390f35b610853600480360381019061084e919061414e565b611c8a565b005b61086f600480360381019061086a9190613a6d565b611d0d565b60405161087c91906139a0565b60405180910390f35b61089f600480360381019061089a919061414e565b611e92565b005b6108a96136bc565b60116000848152602001908152602001600020600083815260200190815260200160002060405180604001604052908160008201548152602001600182015481525050905092915050565b60006108ff82611ede565b9050919050565b60606000805461091590614614565b80601f016020809104026020016040519081016040528092919081815260200182805461094190614614565b801561098e5780601f106109635761010080835404028352916020019161098e565b820191906000526020600020905b81548152906001019060200180831161097157829003601f168201915b5050505050905090565b60006109a382611f3f565b6004600083815260200190815260200160002060009054906101000a900473ffffffffffffffffffffffffffffffffffffffff169050919050565b60006109e982611443565b90508073ffffffffffffffffffffffffffffffffffffffff168373ffffffffffffffffffffffffffffffffffffffff1603610a59576040517f08c379a0000000000000000000000000000000000000000000000000000000008152600401610a50906146b7565b60405180910390fd5b8073ffffffffffffffffffffffffffffffffffffffff16610a78611f8a565b73ffffffffffffffffffffffffffffffffffffffff161480610aa75750610aa681610aa1611f8a565b611ae8565b5b610ae6576040517f08c379a0000000000000000000000000000000000000000000000000000000008152600401610add90614749565b60405180910390fd5b610af08383611f92565b505050565b6060600f8054610b0490614614565b80601f0160208091040260200160405190810160405280929190818152602001828054610b3090614614565b8015610b7d5780601f10610b5257610100808354040283529160200191610b7d565b820191906000526020600020905b815481529060010190602001808311610b6057829003601f168201915b5050505050905090565b6000600880549050905090565b610ba5610b9f611f8a565b8261204b565b610be4576040517f08c379a0000000000000000000000000000000000000000000000000000000008152600401610bdb906147db565b60405180910390fd5b610bef8383836120e0565b505050565b610bfc6114c9565b73ffffffffffffffffffffffffffffffffffffffff163373ffffffffffffffffffffffffffffffffffffffff1614610c69576040517f08c379a0000000000000000000000000000000000000000000000000000000008152600401610c6090614847565b60405180910390fd5b8415610c9e576001601060008881526020019081526020016000206002016000828254610c969190614896565b925050819055505b60008403610cd55783601060008881526020019081526020016000206009018460058110610ccf57610cce6148ca565b5b01819055505b60008403610d0c578160106000888152602001908152602001600020600e018260038110610d0657610d056148ca565b5b01819055505b505050505050565b60003373ffffffffffffffffffffffffffffffffffffffff16610d3683611443565b73ffffffffffffffffffffffffffffffffffffffff16149050919050565b6000610d5f836115c1565b8210610da0576040517f08c379a0000000000000000000000000000000000000000000000000000000008152600401610d979061496b565b60405180910390fd5b600660008473ffffffffffffffffffffffffffffffffffffffff1673ffffffffffffffffffffffffffffffffffffffff168152602001908152602001600020600083815260200190815260200160002054905092915050565b6000610e03611761565b73ffffffffffffffffffffffffffffffffffffffff163373ffffffffffffffffffffffffffffffffffffffff1614610e70576040517f08c379a0000000000000000000000000000000000000000000000000000000008152600401610e67906149d7565b60405180910390fd5b6000610e7c85876108a1565b6000015111610ec0576040517f08c379a0000000000000000000000000000000000000000000000000000000008152600401610eb790614a69565b60405180910390fd5b600060136000815480929190610ed590614a89565b91905055905082601060008381526020019081526020016000206000019081610efe9190614c7d565b5080601060008381526020019081526020016000206001018190555060006010600083815260200190815260200160002060020181905550856010600083815260200190815260200160002060030181905550610f596118c4565b73ffffffffffffffffffffffffffffffffffffffff1663b88b00d260056040518263ffffffff1660e01b8152600401610f929190614d8a565b60a0604051808303816000875af1158015610fb1573d6000803e3d6000fd5b505050506040513d601f19601f82011682018060405250810190610fd59190614e6b565b60106000838152602001908152602001600020600401906005610ff99291906136d6565b5061100484826123d9565b6110378184611012846123f7565b604051602001611023929190614ed4565b6040516020818303038152906040526124c5565b6001915050949350505050565b61105f83838360405180602001604052806000815250611a74565b505050565b61106c613716565b601060008381526020019081526020016000206040518061010001604052908160008201805461109b90614614565b80601f01602080910402602001604051908101604052809291908181526020018280546110c790614614565b80156111145780601f106110e957610100808354040283529160200191611114565b820191906000526020600020905b8154815290600101906020018083116110f757829003601f168201915b5050505050815260200160018201548152602001600282015481526020016003820154815260200160048201600580602002604051908101604052809291908260058015611177576020028201915b815481526020019060010190808311611163575b50505050508152602001600982016005806020026040519081016040528092919082600580156111bc576020028201915b8154815260200190600101908083116111a8575b50505050508152602001600e8201600380602002604051908101604052809291908260038015611201576020028201915b8154815260200190600101908083116111ed575b505050505081526020016011820160009054906101000a900460ff1615151515815250509050919050565b611234612569565b61123c61178b565b73ffffffffffffffffffffffffffffffffffffffff163373ffffffffffffffffffffffffffffffffffffffff1614806112a057503073ffffffffffffffffffffffffffffffffffffffff163373ffffffffffffffffffffffffffffffffffffffff16145b806112dd57506112ae611761565b73ffffffffffffffffffffffffffffffffffffffff163373ffffffffffffffffffffffffffffffffffffffff16145b8061131a57506112eb6114c9565b73ffffffffffffffffffffffffffffffffffffffff163373ffffffffffffffffffffffffffffffffffffffff16145b611359576040517f08c379a000000000000000000000000000000000000000000000000000000000815260040161135090614847565b60405180910390fd5b8160116000868152602001908152602001600020600085815260200190815260200160002060000181905550806011600086815260200190815260200160002060008581526020019081526020016000206001018190555050505050565b60006113c1610b87565b8210611402576040517f08c379a00000000000000000000000000000000000000000000000000000000081526004016113f990614f6a565b60405180910390fd5b60088281548110611416576114156148ca565b5b90600052602060002001549050919050565b611430612569565b80600f908161143f9190614c7d565b5050565b60008061144f836125e7565b9050600073ffffffffffffffffffffffffffffffffffffffff168173ffffffffffffffffffffffffffffffffffffffff16036114c0576040517f08c379a00000000000000000000000000000000000000000000000000000000081526004016114b790614fd6565b60405180910390fd5b80915050919050565b6000600e60009054906101000a900473ffffffffffffffffffffffffffffffffffffffff16905090565b6114fc81612624565b61153b576040517f08c379a000000000000000000000000000000000000000000000000000000000815260040161153290615042565b60405180910390fd5b3373ffffffffffffffffffffffffffffffffffffffff1661155b82611443565b73ffffffffffffffffffffffffffffffffffffffff16146115b1576040517f08c379a00000000000000000000000000000000000000000000000000000000081526004016115a8906150d4565b60405180910390fd5b6115bc838383611044565b505050565b60008073ffffffffffffffffffffffffffffffffffffffff168273ffffffffffffffffffffffffffffffffffffffff1603611631576040517f08c379a000000000000000000000000000000000000000000000000000000000815260040161162890615166565b60405180910390fd5b600360008373ffffffffffffffffffffffffffffffffffffffff1673ffffffffffffffffffffffffffffffffffffffff168152602001908152602001600020549050919050565b611680612569565b8060126000858152602001908152602001600020600084815260200190815260200160002090805190602001906116b892919061376f565b50505050565b6116c6612569565b6116d06000612665565b565b606060126000848152602001908152602001600020600083815260200190815260200160002080548060200260200160405190810160405280929190818152602001828054801561174257602002820191906000526020600020905b81548152602001906001019080831161172e575b5050505050905092915050565b600061175a82612624565b9050919050565b6000600c60009054906101000a900473ffffffffffffffffffffffffffffffffffffffff16905090565b6000600b60009054906101000a900473ffffffffffffffffffffffffffffffffffffffff16905090565b6060600180546117c490614614565b80601f01602080910402602001604051908101604052809291908181526020018280546117f090614614565b801561183d5780601f106118125761010080835404028352916020019161183d565b820191906000526020600020905b81548152906001019060200180831161182057829003601f168201915b5050505050905090565b61184f612569565b80600e60006101000a81548173ffffffffffffffffffffffffffffffffffffffff021916908373ffffffffffffffffffffffffffffffffffffffff16021790555050565b61189b612569565b80600f90816118aa9190614c7d565b5050565b6118c06118b9611f8a565b838361272b565b5050565b6000600d60009054906101000a900473ffffffffffffffffffffffffffffffffffffffff16905090565b6011602052816000526040600020602052806000526040600020600091509150508060000154908060010154905082565b601060205280600052604060002060009150905080600001805461194290614614565b80601f016020809104026020016040519081016040528092919081815260200182805461196e90614614565b80156119bb5780601f10611990576101008083540402835291602001916119bb565b820191906000526020600020905b81548152906001019060200180831161199e57829003601f168201915b5050505050908060010154908060020154908060030154908060110160009054906101000a900460ff16905085565b6119f2612569565b80600d60006101000a81548173ffffffffffffffffffffffffffffffffffffffff021916908373ffffffffffffffffffffffffffffffffffffffff16021790555050565b60126020528260005260406000206020528160005260406000208181548110611a5e57600080fd5b9060005260206000200160009250925050505481565b611a85611a7f611f8a565b8361204b565b611ac4576040517f08c379a0000000000000000000000000000000000000000000000000000000008152600401611abb906147db565b60405180910390fd5b611ad084848484612897565b50505050565b6060611ae1826128f3565b9050919050565b6000600560008473ffffffffffffffffffffffffffffffffffffffff1673ffffffffffffffffffffffffffffffffffffffff16815260200190815260200160002060008373ffffffffffffffffffffffffffffffffffffffff1673ffffffffffffffffffffffffffffffffffffffff16815260200190815260200160002060009054906101000a900460ff16905092915050565b600080611b8984846116d2565b905060005b81518103611b9b57600090505b6000828281518110611bb057611baf6148ca565b5b602002602001015114158015611c625750611bc96118c4565b73ffffffffffffffffffffffffffffffffffffffff1663726ff2ef838381518110611bf757611bf66148ca565b5b602002602001015160646040518363ffffffff1660e01b8152600401611c1e9291906151c1565b6020604051808303816000875af1158015611c3d573d6000803e3d6000fd5b505050506040513d601f19601f82011682018060405250810190611c6191906151ff565b5b15611c6f57809250611c82565b8080611c7a90614a89565b915050611b8e565b505092915050565b611c92612569565b600073ffffffffffffffffffffffffffffffffffffffff168173ffffffffffffffffffffffffffffffffffffffff1603611d01576040517f08c379a0000000000000000000000000000000000000000000000000000000008152600401611cf89061529e565b60405180910390fd5b611d0a81612665565b50565b6000611d17611761565b73ffffffffffffffffffffffffffffffffffffffff163373ffffffffffffffffffffffffffffffffffffffff1614611d84576040517f08c379a0000000000000000000000000000000000000000000000000000000008152600401611d7b906149d7565b60405180910390fd5b60019050600060116000848152602001908152602001600020600080815260200190815260200160002060000154118015611de7575060006011600084815260200190815260200160002060006001815260200190815260200160002060000154115b8015611e1b575060006011600084815260200190815260200160002060006002815260200190815260200160002060000154115b8015611e4f575060006011600084815260200190815260200160002060006003815260200190815260200160002060000154115b8015611e83575060006011600084815260200190815260200160002060006004815260200190815260200160002060000154115b15611e8d57600090505b919050565b611e9a612569565b80600c60006101000a81548173ffffffffffffffffffffffffffffffffffffffff021916908373ffffffffffffffffffffffffffffffffffffffff16021790555050565b6000634906490660e01b7bffffffffffffffffffffffffffffffffffffffffffffffffffffffff1916827bffffffffffffffffffffffffffffffffffffffffffffffffffffffff19161480611f385750611f3782612a05565b5b9050919050565b611f4881612624565b611f87576040517f08c379a0000000000000000000000000000000000000000000000000000000008152600401611f7e90614fd6565b60405180910390fd5b50565b600033905090565b816004600083815260200190815260200160002060006101000a81548173ffffffffffffffffffffffffffffffffffffffff021916908373ffffffffffffffffffffffffffffffffffffffff160217905550808273ffffffffffffffffffffffffffffffffffffffff1661200583611443565b73ffffffffffffffffffffffffffffffffffffffff167f8c5be1e5ebec7d5bd14f71427d1e84f3dd0314c0f7b2291e5b200ac8c7c3b92560405160405180910390a45050565b60008061205783611443565b90508073ffffffffffffffffffffffffffffffffffffffff168473ffffffffffffffffffffffffffffffffffffffff16148061209957506120988185611ae8565b5b806120d757508373ffffffffffffffffffffffffffffffffffffffff166120bf84610998565b73ffffffffffffffffffffffffffffffffffffffff16145b91505092915050565b8273ffffffffffffffffffffffffffffffffffffffff1661210082611443565b73ffffffffffffffffffffffffffffffffffffffff1614612156576040517f08c379a000000000000000000000000000000000000000000000000000000000815260040161214d90615330565b60405180910390fd5b600073ffffffffffffffffffffffffffffffffffffffff168273ffffffffffffffffffffffffffffffffffffffff16036121c5576040517f08c379a00000000000000000000000000000000000000000000000000000000081526004016121bc906153c2565b60405180910390fd5b6121d28383836001612a7f565b8273ffffffffffffffffffffffffffffffffffffffff166121f282611443565b73ffffffffffffffffffffffffffffffffffffffff1614612248576040517f08c379a000000000000000000000000000000000000000000000000000000000815260040161223f90615330565b60405180910390fd5b6004600082815260200190815260200160002060006101000a81549073ffffffffffffffffffffffffffffffffffffffff02191690556001600360008573ffffffffffffffffffffffffffffffffffffffff1673ffffffffffffffffffffffffffffffffffffffff168152602001908152602001600020600082825403925050819055506001600360008473ffffffffffffffffffffffffffffffffffffffff1673ffffffffffffffffffffffffffffffffffffffff16815260200190815260200160002060008282540192505081905550816002600083815260200190815260200160002060006101000a81548173ffffffffffffffffffffffffffffffffffffffff021916908373ffffffffffffffffffffffffffffffffffffffff160217905550808273ffffffffffffffffffffffffffffffffffffffff168473ffffffffffffffffffffffffffffffffffffffff167fddf252ad1be2c89b69c2b068fc378daa952ba7f163c4a11628f55a4df523b3ef60405160405180910390a46123d48383836001612a91565b505050565b6123f3828260405180602001604052806000815250612a97565b5050565b60606000600161240684612af2565b01905060008167ffffffffffffffff81111561242557612424613ca2565b5b6040519080825280601f01601f1916602001820160405280156124575781602001600182028036833780820191505090505b509050600082602001820190505b6001156124ba578080600190039150507f3031323334353637383961626364656600000000000000000000000000000000600a86061a8153600a85816124ae576124ad6153e2565b5b04945060008503612465575b819350505050919050565b6124ce82612624565b61250d576040517f08c379a000000000000000000000000000000000000000000000000000000000815260040161250490615483565b60405180910390fd5b80600a6000848152602001908152602001600020908161252d9190614c7d565b507ff8e1a15aba9398e019f0b49df1a4fde98ee17ae345cb5f6b5e2c27f5033e8ce78260405161255d9190613b71565b60405180910390a15050565b612571611f8a565b73ffffffffffffffffffffffffffffffffffffffff1661258f61178b565b73ffffffffffffffffffffffffffffffffffffffff16146125e5576040517f08c379a00000000000000000000000000000000000000000000000000000000081526004016125dc906154ef565b60405180910390fd5b565b60006002600083815260200190815260200160002060009054906101000a900473ffffffffffffffffffffffffffffffffffffffff169050919050565b60008073ffffffffffffffffffffffffffffffffffffffff16612646836125e7565b73ffffffffffffffffffffffffffffffffffffffff1614159050919050565b6000600b60009054906101000a900473ffffffffffffffffffffffffffffffffffffffff16905081600b60006101000a81548173ffffffffffffffffffffffffffffffffffffffff021916908373ffffffffffffffffffffffffffffffffffffffff1602179055508173ffffffffffffffffffffffffffffffffffffffff168173ffffffffffffffffffffffffffffffffffffffff167f8be0079c531659141344cd1fd0a4f28419497f9722a3daafe3b4186f6b6457e060405160405180910390a35050565b8173ffffffffffffffffffffffffffffffffffffffff168373ffffffffffffffffffffffffffffffffffffffff1603612799576040517f08c379a00000000000000000000000000000000000000000000000000000000081526004016127909061555b565b60405180910390fd5b80600560008573ffffffffffffffffffffffffffffffffffffffff1673ffffffffffffffffffffffffffffffffffffffff16815260200190815260200160002060008473ffffffffffffffffffffffffffffffffffffffff1673ffffffffffffffffffffffffffffffffffffffff16815260200190815260200160002060006101000a81548160ff0219169083151502179055508173ffffffffffffffffffffffffffffffffffffffff168373ffffffffffffffffffffffffffffffffffffffff167f17307eab39ab6107e8899845ad3d59bd9653f200f220920489ca2b5937696c318360405161288a91906139a0565b60405180910390a3505050565b6128a28484846120e0565b6128ae84848484612c45565b6128ed576040517f08c379a00000000000000000000000000000000000000000000000000000000081526004016128e4906155ed565b60405180910390fd5b50505050565b60606128fe82611f3f565b6000600a6000848152602001908152602001600020805461291e90614614565b80601f016020809104026020016040519081016040528092919081815260200182805461294a90614614565b80156129975780601f1061296c57610100808354040283529160200191612997565b820191906000526020600020905b81548152906001019060200180831161297a57829003601f168201915b5050505050905060006129a8612dcc565b905060008151036129bd578192505050612a00565b6000825111156129f25780826040516020016129da929190614ed4565b60405160208183030381529060405292505050612a00565b6129fb84612e5e565b925050505b919050565b60007f780e9d63000000000000000000000000000000000000000000000000000000007bffffffffffffffffffffffffffffffffffffffffffffffffffffffff1916827bffffffffffffffffffffffffffffffffffffffffffffffffffffffff19161480612a785750612a7782612ec6565b5b9050919050565b612a8b84848484612fa8565b50505050565b50505050565b612aa18383613106565b612aae6000848484612c45565b612aed576040517f08c379a0000000000000000000000000000000000000000000000000000000008152600401612ae4906155ed565b60405180910390fd5b505050565b600080600090507a184f03e93ff9f4daa797ed6e38ed64bf6a1f0100000000000000008310612b50577a184f03e93ff9f4daa797ed6e38ed64bf6a1f0100000000000000008381612b4657612b456153e2565b5b0492506040810190505b6d04ee2d6d415b85acef81000000008310612b8d576d04ee2d6d415b85acef81000000008381612b8357612b826153e2565b5b0492506020810190505b662386f26fc100008310612bbc57662386f26fc100008381612bb257612bb16153e2565b5b0492506010810190505b6305f5e1008310612be5576305f5e1008381612bdb57612bda6153e2565b5b0492506008810190505b6127108310612c0a576127108381612c0057612bff6153e2565b5b0492506004810190505b60648310612c2d5760648381612c2357612c226153e2565b5b0492506002810190505b600a8310612c3c576001810190505b80915050919050565b6000612c668473ffffffffffffffffffffffffffffffffffffffff16613323565b15612dbf578373ffffffffffffffffffffffffffffffffffffffff1663150b7a02612c8f611f8a565b8786866040518563ffffffff1660e01b8152600401612cb19493929190615662565b6020604051808303816000875af1925050508015612ced57506040513d601f19601f82011682018060405250810190612cea91906156c3565b60015b612d6f573d8060008114612d1d576040519150601f19603f3d011682016040523d82523d6000602084013e612d22565b606091505b506000815103612d67576040517f08c379a0000000000000000000000000000000000000000000000000000000008152600401612d5e906155ed565b60405180910390fd5b805181602001fd5b63150b7a0260e01b7bffffffffffffffffffffffffffffffffffffffffffffffffffffffff1916817bffffffffffffffffffffffffffffffffffffffffffffffffffffffff191614915050612dc4565b600190505b949350505050565b6060600f8054612ddb90614614565b80601f0160208091040260200160405190810160405280929190818152602001828054612e0790614614565b8015612e545780601f10612e2957610100808354040283529160200191612e54565b820191906000526020600020905b815481529060010190602001808311612e3757829003601f168201915b5050505050905090565b6060612e6982611f3f565b6000612e73612dcc565b90506000815111612e935760405180602001604052806000815250612ebe565b80612e9d846123f7565b604051602001612eae929190614ed4565b6040516020818303038152906040525b915050919050565b60007f80ac58cd000000000000000000000000000000000000000000000000000000007bffffffffffffffffffffffffffffffffffffffffffffffffffffffff1916827bffffffffffffffffffffffffffffffffffffffffffffffffffffffff19161480612f9157507f5b5e139f000000000000000000000000000000000000000000000000000000007bffffffffffffffffffffffffffffffffffffffffffffffffffffffff1916827bffffffffffffffffffffffffffffffffffffffffffffffffffffffff1916145b80612fa15750612fa082613346565b5b9050919050565b612fb4848484846133b0565b6001811115612ff8576040517f08c379a0000000000000000000000000000000000000000000000000000000008152600401612fef90615762565b60405180910390fd5b6000829050600073ffffffffffffffffffffffffffffffffffffffff168573ffffffffffffffffffffffffffffffffffffffff160361303f5761303a816133b6565b61307e565b8373ffffffffffffffffffffffffffffffffffffffff168573ffffffffffffffffffffffffffffffffffffffff161461307d5761307c85826133ff565b5b5b600073ffffffffffffffffffffffffffffffffffffffff168473ffffffffffffffffffffffffffffffffffffffff16036130c0576130bb8161356c565b6130ff565b8473ffffffffffffffffffffffffffffffffffffffff168473ffffffffffffffffffffffffffffffffffffffff16146130fe576130fd848261363d565b5b5b5050505050565b600073ffffffffffffffffffffffffffffffffffffffff168273ffffffffffffffffffffffffffffffffffffffff1603613175576040517f08c379a000000000000000000000000000000000000000000000000000000000815260040161316c906157ce565b60405180910390fd5b61317e81612624565b156131be576040517f08c379a00000000000000000000000000000000000000000000000000000000081526004016131b59061583a565b60405180910390fd5b6131cc600083836001612a7f565b6131d581612624565b15613215576040517f08c379a000000000000000000000000000000000000000000000000000000000815260040161320c9061583a565b60405180910390fd5b6001600360008473ffffffffffffffffffffffffffffffffffffffff1673ffffffffffffffffffffffffffffffffffffffff16815260200190815260200160002060008282540192505081905550816002600083815260200190815260200160002060006101000a81548173ffffffffffffffffffffffffffffffffffffffff021916908373ffffffffffffffffffffffffffffffffffffffff160217905550808273ffffffffffffffffffffffffffffffffffffffff16600073ffffffffffffffffffffffffffffffffffffffff167fddf252ad1be2c89b69c2b068fc378daa952ba7f163c4a11628f55a4df523b3ef60405160405180910390a461331f600083836001612a91565b5050565b6000808273ffffffffffffffffffffffffffffffffffffffff163b119050919050565b60007f01ffc9a7000000000000000000000000000000000000000000000000000000007bffffffffffffffffffffffffffffffffffffffffffffffffffffffff1916827bffffffffffffffffffffffffffffffffffffffffffffffffffffffff1916149050919050565b50505050565b6008805490506009600083815260200190815260200160002081905550600881908060018154018082558091505060019003906000526020600020016000909190919091505550565b6000600161340c846115c1565b613416919061585a565b90506000600760008481526020019081526020016000205490508181146134fb576000600660008673ffffffffffffffffffffffffffffffffffffffff1673ffffffffffffffffffffffffffffffffffffffff168152602001908152602001600020600084815260200190815260200160002054905080600660008773ffffffffffffffffffffffffffffffffffffffff1673ffffffffffffffffffffffffffffffffffffffff168152602001908152602001600020600084815260200190815260200160002081905550816007600083815260200190815260200160002081905550505b6007600084815260200190815260200160002060009055600660008573ffffffffffffffffffffffffffffffffffffffff1673ffffffffffffffffffffffffffffffffffffffff16815260200190815260200160002060008381526020019081526020016000206000905550505050565b60006001600880549050613580919061585a565b90506000600960008481526020019081526020016000205490506000600883815481106135b0576135af6148ca565b5b9060005260206000200154905080600883815481106135d2576135d16148ca565b5b9060005260206000200181905550816009600083815260200190815260200160002081905550600960008581526020019081526020016000206000905560088054806136215761362061588e565b5b6001900381819060005260206000200160009055905550505050565b6000613648836115c1565b905081600660008573ffffffffffffffffffffffffffffffffffffffff1673ffffffffffffffffffffffffffffffffffffffff168152602001908152602001600020600083815260200190815260200160002081905550806007600084815260200190815260200160002081905550505050565b604051806040016040528060008152602001600081525090565b8260058101928215613705579160200282015b828111156137045782518255916020019190600101906136e9565b5b50905061371291906137bc565b5090565b604051806101000160405280606081526020016000815260200160008152602001600081526020016137466137d9565b81526020016137536137d9565b81526020016137606137fb565b81526020016000151581525090565b8280548282559060005260206000209081019282156137ab579160200282015b828111156137aa57825182559160200191906001019061378f565b5b5090506137b891906137bc565b5090565b5b808211156137d55760008160009055506001016137bd565b5090565b6040518060a00160405280600590602082028036833780820191505090505090565b6040518060600160405280600390602082028036833780820191505090505090565b6000604051905090565b600080fd5b600080fd5b6000819050919050565b61384481613831565b811461384f57600080fd5b50565b6000813590506138618161383b565b92915050565b6000806040838503121561387e5761387d613827565b5b600061388c85828601613852565b925050602061389d85828601613852565b9150509250929050565b6138b081613831565b82525050565b6040820160008201516138cc60008501826138a7565b5060208201516138df60208501826138a7565b50505050565b60006040820190506138fa60008301846138b6565b92915050565b60007fffffffff0000000000000000000000000000000000000000000000000000000082169050919050565b61393581613900565b811461394057600080fd5b50565b6000813590506139528161392c565b92915050565b60006020828403121561396e5761396d613827565b5b600061397c84828501613943565b91505092915050565b60008115159050919050565b61399a81613985565b82525050565b60006020820190506139b56000830184613991565b92915050565b600081519050919050565b600082825260208201905092915050565b60005b838110156139f55780820151818401526020810190506139da565b60008484015250505050565b6000601f19601f8301169050919050565b6000613a1d826139bb565b613a2781856139c6565b9350613a378185602086016139d7565b613a4081613a01565b840191505092915050565b60006020820190508181036000830152613a658184613a12565b905092915050565b600060208284031215613a8357613a82613827565b5b6000613a9184828501613852565b91505092915050565b600073ffffffffffffffffffffffffffffffffffffffff82169050919050565b6000613ac582613a9a565b9050919050565b613ad581613aba565b82525050565b6000602082019050613af06000830184613acc565b92915050565b613aff81613aba565b8114613b0a57600080fd5b50565b600081359050613b1c81613af6565b92915050565b60008060408385031215613b3957613b38613827565b5b6000613b4785828601613b0d565b9250506020613b5885828601613852565b9150509250929050565b613b6b81613831565b82525050565b6000602082019050613b866000830184613b62565b92915050565b600080600060608486031215613ba557613ba4613827565b5b6000613bb386828701613b0d565b9350506020613bc486828701613b0d565b9250506040613bd586828701613852565b9150509250925092565b613be881613985565b8114613bf357600080fd5b50565b600081359050613c0581613bdf565b92915050565b60008060008060008060c08789031215613c2857613c27613827565b5b6000613c3689828a01613852565b9650506020613c4789828a01613bf6565b9550506040613c5889828a01613852565b9450506060613c6989828a01613852565b9350506080613c7a89828a01613852565b92505060a0613c8b89828a01613852565b9150509295509295509295565b600080fd5b600080fd5b7f4e487b7100000000000000000000000000000000000000000000000000000000600052604160045260246000fd5b613cda82613a01565b810181811067ffffffffffffffff82111715613cf957613cf8613ca2565b5b80604052505050565b6000613d0c61381d565b9050613d188282613cd1565b919050565b600067ffffffffffffffff821115613d3857613d37613ca2565b5b613d4182613a01565b9050602081019050919050565b82818337600083830152505050565b6000613d70613d6b84613d1d565b613d02565b905082815260208101848484011115613d8c57613d8b613c9d565b5b613d97848285613d4e565b509392505050565b600082601f830112613db457613db3613c98565b5b8135613dc4848260208601613d5d565b91505092915050565b60008060008060808587031215613de757613de6613827565b5b6000613df587828801613852565b9450506020613e0687828801613852565b9350506040613e1787828801613b0d565b925050606085013567ffffffffffffffff811115613e3857613e3761382c565b5b613e4487828801613d9f565b91505092959194509250565b600082825260208201905092915050565b6000613e6c826139bb565b613e768185613e50565b9350613e868185602086016139d7565b613e8f81613a01565b840191505092915050565b600060059050919050565b600081905092915050565b6000819050919050565b6000613ec683836138a7565b60208301905092915050565b6000602082019050919050565b613ee881613e9a565b613ef28184613ea5565b9250613efd82613eb0565b8060005b83811015613f2e578151613f158782613eba565b9650613f2083613ed2565b925050600181019050613f01565b505050505050565b600060039050919050565b600081905092915050565b6000819050919050565b6000602082019050919050565b613f6c81613f36565b613f768184613f41565b9250613f8182613f4c565b8060005b83811015613fb2578151613f998782613eba565b9650613fa483613f56565b925050600181019050613f85565b505050505050565b613fc381613985565b82525050565b6000610240830160008301518482036000860152613fe78282613e61565b9150506020830151613ffc60208601826138a7565b50604083015161400f60408601826138a7565b50606083015161402260608601826138a7565b5060808301516140356080860182613edf565b5060a0830151614049610120860182613edf565b5060c083015161405d6101c0860182613f63565b5060e0830151614071610220860182613fba565b508091505092915050565b600060208201905081810360008301526140968184613fc9565b905092915050565b600080600080608085870312156140b8576140b7613827565b5b60006140c687828801613852565b94505060206140d787828801613852565b93505060406140e887828801613852565b92505060606140f987828801613852565b91505092959194509250565b60006020828403121561411b5761411a613827565b5b600082013567ffffffffffffffff8111156141395761413861382c565b5b61414584828501613d9f565b91505092915050565b60006020828403121561416457614163613827565b5b600061417284828501613b0d565b91505092915050565b600067ffffffffffffffff82111561419657614195613ca2565b5b602082029050602081019050919050565b600080fd5b60006141bf6141ba8461417b565b613d02565b905080838252602082019050602084028301858111156141e2576141e16141a7565b5b835b8181101561420b57806141f78882613852565b8452602084019350506020810190506141e4565b5050509392505050565b600082601f83011261422a57614229613c98565b5b813561423a8482602086016141ac565b91505092915050565b60008060006060848603121561425c5761425b613827565b5b600061426a86828701613852565b935050602061427b86828701613852565b925050604084013567ffffffffffffffff81111561429c5761429b61382c565b5b6142a886828701614215565b9150509250925092565b600081519050919050565b600082825260208201905092915050565b6000819050602082019050919050565b6000602082019050919050565b60006142f6826142b2565b61430081856142bd565b935061430b836142ce565b8060005b8381101561433c5781516143238882613eba565b975061432e836142de565b92505060018101905061430f565b5085935050505092915050565b6000602082019050818103600083015261436381846142eb565b905092915050565b6000806040838503121561438257614381613827565b5b600061439085828601613b0d565b92505060206143a185828601613bf6565b9150509250929050565b60006040820190506143c06000830185613b62565b6143cd6020830184613b62565b9392505050565b600060a08201905081810360008301526143ee8188613a12565b90506143fd6020830187613b62565b61440a6040830186613b62565b6144176060830185613b62565b6144246080830184613991565b9695505050505050565b60008060006060848603121561444757614446613827565b5b600061445586828701613852565b935050602061446686828701613852565b925050604061447786828701613852565b9150509250925092565b600067ffffffffffffffff82111561449c5761449b613ca2565b5b6144a582613a01565b9050602081019050919050565b60006144c56144c084614481565b613d02565b9050828152602081018484840111156144e1576144e0613c9d565b5b6144ec848285613d4e565b509392505050565b600082601f83011261450957614508613c98565b5b81356145198482602086016144b2565b91505092915050565b6000806000806080858703121561453c5761453b613827565b5b600061454a87828801613b0d565b945050602061455b87828801613b0d565b935050604061456c87828801613852565b925050606085013567ffffffffffffffff81111561458d5761458c61382c565b5b614599878288016144f4565b91505092959194509250565b600080604083850312156145bc576145bb613827565b5b60006145ca85828601613b0d565b92505060206145db85828601613b0d565b9150509250929050565b7f4e487b7100000000000000000000000000000000000000000000000000000000600052602260045260246000fd5b6000600282049050600182168061462c57607f821691505b60208210810361463f5761463e6145e5565b5b50919050565b7f4552433732313a20617070726f76616c20746f2063757272656e74206f776e6560008201527f7200000000000000000000000000000000000000000000000000000000000000602082015250565b60006146a16021836139c6565b91506146ac82614645565b604082019050919050565b600060208201905081810360008301526146d081614694565b9050919050565b7f4552433732313a20617070726f76652063616c6c6572206973206e6f7420746f60008201527f6b656e206f776e6572206f7220617070726f76656420666f7220616c6c000000602082015250565b6000614733603d836139c6565b915061473e826146d7565b604082019050919050565b6000602082019050818103600083015261476281614726565b9050919050565b7f4552433732313a2063616c6c6572206973206e6f7420746f6b656e206f776e6560008201527f72206f7220617070726f76656400000000000000000000000000000000000000602082015250565b60006147c5602d836139c6565b91506147d082614769565b604082019050919050565b600060208201905081810360008301526147f4816147b8565b9050919050565b7f596f752063616e206e6f742063616c6c20746869732066756e6374696f6e0000600082015250565b6000614831601e836139c6565b915061483c826147fb565b602082019050919050565b6000602082019050818103600083015261486081614824565b9050919050565b7f4e487b7100000000000000000000000000000000000000000000000000000000600052601160045260246000fd5b60006148a182613831565b91506148ac83613831565b92508282019050808211156148c4576148c3614867565b5b92915050565b7f4e487b7100000000000000000000000000000000000000000000000000000000600052603260045260246000fd5b7f455243373231456e756d657261626c653a206f776e657220696e646578206f7560008201527f74206f6620626f756e6473000000000000000000000000000000000000000000602082015250565b6000614955602b836139c6565b9150614960826148f9565b604082019050919050565b6000602082019050818103600083015261498481614948565b9050919050565b7f6d73672e73656e646572206973206e6f7420636f727265637400000000000000600082015250565b60006149c16019836139c6565b91506149cc8261498b565b602082019050919050565b600060208201905081810360008301526149f0816149b4565b9050919050565b7f546865726520617265206e6f206f6e65204e465420696e746f20706f6f6c206660008201527f6f72207468697320726172697479000000000000000000000000000000000000602082015250565b6000614a53602e836139c6565b9150614a5e826149f7565b604082019050919050565b60006020820190508181036000830152614a8281614a46565b9050919050565b6000614a9482613831565b91507fffffffffffffffffffffffffffffffffffffffffffffffffffffffffffffffff8203614ac657614ac5614867565b5b600182019050919050565b60008190508160005260206000209050919050565b60006020601f8301049050919050565b600082821b905092915050565b600060088302614b337fffffffffffffffffffffffffffffffffffffffffffffffffffffffffffffffff82614af6565b614b3d8683614af6565b95508019841693508086168417925050509392505050565b6000819050919050565b6000614b7a614b75614b7084613831565b614b55565b613831565b9050919050565b6000819050919050565b614b9483614b5f565b614ba8614ba082614b81565b848454614b03565b825550505050565b600090565b614bbd614bb0565b614bc8818484614b8b565b505050565b5b81811015614bec57614be1600082614bb5565b600181019050614bce565b5050565b601f821115614c3157614c0281614ad1565b614c0b84614ae6565b81016020851015614c1a578190505b614c2e614c2685614ae6565b830182614bcd565b50505b505050565b600082821c905092915050565b6000614c5460001984600802614c36565b1980831691505092915050565b6000614c6d8383614c43565b9150826002028217905092915050565b614c86826139bb565b67ffffffffffffffff811115614c9f57614c9e613ca2565b5b614ca98254614614565b614cb4828285614bf0565b600060209050601f831160018114614ce75760008415614cd5578287015190505b614cdf8582614c61565b865550614d47565b601f198416614cf586614ad1565b60005b82811015614d1d57848901518255600182019150602085019450602081019050614cf8565b86831015614d3a5784890151614d36601f891682614c43565b8355505b6001600288020188555050505b505050505050565b6000819050919050565b6000614d74614d6f614d6a84614d4f565b614b55565b613831565b9050919050565b614d8481614d59565b82525050565b6000602082019050614d9f6000830184614d7b565b92915050565b600067ffffffffffffffff821115614dc057614dbf613ca2565b5b602082029050919050565b600081519050614dda8161383b565b92915050565b6000614df3614dee84614da5565b613d02565b90508060208402830185811115614e0d57614e0c6141a7565b5b835b81811015614e365780614e228882614dcb565b845260208401935050602081019050614e0f565b5050509392505050565b600082601f830112614e5557614e54613c98565b5b6005614e62848285614de0565b91505092915050565b600060a08284031215614e8157614e80613827565b5b6000614e8f84828501614e40565b91505092915050565b600081905092915050565b6000614eae826139bb565b614eb88185614e98565b9350614ec88185602086016139d7565b80840191505092915050565b6000614ee08285614ea3565b9150614eec8284614ea3565b91508190509392505050565b7f455243373231456e756d657261626c653a20676c6f62616c20696e646578206f60008201527f7574206f6620626f756e64730000000000000000000000000000000000000000602082015250565b6000614f54602c836139c6565b9150614f5f82614ef8565b604082019050919050565b60006020820190508181036000830152614f8381614f47565b9050919050565b7f4552433732313a20696e76616c696420746f6b656e2049440000000000000000600082015250565b6000614fc06018836139c6565b9150614fcb82614f8a565b602082019050919050565b60006020820190508181036000830152614fef81614fb3565b9050919050565b7f546f6b656e20646f6573206e6f74206578697374000000000000000000000000600082015250565b600061502c6014836139c6565b915061503782614ff6565b602082019050919050565b6000602082019050818103600083015261505b8161501f565b9050919050565b7f596f7520617265206e6f7420746865206f776e6572206f66207468697320746f60008201527f6b656e0000000000000000000000000000000000000000000000000000000000602082015250565b60006150be6023836139c6565b91506150c982615062565b604082019050919050565b600060208201905081810360008301526150ed816150b1565b9050919050565b7f4552433732313a2061646472657373207a65726f206973206e6f74206120766160008201527f6c6964206f776e65720000000000000000000000000000000000000000000000602082015250565b60006151506029836139c6565b915061515b826150f4565b604082019050919050565b6000602082019050818103600083015261517f81615143565b9050919050565b6000819050919050565b60006151ab6151a66151a184615186565b614b55565b613831565b9050919050565b6151bb81615190565b82525050565b60006040820190506151d66000830185613b62565b6151e360208301846151b2565b9392505050565b6000815190506151f981613bdf565b92915050565b60006020828403121561521557615214613827565b5b6000615223848285016151ea565b91505092915050565b7f4f776e61626c653a206e6577206f776e657220697320746865207a65726f206160008201527f6464726573730000000000000000000000000000000000000000000000000000602082015250565b60006152886026836139c6565b91506152938261522c565b604082019050919050565b600060208201905081810360008301526152b78161527b565b9050919050565b7f4552433732313a207472616e736665722066726f6d20696e636f72726563742060008201527f6f776e6572000000000000000000000000000000000000000000000000000000602082015250565b600061531a6025836139c6565b9150615325826152be565b604082019050919050565b600060208201905081810360008301526153498161530d565b9050919050565b7f4552433732313a207472616e7366657220746f20746865207a65726f2061646460008201527f7265737300000000000000000000000000000000000000000000000000000000602082015250565b60006153ac6024836139c6565b91506153b782615350565b604082019050919050565b600060208201905081810360008301526153db8161539f565b9050919050565b7f4e487b7100000000000000000000000000000000000000000000000000000000600052601260045260246000fd5b7f45524337323155524953746f726167653a2055524920736574206f66206e6f6e60008201527f6578697374656e7420746f6b656e000000000000000000000000000000000000602082015250565b600061546d602e836139c6565b915061547882615411565b604082019050919050565b6000602082019050818103600083015261549c81615460565b9050919050565b7f4f776e61626c653a2063616c6c6572206973206e6f7420746865206f776e6572600082015250565b60006154d96020836139c6565b91506154e4826154a3565b602082019050919050565b60006020820190508181036000830152615508816154cc565b9050919050565b7f4552433732313a20617070726f766520746f2063616c6c657200000000000000600082015250565b60006155456019836139c6565b91506155508261550f565b602082019050919050565b6000602082019050818103600083015261557481615538565b9050919050565b7f4552433732313a207472616e7366657220746f206e6f6e20455243373231526560008201527f63656976657220696d706c656d656e7465720000000000000000000000000000602082015250565b60006155d76032836139c6565b91506155e28261557b565b604082019050919050565b60006020820190508181036000830152615606816155ca565b9050919050565b600081519050919050565b600082825260208201905092915050565b60006156348261560d565b61563e8185615618565b935061564e8185602086016139d7565b61565781613a01565b840191505092915050565b60006080820190506156776000830187613acc565b6156846020830186613acc565b6156916040830185613b62565b81810360608301526156a38184615629565b905095945050505050565b6000815190506156bd8161392c565b92915050565b6000602082840312156156d9576156d8613827565b5b60006156e7848285016156ae565b91505092915050565b7f455243373231456e756d657261626c653a20636f6e736563757469766520747260008201527f616e7366657273206e6f7420737570706f727465640000000000000000000000602082015250565b600061574c6035836139c6565b9150615757826156f0565b604082019050919050565b6000602082019050818103600083015261577b8161573f565b9050919050565b7f4552433732313a206d696e7420746f20746865207a65726f2061646472657373600082015250565b60006157b86020836139c6565b91506157c382615782565b602082019050919050565b600060208201905081810360008301526157e7816157ab565b9050919050565b7f4552433732313a20746f6b656e20616c7265616479206d696e74656400000000600082015250565b6000615824601c836139c6565b915061582f826157ee565b602082019050919050565b6000602082019050818103600083015261585381615817565b9050919050565b600061586582613831565b915061587083613831565b925082820390508181111561588857615887614867565b5b92915050565b7f4e487b7100000000000000000000000000000000000000000000000000000000600052603160045260246000fdfea2646970667358221220752965a5a6aa7acde36e8178ddfe29f62e8e31d06dc81dd6b9591a46302dd9ce64736f6c63430008130033",
  "immutableReferences": {},
  "source": "// SPDX-License-Identifier: MIT\r\npragma solidity ^0.8.0;\r\n\r\nimport \"./Extra/PoolBaseStruct.sol\";\r\nimport \"./Extra/PoolVirtual.sol\";\r\nimport \"./../../RandomChoice.sol\";\r\n\r\n\r\n\r\ncontract AvatarPool is PoolBaseStruct, PoolAvatarVirtual {\r\n\r\n    // List of avatar and their info\r\n    mapping(uint256 => Avatar) public AvatarList;\r\n\r\n    /** \r\n        Matrix of all rarity minting info\r\n        For every season (first param) there is a row ( called rarityRow, second param ) that contain info abouth quantity and cost of NFT\r\n    */\r\n    mapping(uint256 =>  mapping(uint256 => NFTPoolInfo)) public AvatarMatrixForSeason;\r\n\r\n    // Matrix for minting probability\r\n    // mapping(uint256 => RarityRow) public AvatarRarityMatrix;\r\n    mapping(uint256 => mapping(uint256 => uint256[])) public AvatarRarityMatrix;\r\n\r\n\r\n\r\n    // SET BASE INFO\r\n    uint256 baseIDNFTCounter;\r\n\r\n\r\n\r\n    constructor (\r\n        address _NFTManagerAddress,\r\n        address _RandomChoiceAddress,\r\n\r\n        string memory _baseUri\r\n    ) \r\n        \r\n        PoolBaseStruct (\r\n            _NFTManagerAddress, _RandomChoiceAddress,\r\n            _baseUri, \"Avatar\", \"AVTR\"\r\n        ) \r\n\r\n    {\r\n        baseIDNFTCounter = 1;\r\n    }\r\n\r\n\r\n\r\n    \r\n\r\n    function mintingPrivate (\r\n        uint256 tokenRarity,\r\n        uint256 seasonKey,\r\n\r\n        address to,\r\n        string memory name\r\n    ) public override returns (bool) {\r\n        require(msg.sender == getNFTManagerAddress(), \"msg.sender is not correct\");\r\n        require(getAvatarPoolInfo(seasonKey, tokenRarity).quantity > 0,\"There are no one NFT into pool for this rarity\");\r\n\r\n        uint256 bIDC = baseIDNFTCounter++;\r\n\r\n        AvatarList[bIDC].name = name;\r\n        AvatarList[bIDC].id = bIDC;\r\n        AvatarList[bIDC].level = 0;\r\n        AvatarList[bIDC].ar = tokenRarity;\r\n        AvatarList[bIDC].stoneType = RandomChoice(getRandomChoiceAddress()).chouseNType(5);\r\n\r\n        _safeMint(to, bIDC);\r\n        _setTokenURI(bIDC, string.concat(name, Strings.toString(bIDC)));\r\n\r\n        return true;\r\n    }\r\n    function getAvatarInfo(uint256 avatartID) public override view returns (Avatar memory) { return AvatarList[avatartID]; }\r\n\r\n\r\n    function setAvatarInfo(uint256 bIDC, bool lv, uint256 st, uint256 stInd, uint256 wr, uint256 wrInd) public {\r\n        require(msg.sender == getActionAddress(), \"You can not call this function\");\r\n\r\n        if (lv) AvatarList[bIDC].level += 1;\r\n        if (st == 0) AvatarList[bIDC].stone[stInd] = st;\r\n        if (st == 0) AvatarList[bIDC].wearables[wrInd] = wr;\r\n\r\n    }\r\n    \r\n    \r\n    function setAvatarPoolInfo(uint256 seasonID, uint256 rt, uint256 _quantity, uint256 _cost ) public onlyOwner override { \r\n        require(msg.sender == owner() || msg.sender == address(this) || msg.sender == getNFTManagerAddress() || msg.sender == getActionAddress(), \"You can not call this function\");\r\n        AvatarMatrixForSeason[seasonID][rt].quantity = _quantity;\r\n        AvatarMatrixForSeason[seasonID][rt].cost = _cost;\r\n    }\r\n    \r\n    \r\n    function getAvatarPoolInfo (uint256 seasonID, uint256 rarityColon) public override view returns(NFTPoolInfo memory) \r\n        { return AvatarMatrixForSeason[seasonID][rarityColon]; }\r\n    \r\n\r\n\r\n    function PoolIsEmpty (uint256 seasonID) public view override returns(bool poolIsEmpty) { \r\n        require(msg.sender == getNFTManagerAddress(), \"msg.sender is not correct\");\r\n        poolIsEmpty = true;\r\n\r\n        if ( AvatarMatrixForSeason[seasonID][0].quantity > 0 &&\r\n            AvatarMatrixForSeason[seasonID][1].quantity > 0 && \r\n            AvatarMatrixForSeason[seasonID][2].quantity > 0 && \r\n            AvatarMatrixForSeason[seasonID][3].quantity > 0 && \r\n            AvatarMatrixForSeason[seasonID][4].quantity > 0\r\n        ) { poolIsEmpty = false; }\r\n\r\n    }\r\n\r\n\r\n\r\n\r\n    function setAvatarRarity(uint256 r1, uint256 r2, uint256[] memory br) public override onlyOwner \r\n        { AvatarRarityMatrix[r1][r2] = br; }\r\n    function getAvatarRarity(uint256 r1, uint256 r2) public view override returns (uint256[] memory rb) \r\n        { rb = AvatarRarityMatrix[r1][r2]; }\r\n    \r\n    \r\n    function getRarityForMinting(uint256 r1, uint256 r2) public override returns(uint256 rt) {\r\n        uint256[] memory rb = getAvatarRarity(r1, r2);\r\n        \r\n        for (uint i=0; ; i++) {\r\n            if (i == rb.length) i = 0;\r\n\r\n            if ( rb[i] != 0 && RandomChoice(getRandomChoiceAddress()).choice(rb[i], 100) ) \r\n                { rt = i; break; }\r\n            \r\n        }\r\n\r\n    }\r\n\r\n\r\n}",
  "sourcePath": "D:\\Lavoro\\21_BJ\\21_BJ_SC\\contracts\\Avatar\\Pool\\AvatarPool.sol",
  "compiler": {
    "name": "solc",
    "version": "0.8.19+commit.7dd6d404.Emscripten.clang"
  },
  "schemaVersion": "3.4.15",
  "updatedAt": "2023-10-20T15:35:45.233Z",
  "devdoc": {
    "events": {
      "Approval(address,address,uint256)": {
        "details": "Emitted when `owner` enables `approved` to manage the `tokenId` token."
      },
      "ApprovalForAll(address,address,bool)": {
        "details": "Emitted when `owner` enables or disables (`approved`) `operator` to manage all of its assets."
      },
      "BatchMetadataUpdate(uint256,uint256)": {
        "details": "This event emits when the metadata of a range of tokens is changed. So that the third-party platforms such as NFT market could timely update the images and related attributes of the NFTs."
      },
      "MetadataUpdate(uint256)": {
        "details": "This event emits when the metadata of a token is changed. So that the third-party platforms such as NFT market could timely update the images and related attributes of the NFT."
      },
      "Transfer(address,address,uint256)": {
        "details": "Emitted when `tokenId` token is transferred from `from` to `to`."
      }
    },
    "kind": "dev",
    "methods": {
      "approve(address,uint256)": {
        "details": "See {IERC721-approve}."
      },
      "balanceOf(address)": {
        "details": "See {IERC721-balanceOf}."
      },
      "getApproved(uint256)": {
        "details": "See {IERC721-getApproved}."
      },
      "isApprovedForAll(address,address)": {
        "details": "See {IERC721-isApprovedForAll}."
      },
      "name()": {
        "details": "See {IERC721Metadata-name}."
      },
      "owner()": {
        "details": "Returns the address of the current owner."
      },
      "ownerOf(uint256)": {
        "details": "See {IERC721-ownerOf}."
      },
      "renounceOwnership()": {
        "details": "Leaves the contract without owner. It will not be possible to call `onlyOwner` functions. Can only be called by the current owner. NOTE: Renouncing ownership will leave the contract without an owner, thereby disabling any functionality that is only available to the owner."
      },
      "safeTransferFrom(address,address,uint256)": {
        "details": "See {IERC721-safeTransferFrom}."
      },
      "safeTransferFrom(address,address,uint256,bytes)": {
        "details": "See {IERC721-safeTransferFrom}."
      },
      "setApprovalForAll(address,bool)": {
        "details": "See {IERC721-setApprovalForAll}."
      },
      "symbol()": {
        "details": "See {IERC721Metadata-symbol}."
      },
      "tokenByIndex(uint256)": {
        "details": "See {IERC721Enumerable-tokenByIndex}."
      },
      "tokenOfOwnerByIndex(address,uint256)": {
        "details": "See {IERC721Enumerable-tokenOfOwnerByIndex}."
      },
      "totalSupply()": {
        "details": "See {IERC721Enumerable-totalSupply}."
      },
      "transferFrom(address,address,uint256)": {
        "details": "See {IERC721-transferFrom}."
      },
      "transferOwnership(address)": {
        "details": "Transfers ownership of the contract to a new account (`newOwner`). Can only be called by the current owner."
      }
    },
    "version": 1
  },
  "userdoc": {
    "kind": "user",
    "methods": {
      "AvatarMatrixForSeason(uint256,uint256)": {
        "notice": "Matrix of all rarity minting info For every season (first param) there is a row ( called rarityRow, second param ) that contain info abouth quantity and cost of NFT"
      },
      "getAvatarInfo(uint256)": {
        "notice": "ABSTRACT FUNCTION TO INERITANCE"
      },
      "getNFTManagerAddress()": {
        "notice": "GET & SET ADDRESS"
      },
      "transferNFT(address,address,uint256)": {
        "notice": "DEFAULT FUNCTIONS"
      }
    },
    "version": 1
  }
}