{
  "contractName": "Box",
  "abi": [
    {
      "inputs": [
        {
          "internalType": "address",
          "name": "_NFTManagerAddress",
          "type": "address"
        },
        {
          "internalType": "address",
          "name": "_RandomChoiceAddress",
          "type": "address"
        },
        {
          "internalType": "address",
          "name": "_MintingAddress",
          "type": "address"
        },
        {
          "internalType": "string",
          "name": "_baseUri",
          "type": "string"
        }
      ],
      "stateMutability": "nonpayable",
      "type": "constructor"
    },
    {
      "anonymous": false,
      "inputs": [
        {
          "indexed": true,
          "internalType": "address",
          "name": "owner",
          "type": "address"
        },
        {
          "indexed": true,
          "internalType": "address",
          "name": "approved",
          "type": "address"
        },
        {
          "indexed": true,
          "internalType": "uint256",
          "name": "tokenId",
          "type": "uint256"
        }
      ],
      "name": "Approval",
      "type": "event"
    },
    {
      "anonymous": false,
      "inputs": [
        {
          "indexed": true,
          "internalType": "address",
          "name": "owner",
          "type": "address"
        },
        {
          "indexed": true,
          "internalType": "address",
          "name": "operator",
          "type": "address"
        },
        {
          "indexed": false,
          "internalType": "bool",
          "name": "approved",
          "type": "bool"
        }
      ],
      "name": "ApprovalForAll",
      "type": "event"
    },
    {
      "anonymous": false,
      "inputs": [
        {
          "indexed": false,
          "internalType": "uint256",
          "name": "_fromTokenId",
          "type": "uint256"
        },
        {
          "indexed": false,
          "internalType": "uint256",
          "name": "_toTokenId",
          "type": "uint256"
        }
      ],
      "name": "BatchMetadataUpdate",
      "type": "event"
    },
    {
      "anonymous": false,
      "inputs": [
        {
          "indexed": false,
          "internalType": "uint256",
          "name": "_tokenId",
          "type": "uint256"
        }
      ],
      "name": "MetadataUpdate",
      "type": "event"
    },
    {
      "anonymous": false,
      "inputs": [
        {
          "indexed": true,
          "internalType": "address",
          "name": "previousOwner",
          "type": "address"
        },
        {
          "indexed": true,
          "internalType": "address",
          "name": "newOwner",
          "type": "address"
        }
      ],
      "name": "OwnershipTransferred",
      "type": "event"
    },
    {
      "anonymous": false,
      "inputs": [
        {
          "indexed": true,
          "internalType": "address",
          "name": "from",
          "type": "address"
        },
        {
          "indexed": true,
          "internalType": "address",
          "name": "to",
          "type": "address"
        },
        {
          "indexed": true,
          "internalType": "uint256",
          "name": "tokenId",
          "type": "uint256"
        }
      ],
      "name": "Transfer",
      "type": "event"
    },
    {
      "inputs": [
        {
          "internalType": "uint256",
          "name": "",
          "type": "uint256"
        }
      ],
      "name": "BoxList",
      "outputs": [
        {
          "internalType": "uint256",
          "name": "tokenRarity",
          "type": "uint256"
        },
        {
          "internalType": "uint256",
          "name": "objKey",
          "type": "uint256"
        },
        {
          "internalType": "bool",
          "name": "boxInfoCheck",
          "type": "bool"
        }
      ],
      "stateMutability": "view",
      "type": "function"
    },
    {
      "inputs": [
        {
          "internalType": "uint256",
          "name": "",
          "type": "uint256"
        },
        {
          "internalType": "uint256",
          "name": "",
          "type": "uint256"
        }
      ],
      "name": "BoxRarity",
      "outputs": [
        {
          "internalType": "uint256",
          "name": "",
          "type": "uint256"
        }
      ],
      "stateMutability": "view",
      "type": "function"
    },
    {
      "inputs": [
        {
          "internalType": "address",
          "name": "to",
          "type": "address"
        },
        {
          "internalType": "uint256",
          "name": "tokenId",
          "type": "uint256"
        }
      ],
      "name": "approve",
      "outputs": [],
      "stateMutability": "nonpayable",
      "type": "function"
    },
    {
      "inputs": [
        {
          "internalType": "address",
          "name": "owner",
          "type": "address"
        }
      ],
      "name": "balanceOf",
      "outputs": [
        {
          "internalType": "uint256",
          "name": "",
          "type": "uint256"
        }
      ],
      "stateMutability": "view",
      "type": "function"
    },
    {
      "inputs": [
        {
          "internalType": "uint256",
          "name": "_tokenId",
          "type": "uint256"
        }
      ],
      "name": "existNFT",
      "outputs": [
        {
          "internalType": "bool",
          "name": "",
          "type": "bool"
        }
      ],
      "stateMutability": "view",
      "type": "function"
    },
    {
      "inputs": [],
      "name": "getActionAddress",
      "outputs": [
        {
          "internalType": "address",
          "name": "",
          "type": "address"
        }
      ],
      "stateMutability": "view",
      "type": "function"
    },
    {
      "inputs": [
        {
          "internalType": "uint256",
          "name": "tokenId",
          "type": "uint256"
        }
      ],
      "name": "getApproved",
      "outputs": [
        {
          "internalType": "address",
          "name": "",
          "type": "address"
        }
      ],
      "stateMutability": "view",
      "type": "function"
    },
    {
      "inputs": [],
      "name": "getBaseUri",
      "outputs": [
        {
          "internalType": "string",
          "name": "",
          "type": "string"
        }
      ],
      "stateMutability": "view",
      "type": "function"
    },
    {
      "inputs": [],
      "name": "getNFTManagerAddress",
      "outputs": [
        {
          "internalType": "address",
          "name": "",
          "type": "address"
        }
      ],
      "stateMutability": "view",
      "type": "function"
    },
    {
      "inputs": [],
      "name": "getRandomChoiceAddress",
      "outputs": [
        {
          "internalType": "address",
          "name": "",
          "type": "address"
        }
      ],
      "stateMutability": "view",
      "type": "function"
    },
    {
      "inputs": [
        {
          "internalType": "address",
          "name": "owner",
          "type": "address"
        },
        {
          "internalType": "address",
          "name": "operator",
          "type": "address"
        }
      ],
      "name": "isApprovedForAll",
      "outputs": [
        {
          "internalType": "bool",
          "name": "",
          "type": "bool"
        }
      ],
      "stateMutability": "view",
      "type": "function"
    },
    {
      "inputs": [],
      "name": "name",
      "outputs": [
        {
          "internalType": "string",
          "name": "",
          "type": "string"
        }
      ],
      "stateMutability": "view",
      "type": "function"
    },
    {
      "inputs": [],
      "name": "owner",
      "outputs": [
        {
          "internalType": "address",
          "name": "",
          "type": "address"
        }
      ],
      "stateMutability": "view",
      "type": "function"
    },
    {
      "inputs": [
        {
          "internalType": "uint256",
          "name": "tokenId",
          "type": "uint256"
        }
      ],
      "name": "ownerOf",
      "outputs": [
        {
          "internalType": "address",
          "name": "",
          "type": "address"
        }
      ],
      "stateMutability": "view",
      "type": "function"
    },
    {
      "inputs": [
        {
          "internalType": "uint256",
          "name": "_tokenId",
          "type": "uint256"
        }
      ],
      "name": "ownerOfNFT",
      "outputs": [
        {
          "internalType": "bool",
          "name": "",
          "type": "bool"
        }
      ],
      "stateMutability": "view",
      "type": "function"
    },
    {
      "inputs": [],
      "name": "renounceOwnership",
      "outputs": [],
      "stateMutability": "nonpayable",
      "type": "function"
    },
    {
      "inputs": [
        {
          "internalType": "address",
          "name": "from",
          "type": "address"
        },
        {
          "internalType": "address",
          "name": "to",
          "type": "address"
        },
        {
          "internalType": "uint256",
          "name": "tokenId",
          "type": "uint256"
        }
      ],
      "name": "safeTransferFrom",
      "outputs": [],
      "stateMutability": "nonpayable",
      "type": "function"
    },
    {
      "inputs": [
        {
          "internalType": "address",
          "name": "from",
          "type": "address"
        },
        {
          "internalType": "address",
          "name": "to",
          "type": "address"
        },
        {
          "internalType": "uint256",
          "name": "tokenId",
          "type": "uint256"
        },
        {
          "internalType": "bytes",
          "name": "data",
          "type": "bytes"
        }
      ],
      "name": "safeTransferFrom",
      "outputs": [],
      "stateMutability": "nonpayable",
      "type": "function"
    },
    {
      "inputs": [
        {
          "internalType": "address",
          "name": "_ActionAddress",
          "type": "address"
        }
      ],
      "name": "setActionAddress",
      "outputs": [],
      "stateMutability": "nonpayable",
      "type": "function"
    },
    {
      "inputs": [
        {
          "internalType": "address",
          "name": "operator",
          "type": "address"
        },
        {
          "internalType": "bool",
          "name": "approved",
          "type": "bool"
        }
      ],
      "name": "setApprovalForAll",
      "outputs": [],
      "stateMutability": "nonpayable",
      "type": "function"
    },
    {
      "inputs": [
        {
          "internalType": "string",
          "name": "_baseUri",
          "type": "string"
        }
      ],
      "name": "setBaseURI",
      "outputs": [],
      "stateMutability": "nonpayable",
      "type": "function"
    },
    {
      "inputs": [
        {
          "internalType": "string",
          "name": "_baseUri",
          "type": "string"
        }
      ],
      "name": "setBaseUri",
      "outputs": [],
      "stateMutability": "nonpayable",
      "type": "function"
    },
    {
      "inputs": [
        {
          "internalType": "address",
          "name": "_NFTManagerAddress",
          "type": "address"
        }
      ],
      "name": "setNFTManagerAddress",
      "outputs": [],
      "stateMutability": "nonpayable",
      "type": "function"
    },
    {
      "inputs": [
        {
          "internalType": "address",
          "name": "_RandomChoiceAddress",
          "type": "address"
        }
      ],
      "name": "setRandomChoiceAddress",
      "outputs": [],
      "stateMutability": "nonpayable",
      "type": "function"
    },
    {
      "inputs": [
        {
          "internalType": "bytes4",
          "name": "interfaceId",
          "type": "bytes4"
        }
      ],
      "name": "supportsInterface",
      "outputs": [
        {
          "internalType": "bool",
          "name": "",
          "type": "bool"
        }
      ],
      "stateMutability": "view",
      "type": "function"
    },
    {
      "inputs": [],
      "name": "symbol",
      "outputs": [
        {
          "internalType": "string",
          "name": "",
          "type": "string"
        }
      ],
      "stateMutability": "view",
      "type": "function"
    },
    {
      "inputs": [
        {
          "internalType": "uint256",
          "name": "index",
          "type": "uint256"
        }
      ],
      "name": "tokenByIndex",
      "outputs": [
        {
          "internalType": "uint256",
          "name": "",
          "type": "uint256"
        }
      ],
      "stateMutability": "view",
      "type": "function"
    },
    {
      "inputs": [
        {
          "internalType": "address",
          "name": "owner",
          "type": "address"
        },
        {
          "internalType": "uint256",
          "name": "index",
          "type": "uint256"
        }
      ],
      "name": "tokenOfOwnerByIndex",
      "outputs": [
        {
          "internalType": "uint256",
          "name": "",
          "type": "uint256"
        }
      ],
      "stateMutability": "view",
      "type": "function"
    },
    {
      "inputs": [
        {
          "internalType": "uint256",
          "name": "tokenId",
          "type": "uint256"
        }
      ],
      "name": "tokenURI",
      "outputs": [
        {
          "internalType": "string",
          "name": "",
          "type": "string"
        }
      ],
      "stateMutability": "view",
      "type": "function"
    },
    {
      "inputs": [],
      "name": "totalSupply",
      "outputs": [
        {
          "internalType": "uint256",
          "name": "",
          "type": "uint256"
        }
      ],
      "stateMutability": "view",
      "type": "function"
    },
    {
      "inputs": [
        {
          "internalType": "address",
          "name": "from",
          "type": "address"
        },
        {
          "internalType": "address",
          "name": "to",
          "type": "address"
        },
        {
          "internalType": "uint256",
          "name": "tokenId",
          "type": "uint256"
        }
      ],
      "name": "transferFrom",
      "outputs": [],
      "stateMutability": "nonpayable",
      "type": "function"
    },
    {
      "inputs": [
        {
          "internalType": "address",
          "name": "from",
          "type": "address"
        },
        {
          "internalType": "address",
          "name": "_to",
          "type": "address"
        },
        {
          "internalType": "uint256",
          "name": "_tokenId",
          "type": "uint256"
        }
      ],
      "name": "transferNFT",
      "outputs": [],
      "stateMutability": "nonpayable",
      "type": "function"
    },
    {
      "inputs": [
        {
          "internalType": "address",
          "name": "newOwner",
          "type": "address"
        }
      ],
      "name": "transferOwnership",
      "outputs": [],
      "stateMutability": "nonpayable",
      "type": "function"
    },
    {
      "inputs": [
        {
          "internalType": "uint256",
          "name": "objKey",
          "type": "uint256"
        },
        {
          "internalType": "uint256",
          "name": "r1",
          "type": "uint256"
        }
      ],
      "name": "createANewBox",
      "outputs": [
        {
          "internalType": "uint256",
          "name": "tokenId",
          "type": "uint256"
        }
      ],
      "stateMutability": "nonpayable",
      "type": "function"
    },
    {
      "inputs": [
        {
          "internalType": "uint256",
          "name": "boxKey",
          "type": "uint256"
        }
      ],
      "name": "openBox",
      "outputs": [],
      "stateMutability": "nonpayable",
      "type": "function"
    }
  ],
  "bytecode": "0x60806040523480156200001157600080fd5b50604051620052e7380380620052e7833981810160405281019062000037919062000498565b8383826040518060400160405280600381526020017f424f5800000000000000000000000000000000000000000000000000000000008152506040518060400160405280600281526020017f425800000000000000000000000000000000000000000000000000000000000081525081818160009081620000b9919062000774565b508060019081620000cb919062000774565b505050620000ee620000e2620001d260201b60201c565b620001da60201b60201c565b84600c60006101000a81548173ffffffffffffffffffffffffffffffffffffffff021916908373ffffffffffffffffffffffffffffffffffffffff16021790555083600d60006101000a81548173ffffffffffffffffffffffffffffffffffffffff021916908373ffffffffffffffffffffffffffffffffffffffff16021790555082600f908162000181919062000774565b50505050505081601160006101000a81548173ffffffffffffffffffffffffffffffffffffffff021916908373ffffffffffffffffffffffffffffffffffffffff160217905550505050506200085b565b600033905090565b6000600b60009054906101000a900473ffffffffffffffffffffffffffffffffffffffff16905081600b60006101000a81548173ffffffffffffffffffffffffffffffffffffffff021916908373ffffffffffffffffffffffffffffffffffffffff1602179055508173ffffffffffffffffffffffffffffffffffffffff168173ffffffffffffffffffffffffffffffffffffffff167f8be0079c531659141344cd1fd0a4f28419497f9722a3daafe3b4186f6b6457e060405160405180910390a35050565b6000604051905090565b600080fd5b600080fd5b600073ffffffffffffffffffffffffffffffffffffffff82169050919050565b6000620002e182620002b4565b9050919050565b620002f381620002d4565b8114620002ff57600080fd5b50565b6000815190506200031381620002e8565b92915050565b600080fd5b600080fd5b6000601f19601f8301169050919050565b7f4e487b7100000000000000000000000000000000000000000000000000000000600052604160045260246000fd5b6200036e8262000323565b810181811067ffffffffffffffff8211171562000390576200038f62000334565b5b80604052505050565b6000620003a5620002a0565b9050620003b3828262000363565b919050565b600067ffffffffffffffff821115620003d657620003d562000334565b5b620003e18262000323565b9050602081019050919050565b60005b838110156200040e578082015181840152602081019050620003f1565b60008484015250505050565b6000620004316200042b84620003b8565b62000399565b90508281526020810184848401111562000450576200044f6200031e565b5b6200045d848285620003ee565b509392505050565b600082601f8301126200047d576200047c62000319565b5b81516200048f8482602086016200041a565b91505092915050565b60008060008060808587031215620004b557620004b4620002aa565b5b6000620004c58782880162000302565b9450506020620004d88782880162000302565b9350506040620004eb8782880162000302565b925050606085015167ffffffffffffffff8111156200050f576200050e620002af565b5b6200051d8782880162000465565b91505092959194509250565b600081519050919050565b7f4e487b7100000000000000000000000000000000000000000000000000000000600052602260045260246000fd5b600060028204905060018216806200057c57607f821691505b60208210810362000592576200059162000534565b5b50919050565b60008190508160005260206000209050919050565b60006020601f8301049050919050565b600082821b905092915050565b600060088302620005fc7fffffffffffffffffffffffffffffffffffffffffffffffffffffffffffffffff82620005bd565b620006088683620005bd565b95508019841693508086168417925050509392505050565b6000819050919050565b6000819050919050565b6000620006556200064f620006498462000620565b6200062a565b62000620565b9050919050565b6000819050919050565b620006718362000634565b6200068962000680826200065c565b848454620005ca565b825550505050565b600090565b620006a062000691565b620006ad81848462000666565b505050565b5b81811015620006d557620006c960008262000696565b600181019050620006b3565b5050565b601f8211156200072457620006ee8162000598565b620006f984620005ad565b8101602085101562000709578190505b620007216200071885620005ad565b830182620006b2565b50505b505050565b600082821c905092915050565b6000620007496000198460080262000729565b1980831691505092915050565b600062000764838362000736565b9150826002028217905092915050565b6200077f8262000529565b67ffffffffffffffff8111156200079b576200079a62000334565b5b620007a7825462000563565b620007b4828285620006d9565b600060209050601f831160018114620007ec5760008415620007d7578287015190505b620007e3858262000756565b86555062000853565b601f198416620007fc8662000598565b60005b828110156200082657848901518255600182019150602085019450602081019050620007ff565b8683101562000846578489015162000842601f89168262000736565b8355505b6001600288020188555050505b505050505050565b614a7c806200086b6000396000f3fe608060405234801561001057600080fd5b50600436106102115760003560e01c80638203685011610125578063b1e5e2b7116100ad578063e080cd821161007c578063e080cd8214610624578063e985e9c514610656578063f2fde38b14610686578063fc2a9ea6146106a2578063fe39f252146106be57610211565b8063b1e5e2b71461058c578063b88d4fde146105a8578063c87b56dd146105c4578063d862a4bc146105f457610211565b80639e056ce9116100f45780639e056ce9146104fe578063a0bcfc7f1461051a578063a22cb46514610536578063a510123f14610552578063ab2c1b651461057057610211565b80638203685014610474578063876ffe1e146104a45780638da5cb5b146104c257806395d89b41146104e057610211565b80632f745c59116101a85780636352211e116101775780636352211e146103d057806368f3f6dc1461040057806369e9cae11461041e57806370a082311461043a578063715018a61461046a57610211565b80632f745c591461033857806342842e0e146103685780634f6ccce71461038457806355f804b3146103b457610211565b80630cac36b2116101e45780630cac36b2146102b057806318160ddd146102ce57806323b872dd146102ec5780632d8a746e1461030857610211565b806301ffc9a71461021657806306fdde0314610246578063081812fc14610264578063095ea7b314610294575b600080fd5b610230600480360381019061022b91906130d7565b6106ee565b60405161023d919061311f565b60405180910390f35b61024e610700565b60405161025b91906131ca565b60405180910390f35b61027e60048036038101906102799190613222565b610792565b60405161028b9190613290565b60405180910390f35b6102ae60048036038101906102a991906132d7565b6107d8565b005b6102b86108ef565b6040516102c591906131ca565b60405180910390f35b6102d6610981565b6040516102e39190613326565b60405180910390f35b61030660048036038101906103019190613341565b61098e565b005b610322600480360381019061031d9190613222565b6109ee565b60405161032f919061311f565b60405180910390f35b610352600480360381019061034d91906132d7565b610a2e565b60405161035f9190613326565b60405180910390f35b610382600480360381019061037d9190613341565b610ad3565b005b61039e60048036038101906103999190613222565b610af3565b6040516103ab9190613326565b60405180910390f35b6103ce60048036038101906103c991906134c9565b610b64565b005b6103ea60048036038101906103e59190613222565b610b7f565b6040516103f79190613290565b60405180910390f35b610408610c05565b6040516104159190613290565b60405180910390f35b61043860048036038101906104339190613341565b610c2f565b005b610454600480360381019061044f9190613512565b610cfd565b6040516104619190613326565b60405180910390f35b610472610db4565b005b61048e60048036038101906104899190613222565b610dc8565b60405161049b919061311f565b60405180910390f35b6104ac610dda565b6040516104b99190613290565b60405180910390f35b6104ca610e04565b6040516104d79190613290565b60405180910390f35b6104e8610e2e565b6040516104f591906131ca565b60405180910390f35b61051860048036038101906105139190613512565b610ec0565b005b610534600480360381019061052f91906134c9565b610f0c565b005b610550600480360381019061054b919061356b565b610f27565b005b61055a610f3d565b6040516105679190613290565b60405180910390f35b61058a60048036038101906105859190613512565b610f67565b005b6105a660048036038101906105a19190613222565b610fb3565b005b6105c260048036038101906105bd919061364c565b6111fb565b005b6105de60048036038101906105d99190613222565b61125d565b6040516105eb91906131ca565b60405180910390f35b61060e600480360381019061060991906136cf565b61126f565b60405161061b9190613326565b60405180910390f35b61063e60048036038101906106399190613222565b611494565b60405161064d9392919061370f565b60405180910390f35b610670600480360381019061066b9190613746565b6114cb565b60405161067d919061311f565b60405180910390f35b6106a0600480360381019061069b9190613512565b61155f565b005b6106bc60048036038101906106b79190613512565b6115e2565b005b6106d860048036038101906106d391906136cf565b61162e565b6040516106e59190613326565b60405180910390f35b60006106f98261165f565b9050919050565b60606000805461070f906137b5565b80601f016020809104026020016040519081016040528092919081815260200182805461073b906137b5565b80156107885780601f1061075d57610100808354040283529160200191610788565b820191906000526020600020905b81548152906001019060200180831161076b57829003601f168201915b5050505050905090565b600061079d826116c0565b6004600083815260200190815260200160002060009054906101000a900473ffffffffffffffffffffffffffffffffffffffff169050919050565b60006107e382610b7f565b90508073ffffffffffffffffffffffffffffffffffffffff168373ffffffffffffffffffffffffffffffffffffffff1603610853576040517f08c379a000000000000000000000000000000000000000000000000000000000815260040161084a90613858565b60405180910390fd5b8073ffffffffffffffffffffffffffffffffffffffff1661087261170b565b73ffffffffffffffffffffffffffffffffffffffff1614806108a157506108a08161089b61170b565b6114cb565b5b6108e0576040517f08c379a00000000000000000000000000000000000000000000000000000000081526004016108d7906138ea565b60405180910390fd5b6108ea8383611713565b505050565b6060600f80546108fe906137b5565b80601f016020809104026020016040519081016040528092919081815260200182805461092a906137b5565b80156109775780601f1061094c57610100808354040283529160200191610977565b820191906000526020600020905b81548152906001019060200180831161095a57829003601f168201915b5050505050905090565b6000600880549050905090565b61099f61099961170b565b826117cc565b6109de576040517f08c379a00000000000000000000000000000000000000000000000000000000081526004016109d59061397c565b60405180910390fd5b6109e9838383611861565b505050565b60003373ffffffffffffffffffffffffffffffffffffffff16610a1083610b7f565b73ffffffffffffffffffffffffffffffffffffffff16149050919050565b6000610a3983610cfd565b8210610a7a576040517f08c379a0000000000000000000000000000000000000000000000000000000008152600401610a7190613a0e565b60405180910390fd5b600660008473ffffffffffffffffffffffffffffffffffffffff1673ffffffffffffffffffffffffffffffffffffffff168152602001908152602001600020600083815260200190815260200160002054905092915050565b610aee838383604051806020016040528060008152506111fb565b505050565b6000610afd610981565b8210610b3e576040517f08c379a0000000000000000000000000000000000000000000000000000000008152600401610b3590613aa0565b60405180910390fd5b60088281548110610b5257610b51613ac0565b5b90600052602060002001549050919050565b610b6c611b5a565b80600f9081610b7b9190613c9b565b5050565b600080610b8b83611bd8565b9050600073ffffffffffffffffffffffffffffffffffffffff168173ffffffffffffffffffffffffffffffffffffffff1603610bfc576040517f08c379a0000000000000000000000000000000000000000000000000000000008152600401610bf390613db9565b60405180910390fd5b80915050919050565b6000600e60009054906101000a900473ffffffffffffffffffffffffffffffffffffffff16905090565b610c3881611c15565b610c77576040517f08c379a0000000000000000000000000000000000000000000000000000000008152600401610c6e90613e25565b60405180910390fd5b3373ffffffffffffffffffffffffffffffffffffffff16610c9782610b7f565b73ffffffffffffffffffffffffffffffffffffffff1614610ced576040517f08c379a0000000000000000000000000000000000000000000000000000000008152600401610ce490613eb7565b60405180910390fd5b610cf8838383610ad3565b505050565b60008073ffffffffffffffffffffffffffffffffffffffff168273ffffffffffffffffffffffffffffffffffffffff1603610d6d576040517f08c379a0000000000000000000000000000000000000000000000000000000008152600401610d6490613f49565b60405180910390fd5b600360008373ffffffffffffffffffffffffffffffffffffffff1673ffffffffffffffffffffffffffffffffffffffff168152602001908152602001600020549050919050565b610dbc611b5a565b610dc66000611c56565b565b6000610dd382611c15565b9050919050565b6000600c60009054906101000a900473ffffffffffffffffffffffffffffffffffffffff16905090565b6000600b60009054906101000a900473ffffffffffffffffffffffffffffffffffffffff16905090565b606060018054610e3d906137b5565b80601f0160208091040260200160405190810160405280929190818152602001828054610e69906137b5565b8015610eb65780601f10610e8b57610100808354040283529160200191610eb6565b820191906000526020600020905b815481529060010190602001808311610e9957829003601f168201915b5050505050905090565b610ec8611b5a565b80600e60006101000a81548173ffffffffffffffffffffffffffffffffffffffff021916908373ffffffffffffffffffffffffffffffffffffffff16021790555050565b610f14611b5a565b80600f9081610f239190613c9b565b5050565b610f39610f3261170b565b8383611d1c565b5050565b6000600d60009054906101000a900473ffffffffffffffffffffffffffffffffffffffff16905090565b610f6f611b5a565b80600d60006101000a81548173ffffffffffffffffffffffffffffffffffffffff021916908373ffffffffffffffffffffffffffffffffffffffff16021790555050565b3373ffffffffffffffffffffffffffffffffffffffff163073ffffffffffffffffffffffffffffffffffffffff16636352211e836040518263ffffffff1660e01b81526004016110039190613326565b602060405180830381865afa158015611020573d6000803e3d6000fd5b505050506040513d601f19601f820116820180604052508101906110449190613f7e565b73ffffffffffffffffffffffffffffffffffffffff161461109a576040517f08c379a000000000000000000000000000000000000000000000000000000000815260040161109190613ff7565b60405180910390fd5b60006012600083815260200190815260200160002060405180606001604052908160008201548152602001600182015481526020016002820160009054906101000a900460ff1615151515815250509050806040015161112f576040517f08c379a000000000000000000000000000000000000000000000000000000000815260040161112690614063565b60405180910390fd5b60006012600084815260200190815260200160002060020160006101000a81548160ff02191690831515021790555061116782611e88565b61116f610dda565b73ffffffffffffffffffffffffffffffffffffffff16638a086b7f33836000015184602001516040518463ffffffff1660e01b81526004016111b393929190614083565b6020604051808303816000875af11580156111d2573d6000803e3d6000fd5b505050506040513d601f19601f820116820180604052508101906111f691906140cf565b505050565b61120c61120661170b565b836117cc565b61124b576040517f08c379a00000000000000000000000000000000000000000000000000000000081526004016112429061397c565b60405180910390fd5b61125784848484611e94565b50505050565b606061126882611ef0565b9050919050565b6000601160009054906101000a900473ffffffffffffffffffffffffffffffffffffffff1673ffffffffffffffffffffffffffffffffffffffff163373ffffffffffffffffffffffffffffffffffffffff1614806112ff57506112d0610e04565b73ffffffffffffffffffffffffffffffffffffffff163373ffffffffffffffffffffffffffffffffffffffff16145b61133e576040517f08c379a000000000000000000000000000000000000000000000000000000000815260040161133590614148565b60405180910390fd5b6000611348610f3d565b73ffffffffffffffffffffffffffffffffffffffff1663a86241e6601360008681526020019081526020016000206040518263ffffffff1660e01b81526004016113929190614276565b6020604051808303816000875af11580156113b1573d6000803e3d6000fd5b505050506040513d601f19601f820116820180604052508101906113d591906142ad565b90506113e16010612002565b91506113ed6010612010565b80601260008481526020019081526020016000206000018190555083601260008481526020019081526020016000206001018190555060016012600084815260200190815260200160002060020160006101000a81548160ff02191690831515021790555061145c3383612026565b61148d8261146984612044565b604051602001611479919061433c565b604051602081830303815290604052612112565b5092915050565b60126020528060005260406000206000915090508060000154908060010154908060020160009054906101000a900460ff16905083565b6000600560008473ffffffffffffffffffffffffffffffffffffffff1673ffffffffffffffffffffffffffffffffffffffff16815260200190815260200160002060008373ffffffffffffffffffffffffffffffffffffffff1673ffffffffffffffffffffffffffffffffffffffff16815260200190815260200160002060009054906101000a900460ff16905092915050565b611567611b5a565b600073ffffffffffffffffffffffffffffffffffffffff168173ffffffffffffffffffffffffffffffffffffffff16036115d6576040517f08c379a00000000000000000000000000000000000000000000000000000000081526004016115cd906143d4565b60405180910390fd5b6115df81611c56565b50565b6115ea611b5a565b80600c60006101000a81548173ffffffffffffffffffffffffffffffffffffffff021916908373ffffffffffffffffffffffffffffffffffffffff16021790555050565b6013602052816000526040600020818154811061164a57600080fd5b90600052602060002001600091509150505481565b6000634906490660e01b7bffffffffffffffffffffffffffffffffffffffffffffffffffffffff1916827bffffffffffffffffffffffffffffffffffffffffffffffffffffffff191614806116b957506116b8826121b6565b5b9050919050565b6116c981611c15565b611708576040517f08c379a00000000000000000000000000000000000000000000000000000000081526004016116ff90613db9565b60405180910390fd5b50565b600033905090565b816004600083815260200190815260200160002060006101000a81548173ffffffffffffffffffffffffffffffffffffffff021916908373ffffffffffffffffffffffffffffffffffffffff160217905550808273ffffffffffffffffffffffffffffffffffffffff1661178683610b7f565b73ffffffffffffffffffffffffffffffffffffffff167f8c5be1e5ebec7d5bd14f71427d1e84f3dd0314c0f7b2291e5b200ac8c7c3b92560405160405180910390a45050565b6000806117d883610b7f565b90508073ffffffffffffffffffffffffffffffffffffffff168473ffffffffffffffffffffffffffffffffffffffff16148061181a575061181981856114cb565b5b8061185857508373ffffffffffffffffffffffffffffffffffffffff1661184084610792565b73ffffffffffffffffffffffffffffffffffffffff16145b91505092915050565b8273ffffffffffffffffffffffffffffffffffffffff1661188182610b7f565b73ffffffffffffffffffffffffffffffffffffffff16146118d7576040517f08c379a00000000000000000000000000000000000000000000000000000000081526004016118ce90614466565b60405180910390fd5b600073ffffffffffffffffffffffffffffffffffffffff168273ffffffffffffffffffffffffffffffffffffffff1603611946576040517f08c379a000000000000000000000000000000000000000000000000000000000815260040161193d906144f8565b60405180910390fd5b6119538383836001612230565b8273ffffffffffffffffffffffffffffffffffffffff1661197382610b7f565b73ffffffffffffffffffffffffffffffffffffffff16146119c9576040517f08c379a00000000000000000000000000000000000000000000000000000000081526004016119c090614466565b60405180910390fd5b6004600082815260200190815260200160002060006101000a81549073ffffffffffffffffffffffffffffffffffffffff02191690556001600360008573ffffffffffffffffffffffffffffffffffffffff1673ffffffffffffffffffffffffffffffffffffffff168152602001908152602001600020600082825403925050819055506001600360008473ffffffffffffffffffffffffffffffffffffffff1673ffffffffffffffffffffffffffffffffffffffff16815260200190815260200160002060008282540192505081905550816002600083815260200190815260200160002060006101000a81548173ffffffffffffffffffffffffffffffffffffffff021916908373ffffffffffffffffffffffffffffffffffffffff160217905550808273ffffffffffffffffffffffffffffffffffffffff168473ffffffffffffffffffffffffffffffffffffffff167fddf252ad1be2c89b69c2b068fc378daa952ba7f163c4a11628f55a4df523b3ef60405160405180910390a4611b558383836001612242565b505050565b611b6261170b565b73ffffffffffffffffffffffffffffffffffffffff16611b80610e04565b73ffffffffffffffffffffffffffffffffffffffff1614611bd6576040517f08c379a0000000000000000000000000000000000000000000000000000000008152600401611bcd90614564565b60405180910390fd5b565b60006002600083815260200190815260200160002060009054906101000a900473ffffffffffffffffffffffffffffffffffffffff169050919050565b60008073ffffffffffffffffffffffffffffffffffffffff16611c3783611bd8565b73ffffffffffffffffffffffffffffffffffffffff1614159050919050565b6000600b60009054906101000a900473ffffffffffffffffffffffffffffffffffffffff16905081600b60006101000a81548173ffffffffffffffffffffffffffffffffffffffff021916908373ffffffffffffffffffffffffffffffffffffffff1602179055508173ffffffffffffffffffffffffffffffffffffffff168173ffffffffffffffffffffffffffffffffffffffff167f8be0079c531659141344cd1fd0a4f28419497f9722a3daafe3b4186f6b6457e060405160405180910390a35050565b8173ffffffffffffffffffffffffffffffffffffffff168373ffffffffffffffffffffffffffffffffffffffff1603611d8a576040517f08c379a0000000000000000000000000000000000000000000000000000000008152600401611d81906145d0565b60405180910390fd5b80600560008573ffffffffffffffffffffffffffffffffffffffff1673ffffffffffffffffffffffffffffffffffffffff16815260200190815260200160002060008473ffffffffffffffffffffffffffffffffffffffff1673ffffffffffffffffffffffffffffffffffffffff16815260200190815260200160002060006101000a81548160ff0219169083151502179055508173ffffffffffffffffffffffffffffffffffffffff168373ffffffffffffffffffffffffffffffffffffffff167f17307eab39ab6107e8899845ad3d59bd9653f200f220920489ca2b5937696c3183604051611e7b919061311f565b60405180910390a3505050565b611e9181612248565b50565b611e9f848484611861565b611eab8484848461229b565b611eea576040517f08c379a0000000000000000000000000000000000000000000000000000000008152600401611ee190614662565b60405180910390fd5b50505050565b6060611efb826116c0565b6000600a60008481526020019081526020016000208054611f1b906137b5565b80601f0160208091040260200160405190810160405280929190818152602001828054611f47906137b5565b8015611f945780601f10611f6957610100808354040283529160200191611f94565b820191906000526020600020905b815481529060010190602001808311611f7757829003601f168201915b505050505090506000611fa5612422565b90506000815103611fba578192505050611ffd565b600082511115611fef578082604051602001611fd7929190614682565b60405160208183030381529060405292505050611ffd565b611ff8846124b4565b925050505b919050565b600081600001549050919050565b6001816000016000828254019250508190555050565b61204082826040518060200160405280600081525061251c565b5050565b60606000600161205384612577565b01905060008167ffffffffffffffff8111156120725761207161339e565b5b6040519080825280601f01601f1916602001820160405280156120a45781602001600182028036833780820191505090505b509050600082602001820190505b600115612107578080600190039150507f3031323334353637383961626364656600000000000000000000000000000000600a86061a8153600a85816120fb576120fa6146a6565b5b049450600085036120b2575b819350505050919050565b61211b82611c15565b61215a576040517f08c379a000000000000000000000000000000000000000000000000000000000815260040161215190614747565b60405180910390fd5b80600a6000848152602001908152602001600020908161217a9190613c9b565b507ff8e1a15aba9398e019f0b49df1a4fde98ee17ae345cb5f6b5e2c27f5033e8ce7826040516121aa9190613326565b60405180910390a15050565b60007f780e9d63000000000000000000000000000000000000000000000000000000007bffffffffffffffffffffffffffffffffffffffffffffffffffffffff1916827bffffffffffffffffffffffffffffffffffffffffffffffffffffffff191614806122295750612228826126ca565b5b9050919050565b61223c848484846127ac565b50505050565b50505050565b6122518161290a565b6000600a60008381526020019081526020016000208054612271906137b5565b90501461229857600a60008281526020019081526020016000206000612297919061300e565b5b50565b60006122bc8473ffffffffffffffffffffffffffffffffffffffff16612a58565b15612415578373ffffffffffffffffffffffffffffffffffffffff1663150b7a026122e561170b565b8786866040518563ffffffff1660e01b815260040161230794939291906147bc565b6020604051808303816000875af192505050801561234357506040513d601f19601f82011682018060405250810190612340919061481d565b60015b6123c5573d8060008114612373576040519150601f19603f3d011682016040523d82523d6000602084013e612378565b606091505b5060008151036123bd576040517f08c379a00000000000000000000000000000000000000000000000000000000081526004016123b490614662565b60405180910390fd5b805181602001fd5b63150b7a0260e01b7bffffffffffffffffffffffffffffffffffffffffffffffffffffffff1916817bffffffffffffffffffffffffffffffffffffffffffffffffffffffff19161491505061241a565b600190505b949350505050565b6060600f8054612431906137b5565b80601f016020809104026020016040519081016040528092919081815260200182805461245d906137b5565b80156124aa5780601f1061247f576101008083540402835291602001916124aa565b820191906000526020600020905b81548152906001019060200180831161248d57829003601f168201915b5050505050905090565b60606124bf826116c0565b60006124c9612422565b905060008151116124e95760405180602001604052806000815250612514565b806124f384612044565b604051602001612504929190614682565b6040516020818303038152906040525b915050919050565b6125268383612a7b565b612533600084848461229b565b612572576040517f08c379a000000000000000000000000000000000000000000000000000000000815260040161256990614662565b60405180910390fd5b505050565b600080600090507a184f03e93ff9f4daa797ed6e38ed64bf6a1f01000000000000000083106125d5577a184f03e93ff9f4daa797ed6e38ed64bf6a1f01000000000000000083816125cb576125ca6146a6565b5b0492506040810190505b6d04ee2d6d415b85acef81000000008310612612576d04ee2d6d415b85acef81000000008381612608576126076146a6565b5b0492506020810190505b662386f26fc10000831061264157662386f26fc100008381612637576126366146a6565b5b0492506010810190505b6305f5e100831061266a576305f5e10083816126605761265f6146a6565b5b0492506008810190505b612710831061268f576127108381612685576126846146a6565b5b0492506004810190505b606483106126b257606483816126a8576126a76146a6565b5b0492506002810190505b600a83106126c1576001810190505b80915050919050565b60007f80ac58cd000000000000000000000000000000000000000000000000000000007bffffffffffffffffffffffffffffffffffffffffffffffffffffffff1916827bffffffffffffffffffffffffffffffffffffffffffffffffffffffff1916148061279557507f5b5e139f000000000000000000000000000000000000000000000000000000007bffffffffffffffffffffffffffffffffffffffffffffffffffffffff1916827bffffffffffffffffffffffffffffffffffffffffffffffffffffffff1916145b806127a557506127a482612c98565b5b9050919050565b6127b884848484612d02565b60018111156127fc576040517f08c379a00000000000000000000000000000000000000000000000000000000081526004016127f3906148bc565b60405180910390fd5b6000829050600073ffffffffffffffffffffffffffffffffffffffff168573ffffffffffffffffffffffffffffffffffffffff16036128435761283e81612d08565b612882565b8373ffffffffffffffffffffffffffffffffffffffff168573ffffffffffffffffffffffffffffffffffffffff1614612881576128808582612d51565b5b5b600073ffffffffffffffffffffffffffffffffffffffff168473ffffffffffffffffffffffffffffffffffffffff16036128c4576128bf81612ebe565b612903565b8473ffffffffffffffffffffffffffffffffffffffff168473ffffffffffffffffffffffffffffffffffffffff1614612902576129018482612f8f565b5b5b5050505050565b600061291582610b7f565b9050612925816000846001612230565b61292e82610b7f565b90506004600083815260200190815260200160002060006101000a81549073ffffffffffffffffffffffffffffffffffffffff02191690556001600360008373ffffffffffffffffffffffffffffffffffffffff1673ffffffffffffffffffffffffffffffffffffffff168152602001908152602001600020600082825403925050819055506002600083815260200190815260200160002060006101000a81549073ffffffffffffffffffffffffffffffffffffffff021916905581600073ffffffffffffffffffffffffffffffffffffffff168273ffffffffffffffffffffffffffffffffffffffff167fddf252ad1be2c89b69c2b068fc378daa952ba7f163c4a11628f55a4df523b3ef60405160405180910390a4612a54816000846001612242565b5050565b6000808273ffffffffffffffffffffffffffffffffffffffff163b119050919050565b600073ffffffffffffffffffffffffffffffffffffffff168273ffffffffffffffffffffffffffffffffffffffff1603612aea576040517f08c379a0000000000000000000000000000000000000000000000000000000008152600401612ae190614928565b60405180910390fd5b612af381611c15565b15612b33576040517f08c379a0000000000000000000000000000000000000000000000000000000008152600401612b2a90614994565b60405180910390fd5b612b41600083836001612230565b612b4a81611c15565b15612b8a576040517f08c379a0000000000000000000000000000000000000000000000000000000008152600401612b8190614994565b60405180910390fd5b6001600360008473ffffffffffffffffffffffffffffffffffffffff1673ffffffffffffffffffffffffffffffffffffffff16815260200190815260200160002060008282540192505081905550816002600083815260200190815260200160002060006101000a81548173ffffffffffffffffffffffffffffffffffffffff021916908373ffffffffffffffffffffffffffffffffffffffff160217905550808273ffffffffffffffffffffffffffffffffffffffff16600073ffffffffffffffffffffffffffffffffffffffff167fddf252ad1be2c89b69c2b068fc378daa952ba7f163c4a11628f55a4df523b3ef60405160405180910390a4612c94600083836001612242565b5050565b60007f01ffc9a7000000000000000000000000000000000000000000000000000000007bffffffffffffffffffffffffffffffffffffffffffffffffffffffff1916827bffffffffffffffffffffffffffffffffffffffffffffffffffffffff1916149050919050565b50505050565b6008805490506009600083815260200190815260200160002081905550600881908060018154018082558091505060019003906000526020600020016000909190919091505550565b60006001612d5e84610cfd565b612d6891906149e3565b9050600060076000848152602001908152602001600020549050818114612e4d576000600660008673ffffffffffffffffffffffffffffffffffffffff1673ffffffffffffffffffffffffffffffffffffffff168152602001908152602001600020600084815260200190815260200160002054905080600660008773ffffffffffffffffffffffffffffffffffffffff1673ffffffffffffffffffffffffffffffffffffffff168152602001908152602001600020600084815260200190815260200160002081905550816007600083815260200190815260200160002081905550505b6007600084815260200190815260200160002060009055600660008573ffffffffffffffffffffffffffffffffffffffff1673ffffffffffffffffffffffffffffffffffffffff16815260200190815260200160002060008381526020019081526020016000206000905550505050565b60006001600880549050612ed291906149e3565b9050600060096000848152602001908152602001600020549050600060088381548110612f0257612f01613ac0565b5b906000526020600020015490508060088381548110612f2457612f23613ac0565b5b906000526020600020018190555081600960008381526020019081526020016000208190555060096000858152602001908152602001600020600090556008805480612f7357612f72614a17565b5b6001900381819060005260206000200160009055905550505050565b6000612f9a83610cfd565b905081600660008573ffffffffffffffffffffffffffffffffffffffff1673ffffffffffffffffffffffffffffffffffffffff168152602001908152602001600020600083815260200190815260200160002081905550806007600084815260200190815260200160002081905550505050565b50805461301a906137b5565b6000825580601f1061302c575061304b565b601f01602090049060005260206000209081019061304a919061304e565b5b50565b5b8082111561306757600081600090555060010161304f565b5090565b6000604051905090565b600080fd5b600080fd5b60007fffffffff0000000000000000000000000000000000000000000000000000000082169050919050565b6130b48161307f565b81146130bf57600080fd5b50565b6000813590506130d1816130ab565b92915050565b6000602082840312156130ed576130ec613075565b5b60006130fb848285016130c2565b91505092915050565b60008115159050919050565b61311981613104565b82525050565b60006020820190506131346000830184613110565b92915050565b600081519050919050565b600082825260208201905092915050565b60005b83811015613174578082015181840152602081019050613159565b60008484015250505050565b6000601f19601f8301169050919050565b600061319c8261313a565b6131a68185613145565b93506131b6818560208601613156565b6131bf81613180565b840191505092915050565b600060208201905081810360008301526131e48184613191565b905092915050565b6000819050919050565b6131ff816131ec565b811461320a57600080fd5b50565b60008135905061321c816131f6565b92915050565b60006020828403121561323857613237613075565b5b60006132468482850161320d565b91505092915050565b600073ffffffffffffffffffffffffffffffffffffffff82169050919050565b600061327a8261324f565b9050919050565b61328a8161326f565b82525050565b60006020820190506132a56000830184613281565b92915050565b6132b48161326f565b81146132bf57600080fd5b50565b6000813590506132d1816132ab565b92915050565b600080604083850312156132ee576132ed613075565b5b60006132fc858286016132c2565b925050602061330d8582860161320d565b9150509250929050565b613320816131ec565b82525050565b600060208201905061333b6000830184613317565b92915050565b60008060006060848603121561335a57613359613075565b5b6000613368868287016132c2565b9350506020613379868287016132c2565b925050604061338a8682870161320d565b9150509250925092565b600080fd5b600080fd5b7f4e487b7100000000000000000000000000000000000000000000000000000000600052604160045260246000fd5b6133d682613180565b810181811067ffffffffffffffff821117156133f5576133f461339e565b5b80604052505050565b600061340861306b565b905061341482826133cd565b919050565b600067ffffffffffffffff8211156134345761343361339e565b5b61343d82613180565b9050602081019050919050565b82818337600083830152505050565b600061346c61346784613419565b6133fe565b90508281526020810184848401111561348857613487613399565b5b61349384828561344a565b509392505050565b600082601f8301126134b0576134af613394565b5b81356134c0848260208601613459565b91505092915050565b6000602082840312156134df576134de613075565b5b600082013567ffffffffffffffff8111156134fd576134fc61307a565b5b6135098482850161349b565b91505092915050565b60006020828403121561352857613527613075565b5b6000613536848285016132c2565b91505092915050565b61354881613104565b811461355357600080fd5b50565b6000813590506135658161353f565b92915050565b6000806040838503121561358257613581613075565b5b6000613590858286016132c2565b92505060206135a185828601613556565b9150509250929050565b600067ffffffffffffffff8211156135c6576135c561339e565b5b6135cf82613180565b9050602081019050919050565b60006135ef6135ea846135ab565b6133fe565b90508281526020810184848401111561360b5761360a613399565b5b61361684828561344a565b509392505050565b600082601f83011261363357613632613394565b5b81356136438482602086016135dc565b91505092915050565b6000806000806080858703121561366657613665613075565b5b6000613674878288016132c2565b9450506020613685878288016132c2565b93505060406136968782880161320d565b925050606085013567ffffffffffffffff8111156136b7576136b661307a565b5b6136c38782880161361e565b91505092959194509250565b600080604083850312156136e6576136e5613075565b5b60006136f48582860161320d565b92505060206137058582860161320d565b9150509250929050565b60006060820190506137246000830186613317565b6137316020830185613317565b61373e6040830184613110565b949350505050565b6000806040838503121561375d5761375c613075565b5b600061376b858286016132c2565b925050602061377c858286016132c2565b9150509250929050565b7f4e487b7100000000000000000000000000000000000000000000000000000000600052602260045260246000fd5b600060028204905060018216806137cd57607f821691505b6020821081036137e0576137df613786565b5b50919050565b7f4552433732313a20617070726f76616c20746f2063757272656e74206f776e6560008201527f7200000000000000000000000000000000000000000000000000000000000000602082015250565b6000613842602183613145565b915061384d826137e6565b604082019050919050565b6000602082019050818103600083015261387181613835565b9050919050565b7f4552433732313a20617070726f76652063616c6c6572206973206e6f7420746f60008201527f6b656e206f776e6572206f7220617070726f76656420666f7220616c6c000000602082015250565b60006138d4603d83613145565b91506138df82613878565b604082019050919050565b60006020820190508181036000830152613903816138c7565b9050919050565b7f4552433732313a2063616c6c6572206973206e6f7420746f6b656e206f776e6560008201527f72206f7220617070726f76656400000000000000000000000000000000000000602082015250565b6000613966602d83613145565b91506139718261390a565b604082019050919050565b6000602082019050818103600083015261399581613959565b9050919050565b7f455243373231456e756d657261626c653a206f776e657220696e646578206f7560008201527f74206f6620626f756e6473000000000000000000000000000000000000000000602082015250565b60006139f8602b83613145565b9150613a038261399c565b604082019050919050565b60006020820190508181036000830152613a27816139eb565b9050919050565b7f455243373231456e756d657261626c653a20676c6f62616c20696e646578206f60008201527f7574206f6620626f756e64730000000000000000000000000000000000000000602082015250565b6000613a8a602c83613145565b9150613a9582613a2e565b604082019050919050565b60006020820190508181036000830152613ab981613a7d565b9050919050565b7f4e487b7100000000000000000000000000000000000000000000000000000000600052603260045260246000fd5b60008190508160005260206000209050919050565b60006020601f8301049050919050565b600082821b905092915050565b600060088302613b517fffffffffffffffffffffffffffffffffffffffffffffffffffffffffffffffff82613b14565b613b5b8683613b14565b95508019841693508086168417925050509392505050565b6000819050919050565b6000613b98613b93613b8e846131ec565b613b73565b6131ec565b9050919050565b6000819050919050565b613bb283613b7d565b613bc6613bbe82613b9f565b848454613b21565b825550505050565b600090565b613bdb613bce565b613be6818484613ba9565b505050565b5b81811015613c0a57613bff600082613bd3565b600181019050613bec565b5050565b601f821115613c4f57613c2081613aef565b613c2984613b04565b81016020851015613c38578190505b613c4c613c4485613b04565b830182613beb565b50505b505050565b600082821c905092915050565b6000613c7260001984600802613c54565b1980831691505092915050565b6000613c8b8383613c61565b9150826002028217905092915050565b613ca48261313a565b67ffffffffffffffff811115613cbd57613cbc61339e565b5b613cc782546137b5565b613cd2828285613c0e565b600060209050601f831160018114613d055760008415613cf3578287015190505b613cfd8582613c7f565b865550613d65565b601f198416613d1386613aef565b60005b82811015613d3b57848901518255600182019150602085019450602081019050613d16565b86831015613d585784890151613d54601f891682613c61565b8355505b6001600288020188555050505b505050505050565b7f4552433732313a20696e76616c696420746f6b656e2049440000000000000000600082015250565b6000613da3601883613145565b9150613dae82613d6d565b602082019050919050565b60006020820190508181036000830152613dd281613d96565b9050919050565b7f546f6b656e20646f6573206e6f74206578697374000000000000000000000000600082015250565b6000613e0f601483613145565b9150613e1a82613dd9565b602082019050919050565b60006020820190508181036000830152613e3e81613e02565b9050919050565b7f596f7520617265206e6f7420746865206f776e6572206f66207468697320746f60008201527f6b656e0000000000000000000000000000000000000000000000000000000000602082015250565b6000613ea1602383613145565b9150613eac82613e45565b604082019050919050565b60006020820190508181036000830152613ed081613e94565b9050919050565b7f4552433732313a2061646472657373207a65726f206973206e6f74206120766160008201527f6c6964206f776e65720000000000000000000000000000000000000000000000602082015250565b6000613f33602983613145565b9150613f3e82613ed7565b604082019050919050565b60006020820190508181036000830152613f6281613f26565b9050919050565b600081519050613f78816132ab565b92915050565b600060208284031215613f9457613f93613075565b5b6000613fa284828501613f69565b91505092915050565b7f596f7520646f206e6f74206f776e2074686973204e4654000000000000000000600082015250565b6000613fe1601783613145565b9150613fec82613fab565b602082019050919050565b6000602082019050818103600083015261401081613fd4565b9050919050565b7f546865204e465420697320616c7265616479206f70656e000000000000000000600082015250565b600061404d601783613145565b915061405882614017565b602082019050919050565b6000602082019050818103600083015261407c81614040565b9050919050565b60006060820190506140986000830186613281565b6140a56020830185613317565b6140b26040830184613317565b949350505050565b6000815190506140c98161353f565b92915050565b6000602082840312156140e5576140e4613075565b5b60006140f3848285016140ba565b91505092915050565b7f53656e646572206973206e6f7420726967687400000000000000000000000000600082015250565b6000614132601383613145565b915061413d826140fc565b602082019050919050565b6000602082019050818103600083015261416181614125565b9050919050565b600081549050919050565b600082825260208201905092915050565b60008190508160005260206000209050919050565b6141a2816131ec565b82525050565b60006141b48383614199565b60208301905092915050565b60008160001c9050919050565b6000819050919050565b60006141ea6141e5836141c0565b6141cd565b9050919050565b60006141fd82546141d7565b9050919050565b6000600182019050919050565b600061421c82614168565b6142268185614173565b935061423183614184565b8060005b8381101561426957614246826141f1565b61425088826141a8565b975061425b83614204565b925050600181019050614235565b5085935050505092915050565b600060208201905081810360008301526142908184614211565b905092915050565b6000815190506142a7816131f6565b92915050565b6000602082840312156142c3576142c2613075565b5b60006142d184828501614298565b91505092915050565b7f426f782000000000000000000000000000000000000000000000000000000000815250565b600081905092915050565b60006143168261313a565b6143208185614300565b9350614330818560208601613156565b80840191505092915050565b6000614347826142da565b600482019150614357828461430b565b915081905092915050565b7f4f776e61626c653a206e6577206f776e657220697320746865207a65726f206160008201527f6464726573730000000000000000000000000000000000000000000000000000602082015250565b60006143be602683613145565b91506143c982614362565b604082019050919050565b600060208201905081810360008301526143ed816143b1565b9050919050565b7f4552433732313a207472616e736665722066726f6d20696e636f72726563742060008201527f6f776e6572000000000000000000000000000000000000000000000000000000602082015250565b6000614450602583613145565b915061445b826143f4565b604082019050919050565b6000602082019050818103600083015261447f81614443565b9050919050565b7f4552433732313a207472616e7366657220746f20746865207a65726f2061646460008201527f7265737300000000000000000000000000000000000000000000000000000000602082015250565b60006144e2602483613145565b91506144ed82614486565b604082019050919050565b60006020820190508181036000830152614511816144d5565b9050919050565b7f4f776e61626c653a2063616c6c6572206973206e6f7420746865206f776e6572600082015250565b600061454e602083613145565b915061455982614518565b602082019050919050565b6000602082019050818103600083015261457d81614541565b9050919050565b7f4552433732313a20617070726f766520746f2063616c6c657200000000000000600082015250565b60006145ba601983613145565b91506145c582614584565b602082019050919050565b600060208201905081810360008301526145e9816145ad565b9050919050565b7f4552433732313a207472616e7366657220746f206e6f6e20455243373231526560008201527f63656976657220696d706c656d656e7465720000000000000000000000000000602082015250565b600061464c603283613145565b9150614657826145f0565b604082019050919050565b6000602082019050818103600083015261467b8161463f565b9050919050565b600061468e828561430b565b915061469a828461430b565b91508190509392505050565b7f4e487b7100000000000000000000000000000000000000000000000000000000600052601260045260246000fd5b7f45524337323155524953746f726167653a2055524920736574206f66206e6f6e60008201527f6578697374656e7420746f6b656e000000000000000000000000000000000000602082015250565b6000614731602e83613145565b915061473c826146d5565b604082019050919050565b6000602082019050818103600083015261476081614724565b9050919050565b600081519050919050565b600082825260208201905092915050565b600061478e82614767565b6147988185614772565b93506147a8818560208601613156565b6147b181613180565b840191505092915050565b60006080820190506147d16000830187613281565b6147de6020830186613281565b6147eb6040830185613317565b81810360608301526147fd8184614783565b905095945050505050565b600081519050614817816130ab565b92915050565b60006020828403121561483357614832613075565b5b600061484184828501614808565b91505092915050565b7f455243373231456e756d657261626c653a20636f6e736563757469766520747260008201527f616e7366657273206e6f7420737570706f727465640000000000000000000000602082015250565b60006148a6603583613145565b91506148b18261484a565b604082019050919050565b600060208201905081810360008301526148d581614899565b9050919050565b7f4552433732313a206d696e7420746f20746865207a65726f2061646472657373600082015250565b6000614912602083613145565b915061491d826148dc565b602082019050919050565b6000602082019050818103600083015261494181614905565b9050919050565b7f4552433732313a20746f6b656e20616c7265616479206d696e74656400000000600082015250565b600061497e601c83613145565b915061498982614948565b602082019050919050565b600060208201905081810360008301526149ad81614971565b9050919050565b7f4e487b7100000000000000000000000000000000000000000000000000000000600052601160045260246000fd5b60006149ee826131ec565b91506149f9836131ec565b9250828203905081811115614a1157614a106149b4565b5b92915050565b7f4e487b7100000000000000000000000000000000000000000000000000000000600052603160045260246000fdfea2646970667358221220f0a85842c514f1fa37cb440ca57c86d392f9526e0fb20d3c81fb3106cdc364ee64736f6c63430008130033",
  "immutableReferences": {},
  "source": "// SPDX-License-Identifier: MIT\r\npragma solidity ^0.8.9;\r\n\r\nimport \"./../Pool/Extra/PoolBaseStruct.sol\";\r\nimport \"./../Pool/Extra/PoolVirtual.sol\";\r\n\r\nimport \"@openzeppelin/contracts/utils/Counters.sol\";\r\n\r\n// Diversi tipi di box\r\ncontract Box is PoolBaseStruct, PoolBoxVirtual {\r\n    \r\n    using Counters for Counters.Counter;\r\n    Counters.Counter private _tokenIdCounter;\r\n\r\n    address private MintingAddress;\r\n\r\n    mapping(uint256 => BoxInfo) public BoxList;\r\n    mapping(uint256 => uint256[]) public BoxRarity;\r\n\r\n\r\n\r\n\r\n    constructor (\r\n        address _NFTManagerAddress,\r\n        address _RandomChoiceAddress,\r\n        address _MintingAddress,\r\n\r\n        string memory _baseUri\r\n    ) \r\n        \r\n        PoolBaseStruct (\r\n            _NFTManagerAddress, _RandomChoiceAddress,\r\n            _baseUri, \"BOX\", \"BX\"\r\n        ) \r\n\r\n    { MintingAddress = _MintingAddress; }\r\n\r\n\r\n\r\n    /**\r\n        This function permit to create a new box from 2 params:\r\n            1. objKey   This param set the type of obj into the box: \r\n                                0 == avatar\r\n                                1 == stone\r\n                                2 == wearable\r\n            2. r1:      This param set the rarity of box\r\n     */\r\n    function createANewBox(\r\n        uint256 objKey,\r\n        uint256 r1\r\n    ) public override returns(uint256 tokenId) {\r\n        require(msg.sender == MintingAddress || msg.sender == owner(), \"Sender is not right\");\r\n\r\n        uint256 getTokenRarity = RandomChoice(getRandomChoiceAddress()).choiceInArray(BoxRarity[r1]);\r\n\r\n        tokenId = _tokenIdCounter.current();\r\n        _tokenIdCounter.increment();\r\n        BoxList[tokenId].tokenRarity = getTokenRarity;\r\n        BoxList[tokenId].objKey = objKey;\r\n        BoxList[tokenId].boxInfoCheck = true;\r\n\r\n        _safeMint(msg.sender, tokenId);\r\n        _setTokenURI(tokenId, string.concat(\"Box \", Strings.toString(tokenId)));\r\n\r\n    }\r\n\r\n\r\n\r\n    function openBox(uint256 boxKey) public override {\r\n        require(IERC721(address(this)).ownerOf(boxKey) == msg.sender, \"You do not own this NFT\");\r\n        \r\n        BoxInfo memory bi = BoxList[boxKey];\r\n        // This line of code check thath this box is not already open\r\n        require(bi.boxInfoCheck, \"The NFT is already open\");\r\n        BoxList[boxKey].boxInfoCheck = false;\r\n\r\n        _burn(boxKey);\r\n        NFTManager(getNFTManagerAddress()).NFTSafeMint(msg.sender, bi.tokenRarity, bi.objKey);\r\n    }\r\n\r\n}",
  "sourcePath": "D:\\Lavoro\\21_BJ\\21_BJ_SC\\contracts\\Avatar\\Services\\Box.sol",
  "compiler": {
    "name": "solc",
    "version": "0.8.19+commit.7dd6d404.Emscripten.clang"
  },
  "schemaVersion": "3.4.15",
  "updatedAt": "2023-10-20T15:35:45.368Z",
  "devdoc": {
    "events": {
      "Approval(address,address,uint256)": {
        "details": "Emitted when `owner` enables `approved` to manage the `tokenId` token."
      },
      "ApprovalForAll(address,address,bool)": {
        "details": "Emitted when `owner` enables or disables (`approved`) `operator` to manage all of its assets."
      },
      "BatchMetadataUpdate(uint256,uint256)": {
        "details": "This event emits when the metadata of a range of tokens is changed. So that the third-party platforms such as NFT market could timely update the images and related attributes of the NFTs."
      },
      "MetadataUpdate(uint256)": {
        "details": "This event emits when the metadata of a token is changed. So that the third-party platforms such as NFT market could timely update the images and related attributes of the NFT."
      },
      "Transfer(address,address,uint256)": {
        "details": "Emitted when `tokenId` token is transferred from `from` to `to`."
      }
    },
    "kind": "dev",
    "methods": {
      "approve(address,uint256)": {
        "details": "See {IERC721-approve}."
      },
      "balanceOf(address)": {
        "details": "See {IERC721-balanceOf}."
      },
      "getApproved(uint256)": {
        "details": "See {IERC721-getApproved}."
      },
      "isApprovedForAll(address,address)": {
        "details": "See {IERC721-isApprovedForAll}."
      },
      "name()": {
        "details": "See {IERC721Metadata-name}."
      },
      "owner()": {
        "details": "Returns the address of the current owner."
      },
      "ownerOf(uint256)": {
        "details": "See {IERC721-ownerOf}."
      },
      "renounceOwnership()": {
        "details": "Leaves the contract without owner. It will not be possible to call `onlyOwner` functions. Can only be called by the current owner. NOTE: Renouncing ownership will leave the contract without an owner, thereby disabling any functionality that is only available to the owner."
      },
      "safeTransferFrom(address,address,uint256)": {
        "details": "See {IERC721-safeTransferFrom}."
      },
      "safeTransferFrom(address,address,uint256,bytes)": {
        "details": "See {IERC721-safeTransferFrom}."
      },
      "setApprovalForAll(address,bool)": {
        "details": "See {IERC721-setApprovalForAll}."
      },
      "symbol()": {
        "details": "See {IERC721Metadata-symbol}."
      },
      "tokenByIndex(uint256)": {
        "details": "See {IERC721Enumerable-tokenByIndex}."
      },
      "tokenOfOwnerByIndex(address,uint256)": {
        "details": "See {IERC721Enumerable-tokenOfOwnerByIndex}."
      },
      "totalSupply()": {
        "details": "See {IERC721Enumerable-totalSupply}."
      },
      "transferFrom(address,address,uint256)": {
        "details": "See {IERC721-transferFrom}."
      },
      "transferOwnership(address)": {
        "details": "Transfers ownership of the contract to a new account (`newOwner`). Can only be called by the current owner."
      }
    },
    "version": 1
  },
  "userdoc": {
    "kind": "user",
    "methods": {
      "createANewBox(uint256,uint256)": {
        "notice": "This function permit to create a new box from 2 params: 1. objKey   This param set the type of obj into the box:  0 == avatar 1 == stone 2 == wearable 2. r1:      This param set the rarity of box"
      },
      "getNFTManagerAddress()": {
        "notice": "GET & SET ADDRESS"
      },
      "transferNFT(address,address,uint256)": {
        "notice": "DEFAULT FUNCTIONS"
      }
    },
    "version": 1
  }
}