{
  "contractName": "Minting",
  "abi": [
    {
      "inputs": [
        {
          "internalType": "address",
          "name": "_NFTManagerAddress",
          "type": "address"
        },
        {
          "internalType": "address",
          "name": "_BoxAddress",
          "type": "address"
        },
        {
          "internalType": "address",
          "name": "_avatarPoolAddress",
          "type": "address"
        },
        {
          "internalType": "address",
          "name": "_stonePoolAddress",
          "type": "address"
        },
        {
          "internalType": "address",
          "name": "_wearablePoolAddress",
          "type": "address"
        },
        {
          "internalType": "address",
          "name": "_seasonAddress",
          "type": "address"
        },
        {
          "internalType": "uint256",
          "name": "_mintingFee",
          "type": "uint256"
        }
      ],
      "stateMutability": "nonpayable",
      "type": "constructor"
    },
    {
      "anonymous": false,
      "inputs": [
        {
          "indexed": true,
          "internalType": "address",
          "name": "previousOwner",
          "type": "address"
        },
        {
          "indexed": true,
          "internalType": "address",
          "name": "newOwner",
          "type": "address"
        }
      ],
      "name": "OwnershipTransferred",
      "type": "event"
    },
    {
      "inputs": [],
      "name": "owner",
      "outputs": [
        {
          "internalType": "address",
          "name": "",
          "type": "address"
        }
      ],
      "stateMutability": "view",
      "type": "function"
    },
    {
      "inputs": [],
      "name": "renounceOwnership",
      "outputs": [],
      "stateMutability": "nonpayable",
      "type": "function"
    },
    {
      "inputs": [
        {
          "internalType": "address",
          "name": "newOwner",
          "type": "address"
        }
      ],
      "name": "transferOwnership",
      "outputs": [],
      "stateMutability": "nonpayable",
      "type": "function"
    },
    {
      "inputs": [
        {
          "internalType": "address",
          "name": "_NFTManagerAddress",
          "type": "address"
        }
      ],
      "name": "setNFTManagerAddress",
      "outputs": [],
      "stateMutability": "nonpayable",
      "type": "function"
    },
    {
      "inputs": [
        {
          "internalType": "address",
          "name": "_avatarPoolAddress",
          "type": "address"
        }
      ],
      "name": "setAvatarPoolAddress",
      "outputs": [],
      "stateMutability": "nonpayable",
      "type": "function"
    },
    {
      "inputs": [],
      "name": "getMintingFee",
      "outputs": [
        {
          "internalType": "uint256",
          "name": "",
          "type": "uint256"
        }
      ],
      "stateMutability": "view",
      "type": "function"
    },
    {
      "inputs": [
        {
          "internalType": "uint256",
          "name": "_mintingFee",
          "type": "uint256"
        }
      ],
      "name": "setMintingFee",
      "outputs": [],
      "stateMutability": "nonpayable",
      "type": "function"
    },
    {
      "inputs": [
        {
          "internalType": "uint256",
          "name": "_mintingValue",
          "type": "uint256"
        }
      ],
      "name": "setMintingValue",
      "outputs": [],
      "stateMutability": "nonpayable",
      "type": "function"
    },
    {
      "inputs": [],
      "name": "getMintingValue",
      "outputs": [
        {
          "internalType": "uint256",
          "name": "",
          "type": "uint256"
        }
      ],
      "stateMutability": "view",
      "type": "function"
    },
    {
      "inputs": [
        {
          "internalType": "address",
          "name": "_seasonAddress",
          "type": "address"
        }
      ],
      "name": "setSeasonAddress",
      "outputs": [],
      "stateMutability": "nonpayable",
      "type": "function"
    },
    {
      "inputs": [],
      "name": "getSeasonAddress",
      "outputs": [
        {
          "internalType": "address",
          "name": "",
          "type": "address"
        }
      ],
      "stateMutability": "view",
      "type": "function"
    },
    {
      "inputs": [
        {
          "internalType": "address",
          "name": "_BoxAddress",
          "type": "address"
        }
      ],
      "name": "setBoxAddress",
      "outputs": [],
      "stateMutability": "nonpayable",
      "type": "function"
    },
    {
      "inputs": [],
      "name": "getBoxAddress",
      "outputs": [
        {
          "internalType": "address",
          "name": "",
          "type": "address"
        }
      ],
      "stateMutability": "view",
      "type": "function"
    },
    {
      "inputs": [
        {
          "internalType": "uint256",
          "name": "idNFT1",
          "type": "uint256"
        },
        {
          "internalType": "uint256",
          "name": "idNFT2",
          "type": "uint256"
        }
      ],
      "name": "mintingAvatar",
      "outputs": [],
      "stateMutability": "payable",
      "type": "function"
    },
    {
      "inputs": [
        {
          "internalType": "uint256",
          "name": "idNFT1",
          "type": "uint256"
        },
        {
          "internalType": "uint256",
          "name": "idNFT2",
          "type": "uint256"
        }
      ],
      "name": "canBeMinted",
      "outputs": [
        {
          "internalType": "bool",
          "name": "state",
          "type": "bool"
        }
      ],
      "stateMutability": "view",
      "type": "function"
    }
  ],
  "bytecode": "0x60806040523480156200001157600080fd5b50604051620022b2380380620022b283398181016040528101906200003791906200036a565b620000576200004b620001f960201b60201c565b6200020160201b60201c565b86600160006101000a81548173ffffffffffffffffffffffffffffffffffffffff021916908373ffffffffffffffffffffffffffffffffffffffff16021790555085600260006101000a81548173ffffffffffffffffffffffffffffffffffffffff021916908373ffffffffffffffffffffffffffffffffffffffff16021790555084600360006101000a81548173ffffffffffffffffffffffffffffffffffffffff021916908373ffffffffffffffffffffffffffffffffffffffff16021790555083600460006101000a81548173ffffffffffffffffffffffffffffffffffffffff021916908373ffffffffffffffffffffffffffffffffffffffff16021790555082600560006101000a81548173ffffffffffffffffffffffffffffffffffffffff021916908373ffffffffffffffffffffffffffffffffffffffff16021790555081600660006101000a81548173ffffffffffffffffffffffffffffffffffffffff021916908373ffffffffffffffffffffffffffffffffffffffff160217905550806007819055506064600881905550505050505050506200041d565b600033905090565b60008060009054906101000a900473ffffffffffffffffffffffffffffffffffffffff169050816000806101000a81548173ffffffffffffffffffffffffffffffffffffffff021916908373ffffffffffffffffffffffffffffffffffffffff1602179055508173ffffffffffffffffffffffffffffffffffffffff168173ffffffffffffffffffffffffffffffffffffffff167f8be0079c531659141344cd1fd0a4f28419497f9722a3daafe3b4186f6b6457e060405160405180910390a35050565b600080fd5b600073ffffffffffffffffffffffffffffffffffffffff82169050919050565b6000620002f782620002ca565b9050919050565b6200030981620002ea565b81146200031557600080fd5b50565b6000815190506200032981620002fe565b92915050565b6000819050919050565b62000344816200032f565b81146200035057600080fd5b50565b600081519050620003648162000339565b92915050565b600080600080600080600060e0888a0312156200038c576200038b620002c5565b5b60006200039c8a828b0162000318565b9750506020620003af8a828b0162000318565b9650506040620003c28a828b0162000318565b9550506060620003d58a828b0162000318565b9450506080620003e88a828b0162000318565b93505060a0620003fb8a828b0162000318565b92505060c06200040e8a828b0162000353565b91505092959891949750929550565b611e85806200042d6000396000f3fe6080604052600436106100e85760003560e01c8063921480ff1161008a578063c21608df11610059578063c21608df146102af578063c254cc7b146102d8578063f2fde38b14610301578063fc2a9ea61461032a576100e8565b8063921480ff14610214578063938c57d614610230578063b4ada51b1461025b578063b59d88a914610284576100e8565b80635f069e80116100c65780635f069e801461017e578063715018a6146101a75780637f610582146101be5780638da5cb5b146101e9576100e8565b80630cda8bc4146100ed578063238a47091461012a5780635a5e6e1114610153575b600080fd5b3480156100f957600080fd5b50610114600480360381019061010f91906113da565b610353565b6040516101219190611435565b60405180910390f35b34801561013657600080fd5b50610151600480360381019061014c9190611450565b61035f565b005b34801561015f57600080fd5b50610168610371565b604051610175919061148c565b60405180910390f35b34801561018a57600080fd5b506101a560048036038101906101a09190611505565b61037b565b005b3480156101b357600080fd5b506101bc6103c7565b005b3480156101ca57600080fd5b506101d36103db565b6040516101e09190611541565b60405180910390f35b3480156101f557600080fd5b506101fe610405565b60405161020b9190611541565b60405180910390f35b61022e600480360381019061022991906113da565b61042e565b005b34801561023c57600080fd5b50610245611099565b6040516102529190611541565b60405180910390f35b34801561026757600080fd5b50610282600480360381019061027d9190611505565b6110c3565b005b34801561029057600080fd5b5061029961110f565b6040516102a6919061148c565b60405180910390f35b3480156102bb57600080fd5b506102d660048036038101906102d19190611450565b611119565b005b3480156102e457600080fd5b506102ff60048036038101906102fa9190611505565b61112b565b005b34801561030d57600080fd5b5061032860048036038101906103239190611505565b611177565b005b34801561033657600080fd5b50610351600480360381019061034c9190611505565b6111fa565b005b60006001905092915050565b610367611246565b8060078190555050565b6000600854905090565b610383611246565b80600360006101000a81548173ffffffffffffffffffffffffffffffffffffffff021916908373ffffffffffffffffffffffffffffffffffffffff16021790555050565b6103cf611246565b6103d960006112c4565b565b6000600660009054906101000a900473ffffffffffffffffffffffffffffffffffffffff16905090565b60008060009054906101000a900473ffffffffffffffffffffffffffffffffffffffff16905090565b6104388282610353565b610477576040517f08c379a000000000000000000000000000000000000000000000000000000000815260040161046e906115b9565b60405180910390fd5b600080600490506000600660009054906101000a900473ffffffffffffffffffffffffffffffffffffffff1673ffffffffffffffffffffffffffffffffffffffff1663d3b30b756040518163ffffffff1660e01b8152600401602060405180830381865afa1580156104ed573d6000803e3d6000fd5b505050506040513d601f19601f8201168201806040525081019061051191906115ee565b90506000600360009054906101000a900473ffffffffffffffffffffffffffffffffffffffff1673ffffffffffffffffffffffffffffffffffffffff166343a92f24876040518263ffffffff1660e01b8152600401610570919061148c565b600060405180830381865afa15801561058d573d6000803e3d6000fd5b505050506040513d6000823e3d601f19601f820116820180604052508101906105b69190611a02565b6020015111801561066b57506000600360009054906101000a900473ffffffffffffffffffffffffffffffffffffffff1673ffffffffffffffffffffffffffffffffffffffff166343a92f24866040518263ffffffff1660e01b815260040161061f919061148c565b600060405180830381865afa15801561063c573d6000803e3d6000fd5b505050506040513d6000823e3d601f19601f820116820180604052508101906106659190611a02565b60200151115b1561086357600360009054906101000a900473ffffffffffffffffffffffffffffffffffffffff1673ffffffffffffffffffffffffffffffffffffffff1663eecf09d3600360009054906101000a900473ffffffffffffffffffffffffffffffffffffffff1673ffffffffffffffffffffffffffffffffffffffff166343a92f24886040518263ffffffff1660e01b8152600401610709919061148c565b600060405180830381865afa158015610726573d6000803e3d6000fd5b505050506040513d6000823e3d601f19601f8201168201806040525081019061074f9190611a02565b60600151600360009054906101000a900473ffffffffffffffffffffffffffffffffffffffff1673ffffffffffffffffffffffffffffffffffffffff166343a92f24886040518263ffffffff1660e01b81526004016107ae919061148c565b600060405180830381865afa1580156107cb573d6000803e3d6000fd5b505050506040513d6000823e3d601f19601f820116820180604052508101906107f49190611a02565b606001516040518363ffffffff1660e01b8152600401610815929190611a4b565b6020604051808303816000875af1158015610834573d6000803e3d6000fd5b505050506040513d601f19601f8201168201806040525081019061085891906115ee565b925060009150610f0d565b6000600460009054906101000a900473ffffffffffffffffffffffffffffffffffffffff1673ffffffffffffffffffffffffffffffffffffffff1663fe33720d876040518263ffffffff1660e01b81526004016108c0919061148c565b600060405180830381865afa1580156108dd573d6000803e3d6000fd5b505050506040513d6000823e3d601f19601f820116820180604052508101906109069190611b1c565b602001511180156109bb57506000600460009054906101000a900473ffffffffffffffffffffffffffffffffffffffff1673ffffffffffffffffffffffffffffffffffffffff1663fe33720d866040518263ffffffff1660e01b815260040161096f919061148c565b600060405180830381865afa15801561098c573d6000803e3d6000fd5b505050506040513d6000823e3d601f19601f820116820180604052508101906109b59190611b1c565b60200151115b15610bb357600460009054906101000a900473ffffffffffffffffffffffffffffffffffffffff1673ffffffffffffffffffffffffffffffffffffffff1663eecf09d3600460009054906101000a900473ffffffffffffffffffffffffffffffffffffffff1673ffffffffffffffffffffffffffffffffffffffff1663fe33720d886040518263ffffffff1660e01b8152600401610a59919061148c565b600060405180830381865afa158015610a76573d6000803e3d6000fd5b505050506040513d6000823e3d601f19601f82011682018060405250810190610a9f9190611b1c565b60600151600460009054906101000a900473ffffffffffffffffffffffffffffffffffffffff1673ffffffffffffffffffffffffffffffffffffffff1663fe33720d886040518263ffffffff1660e01b8152600401610afe919061148c565b600060405180830381865afa158015610b1b573d6000803e3d6000fd5b505050506040513d6000823e3d601f19601f82011682018060405250810190610b449190611b1c565b606001516040518363ffffffff1660e01b8152600401610b65929190611a4b565b6020604051808303816000875af1158015610b84573d6000803e3d6000fd5b505050506040513d601f19601f82011682018060405250810190610ba891906115ee565b925060019150610f0c565b6000600560009054906101000a900473ffffffffffffffffffffffffffffffffffffffff1673ffffffffffffffffffffffffffffffffffffffff1663f8b53521876040518263ffffffff1660e01b8152600401610c10919061148c565b600060405180830381865afa158015610c2d573d6000803e3d6000fd5b505050506040513d6000823e3d601f19601f82011682018060405250810190610c569190611bf9565b60200151118015610d0b57506000600560009054906101000a900473ffffffffffffffffffffffffffffffffffffffff1673ffffffffffffffffffffffffffffffffffffffff1663f8b53521866040518263ffffffff1660e01b8152600401610cbf919061148c565b600060405180830381865afa158015610cdc573d6000803e3d6000fd5b505050506040513d6000823e3d601f19601f82011682018060405250810190610d059190611bf9565b60200151115b15610f0357600560009054906101000a900473ffffffffffffffffffffffffffffffffffffffff1673ffffffffffffffffffffffffffffffffffffffff1663eecf09d3600560009054906101000a900473ffffffffffffffffffffffffffffffffffffffff1673ffffffffffffffffffffffffffffffffffffffff1663f8b53521886040518263ffffffff1660e01b8152600401610da9919061148c565b600060405180830381865afa158015610dc6573d6000803e3d6000fd5b505050506040513d6000823e3d601f19601f82011682018060405250810190610def9190611bf9565b60400151600560009054906101000a900473ffffffffffffffffffffffffffffffffffffffff1673ffffffffffffffffffffffffffffffffffffffff1663f8b53521886040518263ffffffff1660e01b8152600401610e4e919061148c565b600060405180830381865afa158015610e6b573d6000803e3d6000fd5b505050506040513d6000823e3d601f19601f82011682018060405250810190610e949190611bf9565b604001516040518363ffffffff1660e01b8152600401610eb5929190611a4b565b6020604051808303816000875af1158015610ed4573d6000803e3d6000fd5b505050506040513d601f19601f82011682018060405250810190610ef891906115ee565b925060029150610f0b565b505050611095565b5b5b600360009054906101000a900473ffffffffffffffffffffffffffffffffffffffff1673ffffffffffffffffffffffffffffffffffffffff1663013120ef82856040518363ffffffff1660e01b8152600401610f6a929190611a4b565b6040805180830381865afa158015610f86573d6000803e3d6000fd5b505050506040513d601f19601f82011682018060405250810190610faa9190611c92565b60200151341015610ff0576040517f08c379a0000000000000000000000000000000000000000000000000000000008152600401610fe790611d31565b60405180910390fd5b600260009054906101000a900473ffffffffffffffffffffffffffffffffffffffff1673ffffffffffffffffffffffffffffffffffffffff1663d862a4bc83856040518363ffffffff1660e01b815260040161104d929190611a4b565b6020604051808303816000875af115801561106c573d6000803e3d6000fd5b505050506040513d601f19601f8201168201806040525081019061109091906115ee565b505050505b5050565b6000600260009054906101000a900473ffffffffffffffffffffffffffffffffffffffff16905090565b6110cb611246565b80600660006101000a81548173ffffffffffffffffffffffffffffffffffffffff021916908373ffffffffffffffffffffffffffffffffffffffff16021790555050565b6000600754905090565b611121611246565b8060088190555050565b611133611246565b80600260006101000a81548173ffffffffffffffffffffffffffffffffffffffff021916908373ffffffffffffffffffffffffffffffffffffffff16021790555050565b61117f611246565b600073ffffffffffffffffffffffffffffffffffffffff168173ffffffffffffffffffffffffffffffffffffffff16036111ee576040517f08c379a00000000000000000000000000000000000000000000000000000000081526004016111e590611dc3565b60405180910390fd5b6111f7816112c4565b50565b611202611246565b80600160006101000a81548173ffffffffffffffffffffffffffffffffffffffff021916908373ffffffffffffffffffffffffffffffffffffffff16021790555050565b61124e611388565b73ffffffffffffffffffffffffffffffffffffffff1661126c610405565b73ffffffffffffffffffffffffffffffffffffffff16146112c2576040517f08c379a00000000000000000000000000000000000000000000000000000000081526004016112b990611e2f565b60405180910390fd5b565b60008060009054906101000a900473ffffffffffffffffffffffffffffffffffffffff169050816000806101000a81548173ffffffffffffffffffffffffffffffffffffffff021916908373ffffffffffffffffffffffffffffffffffffffff1602179055508173ffffffffffffffffffffffffffffffffffffffff168173ffffffffffffffffffffffffffffffffffffffff167f8be0079c531659141344cd1fd0a4f28419497f9722a3daafe3b4186f6b6457e060405160405180910390a35050565b600033905090565b6000604051905090565b600080fd5b600080fd5b6000819050919050565b6113b7816113a4565b81146113c257600080fd5b50565b6000813590506113d4816113ae565b92915050565b600080604083850312156113f1576113f061139a565b5b60006113ff858286016113c5565b9250506020611410858286016113c5565b9150509250929050565b60008115159050919050565b61142f8161141a565b82525050565b600060208201905061144a6000830184611426565b92915050565b6000602082840312156114665761146561139a565b5b6000611474848285016113c5565b91505092915050565b611486816113a4565b82525050565b60006020820190506114a1600083018461147d565b92915050565b600073ffffffffffffffffffffffffffffffffffffffff82169050919050565b60006114d2826114a7565b9050919050565b6114e2816114c7565b81146114ed57600080fd5b50565b6000813590506114ff816114d9565b92915050565b60006020828403121561151b5761151a61139a565b5b6000611529848285016114f0565b91505092915050565b61153b816114c7565b82525050565b60006020820190506115566000830184611532565b92915050565b600082825260208201905092915050565b7f4e4654732063616e206e6f74206265206d696e74656400000000000000000000600082015250565b60006115a360168361155c565b91506115ae8261156d565b602082019050919050565b600060208201905081810360008301526115d281611596565b9050919050565b6000815190506115e8816113ae565b92915050565b6000602082840312156116045761160361139a565b5b6000611612848285016115d9565b91505092915050565b600080fd5b6000601f19601f8301169050919050565b7f4e487b7100000000000000000000000000000000000000000000000000000000600052604160045260246000fd5b61166982611620565b810181811067ffffffffffffffff8211171561168857611687611631565b5b80604052505050565b600061169b611390565b90506116a78282611660565b919050565b600080fd5b600080fd5b600080fd5b600067ffffffffffffffff8211156116d6576116d5611631565b5b6116df82611620565b9050602081019050919050565b60005b8381101561170a5780820151818401526020810190506116ef565b60008484015250505050565b6000611729611724846116bb565b611691565b905082815260208101848484011115611745576117446116b6565b5b6117508482856116ec565b509392505050565b600082601f83011261176d5761176c6116b1565b5b815161177d848260208601611716565b91505092915050565b600067ffffffffffffffff8211156117a1576117a0611631565b5b602082029050919050565b600080fd5b60006117c46117bf84611786565b611691565b905080602084028301858111156117de576117dd6117ac565b5b835b8181101561180757806117f388826115d9565b8452602084019350506020810190506117e0565b5050509392505050565b600082601f830112611826576118256116b1565b5b60056118338482856117b1565b91505092915050565b600067ffffffffffffffff82111561185757611856611631565b5b602082029050919050565b60006118756118708461183c565b611691565b9050806020840283018581111561188f5761188e6117ac565b5b835b818110156118b857806118a488826115d9565b845260208401935050602081019050611891565b5050509392505050565b600082601f8301126118d7576118d66116b1565b5b60036118e4848285611862565b91505092915050565b6118f68161141a565b811461190157600080fd5b50565b600081519050611913816118ed565b92915050565b600061024082840312156119305761192f61161b565b5b61193b610100611691565b9050600082015167ffffffffffffffff81111561195b5761195a6116ac565b5b61196784828501611758565b600083015250602061197b848285016115d9565b602083015250604061198f848285016115d9565b60408301525060606119a3848285016115d9565b60608301525060806119b784828501611811565b6080830152506101206119cc84828501611811565b60a0830152506101c06119e1848285016118c2565b60c0830152506102206119f684828501611904565b60e08301525092915050565b600060208284031215611a1857611a1761139a565b5b600082015167ffffffffffffffff811115611a3657611a3561139f565b5b611a4284828501611919565b91505092915050565b6000604082019050611a60600083018561147d565b611a6d602083018461147d565b9392505050565b600060a08284031215611a8a57611a8961161b565b5b611a9460a0611691565b9050600082015167ffffffffffffffff811115611ab457611ab36116ac565b5b611ac084828501611758565b6000830152506020611ad4848285016115d9565b6020830152506040611ae8848285016115d9565b6040830152506060611afc848285016115d9565b6060830152506080611b10848285016115d9565b60808301525092915050565b600060208284031215611b3257611b3161139a565b5b600082015167ffffffffffffffff811115611b5057611b4f61139f565b5b611b5c84828501611a74565b91505092915050565b600060808284031215611b7b57611b7a61161b565b5b611b856080611691565b9050600082015167ffffffffffffffff811115611ba557611ba46116ac565b5b611bb184828501611758565b6000830152506020611bc5848285016115d9565b6020830152506040611bd9848285016115d9565b6040830152506060611bed848285016115d9565b60608301525092915050565b600060208284031215611c0f57611c0e61139a565b5b600082015167ffffffffffffffff811115611c2d57611c2c61139f565b5b611c3984828501611b65565b91505092915050565b600060408284031215611c5857611c5761161b565b5b611c626040611691565b90506000611c72848285016115d9565b6000830152506020611c86848285016115d9565b60208301525092915050565b600060408284031215611ca857611ca761139a565b5b6000611cb684828501611c42565b91505092915050565b7f436865636b206d696e74696e67207072696365206265666f726520747279207460008201527f6f2073656e642061206e6577207472616e73616374696f6e0000000000000000602082015250565b6000611d1b60388361155c565b9150611d2682611cbf565b604082019050919050565b60006020820190508181036000830152611d4a81611d0e565b9050919050565b7f4f776e61626c653a206e6577206f776e657220697320746865207a65726f206160008201527f6464726573730000000000000000000000000000000000000000000000000000602082015250565b6000611dad60268361155c565b9150611db882611d51565b604082019050919050565b60006020820190508181036000830152611ddc81611da0565b9050919050565b7f4f776e61626c653a2063616c6c6572206973206e6f7420746865206f776e6572600082015250565b6000611e1960208361155c565b9150611e2482611de3565b602082019050919050565b60006020820190508181036000830152611e4881611e0c565b905091905056fea264697066735822122012afeae833f4245c117c4b0bd5f4cdd1332900b9fe7b7e8ceca41f103151f3a664736f6c63430008130033",
  "immutableReferences": {},
  "source": "// SPDX-License-Identifier: MIT\r\npragma solidity ^0.8.0;\r\n\r\nimport \"@openzeppelin/contracts/access/Ownable.sol\";\r\n\r\nimport \"./../NFTManager.sol\";\r\nimport \"./../Pool/AvatarPool.sol\";\r\nimport \"./../Pool/StonePool.sol\";\r\nimport \"./../Pool/WearablePool.sol\";\r\nimport \"./../BaseStructs.sol\";\r\nimport \"./Box.sol\";\r\nimport \"./../../Season.sol\";\r\n\r\n\r\n/// @custom:security-contact giorgio@allena.it\r\ncontract Minting is Ownable, BaseStructs{\r\n\r\n    address private NFTManagerAddress;\r\n    address private BoxAddress;\r\n\r\n    address private avatarPoolAddress;\r\n    address private stonePoolAddress;\r\n    address private wearablePoolAddress;\r\n\r\n    address private seasonAddress;\r\n\r\n    uint256 private mintingFee;\r\n    uint256 private mintingValue;\r\n\r\n\r\n    constructor(\r\n        address _NFTManagerAddress, \r\n        address _BoxAddress,\r\n    \r\n        address _avatarPoolAddress,\r\n        address _stonePoolAddress,\r\n        address _wearablePoolAddress,\r\n\r\n        address _seasonAddress,\r\n\r\n        uint256 _mintingFee\r\n    ) {\r\n        NFTManagerAddress = _NFTManagerAddress;\r\n        BoxAddress = _BoxAddress;\r\n\r\n        avatarPoolAddress = _avatarPoolAddress;\r\n        stonePoolAddress = _stonePoolAddress;\r\n        wearablePoolAddress = _wearablePoolAddress;\r\n\r\n        seasonAddress = _seasonAddress;\r\n\r\n        mintingFee = _mintingFee;\r\n        \r\n\r\n        // TODO: Get price from a matrix\r\n        // price minting: \r\n        mintingValue = 100;\r\n    }\r\n\r\n\r\n\r\n    /*\r\n        SET & GET\r\n    */\r\n    function setNFTManagerAddress(address _NFTManagerAddress) onlyOwner public { NFTManagerAddress = _NFTManagerAddress; }\r\n    function setAvatarPoolAddress(address _avatarPoolAddress) onlyOwner public { avatarPoolAddress = _avatarPoolAddress; }\r\n\r\n    function getMintingFee() public view returns(uint256) { return mintingFee; }\r\n    function setMintingFee(uint256 _mintingFee) onlyOwner public { mintingFee = _mintingFee; }\r\n\r\n    function setMintingValue(uint256 _mintingValue) onlyOwner public { mintingValue = _mintingValue; }\r\n    function getMintingValue() public view returns(uint256) { return mintingValue; }\r\n\r\n    function setSeasonAddress(address _seasonAddress) onlyOwner public { seasonAddress = _seasonAddress; }\r\n    function getSeasonAddress() public view returns(address) { return seasonAddress; }\r\n\r\n    function setBoxAddress (address _BoxAddress) public onlyOwner { BoxAddress = _BoxAddress; }\r\n    function getBoxAddress () public view returns (address) { return BoxAddress; }\r\n\r\n\r\n    /*\r\n        METHODS\r\n    */\r\n    function mintingAvatar(\r\n        uint256 idNFT1,  \r\n        uint256 idNFT2\r\n    ) public payable {\r\n        // Check NFTs can be minted. See if there are a NFT free. Also sign all the data\r\n        require(canBeMinted(idNFT1, idNFT2), \"NFTs can not be minted\");\r\n        uint256 tokenRarity;\r\n        uint256 objKey = 4;\r\n\r\n        // TODO: Minting Price ? \r\n        // Cambia nel tempo\r\n        // Put a variable\r\n        // Set setting with minting time\r\n\r\n        uint256 currentSeason = Season(seasonAddress).getCurrentSeason();\r\n\r\n        // set rarity\r\n        if (\r\n            AvatarPool(avatarPoolAddress).getAvatarInfo(idNFT1).id > 0 && \r\n            AvatarPool(avatarPoolAddress).getAvatarInfo(idNFT2).id > 0 \r\n        ) {\r\n            tokenRarity = AvatarPool(avatarPoolAddress).getRarityForMinting( \r\n                AvatarPool(avatarPoolAddress).getAvatarInfo(idNFT1).ar, \r\n                AvatarPool(avatarPoolAddress).getAvatarInfo(idNFT2).ar\r\n            );\r\n\r\n            objKey = 0;\r\n        } else if (\r\n            StonePool(stonePoolAddress).getStoneInfo(idNFT1).id > 0 && \r\n            StonePool(stonePoolAddress).getStoneInfo(idNFT2).id > 0\r\n        ) {\r\n            tokenRarity = StonePool(stonePoolAddress).getRarityForMinting(\r\n                StonePool(stonePoolAddress).getStoneInfo(idNFT1).ar, \r\n                StonePool(stonePoolAddress).getStoneInfo(idNFT2).ar );\r\n\r\n            objKey = 1;\r\n        } else if (\r\n            WearablePool(wearablePoolAddress).getWearableInfo(idNFT1).id > 0 && \r\n            WearablePool(wearablePoolAddress).getWearableInfo(idNFT2).id > 0\r\n        ) {\r\n            tokenRarity = WearablePool(wearablePoolAddress).getRarityForMinting(\r\n                WearablePool(wearablePoolAddress).getWearableInfo(idNFT1).ar, \r\n                WearablePool(wearablePoolAddress).getWearableInfo(idNFT2).ar );\r\n\r\n            objKey = 2;\r\n        } else return;\r\n\r\n        require(msg.value >= AvatarPool(avatarPoolAddress).getAvatarPoolInfo(currentSeason, tokenRarity).cost, \"Check minting price before try to send a new transaction\");\r\n        Box(BoxAddress).createANewBox(objKey, tokenRarity);\r\n    }\r\n\r\n\r\n\r\n    function canBeMinted(\r\n        uint256 idNFT1,\r\n        uint256 idNFT2\r\n    ) public view returns(bool state) {\r\n        // require(NFTManager(NFTManagerAddress).method(), \"NFT not exist\");\r\n        // TODO: Check NFT property\r\n\r\n        // TODO: Check NFTs are not yet minted\r\n\r\n        // TODO: Aumento di prezzo se gi mintato\r\n\r\n        // TODO: Numero massimo di volte in cui un NFT singolo pu essere mintato ( 5 ). Pu essere aumentato il blocco.\r\n\r\n\r\n\r\n        // TODO: Check level nfts\r\n\r\n        // TODO: Check time\r\n\r\n\r\n\r\n        state = true;\r\n    }\r\n\r\n}",
  "sourcePath": "D:\\Lavoro\\21_BJ\\21_BJ_SC\\contracts\\Avatar\\Services\\Minting.sol",
  "compiler": {
    "name": "solc",
    "version": "0.8.19+commit.7dd6d404.Emscripten.clang"
  },
  "schemaVersion": "3.4.15",
  "updatedAt": "2023-10-20T15:35:45.390Z",
  "devdoc": {
    "custom:security-contact": "giorgio@allena.it",
    "kind": "dev",
    "methods": {
      "owner()": {
        "details": "Returns the address of the current owner."
      },
      "renounceOwnership()": {
        "details": "Leaves the contract without owner. It will not be possible to call `onlyOwner` functions. Can only be called by the current owner. NOTE: Renouncing ownership will leave the contract without an owner, thereby disabling any functionality that is only available to the owner."
      },
      "transferOwnership(address)": {
        "details": "Transfers ownership of the contract to a new account (`newOwner`). Can only be called by the current owner."
      }
    },
    "version": 1
  },
  "userdoc": {
    "kind": "user",
    "methods": {},
    "version": 1
  }
}