{
  "contractName": "NFTManager",
  "abi": [
    {
      "inputs": [
        {
          "internalType": "address",
          "name": "_avatarPoolAddress",
          "type": "address"
        },
        {
          "internalType": "address",
          "name": "_StonePoolAddress",
          "type": "address"
        },
        {
          "internalType": "address",
          "name": "_WearablePoolAddress",
          "type": "address"
        },
        {
          "internalType": "address",
          "name": "_BoxAddress",
          "type": "address"
        },
        {
          "internalType": "address",
          "name": "_SeasonAddress",
          "type": "address"
        }
      ],
      "stateMutability": "nonpayable",
      "type": "constructor"
    },
    {
      "anonymous": false,
      "inputs": [
        {
          "indexed": true,
          "internalType": "address",
          "name": "previousOwner",
          "type": "address"
        },
        {
          "indexed": true,
          "internalType": "address",
          "name": "newOwner",
          "type": "address"
        }
      ],
      "name": "OwnershipTransferred",
      "type": "event"
    },
    {
      "inputs": [
        {
          "internalType": "uint256",
          "name": "",
          "type": "uint256"
        }
      ],
      "name": "StoneList",
      "outputs": [
        {
          "internalType": "string",
          "name": "name",
          "type": "string"
        },
        {
          "internalType": "uint256",
          "name": "id",
          "type": "uint256"
        },
        {
          "internalType": "uint256",
          "name": "level",
          "type": "uint256"
        },
        {
          "internalType": "uint256",
          "name": "ar",
          "type": "uint256"
        },
        {
          "internalType": "uint256",
          "name": "stoneType",
          "type": "uint256"
        }
      ],
      "stateMutability": "view",
      "type": "function"
    },
    {
      "inputs": [
        {
          "internalType": "uint256",
          "name": "",
          "type": "uint256"
        }
      ],
      "name": "WearableList",
      "outputs": [
        {
          "internalType": "string",
          "name": "name",
          "type": "string"
        },
        {
          "internalType": "uint256",
          "name": "id",
          "type": "uint256"
        },
        {
          "internalType": "uint256",
          "name": "ar",
          "type": "uint256"
        },
        {
          "internalType": "uint256",
          "name": "wearableType",
          "type": "uint256"
        }
      ],
      "stateMutability": "view",
      "type": "function"
    },
    {
      "inputs": [],
      "name": "owner",
      "outputs": [
        {
          "internalType": "address",
          "name": "",
          "type": "address"
        }
      ],
      "stateMutability": "view",
      "type": "function"
    },
    {
      "inputs": [],
      "name": "renounceOwnership",
      "outputs": [],
      "stateMutability": "nonpayable",
      "type": "function"
    },
    {
      "inputs": [
        {
          "internalType": "address",
          "name": "newOwner",
          "type": "address"
        }
      ],
      "name": "transferOwnership",
      "outputs": [],
      "stateMutability": "nonpayable",
      "type": "function"
    },
    {
      "inputs": [
        {
          "internalType": "address",
          "name": "_avatarPoolAddress",
          "type": "address"
        }
      ],
      "name": "setAvatarPoolAddress",
      "outputs": [],
      "stateMutability": "nonpayable",
      "type": "function"
    },
    {
      "inputs": [
        {
          "internalType": "address",
          "name": "_StonePoolAddress",
          "type": "address"
        }
      ],
      "name": "setStonePoolAddress",
      "outputs": [],
      "stateMutability": "nonpayable",
      "type": "function"
    },
    {
      "inputs": [
        {
          "internalType": "address",
          "name": "_WearablePoolAddress",
          "type": "address"
        }
      ],
      "name": "setWearablePoolAddress",
      "outputs": [],
      "stateMutability": "nonpayable",
      "type": "function"
    },
    {
      "inputs": [
        {
          "internalType": "address",
          "name": "_BoxAddress",
          "type": "address"
        }
      ],
      "name": "setBoxAddress",
      "outputs": [],
      "stateMutability": "nonpayable",
      "type": "function"
    },
    {
      "inputs": [
        {
          "internalType": "address",
          "name": "_SeasonAddress",
          "type": "address"
        }
      ],
      "name": "setSeasonAddress",
      "outputs": [],
      "stateMutability": "nonpayable",
      "type": "function"
    },
    {
      "inputs": [
        {
          "internalType": "address",
          "name": "to",
          "type": "address"
        },
        {
          "internalType": "uint256",
          "name": "tokenRarity",
          "type": "uint256"
        },
        {
          "internalType": "uint256",
          "name": "objKey",
          "type": "uint256"
        }
      ],
      "name": "NFTSafeMint",
      "outputs": [
        {
          "internalType": "bool",
          "name": "",
          "type": "bool"
        }
      ],
      "stateMutability": "payable",
      "type": "function"
    }
  ],
  "bytecode": "0x608060405260016009553480156200001657600080fd5b50604051620021043803806200210483398181016040528101906200003c9190620002e2565b6200005c62000050620001ac60201b60201c565b620001b460201b60201c565b84600460006101000a81548173ffffffffffffffffffffffffffffffffffffffff021916908373ffffffffffffffffffffffffffffffffffffffff16021790555083600560006101000a81548173ffffffffffffffffffffffffffffffffffffffff021916908373ffffffffffffffffffffffffffffffffffffffff16021790555082600660006101000a81548173ffffffffffffffffffffffffffffffffffffffff021916908373ffffffffffffffffffffffffffffffffffffffff16021790555081600760006101000a81548173ffffffffffffffffffffffffffffffffffffffff021916908373ffffffffffffffffffffffffffffffffffffffff16021790555080600860006101000a81548173ffffffffffffffffffffffffffffffffffffffff021916908373ffffffffffffffffffffffffffffffffffffffff16021790555050505050506200036a565b600033905090565b60008060009054906101000a900473ffffffffffffffffffffffffffffffffffffffff169050816000806101000a81548173ffffffffffffffffffffffffffffffffffffffff021916908373ffffffffffffffffffffffffffffffffffffffff1602179055508173ffffffffffffffffffffffffffffffffffffffff168173ffffffffffffffffffffffffffffffffffffffff167f8be0079c531659141344cd1fd0a4f28419497f9722a3daafe3b4186f6b6457e060405160405180910390a35050565b600080fd5b600073ffffffffffffffffffffffffffffffffffffffff82169050919050565b6000620002aa826200027d565b9050919050565b620002bc816200029d565b8114620002c857600080fd5b50565b600081519050620002dc81620002b1565b92915050565b600080600080600060a0868803121562000301576200030062000278565b5b60006200031188828901620002cb565b95505060206200032488828901620002cb565b94505060406200033788828901620002cb565b93505060606200034a88828901620002cb565b92505060806200035d88828901620002cb565b9150509295509295909350565b611d8a806200037a6000396000f3fe60806040526004361061009c5760003560e01c8063715018a611610064578063715018a61461019d5780638a086b7f146101b45780638da5cb5b146101e4578063b4ada51b1461020f578063c254cc7b14610238578063f2fde38b146102615761009c565b806335929e01146100a1578063427d7fc0146100ca5780635382d749146100f35780635f069e801461013357806365483b8a1461015c575b600080fd5b3480156100ad57600080fd5b506100c860048036038101906100c39190611337565b61028a565b005b3480156100d657600080fd5b506100f160048036038101906100ec9190611337565b6102d6565b005b3480156100ff57600080fd5b5061011a6004803603810190610115919061139a565b610322565b60405161012a9493929190611466565b60405180910390f35b34801561013f57600080fd5b5061015a60048036038101906101559190611337565b6103da565b005b34801561016857600080fd5b50610183600480360381019061017e919061139a565b610426565b6040516101949594939291906114b2565b60405180910390f35b3480156101a957600080fd5b506101b26104e4565b005b6101ce60048036038101906101c9919061150c565b6104f8565b6040516101db919061157a565b60405180910390f35b3480156101f057600080fd5b506101f961103c565b60405161020691906115a4565b60405180910390f35b34801561021b57600080fd5b5061023660048036038101906102319190611337565b611065565b005b34801561024457600080fd5b5061025f600480360381019061025a9190611337565b6110b1565b005b34801561026d57600080fd5b5061028860048036038101906102839190611337565b6110fd565b005b610292611180565b80600560006101000a81548173ffffffffffffffffffffffffffffffffffffffff021916908373ffffffffffffffffffffffffffffffffffffffff16021790555050565b6102de611180565b80600660006101000a81548173ffffffffffffffffffffffffffffffffffffffff021916908373ffffffffffffffffffffffffffffffffffffffff16021790555050565b6003602052806000526040600020600091509050806000018054610345906115ee565b80601f0160208091040260200160405190810160405280929190818152602001828054610371906115ee565b80156103be5780601f10610393576101008083540402835291602001916103be565b820191906000526020600020905b8154815290600101906020018083116103a157829003601f168201915b5050505050908060010154908060020154908060030154905084565b6103e2611180565b80600460006101000a81548173ffffffffffffffffffffffffffffffffffffffff021916908373ffffffffffffffffffffffffffffffffffffffff16021790555050565b6002602052806000526040600020600091509050806000018054610449906115ee565b80601f0160208091040260200160405190810160405280929190818152602001828054610475906115ee565b80156104c25780601f10610497576101008083540402835291602001916104c2565b820191906000526020600020905b8154815290600101906020018083116104a557829003601f168201915b5050505050908060010154908060020154908060030154908060040154905085565b6104ec611180565b6104f660006111fe565b565b6000600760009054906101000a900473ffffffffffffffffffffffffffffffffffffffff1673ffffffffffffffffffffffffffffffffffffffff163373ffffffffffffffffffffffffffffffffffffffff161461058a576040517f08c379a00000000000000000000000000000000000000000000000000000000081526004016105819061166b565b60405180910390fd5b6000600860009054906101000a900473ffffffffffffffffffffffffffffffffffffffff1673ffffffffffffffffffffffffffffffffffffffff1663d3b30b756040518163ffffffff1660e01b8152600401602060405180830381865afa1580156105f9573d6000803e3d6000fd5b505050506040513d601f19601f8201168201806040525081019061061d91906116a0565b90506000830361070f576000600460009054906101000a900473ffffffffffffffffffffffffffffffffffffffff1673ffffffffffffffffffffffffffffffffffffffff1663013120ef83876040518363ffffffff1660e01b81526004016106869291906116cd565b6040805180830381865afa1580156106a2573d6000803e3d6000fd5b505050506040513d601f19601f820116820180604052508101906106c691906117c6565b600001511161070a576040517f08c379a000000000000000000000000000000000000000000000000000000000815260040161070190611865565b60405180910390fd5b6108fb565b600183036107ff576000600560009054906101000a900473ffffffffffffffffffffffffffffffffffffffff1673ffffffffffffffffffffffffffffffffffffffff1663aed8042583876040518363ffffffff1660e01b81526004016107769291906116cd565b6040805180830381865afa158015610792573d6000803e3d6000fd5b505050506040513d601f19601f820116820180604052508101906107b691906117c6565b60000151116107fa576040517f08c379a00000000000000000000000000000000000000000000000000000000081526004016107f190611865565b60405180910390fd5b6108fa565b600283036108ef576000600660009054906101000a900473ffffffffffffffffffffffffffffffffffffffff1673ffffffffffffffffffffffffffffffffffffffff166325b7e2e683876040518363ffffffff1660e01b81526004016108669291906116cd565b6040805180830381865afa158015610882573d6000803e3d6000fd5b505050506040513d601f19601f820116820180604052508101906108a691906117c6565b60000151116108ea576040517f08c379a00000000000000000000000000000000000000000000000000000000081526004016108e190611865565b60405180910390fd5b6108f9565b6000915050611035565b5b5b600760009054906101000a900473ffffffffffffffffffffffffffffffffffffffff1673ffffffffffffffffffffffffffffffffffffffff163373ffffffffffffffffffffffffffffffffffffffff1603610b705760008303610a0257600460009054906101000a900473ffffffffffffffffffffffffffffffffffffffff1673ffffffffffffffffffffffffffffffffffffffff16633ae13fd08583886040518463ffffffff1660e01b81526004016109b7939291906118d1565b6020604051808303816000875af11580156109d6573d6000803e3d6000fd5b505050506040513d601f19601f820116820180604052508101906109fa9190611947565b915050611035565b60018303610ab457600560009054906101000a900473ffffffffffffffffffffffffffffffffffffffff1673ffffffffffffffffffffffffffffffffffffffff16633ae13fd08583886040518463ffffffff1660e01b8152600401610a69939291906119c0565b6020604051808303816000875af1158015610a88573d6000803e3d6000fd5b505050506040513d601f19601f82011682018060405250810190610aac9190611947565b915050611035565b60028303610b6657600660009054906101000a900473ffffffffffffffffffffffffffffffffffffffff1673ffffffffffffffffffffffffffffffffffffffff16633ae13fd08583886040518463ffffffff1660e01b8152600401610b1b93929190611a56565b6020604051808303816000875af1158015610b3a573d6000803e3d6000fd5b505050506040513d601f19601f82011682018060405250810190610b5e9190611947565b915050611035565b6000915050611035565b60008303610d0557600460009054906101000a900473ffffffffffffffffffffffffffffffffffffffff1673ffffffffffffffffffffffffffffffffffffffff1663013120ef82866040518363ffffffff1660e01b8152600401610bd59291906116cd565b6040805180830381865afa158015610bf1573d6000803e3d6000fd5b505050506040513d601f19601f82011682018060405250810190610c1591906117c6565b60200151341015610c5b576040517f08c379a0000000000000000000000000000000000000000000000000000000008152600401610c5290611b12565b60405180910390fd5b600460009054906101000a900473ffffffffffffffffffffffffffffffffffffffff1673ffffffffffffffffffffffffffffffffffffffff16633ae13fd08583336040518463ffffffff1660e01b8152600401610cba939291906118d1565b6020604051808303816000875af1158015610cd9573d6000803e3d6000fd5b505050506040513d601f19601f82011682018060405250810190610cfd9190611947565b915050611035565b60018303610e9a57600560009054906101000a900473ffffffffffffffffffffffffffffffffffffffff1673ffffffffffffffffffffffffffffffffffffffff1663aed8042582866040518363ffffffff1660e01b8152600401610d6a9291906116cd565b6040805180830381865afa158015610d86573d6000803e3d6000fd5b505050506040513d601f19601f82011682018060405250810190610daa91906117c6565b60200151341015610df0576040517f08c379a0000000000000000000000000000000000000000000000000000000008152600401610de790611ba4565b60405180910390fd5b600560009054906101000a900473ffffffffffffffffffffffffffffffffffffffff1673ffffffffffffffffffffffffffffffffffffffff16633ae13fd08583336040518463ffffffff1660e01b8152600401610e4f939291906119c0565b6020604051808303816000875af1158015610e6e573d6000803e3d6000fd5b505050506040513d601f19601f82011682018060405250810190610e929190611947565b915050611035565b6002830361102f57600660009054906101000a900473ffffffffffffffffffffffffffffffffffffffff1673ffffffffffffffffffffffffffffffffffffffff166325b7e2e682866040518363ffffffff1660e01b8152600401610eff9291906116cd565b6040805180830381865afa158015610f1b573d6000803e3d6000fd5b505050506040513d601f19601f82011682018060405250810190610f3f91906117c6565b60200151341015610f85576040517f08c379a0000000000000000000000000000000000000000000000000000000008152600401610f7c90611c36565b60405180910390fd5b600660009054906101000a900473ffffffffffffffffffffffffffffffffffffffff1673ffffffffffffffffffffffffffffffffffffffff16633ae13fd08583336040518463ffffffff1660e01b8152600401610fe493929190611a56565b6020604051808303816000875af1158015611003573d6000803e3d6000fd5b505050506040513d601f19601f820116820180604052508101906110279190611947565b915050611035565b60009150505b9392505050565b60008060009054906101000a900473ffffffffffffffffffffffffffffffffffffffff16905090565b61106d611180565b80600860006101000a81548173ffffffffffffffffffffffffffffffffffffffff021916908373ffffffffffffffffffffffffffffffffffffffff16021790555050565b6110b9611180565b80600760006101000a81548173ffffffffffffffffffffffffffffffffffffffff021916908373ffffffffffffffffffffffffffffffffffffffff16021790555050565b611105611180565b600073ffffffffffffffffffffffffffffffffffffffff168173ffffffffffffffffffffffffffffffffffffffff1603611174576040517f08c379a000000000000000000000000000000000000000000000000000000000815260040161116b90611cc8565b60405180910390fd5b61117d816111fe565b50565b6111886112c2565b73ffffffffffffffffffffffffffffffffffffffff166111a661103c565b73ffffffffffffffffffffffffffffffffffffffff16146111fc576040517f08c379a00000000000000000000000000000000000000000000000000000000081526004016111f390611d34565b60405180910390fd5b565b60008060009054906101000a900473ffffffffffffffffffffffffffffffffffffffff169050816000806101000a81548173ffffffffffffffffffffffffffffffffffffffff021916908373ffffffffffffffffffffffffffffffffffffffff1602179055508173ffffffffffffffffffffffffffffffffffffffff168173ffffffffffffffffffffffffffffffffffffffff167f8be0079c531659141344cd1fd0a4f28419497f9722a3daafe3b4186f6b6457e060405160405180910390a35050565b600033905090565b6000604051905090565b600080fd5b600073ffffffffffffffffffffffffffffffffffffffff82169050919050565b6000611304826112d9565b9050919050565b611314816112f9565b811461131f57600080fd5b50565b6000813590506113318161130b565b92915050565b60006020828403121561134d5761134c6112d4565b5b600061135b84828501611322565b91505092915050565b6000819050919050565b61137781611364565b811461138257600080fd5b50565b6000813590506113948161136e565b92915050565b6000602082840312156113b0576113af6112d4565b5b60006113be84828501611385565b91505092915050565b600081519050919050565b600082825260208201905092915050565b60005b838110156114015780820151818401526020810190506113e6565b60008484015250505050565b6000601f19601f8301169050919050565b6000611429826113c7565b61143381856113d2565b93506114438185602086016113e3565b61144c8161140d565b840191505092915050565b61146081611364565b82525050565b60006080820190508181036000830152611480818761141e565b905061148f6020830186611457565b61149c6040830185611457565b6114a96060830184611457565b95945050505050565b600060a08201905081810360008301526114cc818861141e565b90506114db6020830187611457565b6114e86040830186611457565b6114f56060830185611457565b6115026080830184611457565b9695505050505050565b600080600060608486031215611525576115246112d4565b5b600061153386828701611322565b935050602061154486828701611385565b925050604061155586828701611385565b9150509250925092565b60008115159050919050565b6115748161155f565b82525050565b600060208201905061158f600083018461156b565b92915050565b61159e816112f9565b82525050565b60006020820190506115b96000830184611595565b92915050565b7f4e487b7100000000000000000000000000000000000000000000000000000000600052602260045260246000fd5b6000600282049050600182168061160657607f821691505b602082108103611619576116186115bf565b5b50919050565b7f596f752063616e206e6f742063616c6c20746869732066756e6374696f6e0000600082015250565b6000611655601e836113d2565b91506116608261161f565b602082019050919050565b6000602082019050818103600083015261168481611648565b9050919050565b60008151905061169a8161136e565b92915050565b6000602082840312156116b6576116b56112d4565b5b60006116c48482850161168b565b91505092915050565b60006040820190506116e26000830185611457565b6116ef6020830184611457565b9392505050565b600080fd5b7f4e487b7100000000000000000000000000000000000000000000000000000000600052604160045260246000fd5b6117338261140d565b810181811067ffffffffffffffff82111715611752576117516116fb565b5b80604052505050565b60006117656112ca565b9050611771828261172a565b919050565b60006040828403121561178c5761178b6116f6565b5b611796604061175b565b905060006117a68482850161168b565b60008301525060206117ba8482850161168b565b60208301525092915050565b6000604082840312156117dc576117db6112d4565b5b60006117ea84828501611776565b91505092915050565b7f4e6f206f6e65206e6674206672656520696e207468697320736561736f6e206660008201527f6f72207468697320726172697479000000000000000000000000000000000000602082015250565b600061184f602e836113d2565b915061185a826117f3565b604082019050919050565b6000602082019050818103600083015261187e81611842565b9050919050565b7f4176617461720000000000000000000000000000000000000000000000000000600082015250565b60006118bb6006836113d2565b91506118c682611885565b602082019050919050565b60006080820190506118e66000830186611457565b6118f36020830185611457565b6119006040830184611595565b8181036060830152611911816118ae565b9050949350505050565b6119248161155f565b811461192f57600080fd5b50565b6000815190506119418161191b565b92915050565b60006020828403121561195d5761195c6112d4565b5b600061196b84828501611932565b91505092915050565b7f53746f6e65000000000000000000000000000000000000000000000000000000600082015250565b60006119aa6005836113d2565b91506119b582611974565b602082019050919050565b60006080820190506119d56000830186611457565b6119e26020830185611457565b6119ef6040830184611595565b8181036060830152611a008161199d565b9050949350505050565b7f5765617261626c65000000000000000000000000000000000000000000000000600082015250565b6000611a406008836113d2565b9150611a4b82611a0a565b602082019050919050565b6000608082019050611a6b6000830186611457565b611a786020830185611457565b611a856040830184611595565b8181036060830152611a9681611a33565b9050949350505050565b7f54727920746f20636865636b20746865207072696365206f66204e465420417660008201527f6174617200000000000000000000000000000000000000000000000000000000602082015250565b6000611afc6024836113d2565b9150611b0782611aa0565b604082019050919050565b60006020820190508181036000830152611b2b81611aef565b9050919050565b7f54727920746f20636865636b20746865207072696365206f66204e465420537460008201527f6f6e650000000000000000000000000000000000000000000000000000000000602082015250565b6000611b8e6023836113d2565b9150611b9982611b32565b604082019050919050565b60006020820190508181036000830152611bbd81611b81565b9050919050565b7f54727920746f20636865636b20746865207072696365206f66204e465420576560008201527f617261626c650000000000000000000000000000000000000000000000000000602082015250565b6000611c206026836113d2565b9150611c2b82611bc4565b604082019050919050565b60006020820190508181036000830152611c4f81611c13565b9050919050565b7f4f776e61626c653a206e6577206f776e657220697320746865207a65726f206160008201527f6464726573730000000000000000000000000000000000000000000000000000602082015250565b6000611cb26026836113d2565b9150611cbd82611c56565b604082019050919050565b60006020820190508181036000830152611ce181611ca5565b9050919050565b7f4f776e61626c653a2063616c6c6572206973206e6f7420746865206f776e6572600082015250565b6000611d1e6020836113d2565b9150611d2982611ce8565b602082019050919050565b60006020820190508181036000830152611d4d81611d11565b905091905056fea2646970667358221220eb6c01b68a713e7e61348b6fd8b3812a51b3460d3de9f0b6f84bc85eab5abf7064736f6c63430008130033",
  "immutableReferences": {},
  "source": "// SPDX-License-Identifier: MIT\r\npragma solidity ^0.8.0;\r\n\r\nimport \"./BaseStructs.sol\";\r\nimport \"./Pool/AvatarPool.sol\";\r\nimport \"./Pool/StonePool.sol\";\r\nimport \"./Pool/WearablePool.sol\";\r\nimport \"./../Season.sol\";\r\n\r\nimport \"@openzeppelin/contracts/token/ERC721/ERC721.sol\";\r\nimport \"@openzeppelin/contracts/token/ERC721/extensions/ERC721Enumerable.sol\";\r\nimport \"@openzeppelin/contracts/token/ERC721/extensions/ERC721URIStorage.sol\";\r\nimport \"@openzeppelin/contracts/access/Ownable.sol\";\r\nimport \"@openzeppelin/contracts/token/ERC20/ERC20.sol\";\r\nimport \"@openzeppelin/contracts/utils/Strings.sol\";\r\n\r\n\r\ncontract NFTManager is BaseStructs, Ownable {\r\n    \r\n    uint256 totalQuantityToBeMinted;\r\n\r\n    mapping(uint256 => Stone)  public StoneList;\r\n    mapping(uint256 => Wearable)  public WearableList;\r\n\r\n\r\n    // ADDRESS\r\n    address private avatarPoolAddress;\r\n    address private StonePoolAddress;\r\n    address private WearablePoolAddress;\r\n\r\n    address private BoxAddress;\r\n    address private SeasonAddress;\r\n\r\n    // SET BASE INFO\r\n    uint256 baseIDNFTCounter = 1;\r\n\r\n\r\n\r\n    function setAvatarPoolAddress(address _avatarPoolAddress) public onlyOwner { avatarPoolAddress = _avatarPoolAddress; }\r\n    function setStonePoolAddress(address _StonePoolAddress) public onlyOwner { StonePoolAddress = _StonePoolAddress; }\r\n    function setWearablePoolAddress(address _WearablePoolAddress) public onlyOwner { WearablePoolAddress = _WearablePoolAddress; }\r\n\r\n    function setBoxAddress(address _BoxAddress) public onlyOwner { BoxAddress = _BoxAddress; }\r\n    function setSeasonAddress(address _SeasonAddress) public onlyOwner { SeasonAddress = _SeasonAddress; }\r\n\r\n\r\n    constructor (\r\n        address _avatarPoolAddress,\r\n        address _StonePoolAddress,\r\n        address _WearablePoolAddress,\r\n\r\n        address _BoxAddress, \r\n        address _SeasonAddress\r\n    ) {\r\n        avatarPoolAddress = _avatarPoolAddress;\r\n        StonePoolAddress = _StonePoolAddress;\r\n        WearablePoolAddress = _WearablePoolAddress;\r\n\r\n        BoxAddress = _BoxAddress;\r\n        SeasonAddress = _SeasonAddress;\r\n    }\r\n\r\n\r\n\r\n\r\n\r\n\r\n    /**\r\n        This function permit to user and BoxAddress smart contract to mint NFT\r\n    \r\n        LEGGEND:\r\n            objKey == 0     AVATAR\r\n            objKey == 1     STONE\r\n            objKey == 2     WEARABLES\r\n     */\r\n    function NFTSafeMint ( \r\n        address to, \r\n        uint256 tokenRarity, \r\n        uint256 objKey\r\n    ) public payable returns(bool) {\r\n        require(msg.sender == BoxAddress, \"You can not call this function\");\r\n\r\n        uint256 season = Season(SeasonAddress).getCurrentSeason();\r\n\r\n        if (objKey == 0) require( AvatarPool(avatarPoolAddress).getAvatarPoolInfo(season, tokenRarity).quantity > 0, \"No one nft free in this season for this rarity\");\r\n        else if (objKey == 1) require( StonePool(StonePoolAddress).getStonePoolInfo(season, tokenRarity).quantity > 0, \"No one nft free in this season for this rarity\");\r\n        else if (objKey == 2) require( WearablePool(WearablePoolAddress).getWearablePoolInfo(season, tokenRarity).quantity > 0, \"No one nft free in this season for this rarity\");\r\n        else return false;\r\n\r\n        if (msg.sender == BoxAddress) { \r\n        \r\n            if (objKey == 0) return AvatarPool(avatarPoolAddress).mintingPrivate(tokenRarity, season, to, \"Avatar\"); \r\n            else if (objKey == 1) return StonePool(StonePoolAddress).mintingPrivate(tokenRarity, season, to, \"Stone\");\r\n            else if (objKey == 2) return WearablePool(WearablePoolAddress).mintingPrivate(tokenRarity, season, to, \"Wearable\");\r\n            else return false;\r\n        \r\n        } else {\r\n\r\n            if (objKey == 0) {\r\n                require( msg.value >= AvatarPool(avatarPoolAddress).getAvatarPoolInfo(season, tokenRarity).cost, \"Try to check the price of NFT Avatar\" );\r\n                return AvatarPool(avatarPoolAddress).mintingPrivate(tokenRarity, season, msg.sender, \"Avatar\");\r\n            } else if (objKey == 1) {\r\n                require( msg.value >= StonePool(StonePoolAddress).getStonePoolInfo(season, tokenRarity).cost, \"Try to check the price of NFT Stone\" );\r\n                return StonePool(StonePoolAddress).mintingPrivate(tokenRarity, season, msg.sender, \"Stone\");\r\n            } else if (objKey == 2) {\r\n                require( msg.value >= WearablePool(WearablePoolAddress).getWearablePoolInfo(season, tokenRarity).cost, \"Try to check the price of NFT Wearable\" );\r\n                return WearablePool(WearablePoolAddress).mintingPrivate(tokenRarity, season, msg.sender, \"Wearable\");\r\n            } else return false;\r\n\r\n        }\r\n    }\r\n    \r\n}",
  "sourcePath": "D:\\Lavoro\\21_BJ\\21_BJ_SC\\contracts\\Avatar\\NFTManager.sol",
  "compiler": {
    "name": "solc",
    "version": "0.8.19+commit.7dd6d404.Emscripten.clang"
  },
  "schemaVersion": "3.4.15",
  "updatedAt": "2023-10-20T15:35:45.213Z",
  "devdoc": {
    "kind": "dev",
    "methods": {
      "owner()": {
        "details": "Returns the address of the current owner."
      },
      "renounceOwnership()": {
        "details": "Leaves the contract without owner. It will not be possible to call `onlyOwner` functions. Can only be called by the current owner. NOTE: Renouncing ownership will leave the contract without an owner, thereby disabling any functionality that is only available to the owner."
      },
      "transferOwnership(address)": {
        "details": "Transfers ownership of the contract to a new account (`newOwner`). Can only be called by the current owner."
      }
    },
    "version": 1
  },
  "userdoc": {
    "kind": "user",
    "methods": {
      "NFTSafeMint(address,uint256,uint256)": {
        "notice": "This function permit to user and BoxAddress smart contract to mint NFT LEGGEND: objKey == 0     AVATAR objKey == 1     STONE objKey == 2     WEARABLES"
      }
    },
    "version": 1
  }
}