{
  "contractName": "PoolBaseStruct",
  "abi": [
    {
      "inputs": [
        {
          "internalType": "address",
          "name": "_NFTManagerAddress",
          "type": "address"
        },
        {
          "internalType": "address",
          "name": "_RandomChoiceAddress",
          "type": "address"
        },
        {
          "internalType": "string",
          "name": "_baseUri",
          "type": "string"
        },
        {
          "internalType": "string",
          "name": "name",
          "type": "string"
        },
        {
          "internalType": "string",
          "name": "simbol",
          "type": "string"
        }
      ],
      "stateMutability": "nonpayable",
      "type": "constructor"
    },
    {
      "anonymous": false,
      "inputs": [
        {
          "indexed": true,
          "internalType": "address",
          "name": "owner",
          "type": "address"
        },
        {
          "indexed": true,
          "internalType": "address",
          "name": "approved",
          "type": "address"
        },
        {
          "indexed": true,
          "internalType": "uint256",
          "name": "tokenId",
          "type": "uint256"
        }
      ],
      "name": "Approval",
      "type": "event"
    },
    {
      "anonymous": false,
      "inputs": [
        {
          "indexed": true,
          "internalType": "address",
          "name": "owner",
          "type": "address"
        },
        {
          "indexed": true,
          "internalType": "address",
          "name": "operator",
          "type": "address"
        },
        {
          "indexed": false,
          "internalType": "bool",
          "name": "approved",
          "type": "bool"
        }
      ],
      "name": "ApprovalForAll",
      "type": "event"
    },
    {
      "anonymous": false,
      "inputs": [
        {
          "indexed": false,
          "internalType": "uint256",
          "name": "_fromTokenId",
          "type": "uint256"
        },
        {
          "indexed": false,
          "internalType": "uint256",
          "name": "_toTokenId",
          "type": "uint256"
        }
      ],
      "name": "BatchMetadataUpdate",
      "type": "event"
    },
    {
      "anonymous": false,
      "inputs": [
        {
          "indexed": false,
          "internalType": "uint256",
          "name": "_tokenId",
          "type": "uint256"
        }
      ],
      "name": "MetadataUpdate",
      "type": "event"
    },
    {
      "anonymous": false,
      "inputs": [
        {
          "indexed": true,
          "internalType": "address",
          "name": "previousOwner",
          "type": "address"
        },
        {
          "indexed": true,
          "internalType": "address",
          "name": "newOwner",
          "type": "address"
        }
      ],
      "name": "OwnershipTransferred",
      "type": "event"
    },
    {
      "anonymous": false,
      "inputs": [
        {
          "indexed": true,
          "internalType": "address",
          "name": "from",
          "type": "address"
        },
        {
          "indexed": true,
          "internalType": "address",
          "name": "to",
          "type": "address"
        },
        {
          "indexed": true,
          "internalType": "uint256",
          "name": "tokenId",
          "type": "uint256"
        }
      ],
      "name": "Transfer",
      "type": "event"
    },
    {
      "inputs": [
        {
          "internalType": "address",
          "name": "to",
          "type": "address"
        },
        {
          "internalType": "uint256",
          "name": "tokenId",
          "type": "uint256"
        }
      ],
      "name": "approve",
      "outputs": [],
      "stateMutability": "nonpayable",
      "type": "function"
    },
    {
      "inputs": [
        {
          "internalType": "address",
          "name": "owner",
          "type": "address"
        }
      ],
      "name": "balanceOf",
      "outputs": [
        {
          "internalType": "uint256",
          "name": "",
          "type": "uint256"
        }
      ],
      "stateMutability": "view",
      "type": "function"
    },
    {
      "inputs": [
        {
          "internalType": "uint256",
          "name": "tokenId",
          "type": "uint256"
        }
      ],
      "name": "getApproved",
      "outputs": [
        {
          "internalType": "address",
          "name": "",
          "type": "address"
        }
      ],
      "stateMutability": "view",
      "type": "function"
    },
    {
      "inputs": [
        {
          "internalType": "address",
          "name": "owner",
          "type": "address"
        },
        {
          "internalType": "address",
          "name": "operator",
          "type": "address"
        }
      ],
      "name": "isApprovedForAll",
      "outputs": [
        {
          "internalType": "bool",
          "name": "",
          "type": "bool"
        }
      ],
      "stateMutability": "view",
      "type": "function"
    },
    {
      "inputs": [],
      "name": "name",
      "outputs": [
        {
          "internalType": "string",
          "name": "",
          "type": "string"
        }
      ],
      "stateMutability": "view",
      "type": "function"
    },
    {
      "inputs": [],
      "name": "owner",
      "outputs": [
        {
          "internalType": "address",
          "name": "",
          "type": "address"
        }
      ],
      "stateMutability": "view",
      "type": "function"
    },
    {
      "inputs": [
        {
          "internalType": "uint256",
          "name": "tokenId",
          "type": "uint256"
        }
      ],
      "name": "ownerOf",
      "outputs": [
        {
          "internalType": "address",
          "name": "",
          "type": "address"
        }
      ],
      "stateMutability": "view",
      "type": "function"
    },
    {
      "inputs": [],
      "name": "renounceOwnership",
      "outputs": [],
      "stateMutability": "nonpayable",
      "type": "function"
    },
    {
      "inputs": [
        {
          "internalType": "address",
          "name": "from",
          "type": "address"
        },
        {
          "internalType": "address",
          "name": "to",
          "type": "address"
        },
        {
          "internalType": "uint256",
          "name": "tokenId",
          "type": "uint256"
        }
      ],
      "name": "safeTransferFrom",
      "outputs": [],
      "stateMutability": "nonpayable",
      "type": "function"
    },
    {
      "inputs": [
        {
          "internalType": "address",
          "name": "from",
          "type": "address"
        },
        {
          "internalType": "address",
          "name": "to",
          "type": "address"
        },
        {
          "internalType": "uint256",
          "name": "tokenId",
          "type": "uint256"
        },
        {
          "internalType": "bytes",
          "name": "data",
          "type": "bytes"
        }
      ],
      "name": "safeTransferFrom",
      "outputs": [],
      "stateMutability": "nonpayable",
      "type": "function"
    },
    {
      "inputs": [
        {
          "internalType": "address",
          "name": "operator",
          "type": "address"
        },
        {
          "internalType": "bool",
          "name": "approved",
          "type": "bool"
        }
      ],
      "name": "setApprovalForAll",
      "outputs": [],
      "stateMutability": "nonpayable",
      "type": "function"
    },
    {
      "inputs": [],
      "name": "symbol",
      "outputs": [
        {
          "internalType": "string",
          "name": "",
          "type": "string"
        }
      ],
      "stateMutability": "view",
      "type": "function"
    },
    {
      "inputs": [
        {
          "internalType": "uint256",
          "name": "index",
          "type": "uint256"
        }
      ],
      "name": "tokenByIndex",
      "outputs": [
        {
          "internalType": "uint256",
          "name": "",
          "type": "uint256"
        }
      ],
      "stateMutability": "view",
      "type": "function"
    },
    {
      "inputs": [
        {
          "internalType": "address",
          "name": "owner",
          "type": "address"
        },
        {
          "internalType": "uint256",
          "name": "index",
          "type": "uint256"
        }
      ],
      "name": "tokenOfOwnerByIndex",
      "outputs": [
        {
          "internalType": "uint256",
          "name": "",
          "type": "uint256"
        }
      ],
      "stateMutability": "view",
      "type": "function"
    },
    {
      "inputs": [],
      "name": "totalSupply",
      "outputs": [
        {
          "internalType": "uint256",
          "name": "",
          "type": "uint256"
        }
      ],
      "stateMutability": "view",
      "type": "function"
    },
    {
      "inputs": [
        {
          "internalType": "address",
          "name": "from",
          "type": "address"
        },
        {
          "internalType": "address",
          "name": "to",
          "type": "address"
        },
        {
          "internalType": "uint256",
          "name": "tokenId",
          "type": "uint256"
        }
      ],
      "name": "transferFrom",
      "outputs": [],
      "stateMutability": "nonpayable",
      "type": "function"
    },
    {
      "inputs": [
        {
          "internalType": "address",
          "name": "newOwner",
          "type": "address"
        }
      ],
      "name": "transferOwnership",
      "outputs": [],
      "stateMutability": "nonpayable",
      "type": "function"
    },
    {
      "inputs": [],
      "name": "getNFTManagerAddress",
      "outputs": [
        {
          "internalType": "address",
          "name": "",
          "type": "address"
        }
      ],
      "stateMutability": "view",
      "type": "function"
    },
    {
      "inputs": [],
      "name": "getRandomChoiceAddress",
      "outputs": [
        {
          "internalType": "address",
          "name": "",
          "type": "address"
        }
      ],
      "stateMutability": "view",
      "type": "function"
    },
    {
      "inputs": [],
      "name": "getActionAddress",
      "outputs": [
        {
          "internalType": "address",
          "name": "",
          "type": "address"
        }
      ],
      "stateMutability": "view",
      "type": "function"
    },
    {
      "inputs": [],
      "name": "getBaseUri",
      "outputs": [
        {
          "internalType": "string",
          "name": "",
          "type": "string"
        }
      ],
      "stateMutability": "view",
      "type": "function"
    },
    {
      "inputs": [
        {
          "internalType": "address",
          "name": "_NFTManagerAddress",
          "type": "address"
        }
      ],
      "name": "setNFTManagerAddress",
      "outputs": [],
      "stateMutability": "nonpayable",
      "type": "function"
    },
    {
      "inputs": [
        {
          "internalType": "address",
          "name": "_RandomChoiceAddress",
          "type": "address"
        }
      ],
      "name": "setRandomChoiceAddress",
      "outputs": [],
      "stateMutability": "nonpayable",
      "type": "function"
    },
    {
      "inputs": [
        {
          "internalType": "address",
          "name": "_ActionAddress",
          "type": "address"
        }
      ],
      "name": "setActionAddress",
      "outputs": [],
      "stateMutability": "nonpayable",
      "type": "function"
    },
    {
      "inputs": [
        {
          "internalType": "string",
          "name": "_baseUri",
          "type": "string"
        }
      ],
      "name": "setBaseUri",
      "outputs": [],
      "stateMutability": "nonpayable",
      "type": "function"
    },
    {
      "inputs": [
        {
          "internalType": "address",
          "name": "from",
          "type": "address"
        },
        {
          "internalType": "address",
          "name": "_to",
          "type": "address"
        },
        {
          "internalType": "uint256",
          "name": "_tokenId",
          "type": "uint256"
        }
      ],
      "name": "transferNFT",
      "outputs": [],
      "stateMutability": "nonpayable",
      "type": "function"
    },
    {
      "inputs": [
        {
          "internalType": "string",
          "name": "_baseUri",
          "type": "string"
        }
      ],
      "name": "setBaseURI",
      "outputs": [],
      "stateMutability": "nonpayable",
      "type": "function"
    },
    {
      "inputs": [
        {
          "internalType": "uint256",
          "name": "tokenId",
          "type": "uint256"
        }
      ],
      "name": "tokenURI",
      "outputs": [
        {
          "internalType": "string",
          "name": "",
          "type": "string"
        }
      ],
      "stateMutability": "view",
      "type": "function"
    },
    {
      "inputs": [
        {
          "internalType": "bytes4",
          "name": "interfaceId",
          "type": "bytes4"
        }
      ],
      "name": "supportsInterface",
      "outputs": [
        {
          "internalType": "bool",
          "name": "",
          "type": "bool"
        }
      ],
      "stateMutability": "view",
      "type": "function"
    },
    {
      "inputs": [
        {
          "internalType": "uint256",
          "name": "_tokenId",
          "type": "uint256"
        }
      ],
      "name": "existNFT",
      "outputs": [
        {
          "internalType": "bool",
          "name": "",
          "type": "bool"
        }
      ],
      "stateMutability": "view",
      "type": "function"
    },
    {
      "inputs": [
        {
          "internalType": "uint256",
          "name": "_tokenId",
          "type": "uint256"
        }
      ],
      "name": "ownerOfNFT",
      "outputs": [
        {
          "internalType": "bool",
          "name": "",
          "type": "bool"
        }
      ],
      "stateMutability": "view",
      "type": "function"
    }
  ],
  "bytecode": "0x60806040523480156200001157600080fd5b50604051620041d2380380620041d28339818101604052810190620000379190620003e4565b818181600090816200004a919062000714565b5080600190816200005c919062000714565b5050506200007f620000736200011e60201b60201c565b6200012660201b60201c565b84600c60006101000a81548173ffffffffffffffffffffffffffffffffffffffff021916908373ffffffffffffffffffffffffffffffffffffffff16021790555083600d60006101000a81548173ffffffffffffffffffffffffffffffffffffffff021916908373ffffffffffffffffffffffffffffffffffffffff16021790555082600f908162000112919062000714565b505050505050620007fb565b600033905090565b6000600b60009054906101000a900473ffffffffffffffffffffffffffffffffffffffff16905081600b60006101000a81548173ffffffffffffffffffffffffffffffffffffffff021916908373ffffffffffffffffffffffffffffffffffffffff1602179055508173ffffffffffffffffffffffffffffffffffffffff168173ffffffffffffffffffffffffffffffffffffffff167f8be0079c531659141344cd1fd0a4f28419497f9722a3daafe3b4186f6b6457e060405160405180910390a35050565b6000604051905090565b600080fd5b600080fd5b600073ffffffffffffffffffffffffffffffffffffffff82169050919050565b60006200022d8262000200565b9050919050565b6200023f8162000220565b81146200024b57600080fd5b50565b6000815190506200025f8162000234565b92915050565b600080fd5b600080fd5b6000601f19601f8301169050919050565b7f4e487b7100000000000000000000000000000000000000000000000000000000600052604160045260246000fd5b620002ba826200026f565b810181811067ffffffffffffffff82111715620002dc57620002db62000280565b5b80604052505050565b6000620002f1620001ec565b9050620002ff8282620002af565b919050565b600067ffffffffffffffff82111562000322576200032162000280565b5b6200032d826200026f565b9050602081019050919050565b60005b838110156200035a5780820151818401526020810190506200033d565b60008484015250505050565b60006200037d620003778462000304565b620002e5565b9050828152602081018484840111156200039c576200039b6200026a565b5b620003a98482856200033a565b509392505050565b600082601f830112620003c957620003c862000265565b5b8151620003db84826020860162000366565b91505092915050565b600080600080600060a08688031215620004035762000402620001f6565b5b600062000413888289016200024e565b955050602062000426888289016200024e565b945050604086015167ffffffffffffffff8111156200044a5762000449620001fb565b5b6200045888828901620003b1565b935050606086015167ffffffffffffffff8111156200047c576200047b620001fb565b5b6200048a88828901620003b1565b925050608086015167ffffffffffffffff811115620004ae57620004ad620001fb565b5b620004bc88828901620003b1565b9150509295509295909350565b600081519050919050565b7f4e487b7100000000000000000000000000000000000000000000000000000000600052602260045260246000fd5b600060028204905060018216806200051c57607f821691505b602082108103620005325762000531620004d4565b5b50919050565b60008190508160005260206000209050919050565b60006020601f8301049050919050565b600082821b905092915050565b6000600883026200059c7fffffffffffffffffffffffffffffffffffffffffffffffffffffffffffffffff826200055d565b620005a886836200055d565b95508019841693508086168417925050509392505050565b6000819050919050565b6000819050919050565b6000620005f5620005ef620005e984620005c0565b620005ca565b620005c0565b9050919050565b6000819050919050565b6200061183620005d4565b620006296200062082620005fc565b8484546200056a565b825550505050565b600090565b6200064062000631565b6200064d81848462000606565b505050565b5b8181101562000675576200066960008262000636565b60018101905062000653565b5050565b601f821115620006c4576200068e8162000538565b62000699846200054d565b81016020851015620006a9578190505b620006c1620006b8856200054d565b83018262000652565b50505b505050565b600082821c905092915050565b6000620006e960001984600802620006c9565b1980831691505092915050565b6000620007048383620006d6565b9150826002028217905092915050565b6200071f82620004c9565b67ffffffffffffffff8111156200073b576200073a62000280565b5b62000747825462000503565b6200075482828562000679565b600060209050601f8311600181146200078c576000841562000777578287015190505b620007838582620006f6565b865550620007f3565b601f1984166200079c8662000538565b60005b82811015620007c6578489015182556001820191506020850194506020810190506200079f565b86831015620007e65784890151620007e2601f891682620006d6565b8355505b6001600288020188555050505b505050505050565b6139c7806200080b6000396000f3fe608060405234801561001057600080fd5b50600436106101e55760003560e01c806370a082311161010f578063a22cb465116100a2578063c87b56dd11610071578063c87b56dd1461057c578063e985e9c5146105ac578063f2fde38b146105dc578063fc2a9ea6146105f8576101e5565b8063a22cb4651461050a578063a510123f14610526578063ab2c1b6514610544578063b88d4fde14610560576101e5565b80638da5cb5b116100de5780638da5cb5b1461049657806395d89b41146104b45780639e056ce9146104d2578063a0bcfc7f146104ee576101e5565b806370a082311461040e578063715018a61461043e5780638203685014610448578063876ffe1e14610478576101e5565b80632d8a746e1161018757806355f804b31161015657806355f804b3146103885780636352211e146103a457806368f3f6dc146103d457806369e9cae1146103f2576101e5565b80632d8a746e146102dc5780632f745c591461030c57806342842e0e1461033c5780634f6ccce714610358576101e5565b8063095ea7b3116101c3578063095ea7b3146102685780630cac36b21461028457806318160ddd146102a257806323b872dd146102c0576101e5565b806301ffc9a7146101ea57806306fdde031461021a578063081812fc14610238575b600080fd5b61020460048036038101906101ff91906125c0565b610614565b6040516102119190612608565b60405180910390f35b610222610626565b60405161022f91906126b3565b60405180910390f35b610252600480360381019061024d919061270b565b6106b8565b60405161025f9190612779565b60405180910390f35b610282600480360381019061027d91906127c0565b6106fe565b005b61028c610815565b60405161029991906126b3565b60405180910390f35b6102aa6108a7565b6040516102b7919061280f565b60405180910390f35b6102da60048036038101906102d5919061282a565b6108b4565b005b6102f660048036038101906102f1919061270b565b610914565b6040516103039190612608565b60405180910390f35b610326600480360381019061032191906127c0565b610954565b604051610333919061280f565b60405180910390f35b6103566004803603810190610351919061282a565b6109f9565b005b610372600480360381019061036d919061270b565b610a19565b60405161037f919061280f565b60405180910390f35b6103a2600480360381019061039d91906129b2565b610a8a565b005b6103be60048036038101906103b9919061270b565b610aa5565b6040516103cb9190612779565b60405180910390f35b6103dc610b2b565b6040516103e99190612779565b60405180910390f35b61040c6004803603810190610407919061282a565b610b55565b005b610428600480360381019061042391906129fb565b610c23565b604051610435919061280f565b60405180910390f35b610446610cda565b005b610462600480360381019061045d919061270b565b610cee565b60405161046f9190612608565b60405180910390f35b610480610d00565b60405161048d9190612779565b60405180910390f35b61049e610d2a565b6040516104ab9190612779565b60405180910390f35b6104bc610d54565b6040516104c991906126b3565b60405180910390f35b6104ec60048036038101906104e791906129fb565b610de6565b005b610508600480360381019061050391906129b2565b610e32565b005b610524600480360381019061051f9190612a54565b610e4d565b005b61052e610e63565b60405161053b9190612779565b60405180910390f35b61055e600480360381019061055991906129fb565b610e8d565b005b61057a60048036038101906105759190612b35565b610ed9565b005b6105966004803603810190610591919061270b565b610f3b565b6040516105a391906126b3565b60405180910390f35b6105c660048036038101906105c19190612bb8565b610f4d565b6040516105d39190612608565b60405180910390f35b6105f660048036038101906105f191906129fb565b610fe1565b005b610612600480360381019061060d91906129fb565b611064565b005b600061061f826110b0565b9050919050565b60606000805461063590612c27565b80601f016020809104026020016040519081016040528092919081815260200182805461066190612c27565b80156106ae5780601f10610683576101008083540402835291602001916106ae565b820191906000526020600020905b81548152906001019060200180831161069157829003601f168201915b5050505050905090565b60006106c382611111565b6004600083815260200190815260200160002060009054906101000a900473ffffffffffffffffffffffffffffffffffffffff169050919050565b600061070982610aa5565b90508073ffffffffffffffffffffffffffffffffffffffff168373ffffffffffffffffffffffffffffffffffffffff1603610779576040517f08c379a000000000000000000000000000000000000000000000000000000000815260040161077090612cca565b60405180910390fd5b8073ffffffffffffffffffffffffffffffffffffffff1661079861115c565b73ffffffffffffffffffffffffffffffffffffffff1614806107c757506107c6816107c161115c565b610f4d565b5b610806576040517f08c379a00000000000000000000000000000000000000000000000000000000081526004016107fd90612d5c565b60405180910390fd5b6108108383611164565b505050565b6060600f805461082490612c27565b80601f016020809104026020016040519081016040528092919081815260200182805461085090612c27565b801561089d5780601f106108725761010080835404028352916020019161089d565b820191906000526020600020905b81548152906001019060200180831161088057829003601f168201915b5050505050905090565b6000600880549050905090565b6108c56108bf61115c565b8261121d565b610904576040517f08c379a00000000000000000000000000000000000000000000000000000000081526004016108fb90612dee565b60405180910390fd5b61090f8383836112b2565b505050565b60003373ffffffffffffffffffffffffffffffffffffffff1661093683610aa5565b73ffffffffffffffffffffffffffffffffffffffff16149050919050565b600061095f83610c23565b82106109a0576040517f08c379a000000000000000000000000000000000000000000000000000000000815260040161099790612e80565b60405180910390fd5b600660008473ffffffffffffffffffffffffffffffffffffffff1673ffffffffffffffffffffffffffffffffffffffff168152602001908152602001600020600083815260200190815260200160002054905092915050565b610a1483838360405180602001604052806000815250610ed9565b505050565b6000610a236108a7565b8210610a64576040517f08c379a0000000000000000000000000000000000000000000000000000000008152600401610a5b90612f12565b60405180910390fd5b60088281548110610a7857610a77612f32565b5b90600052602060002001549050919050565b610a926115ab565b80600f9081610aa1919061310d565b5050565b600080610ab183611629565b9050600073ffffffffffffffffffffffffffffffffffffffff168173ffffffffffffffffffffffffffffffffffffffff1603610b22576040517f08c379a0000000000000000000000000000000000000000000000000000000008152600401610b199061322b565b60405180910390fd5b80915050919050565b6000600e60009054906101000a900473ffffffffffffffffffffffffffffffffffffffff16905090565b610b5e81611666565b610b9d576040517f08c379a0000000000000000000000000000000000000000000000000000000008152600401610b9490613297565b60405180910390fd5b3373ffffffffffffffffffffffffffffffffffffffff16610bbd82610aa5565b73ffffffffffffffffffffffffffffffffffffffff1614610c13576040517f08c379a0000000000000000000000000000000000000000000000000000000008152600401610c0a90613329565b60405180910390fd5b610c1e8383836109f9565b505050565b60008073ffffffffffffffffffffffffffffffffffffffff168273ffffffffffffffffffffffffffffffffffffffff1603610c93576040517f08c379a0000000000000000000000000000000000000000000000000000000008152600401610c8a906133bb565b60405180910390fd5b600360008373ffffffffffffffffffffffffffffffffffffffff1673ffffffffffffffffffffffffffffffffffffffff168152602001908152602001600020549050919050565b610ce26115ab565b610cec60006116a7565b565b6000610cf982611666565b9050919050565b6000600c60009054906101000a900473ffffffffffffffffffffffffffffffffffffffff16905090565b6000600b60009054906101000a900473ffffffffffffffffffffffffffffffffffffffff16905090565b606060018054610d6390612c27565b80601f0160208091040260200160405190810160405280929190818152602001828054610d8f90612c27565b8015610ddc5780601f10610db157610100808354040283529160200191610ddc565b820191906000526020600020905b815481529060010190602001808311610dbf57829003601f168201915b5050505050905090565b610dee6115ab565b80600e60006101000a81548173ffffffffffffffffffffffffffffffffffffffff021916908373ffffffffffffffffffffffffffffffffffffffff16021790555050565b610e3a6115ab565b80600f9081610e49919061310d565b5050565b610e5f610e5861115c565b838361176d565b5050565b6000600d60009054906101000a900473ffffffffffffffffffffffffffffffffffffffff16905090565b610e956115ab565b80600d60006101000a81548173ffffffffffffffffffffffffffffffffffffffff021916908373ffffffffffffffffffffffffffffffffffffffff16021790555050565b610eea610ee461115c565b8361121d565b610f29576040517f08c379a0000000000000000000000000000000000000000000000000000000008152600401610f2090612dee565b60405180910390fd5b610f35848484846118d9565b50505050565b6060610f4682611935565b9050919050565b6000600560008473ffffffffffffffffffffffffffffffffffffffff1673ffffffffffffffffffffffffffffffffffffffff16815260200190815260200160002060008373ffffffffffffffffffffffffffffffffffffffff1673ffffffffffffffffffffffffffffffffffffffff16815260200190815260200160002060009054906101000a900460ff16905092915050565b610fe96115ab565b600073ffffffffffffffffffffffffffffffffffffffff168173ffffffffffffffffffffffffffffffffffffffff1603611058576040517f08c379a000000000000000000000000000000000000000000000000000000000815260040161104f9061344d565b60405180910390fd5b611061816116a7565b50565b61106c6115ab565b80600c60006101000a81548173ffffffffffffffffffffffffffffffffffffffff021916908373ffffffffffffffffffffffffffffffffffffffff16021790555050565b6000634906490660e01b7bffffffffffffffffffffffffffffffffffffffffffffffffffffffff1916827bffffffffffffffffffffffffffffffffffffffffffffffffffffffff1916148061110a575061110982611a47565b5b9050919050565b61111a81611666565b611159576040517f08c379a00000000000000000000000000000000000000000000000000000000081526004016111509061322b565b60405180910390fd5b50565b600033905090565b816004600083815260200190815260200160002060006101000a81548173ffffffffffffffffffffffffffffffffffffffff021916908373ffffffffffffffffffffffffffffffffffffffff160217905550808273ffffffffffffffffffffffffffffffffffffffff166111d783610aa5565b73ffffffffffffffffffffffffffffffffffffffff167f8c5be1e5ebec7d5bd14f71427d1e84f3dd0314c0f7b2291e5b200ac8c7c3b92560405160405180910390a45050565b60008061122983610aa5565b90508073ffffffffffffffffffffffffffffffffffffffff168473ffffffffffffffffffffffffffffffffffffffff16148061126b575061126a8185610f4d565b5b806112a957508373ffffffffffffffffffffffffffffffffffffffff16611291846106b8565b73ffffffffffffffffffffffffffffffffffffffff16145b91505092915050565b8273ffffffffffffffffffffffffffffffffffffffff166112d282610aa5565b73ffffffffffffffffffffffffffffffffffffffff1614611328576040517f08c379a000000000000000000000000000000000000000000000000000000000815260040161131f906134df565b60405180910390fd5b600073ffffffffffffffffffffffffffffffffffffffff168273ffffffffffffffffffffffffffffffffffffffff1603611397576040517f08c379a000000000000000000000000000000000000000000000000000000000815260040161138e90613571565b60405180910390fd5b6113a48383836001611ac1565b8273ffffffffffffffffffffffffffffffffffffffff166113c482610aa5565b73ffffffffffffffffffffffffffffffffffffffff161461141a576040517f08c379a0000000000000000000000000000000000000000000000000000000008152600401611411906134df565b60405180910390fd5b6004600082815260200190815260200160002060006101000a81549073ffffffffffffffffffffffffffffffffffffffff02191690556001600360008573ffffffffffffffffffffffffffffffffffffffff1673ffffffffffffffffffffffffffffffffffffffff168152602001908152602001600020600082825403925050819055506001600360008473ffffffffffffffffffffffffffffffffffffffff1673ffffffffffffffffffffffffffffffffffffffff16815260200190815260200160002060008282540192505081905550816002600083815260200190815260200160002060006101000a81548173ffffffffffffffffffffffffffffffffffffffff021916908373ffffffffffffffffffffffffffffffffffffffff160217905550808273ffffffffffffffffffffffffffffffffffffffff168473ffffffffffffffffffffffffffffffffffffffff167fddf252ad1be2c89b69c2b068fc378daa952ba7f163c4a11628f55a4df523b3ef60405160405180910390a46115a68383836001611ad3565b505050565b6115b361115c565b73ffffffffffffffffffffffffffffffffffffffff166115d1610d2a565b73ffffffffffffffffffffffffffffffffffffffff1614611627576040517f08c379a000000000000000000000000000000000000000000000000000000000815260040161161e906135dd565b60405180910390fd5b565b60006002600083815260200190815260200160002060009054906101000a900473ffffffffffffffffffffffffffffffffffffffff169050919050565b60008073ffffffffffffffffffffffffffffffffffffffff1661168883611629565b73ffffffffffffffffffffffffffffffffffffffff1614159050919050565b6000600b60009054906101000a900473ffffffffffffffffffffffffffffffffffffffff16905081600b60006101000a81548173ffffffffffffffffffffffffffffffffffffffff021916908373ffffffffffffffffffffffffffffffffffffffff1602179055508173ffffffffffffffffffffffffffffffffffffffff168173ffffffffffffffffffffffffffffffffffffffff167f8be0079c531659141344cd1fd0a4f28419497f9722a3daafe3b4186f6b6457e060405160405180910390a35050565b8173ffffffffffffffffffffffffffffffffffffffff168373ffffffffffffffffffffffffffffffffffffffff16036117db576040517f08c379a00000000000000000000000000000000000000000000000000000000081526004016117d290613649565b60405180910390fd5b80600560008573ffffffffffffffffffffffffffffffffffffffff1673ffffffffffffffffffffffffffffffffffffffff16815260200190815260200160002060008473ffffffffffffffffffffffffffffffffffffffff1673ffffffffffffffffffffffffffffffffffffffff16815260200190815260200160002060006101000a81548160ff0219169083151502179055508173ffffffffffffffffffffffffffffffffffffffff168373ffffffffffffffffffffffffffffffffffffffff167f17307eab39ab6107e8899845ad3d59bd9653f200f220920489ca2b5937696c31836040516118cc9190612608565b60405180910390a3505050565b6118e48484846112b2565b6118f084848484611ad9565b61192f576040517f08c379a0000000000000000000000000000000000000000000000000000000008152600401611926906136db565b60405180910390fd5b50505050565b606061194082611111565b6000600a6000848152602001908152602001600020805461196090612c27565b80601f016020809104026020016040519081016040528092919081815260200182805461198c90612c27565b80156119d95780601f106119ae576101008083540402835291602001916119d9565b820191906000526020600020905b8154815290600101906020018083116119bc57829003601f168201915b5050505050905060006119ea611c60565b905060008151036119ff578192505050611a42565b600082511115611a34578082604051602001611a1c929190613737565b60405160208183030381529060405292505050611a42565b611a3d84611cf2565b925050505b919050565b60007f780e9d63000000000000000000000000000000000000000000000000000000007bffffffffffffffffffffffffffffffffffffffffffffffffffffffff1916827bffffffffffffffffffffffffffffffffffffffffffffffffffffffff19161480611aba5750611ab982611d5a565b5b9050919050565b611acd84848484611e3c565b50505050565b50505050565b6000611afa8473ffffffffffffffffffffffffffffffffffffffff16611f9a565b15611c53578373ffffffffffffffffffffffffffffffffffffffff1663150b7a02611b2361115c565b8786866040518563ffffffff1660e01b8152600401611b4594939291906137b0565b6020604051808303816000875af1925050508015611b8157506040513d601f19601f82011682018060405250810190611b7e9190613811565b60015b611c03573d8060008114611bb1576040519150601f19603f3d011682016040523d82523d6000602084013e611bb6565b606091505b506000815103611bfb576040517f08c379a0000000000000000000000000000000000000000000000000000000008152600401611bf2906136db565b60405180910390fd5b805181602001fd5b63150b7a0260e01b7bffffffffffffffffffffffffffffffffffffffffffffffffffffffff1916817bffffffffffffffffffffffffffffffffffffffffffffffffffffffff191614915050611c58565b600190505b949350505050565b6060600f8054611c6f90612c27565b80601f0160208091040260200160405190810160405280929190818152602001828054611c9b90612c27565b8015611ce85780601f10611cbd57610100808354040283529160200191611ce8565b820191906000526020600020905b815481529060010190602001808311611ccb57829003601f168201915b5050505050905090565b6060611cfd82611111565b6000611d07611c60565b90506000815111611d275760405180602001604052806000815250611d52565b80611d3184611fbd565b604051602001611d42929190613737565b6040516020818303038152906040525b915050919050565b60007f80ac58cd000000000000000000000000000000000000000000000000000000007bffffffffffffffffffffffffffffffffffffffffffffffffffffffff1916827bffffffffffffffffffffffffffffffffffffffffffffffffffffffff19161480611e2557507f5b5e139f000000000000000000000000000000000000000000000000000000007bffffffffffffffffffffffffffffffffffffffffffffffffffffffff1916827bffffffffffffffffffffffffffffffffffffffffffffffffffffffff1916145b80611e355750611e348261208b565b5b9050919050565b611e48848484846120f5565b6001811115611e8c576040517f08c379a0000000000000000000000000000000000000000000000000000000008152600401611e83906138b0565b60405180910390fd5b6000829050600073ffffffffffffffffffffffffffffffffffffffff168573ffffffffffffffffffffffffffffffffffffffff1603611ed357611ece816120fb565b611f12565b8373ffffffffffffffffffffffffffffffffffffffff168573ffffffffffffffffffffffffffffffffffffffff1614611f1157611f108582612144565b5b5b600073ffffffffffffffffffffffffffffffffffffffff168473ffffffffffffffffffffffffffffffffffffffff1603611f5457611f4f816122b1565b611f93565b8473ffffffffffffffffffffffffffffffffffffffff168473ffffffffffffffffffffffffffffffffffffffff1614611f9257611f918482612382565b5b5b5050505050565b6000808273ffffffffffffffffffffffffffffffffffffffff163b119050919050565b606060006001611fcc84612401565b01905060008167ffffffffffffffff811115611feb57611fea612887565b5b6040519080825280601f01601f19166020018201604052801561201d5781602001600182028036833780820191505090505b509050600082602001820190505b600115612080578080600190039150507f3031323334353637383961626364656600000000000000000000000000000000600a86061a8153600a8581612074576120736138d0565b5b0494506000850361202b575b819350505050919050565b60007f01ffc9a7000000000000000000000000000000000000000000000000000000007bffffffffffffffffffffffffffffffffffffffffffffffffffffffff1916827bffffffffffffffffffffffffffffffffffffffffffffffffffffffff1916149050919050565b50505050565b6008805490506009600083815260200190815260200160002081905550600881908060018154018082558091505060019003906000526020600020016000909190919091505550565b6000600161215184610c23565b61215b919061392e565b9050600060076000848152602001908152602001600020549050818114612240576000600660008673ffffffffffffffffffffffffffffffffffffffff1673ffffffffffffffffffffffffffffffffffffffff168152602001908152602001600020600084815260200190815260200160002054905080600660008773ffffffffffffffffffffffffffffffffffffffff1673ffffffffffffffffffffffffffffffffffffffff168152602001908152602001600020600084815260200190815260200160002081905550816007600083815260200190815260200160002081905550505b6007600084815260200190815260200160002060009055600660008573ffffffffffffffffffffffffffffffffffffffff1673ffffffffffffffffffffffffffffffffffffffff16815260200190815260200160002060008381526020019081526020016000206000905550505050565b600060016008805490506122c5919061392e565b90506000600960008481526020019081526020016000205490506000600883815481106122f5576122f4612f32565b5b90600052602060002001549050806008838154811061231757612316612f32565b5b90600052602060002001819055508160096000838152602001908152602001600020819055506009600085815260200190815260200160002060009055600880548061236657612365613962565b5b6001900381819060005260206000200160009055905550505050565b600061238d83610c23565b905081600660008573ffffffffffffffffffffffffffffffffffffffff1673ffffffffffffffffffffffffffffffffffffffff168152602001908152602001600020600083815260200190815260200160002081905550806007600084815260200190815260200160002081905550505050565b600080600090507a184f03e93ff9f4daa797ed6e38ed64bf6a1f010000000000000000831061245f577a184f03e93ff9f4daa797ed6e38ed64bf6a1f0100000000000000008381612455576124546138d0565b5b0492506040810190505b6d04ee2d6d415b85acef8100000000831061249c576d04ee2d6d415b85acef81000000008381612492576124916138d0565b5b0492506020810190505b662386f26fc1000083106124cb57662386f26fc1000083816124c1576124c06138d0565b5b0492506010810190505b6305f5e10083106124f4576305f5e10083816124ea576124e96138d0565b5b0492506008810190505b612710831061251957612710838161250f5761250e6138d0565b5b0492506004810190505b6064831061253c5760648381612532576125316138d0565b5b0492506002810190505b600a831061254b576001810190505b80915050919050565b6000604051905090565b600080fd5b600080fd5b60007fffffffff0000000000000000000000000000000000000000000000000000000082169050919050565b61259d81612568565b81146125a857600080fd5b50565b6000813590506125ba81612594565b92915050565b6000602082840312156125d6576125d561255e565b5b60006125e4848285016125ab565b91505092915050565b60008115159050919050565b612602816125ed565b82525050565b600060208201905061261d60008301846125f9565b92915050565b600081519050919050565b600082825260208201905092915050565b60005b8381101561265d578082015181840152602081019050612642565b60008484015250505050565b6000601f19601f8301169050919050565b600061268582612623565b61268f818561262e565b935061269f81856020860161263f565b6126a881612669565b840191505092915050565b600060208201905081810360008301526126cd818461267a565b905092915050565b6000819050919050565b6126e8816126d5565b81146126f357600080fd5b50565b600081359050612705816126df565b92915050565b6000602082840312156127215761272061255e565b5b600061272f848285016126f6565b91505092915050565b600073ffffffffffffffffffffffffffffffffffffffff82169050919050565b600061276382612738565b9050919050565b61277381612758565b82525050565b600060208201905061278e600083018461276a565b92915050565b61279d81612758565b81146127a857600080fd5b50565b6000813590506127ba81612794565b92915050565b600080604083850312156127d7576127d661255e565b5b60006127e5858286016127ab565b92505060206127f6858286016126f6565b9150509250929050565b612809816126d5565b82525050565b60006020820190506128246000830184612800565b92915050565b6000806000606084860312156128435761284261255e565b5b6000612851868287016127ab565b9350506020612862868287016127ab565b9250506040612873868287016126f6565b9150509250925092565b600080fd5b600080fd5b7f4e487b7100000000000000000000000000000000000000000000000000000000600052604160045260246000fd5b6128bf82612669565b810181811067ffffffffffffffff821117156128de576128dd612887565b5b80604052505050565b60006128f1612554565b90506128fd82826128b6565b919050565b600067ffffffffffffffff82111561291d5761291c612887565b5b61292682612669565b9050602081019050919050565b82818337600083830152505050565b600061295561295084612902565b6128e7565b90508281526020810184848401111561297157612970612882565b5b61297c848285612933565b509392505050565b600082601f8301126129995761299861287d565b5b81356129a9848260208601612942565b91505092915050565b6000602082840312156129c8576129c761255e565b5b600082013567ffffffffffffffff8111156129e6576129e5612563565b5b6129f284828501612984565b91505092915050565b600060208284031215612a1157612a1061255e565b5b6000612a1f848285016127ab565b91505092915050565b612a31816125ed565b8114612a3c57600080fd5b50565b600081359050612a4e81612a28565b92915050565b60008060408385031215612a6b57612a6a61255e565b5b6000612a79858286016127ab565b9250506020612a8a85828601612a3f565b9150509250929050565b600067ffffffffffffffff821115612aaf57612aae612887565b5b612ab882612669565b9050602081019050919050565b6000612ad8612ad384612a94565b6128e7565b905082815260208101848484011115612af457612af3612882565b5b612aff848285612933565b509392505050565b600082601f830112612b1c57612b1b61287d565b5b8135612b2c848260208601612ac5565b91505092915050565b60008060008060808587031215612b4f57612b4e61255e565b5b6000612b5d878288016127ab565b9450506020612b6e878288016127ab565b9350506040612b7f878288016126f6565b925050606085013567ffffffffffffffff811115612ba057612b9f612563565b5b612bac87828801612b07565b91505092959194509250565b60008060408385031215612bcf57612bce61255e565b5b6000612bdd858286016127ab565b9250506020612bee858286016127ab565b9150509250929050565b7f4e487b7100000000000000000000000000000000000000000000000000000000600052602260045260246000fd5b60006002820490506001821680612c3f57607f821691505b602082108103612c5257612c51612bf8565b5b50919050565b7f4552433732313a20617070726f76616c20746f2063757272656e74206f776e6560008201527f7200000000000000000000000000000000000000000000000000000000000000602082015250565b6000612cb460218361262e565b9150612cbf82612c58565b604082019050919050565b60006020820190508181036000830152612ce381612ca7565b9050919050565b7f4552433732313a20617070726f76652063616c6c6572206973206e6f7420746f60008201527f6b656e206f776e6572206f7220617070726f76656420666f7220616c6c000000602082015250565b6000612d46603d8361262e565b9150612d5182612cea565b604082019050919050565b60006020820190508181036000830152612d7581612d39565b9050919050565b7f4552433732313a2063616c6c6572206973206e6f7420746f6b656e206f776e6560008201527f72206f7220617070726f76656400000000000000000000000000000000000000602082015250565b6000612dd8602d8361262e565b9150612de382612d7c565b604082019050919050565b60006020820190508181036000830152612e0781612dcb565b9050919050565b7f455243373231456e756d657261626c653a206f776e657220696e646578206f7560008201527f74206f6620626f756e6473000000000000000000000000000000000000000000602082015250565b6000612e6a602b8361262e565b9150612e7582612e0e565b604082019050919050565b60006020820190508181036000830152612e9981612e5d565b9050919050565b7f455243373231456e756d657261626c653a20676c6f62616c20696e646578206f60008201527f7574206f6620626f756e64730000000000000000000000000000000000000000602082015250565b6000612efc602c8361262e565b9150612f0782612ea0565b604082019050919050565b60006020820190508181036000830152612f2b81612eef565b9050919050565b7f4e487b7100000000000000000000000000000000000000000000000000000000600052603260045260246000fd5b60008190508160005260206000209050919050565b60006020601f8301049050919050565b600082821b905092915050565b600060088302612fc37fffffffffffffffffffffffffffffffffffffffffffffffffffffffffffffffff82612f86565b612fcd8683612f86565b95508019841693508086168417925050509392505050565b6000819050919050565b600061300a613005613000846126d5565b612fe5565b6126d5565b9050919050565b6000819050919050565b61302483612fef565b61303861303082613011565b848454612f93565b825550505050565b600090565b61304d613040565b61305881848461301b565b505050565b5b8181101561307c57613071600082613045565b60018101905061305e565b5050565b601f8211156130c15761309281612f61565b61309b84612f76565b810160208510156130aa578190505b6130be6130b685612f76565b83018261305d565b50505b505050565b600082821c905092915050565b60006130e4600019846008026130c6565b1980831691505092915050565b60006130fd83836130d3565b9150826002028217905092915050565b61311682612623565b67ffffffffffffffff81111561312f5761312e612887565b5b6131398254612c27565b613144828285613080565b600060209050601f8311600181146131775760008415613165578287015190505b61316f85826130f1565b8655506131d7565b601f19841661318586612f61565b60005b828110156131ad57848901518255600182019150602085019450602081019050613188565b868310156131ca57848901516131c6601f8916826130d3565b8355505b6001600288020188555050505b505050505050565b7f4552433732313a20696e76616c696420746f6b656e2049440000000000000000600082015250565b600061321560188361262e565b9150613220826131df565b602082019050919050565b6000602082019050818103600083015261324481613208565b9050919050565b7f546f6b656e20646f6573206e6f74206578697374000000000000000000000000600082015250565b600061328160148361262e565b915061328c8261324b565b602082019050919050565b600060208201905081810360008301526132b081613274565b9050919050565b7f596f7520617265206e6f7420746865206f776e6572206f66207468697320746f60008201527f6b656e0000000000000000000000000000000000000000000000000000000000602082015250565b600061331360238361262e565b915061331e826132b7565b604082019050919050565b6000602082019050818103600083015261334281613306565b9050919050565b7f4552433732313a2061646472657373207a65726f206973206e6f74206120766160008201527f6c6964206f776e65720000000000000000000000000000000000000000000000602082015250565b60006133a560298361262e565b91506133b082613349565b604082019050919050565b600060208201905081810360008301526133d481613398565b9050919050565b7f4f776e61626c653a206e6577206f776e657220697320746865207a65726f206160008201527f6464726573730000000000000000000000000000000000000000000000000000602082015250565b600061343760268361262e565b9150613442826133db565b604082019050919050565b600060208201905081810360008301526134668161342a565b9050919050565b7f4552433732313a207472616e736665722066726f6d20696e636f72726563742060008201527f6f776e6572000000000000000000000000000000000000000000000000000000602082015250565b60006134c960258361262e565b91506134d48261346d565b604082019050919050565b600060208201905081810360008301526134f8816134bc565b9050919050565b7f4552433732313a207472616e7366657220746f20746865207a65726f2061646460008201527f7265737300000000000000000000000000000000000000000000000000000000602082015250565b600061355b60248361262e565b9150613566826134ff565b604082019050919050565b6000602082019050818103600083015261358a8161354e565b9050919050565b7f4f776e61626c653a2063616c6c6572206973206e6f7420746865206f776e6572600082015250565b60006135c760208361262e565b91506135d282613591565b602082019050919050565b600060208201905081810360008301526135f6816135ba565b9050919050565b7f4552433732313a20617070726f766520746f2063616c6c657200000000000000600082015250565b600061363360198361262e565b915061363e826135fd565b602082019050919050565b6000602082019050818103600083015261366281613626565b9050919050565b7f4552433732313a207472616e7366657220746f206e6f6e20455243373231526560008201527f63656976657220696d706c656d656e7465720000000000000000000000000000602082015250565b60006136c560328361262e565b91506136d082613669565b604082019050919050565b600060208201905081810360008301526136f4816136b8565b9050919050565b600081905092915050565b600061371182612623565b61371b81856136fb565b935061372b81856020860161263f565b80840191505092915050565b60006137438285613706565b915061374f8284613706565b91508190509392505050565b600081519050919050565b600082825260208201905092915050565b60006137828261375b565b61378c8185613766565b935061379c81856020860161263f565b6137a581612669565b840191505092915050565b60006080820190506137c5600083018761276a565b6137d2602083018661276a565b6137df6040830185612800565b81810360608301526137f18184613777565b905095945050505050565b60008151905061380b81612594565b92915050565b6000602082840312156138275761382661255e565b5b6000613835848285016137fc565b91505092915050565b7f455243373231456e756d657261626c653a20636f6e736563757469766520747260008201527f616e7366657273206e6f7420737570706f727465640000000000000000000000602082015250565b600061389a60358361262e565b91506138a58261383e565b604082019050919050565b600060208201905081810360008301526138c98161388d565b9050919050565b7f4e487b7100000000000000000000000000000000000000000000000000000000600052601260045260246000fd5b7f4e487b7100000000000000000000000000000000000000000000000000000000600052601160045260246000fd5b6000613939826126d5565b9150613944836126d5565b925082820390508181111561395c5761395b6138ff565b5b92915050565b7f4e487b7100000000000000000000000000000000000000000000000000000000600052603160045260246000fdfea2646970667358221220be1d4e78db97560932c80b867b55d3d576e1811c43b1b8381f9bb1b298c5b29564736f6c63430008130033",
  "immutableReferences": {},
  "source": "// SPDX-License-Identifier: MIT\r\npragma solidity ^0.8.0;\r\n\r\nimport \"./../../BaseStructs.sol\";\r\n\r\nimport \"@openzeppelin/contracts/token/ERC721/ERC721.sol\";\r\nimport \"@openzeppelin/contracts/token/ERC721/extensions/ERC721Enumerable.sol\";\r\nimport \"@openzeppelin/contracts/token/ERC721/extensions/ERC721URIStorage.sol\";\r\nimport \"@openzeppelin/contracts/access/Ownable.sol\";\r\nimport \"@openzeppelin/contracts/token/ERC20/ERC20.sol\";\r\n\r\n\r\n\r\ncontract PoolBaseStruct is BaseStructs, ERC721, ERC721Enumerable, ERC721URIStorage, Ownable {\r\n\r\n\r\n    address private NFTManagerAddress;\r\n    address private RandomChoiceAddress;\r\n    address private ActionAddress;\r\n    string private baseUri;\r\n\r\n\r\n\r\n    constructor ( \r\n        address _NFTManagerAddress,\r\n        address _RandomChoiceAddress,\r\n\r\n        string memory _baseUri,\r\n\r\n        string memory name, \r\n        string memory simbol\r\n    ) ERC721(name, simbol) {\r\n        NFTManagerAddress = _NFTManagerAddress;\r\n        RandomChoiceAddress = _RandomChoiceAddress;\r\n\r\n        baseUri = _baseUri;\r\n    }\r\n\r\n\r\n\r\n\r\n    /**\r\n        GET & SET ADDRESS\r\n     */\r\n    function getNFTManagerAddress() public view returns (address) { return NFTManagerAddress; }\r\n    function getRandomChoiceAddress() public view returns (address) { return RandomChoiceAddress; }\r\n    function getActionAddress() public view returns (address) { return ActionAddress; }\r\n    function getBaseUri() public view returns (string memory) { return baseUri; }\r\n\r\n    function setNFTManagerAddress ( address _NFTManagerAddress ) public onlyOwner { NFTManagerAddress = _NFTManagerAddress; }\r\n    function setRandomChoiceAddress ( address _RandomChoiceAddress ) public onlyOwner { RandomChoiceAddress = _RandomChoiceAddress; }\r\n    function setActionAddress ( address _ActionAddress ) public onlyOwner { ActionAddress = _ActionAddress; }\r\n    function setBaseUri ( string memory _baseUri ) public onlyOwner { baseUri = _baseUri; }\r\n\r\n\r\n\r\n\r\n    /** \r\n        DEFAULT FUNCTIONS\r\n    */\r\n    function transferNFT(address from, address _to, uint256 _tokenId) public {\r\n        require(_exists(_tokenId), \"Token does not exist\");\r\n        require(ownerOf(_tokenId) == msg.sender, \"You are not the owner of this token\");\r\n        safeTransferFrom(from, _to, _tokenId);\r\n    }\r\n    function _baseURI() internal view override returns (string memory) { return baseUri; }\r\n    function setBaseURI(string memory _baseUri) public onlyOwner { baseUri = _baseUri; }\r\n    // TODO: Giusto ???\r\n    function tokenURI(uint256 tokenId) public view override(ERC721, ERC721URIStorage) returns (string memory) \r\n        { return super.tokenURI(tokenId); }\r\n\r\n\r\n    function _beforeTokenTransfer(address from, address to, uint256 tokenId, uint256 batchSize) internal override(ERC721, ERC721Enumerable) \r\n        { super._beforeTokenTransfer(from, to, tokenId, batchSize); }\r\n\r\n    function _burn(uint256 tokenId) internal override(ERC721, ERC721URIStorage) \r\n        { super._burn(tokenId); }\r\n\r\n\r\n    function supportsInterface(bytes4 interfaceId) public view override(ERC721, ERC721Enumerable, ERC721URIStorage) returns (bool) \r\n        { return super.supportsInterface(interfaceId); }\r\n\r\n    function existNFT(uint256 _tokenId) public view returns(bool) { return _exists(_tokenId); }\r\n    function ownerOfNFT(uint256 _tokenId) public view returns(bool) { return ownerOf(_tokenId) == msg.sender; }\r\n\r\n}",
  "sourcePath": "D:\\Lavoro\\21_BJ\\21_BJ_SC\\contracts\\Avatar\\Pool\\Extra\\PoolBaseStruct.sol",
  "compiler": {
    "name": "solc",
    "version": "0.8.19+commit.7dd6d404.Emscripten.clang"
  },
  "schemaVersion": "3.4.15",
  "updatedAt": "2023-10-20T15:35:45.260Z",
  "devdoc": {
    "events": {
      "Approval(address,address,uint256)": {
        "details": "Emitted when `owner` enables `approved` to manage the `tokenId` token."
      },
      "ApprovalForAll(address,address,bool)": {
        "details": "Emitted when `owner` enables or disables (`approved`) `operator` to manage all of its assets."
      },
      "BatchMetadataUpdate(uint256,uint256)": {
        "details": "This event emits when the metadata of a range of tokens is changed. So that the third-party platforms such as NFT market could timely update the images and related attributes of the NFTs."
      },
      "MetadataUpdate(uint256)": {
        "details": "This event emits when the metadata of a token is changed. So that the third-party platforms such as NFT market could timely update the images and related attributes of the NFT."
      },
      "Transfer(address,address,uint256)": {
        "details": "Emitted when `tokenId` token is transferred from `from` to `to`."
      }
    },
    "kind": "dev",
    "methods": {
      "approve(address,uint256)": {
        "details": "See {IERC721-approve}."
      },
      "balanceOf(address)": {
        "details": "See {IERC721-balanceOf}."
      },
      "getApproved(uint256)": {
        "details": "See {IERC721-getApproved}."
      },
      "isApprovedForAll(address,address)": {
        "details": "See {IERC721-isApprovedForAll}."
      },
      "name()": {
        "details": "See {IERC721Metadata-name}."
      },
      "owner()": {
        "details": "Returns the address of the current owner."
      },
      "ownerOf(uint256)": {
        "details": "See {IERC721-ownerOf}."
      },
      "renounceOwnership()": {
        "details": "Leaves the contract without owner. It will not be possible to call `onlyOwner` functions. Can only be called by the current owner. NOTE: Renouncing ownership will leave the contract without an owner, thereby disabling any functionality that is only available to the owner."
      },
      "safeTransferFrom(address,address,uint256)": {
        "details": "See {IERC721-safeTransferFrom}."
      },
      "safeTransferFrom(address,address,uint256,bytes)": {
        "details": "See {IERC721-safeTransferFrom}."
      },
      "setApprovalForAll(address,bool)": {
        "details": "See {IERC721-setApprovalForAll}."
      },
      "symbol()": {
        "details": "See {IERC721Metadata-symbol}."
      },
      "tokenByIndex(uint256)": {
        "details": "See {IERC721Enumerable-tokenByIndex}."
      },
      "tokenOfOwnerByIndex(address,uint256)": {
        "details": "See {IERC721Enumerable-tokenOfOwnerByIndex}."
      },
      "totalSupply()": {
        "details": "See {IERC721Enumerable-totalSupply}."
      },
      "transferFrom(address,address,uint256)": {
        "details": "See {IERC721-transferFrom}."
      },
      "transferOwnership(address)": {
        "details": "Transfers ownership of the contract to a new account (`newOwner`). Can only be called by the current owner."
      }
    },
    "version": 1
  },
  "userdoc": {
    "kind": "user",
    "methods": {
      "getNFTManagerAddress()": {
        "notice": "GET & SET ADDRESS"
      },
      "transferNFT(address,address,uint256)": {
        "notice": "DEFAULT FUNCTIONS"
      }
    },
    "version": 1
  }
}