{
  "contractName": "RandomChoice",
  "abi": [
    {
      "anonymous": false,
      "inputs": [
        {
          "indexed": false,
          "internalType": "uint256",
          "name": "val",
          "type": "uint256"
        }
      ],
      "name": "number",
      "type": "event"
    },
    {
      "inputs": [
        {
          "internalType": "uint256",
          "name": "_modulus",
          "type": "uint256"
        }
      ],
      "name": "randMod",
      "outputs": [
        {
          "internalType": "uint256",
          "name": "val",
          "type": "uint256"
        }
      ],
      "stateMutability": "nonpayable",
      "type": "function"
    },
    {
      "inputs": [
        {
          "internalType": "uint256",
          "name": "percentageVal",
          "type": "uint256"
        },
        {
          "internalType": "uint256",
          "name": "_modulus",
          "type": "uint256"
        }
      ],
      "name": "choice1000",
      "outputs": [
        {
          "internalType": "uint256",
          "name": "",
          "type": "uint256"
        }
      ],
      "stateMutability": "nonpayable",
      "type": "function"
    },
    {
      "inputs": [
        {
          "internalType": "uint256",
          "name": "percentageVal",
          "type": "uint256"
        },
        {
          "internalType": "uint256",
          "name": "_modulus",
          "type": "uint256"
        }
      ],
      "name": "choice",
      "outputs": [
        {
          "internalType": "bool",
          "name": "",
          "type": "bool"
        }
      ],
      "stateMutability": "nonpayable",
      "type": "function"
    },
    {
      "inputs": [
        {
          "internalType": "uint256[]",
          "name": "arr",
          "type": "uint256[]"
        }
      ],
      "name": "choiceInArray",
      "outputs": [
        {
          "internalType": "uint256",
          "name": "rt",
          "type": "uint256"
        }
      ],
      "stateMutability": "nonpayable",
      "type": "function"
    },
    {
      "inputs": [
        {
          "internalType": "uint256",
          "name": "module",
          "type": "uint256"
        }
      ],
      "name": "chouseNType",
      "outputs": [
        {
          "internalType": "uint256[5]",
          "name": "vals",
          "type": "uint256[5]"
        }
      ],
      "stateMutability": "nonpayable",
      "type": "function"
    }
  ],
  "bytecode": "0x60806040526000805534801561001457600080fd5b50610931806100246000396000f3fe608060405234801561001057600080fd5b50600436106100575760003560e01c8063726ff2ef1461005c578063805553e81461008c578063a86241e6146100bc578063ab067701146100ec578063b88b00d21461011c575b600080fd5b610076600480360381019061007191906103b4565b61014c565b604051610083919061040f565b60405180910390f35b6100a660048036038101906100a1919061042a565b610162565b6040516100b39190610466565b60405180910390f35b6100d660048036038101906100d191906105da565b610238565b6040516100e39190610466565b60405180910390f35b610106600480360381019061010191906103b4565b6102a4565b6040516101139190610466565b60405180910390f35b6101366004803603810190610131919061042a565b6102f3565b60405161014391906106ce565b60405180910390f35b600061015782610162565b831015905092915050565b600060017fffffffffffffffffffffffffffffffffffffffffffffffffffffffffffffffff6101919190610718565b60005410156101b6576000808154809291906101ac9061074c565b91905055506101bf565b60016000819055505b8142336000546040516020016101d79392919061082f565b6040516020818303038152906040528051906020012060001c6101fa919061089b565b90507f431aabc2c93d4298d704929988144c1eea77325805b8bcfe081f6c26a93894c38160405161022b9190610466565b60405180910390a1919050565b600080600090505b6001835161024e9190610718565b810361025957600090505b61027e83828151811061026f5761026e6108cc565b5b6020026020010151606461014c565b1561028b5780915061029e565b80806102969061074c565b915050610240565b50919050565b6000806000905060005b60648110156102e8576102c084610162565b85106102d55781806102d19061074c565b9250505b80806102e09061074c565b9150506102ae565b508091505092915050565b6102fb610348565b6000600190505b600581116103425761031383610162565b828260058110610326576103256108cc565b5b602002018181525050808061033a9061074c565b915050610302565b50919050565b6040518060a00160405280600590602082028036833780820191505090505090565b6000604051905090565b600080fd5b600080fd5b6000819050919050565b6103918161037e565b811461039c57600080fd5b50565b6000813590506103ae81610388565b92915050565b600080604083850312156103cb576103ca610374565b5b60006103d98582860161039f565b92505060206103ea8582860161039f565b9150509250929050565b60008115159050919050565b610409816103f4565b82525050565b60006020820190506104246000830184610400565b92915050565b6000602082840312156104405761043f610374565b5b600061044e8482850161039f565b91505092915050565b6104608161037e565b82525050565b600060208201905061047b6000830184610457565b92915050565b600080fd5b6000601f19601f8301169050919050565b7f4e487b7100000000000000000000000000000000000000000000000000000000600052604160045260246000fd5b6104cf82610486565b810181811067ffffffffffffffff821117156104ee576104ed610497565b5b80604052505050565b600061050161036a565b905061050d82826104c6565b919050565b600067ffffffffffffffff82111561052d5761052c610497565b5b602082029050602081019050919050565b600080fd5b600061055661055184610512565b6104f7565b905080838252602082019050602084028301858111156105795761057861053e565b5b835b818110156105a2578061058e888261039f565b84526020840193505060208101905061057b565b5050509392505050565b600082601f8301126105c1576105c0610481565b5b81356105d1848260208601610543565b91505092915050565b6000602082840312156105f0576105ef610374565b5b600082013567ffffffffffffffff81111561060e5761060d610379565b5b61061a848285016105ac565b91505092915050565b600060059050919050565b600081905092915050565b6000819050919050565b61064c8161037e565b82525050565b600061065e8383610643565b60208301905092915050565b6000602082019050919050565b61068081610623565b61068a818461062e565b925061069582610639565b8060005b838110156106c65781516106ad8782610652565b96506106b88361066a565b925050600181019050610699565b505050505050565b600060a0820190506106e36000830184610677565b92915050565b7f4e487b7100000000000000000000000000000000000000000000000000000000600052601160045260246000fd5b60006107238261037e565b915061072e8361037e565b9250828203905081811115610746576107456106e9565b5b92915050565b60006107578261037e565b91507fffffffffffffffffffffffffffffffffffffffffffffffffffffffffffffffff8203610789576107886106e9565b5b600182019050919050565b6000819050919050565b6107af6107aa8261037e565b610794565b82525050565b600073ffffffffffffffffffffffffffffffffffffffff82169050919050565b60006107e0826107b5565b9050919050565b60008160601b9050919050565b60006107ff826107e7565b9050919050565b6000610811826107f4565b9050919050565b610829610824826107d5565b610806565b82525050565b600061083b828661079e565b60208201915061084b8285610818565b60148201915061085b828461079e565b602082019150819050949350505050565b7f4e487b7100000000000000000000000000000000000000000000000000000000600052601260045260246000fd5b60006108a68261037e565b91506108b18361037e565b9250826108c1576108c061086c565b5b828206905092915050565b7f4e487b7100000000000000000000000000000000000000000000000000000000600052603260045260246000fdfea264697066735822122040d83de27b95381865bdbf94bf9b63e126f802fc5c2e854550da7b18d6e2ccf064736f6c63430008130033",
  "immutableReferences": {},
  "source": "// SPDX-License-Identifier: UNLICENSED\r\npragma solidity ^0.8.4;\r\n\r\ncontract RandomChoice {\r\n    uint private randNonce = 0;\r\n \r\n    event number (\r\n        uint256 val\r\n    );\r\n\r\n    // Defining a function to generate\r\n    // a random number\r\n    function randMod(uint _modulus) public returns(uint val)\r\n    {\r\n        if (randNonce < type(uint256).max - 1) randNonce++; else randNonce = 1;\r\n        val = uint(keccak256(abi.encodePacked(block.timestamp,msg.sender,randNonce))) % _modulus;\r\n        emit number(val);\r\n    }\r\n\r\n\r\n    function choice1000(uint percentageVal, uint _modulus) public returns(uint256) {\r\n        uint256 counter = 0;\r\n        for (uint256 c=0; c<100; c++) {\r\n            if ( percentageVal >= randMod(_modulus)) counter++;\r\n        }\r\n        return counter;\r\n    }\r\n\r\n    function choice(uint percentageVal, uint _modulus) public returns(bool) \r\n        { return percentageVal >= randMod(_modulus); }\r\n\r\n    function choiceInArray(uint256[] memory arr) public returns (uint256 rt) {\r\n        for (uint i=0; ;i++) {\r\n            if (i==arr.length-1) i=0;\r\n            if (choice(arr[i], 100)) { rt = i; break; }\r\n        }\r\n    }\r\n\r\n\r\n    function chouseNType (uint256 module) public returns (uint256[5] memory vals) \r\n        { for (uint i=1; i<=5; i++) { vals[i] = randMod(module); } }\r\n\r\n}",
  "sourcePath": "D:\\Lavoro\\21_BJ\\21_BJ_SC\\contracts\\RandomChoice.sol",
  "compiler": {
    "name": "solc",
    "version": "0.8.19+commit.7dd6d404.Emscripten.clang"
  },
  "schemaVersion": "3.4.15",
  "updatedAt": "2023-10-20T15:35:45.422Z",
  "devdoc": {
    "kind": "dev",
    "methods": {},
    "version": 1
  },
  "userdoc": {
    "kind": "user",
    "methods": {},
    "version": 1
  }
}