{
  "contractName": "Season",
  "abi": [
    {
      "anonymous": false,
      "inputs": [
        {
          "indexed": true,
          "internalType": "address",
          "name": "previousOwner",
          "type": "address"
        },
        {
          "indexed": true,
          "internalType": "address",
          "name": "newOwner",
          "type": "address"
        }
      ],
      "name": "OwnershipTransferred",
      "type": "event"
    },
    {
      "inputs": [],
      "name": "owner",
      "outputs": [
        {
          "internalType": "address",
          "name": "",
          "type": "address"
        }
      ],
      "stateMutability": "view",
      "type": "function"
    },
    {
      "inputs": [],
      "name": "renounceOwnership",
      "outputs": [],
      "stateMutability": "nonpayable",
      "type": "function"
    },
    {
      "inputs": [
        {
          "internalType": "address",
          "name": "newOwner",
          "type": "address"
        }
      ],
      "name": "transferOwnership",
      "outputs": [],
      "stateMutability": "nonpayable",
      "type": "function"
    },
    {
      "inputs": [
        {
          "internalType": "string",
          "name": "seasonName",
          "type": "string"
        }
      ],
      "name": "addNewSeason",
      "outputs": [],
      "stateMutability": "nonpayable",
      "type": "function"
    },
    {
      "inputs": [
        {
          "internalType": "uint256",
          "name": "seasonId",
          "type": "uint256"
        }
      ],
      "name": "getSeasonInfo",
      "outputs": [
        {
          "components": [
            {
              "internalType": "string",
              "name": "seasonName",
              "type": "string"
            },
            {
              "internalType": "uint256",
              "name": "seasonId",
              "type": "uint256"
            }
          ],
          "internalType": "struct Season.seasonInfo",
          "name": "si",
          "type": "tuple"
        }
      ],
      "stateMutability": "view",
      "type": "function"
    },
    {
      "inputs": [],
      "name": "getCurrentSeason",
      "outputs": [
        {
          "internalType": "uint256",
          "name": "",
          "type": "uint256"
        }
      ],
      "stateMutability": "view",
      "type": "function"
    }
  ],
  "bytecode": "0x608060405234801561001057600080fd5b5061002d61002261003260201b60201c565b61003a60201b60201c565b6100fe565b600033905090565b60008060009054906101000a900473ffffffffffffffffffffffffffffffffffffffff169050816000806101000a81548173ffffffffffffffffffffffffffffffffffffffff021916908373ffffffffffffffffffffffffffffffffffffffff1602179055508173ffffffffffffffffffffffffffffffffffffffff168173ffffffffffffffffffffffffffffffffffffffff167f8be0079c531659141344cd1fd0a4f28419497f9722a3daafe3b4186f6b6457e060405160405180910390a35050565b610c318061010d6000396000f3fe608060405234801561001057600080fd5b50600436106100625760003560e01c80631bae2b6c14610067578063715018a61461009757806378afe174146100a15780638da5cb5b146100bd578063d3b30b75146100db578063f2fde38b146100f9575b600080fd5b610081600480360381019061007c9190610486565b610115565b60405161008e919061058f565b60405180910390f35b61009f6101de565b005b6100bb60048036038101906100b691906106e6565b6101f2565b005b6100c5610222565b6040516100d29190610770565b60405180910390f35b6100e361024b565b6040516100f0919061079a565b60405180910390f35b610113600480360381019061010e91906107e1565b610255565b005b61011d610422565b6002600083815260200190815260200160002060405180604001604052908160008201805461014b9061083d565b80601f01602080910402602001604051908101604052809291908181526020018280546101779061083d565b80156101c45780601f10610199576101008083540402835291602001916101c4565b820191906000526020600020905b8154815290600101906020018083116101a757829003601f168201915b505050505081526020016001820154815250509050919050565b6101e66102d8565b6101f06000610356565b565b6101fa6102d8565b806002600060018152602001908152602001600020600001908161021e9190610a1a565b5050565b60008060009054906101000a900473ffffffffffffffffffffffffffffffffffffffff16905090565b6000600154905090565b61025d6102d8565b600073ffffffffffffffffffffffffffffffffffffffff168173ffffffffffffffffffffffffffffffffffffffff16036102cc576040517f08c379a00000000000000000000000000000000000000000000000000000000081526004016102c390610b6f565b60405180910390fd5b6102d581610356565b50565b6102e061041a565b73ffffffffffffffffffffffffffffffffffffffff166102fe610222565b73ffffffffffffffffffffffffffffffffffffffff1614610354576040517f08c379a000000000000000000000000000000000000000000000000000000000815260040161034b90610bdb565b60405180910390fd5b565b60008060009054906101000a900473ffffffffffffffffffffffffffffffffffffffff169050816000806101000a81548173ffffffffffffffffffffffffffffffffffffffff021916908373ffffffffffffffffffffffffffffffffffffffff1602179055508173ffffffffffffffffffffffffffffffffffffffff168173ffffffffffffffffffffffffffffffffffffffff167f8be0079c531659141344cd1fd0a4f28419497f9722a3daafe3b4186f6b6457e060405160405180910390a35050565b600033905090565b604051806040016040528060608152602001600081525090565b6000604051905090565b600080fd5b600080fd5b6000819050919050565b61046381610450565b811461046e57600080fd5b50565b6000813590506104808161045a565b92915050565b60006020828403121561049c5761049b610446565b5b60006104aa84828501610471565b91505092915050565b600081519050919050565b600082825260208201905092915050565b60005b838110156104ed5780820151818401526020810190506104d2565b60008484015250505050565b6000601f19601f8301169050919050565b6000610515826104b3565b61051f81856104be565b935061052f8185602086016104cf565b610538816104f9565b840191505092915050565b61054c81610450565b82525050565b6000604083016000830151848203600086015261056f828261050a565b91505060208301516105846020860182610543565b508091505092915050565b600060208201905081810360008301526105a98184610552565b905092915050565b600080fd5b600080fd5b7f4e487b7100000000000000000000000000000000000000000000000000000000600052604160045260246000fd5b6105f3826104f9565b810181811067ffffffffffffffff82111715610612576106116105bb565b5b80604052505050565b600061062561043c565b905061063182826105ea565b919050565b600067ffffffffffffffff821115610651576106506105bb565b5b61065a826104f9565b9050602081019050919050565b82818337600083830152505050565b600061068961068484610636565b61061b565b9050828152602081018484840111156106a5576106a46105b6565b5b6106b0848285610667565b509392505050565b600082601f8301126106cd576106cc6105b1565b5b81356106dd848260208601610676565b91505092915050565b6000602082840312156106fc576106fb610446565b5b600082013567ffffffffffffffff81111561071a5761071961044b565b5b610726848285016106b8565b91505092915050565b600073ffffffffffffffffffffffffffffffffffffffff82169050919050565b600061075a8261072f565b9050919050565b61076a8161074f565b82525050565b60006020820190506107856000830184610761565b92915050565b61079481610450565b82525050565b60006020820190506107af600083018461078b565b92915050565b6107be8161074f565b81146107c957600080fd5b50565b6000813590506107db816107b5565b92915050565b6000602082840312156107f7576107f6610446565b5b6000610805848285016107cc565b91505092915050565b7f4e487b7100000000000000000000000000000000000000000000000000000000600052602260045260246000fd5b6000600282049050600182168061085557607f821691505b6020821081036108685761086761080e565b5b50919050565b60008190508160005260206000209050919050565b60006020601f8301049050919050565b600082821b905092915050565b6000600883026108d07fffffffffffffffffffffffffffffffffffffffffffffffffffffffffffffffff82610893565b6108da8683610893565b95508019841693508086168417925050509392505050565b6000819050919050565b600061091761091261090d84610450565b6108f2565b610450565b9050919050565b6000819050919050565b610931836108fc565b61094561093d8261091e565b8484546108a0565b825550505050565b600090565b61095a61094d565b610965818484610928565b505050565b5b818110156109895761097e600082610952565b60018101905061096b565b5050565b601f8211156109ce5761099f8161086e565b6109a884610883565b810160208510156109b7578190505b6109cb6109c385610883565b83018261096a565b50505b505050565b600082821c905092915050565b60006109f1600019846008026109d3565b1980831691505092915050565b6000610a0a83836109e0565b9150826002028217905092915050565b610a23826104b3565b67ffffffffffffffff811115610a3c57610a3b6105bb565b5b610a46825461083d565b610a5182828561098d565b600060209050601f831160018114610a845760008415610a72578287015190505b610a7c85826109fe565b865550610ae4565b601f198416610a928661086e565b60005b82811015610aba57848901518255600182019150602085019450602081019050610a95565b86831015610ad75784890151610ad3601f8916826109e0565b8355505b6001600288020188555050505b505050505050565b600082825260208201905092915050565b7f4f776e61626c653a206e6577206f776e657220697320746865207a65726f206160008201527f6464726573730000000000000000000000000000000000000000000000000000602082015250565b6000610b59602683610aec565b9150610b6482610afd565b604082019050919050565b60006020820190508181036000830152610b8881610b4c565b9050919050565b7f4f776e61626c653a2063616c6c6572206973206e6f7420746865206f776e6572600082015250565b6000610bc5602083610aec565b9150610bd082610b8f565b602082019050919050565b60006020820190508181036000830152610bf481610bb8565b905091905056fea2646970667358221220bf3cd922a236de1877a9de7e544fdf95f119a98d9eb119420b79ca3514a3ccc364736f6c63430008130033",
  "immutableReferences": {},
  "source": "// SPDX-License-Identifier: GPL-3.0\r\npragma solidity ^0.8.0;\r\n\r\nimport \"@openzeppelin/contracts/access/Ownable.sol\";\r\n\r\n\r\n/// @custom:security-contact giorgio@allena.it\r\ncontract Season is Ownable {\r\n\r\n    uint256 currentSeasonNumber;\r\n\r\n    mapping(uint256 => seasonInfo) seasonList;\r\n\r\n\r\n\r\n    struct seasonInfo {\r\n        string seasonName;\r\n        uint256 seasonId; \r\n\r\n        // TODO: Add same info and variables\r\n\r\n        // Info extra sul pool\r\n\r\n        // \r\n    }\r\n\r\n\r\n    // Stato pool e season\r\n\r\n\r\n    function addNewSeason( string memory seasonName ) public onlyOwner \r\n        { seasonList[1].seasonName = seasonName; }\r\n\r\n    function getSeasonInfo ( uint256 seasonId ) public view returns (seasonInfo memory si) \r\n        {si = seasonList[seasonId]; }\r\n\r\n    function getCurrentSeason() public view returns(uint256) \r\n        { return currentSeasonNumber; }\r\n\r\n}",
  "sourcePath": "D:\\Lavoro\\21_BJ\\21_BJ_SC\\contracts\\Season.sol",
  "compiler": {
    "name": "solc",
    "version": "0.8.19+commit.7dd6d404.Emscripten.clang"
  },
  "schemaVersion": "3.4.15",
  "updatedAt": "2023-10-20T15:35:45.431Z",
  "devdoc": {
    "custom:security-contact": "giorgio@allena.it",
    "kind": "dev",
    "methods": {
      "owner()": {
        "details": "Returns the address of the current owner."
      },
      "renounceOwnership()": {
        "details": "Leaves the contract without owner. It will not be possible to call `onlyOwner` functions. Can only be called by the current owner. NOTE: Renouncing ownership will leave the contract without an owner, thereby disabling any functionality that is only available to the owner."
      },
      "transferOwnership(address)": {
        "details": "Transfers ownership of the contract to a new account (`newOwner`). Can only be called by the current owner."
      }
    },
    "version": 1
  },
  "userdoc": {
    "kind": "user",
    "methods": {},
    "version": 1
  }
}