{
  "contractName": "Shop",
  "abi": [
    {
      "inputs": [
        {
          "internalType": "address",
          "name": "_AvatarPoolAddress",
          "type": "address"
        },
        {
          "internalType": "address",
          "name": "_StonePoolAddress",
          "type": "address"
        },
        {
          "internalType": "address",
          "name": "_WearablePoolAddress",
          "type": "address"
        },
        {
          "internalType": "address",
          "name": "_BoxAddress",
          "type": "address"
        },
        {
          "internalType": "address",
          "name": "_token21BJAddress",
          "type": "address"
        },
        {
          "internalType": "uint256",
          "name": "_baseNFTResellPrice",
          "type": "uint256"
        },
        {
          "internalType": "uint256",
          "name": "_MaxNFTResellPrice",
          "type": "uint256"
        },
        {
          "internalType": "uint256",
          "name": "_feePercentageShopMaintance",
          "type": "uint256"
        }
      ],
      "stateMutability": "nonpayable",
      "type": "constructor"
    },
    {
      "anonymous": false,
      "inputs": [
        {
          "indexed": true,
          "internalType": "address",
          "name": "previousOwner",
          "type": "address"
        },
        {
          "indexed": true,
          "internalType": "address",
          "name": "newOwner",
          "type": "address"
        }
      ],
      "name": "OwnershipTransferred",
      "type": "event"
    },
    {
      "inputs": [],
      "name": "owner",
      "outputs": [
        {
          "internalType": "address",
          "name": "",
          "type": "address"
        }
      ],
      "stateMutability": "view",
      "type": "function"
    },
    {
      "inputs": [],
      "name": "renounceOwnership",
      "outputs": [],
      "stateMutability": "nonpayable",
      "type": "function"
    },
    {
      "inputs": [
        {
          "internalType": "uint256",
          "name": "",
          "type": "uint256"
        }
      ],
      "name": "shopInfoBoxList",
      "outputs": [
        {
          "internalType": "uint256",
          "name": "ShopPriceListNumber",
          "type": "uint256"
        },
        {
          "internalType": "uint256",
          "name": "tokenId",
          "type": "uint256"
        },
        {
          "internalType": "uint256",
          "name": "tokenPrice",
          "type": "uint256"
        },
        {
          "internalType": "bool",
          "name": "exist",
          "type": "bool"
        },
        {
          "internalType": "address",
          "name": "seller",
          "type": "address"
        }
      ],
      "stateMutability": "view",
      "type": "function"
    },
    {
      "inputs": [
        {
          "internalType": "address",
          "name": "newOwner",
          "type": "address"
        }
      ],
      "name": "transferOwnership",
      "outputs": [],
      "stateMutability": "nonpayable",
      "type": "function"
    },
    {
      "inputs": [
        {
          "internalType": "uint256",
          "name": "_tokenId",
          "type": "uint256"
        },
        {
          "internalType": "uint256",
          "name": "price",
          "type": "uint256"
        }
      ],
      "name": "sell",
      "outputs": [
        {
          "internalType": "uint256",
          "name": "",
          "type": "uint256"
        }
      ],
      "stateMutability": "nonpayable",
      "type": "function"
    },
    {
      "inputs": [
        {
          "internalType": "uint256",
          "name": "splp",
          "type": "uint256"
        }
      ],
      "name": "buy",
      "outputs": [],
      "stateMutability": "nonpayable",
      "type": "function"
    },
    {
      "inputs": [
        {
          "internalType": "uint256",
          "name": "splp",
          "type": "uint256"
        }
      ],
      "name": "retireNFTFromShop",
      "outputs": [],
      "stateMutability": "nonpayable",
      "type": "function"
    },
    {
      "inputs": [
        {
          "internalType": "uint256",
          "name": "_baseNFTResellPrice",
          "type": "uint256"
        }
      ],
      "name": "setBaseNFTResellPrice",
      "outputs": [],
      "stateMutability": "nonpayable",
      "type": "function"
    },
    {
      "inputs": [],
      "name": "getBaseNFTResellPrice",
      "outputs": [
        {
          "internalType": "uint256",
          "name": "",
          "type": "uint256"
        }
      ],
      "stateMutability": "view",
      "type": "function"
    },
    {
      "inputs": [
        {
          "internalType": "uint256",
          "name": "_tokenId",
          "type": "uint256"
        }
      ],
      "name": "getNFTResellPriceById",
      "outputs": [
        {
          "internalType": "uint256",
          "name": "",
          "type": "uint256"
        }
      ],
      "stateMutability": "view",
      "type": "function"
    },
    {
      "inputs": [
        {
          "internalType": "uint256",
          "name": "_tokenId",
          "type": "uint256"
        }
      ],
      "name": "getShopInfoListById",
      "outputs": [
        {
          "components": [
            {
              "internalType": "uint256",
              "name": "ShopPriceListNumber",
              "type": "uint256"
            },
            {
              "internalType": "uint256",
              "name": "tokenId",
              "type": "uint256"
            },
            {
              "internalType": "uint256",
              "name": "tokenPrice",
              "type": "uint256"
            },
            {
              "internalType": "bool",
              "name": "exist",
              "type": "bool"
            },
            {
              "internalType": "address",
              "name": "seller",
              "type": "address"
            }
          ],
          "internalType": "struct Shop.shopInfoBox",
          "name": "",
          "type": "tuple"
        }
      ],
      "stateMutability": "view",
      "type": "function"
    },
    {
      "inputs": [],
      "name": "withdraw",
      "outputs": [],
      "stateMutability": "nonpayable",
      "type": "function"
    }
  ],
  "bytecode": "0x60806040523480156200001157600080fd5b506040516200299c3803806200299c833981810160405281019062000037919062000338565b620000576200004b620001c760201b60201c565b620001cf60201b60201c565b87600160006101000a81548173ffffffffffffffffffffffffffffffffffffffff021916908373ffffffffffffffffffffffffffffffffffffffff16021790555086600260006101000a81548173ffffffffffffffffffffffffffffffffffffffff021916908373ffffffffffffffffffffffffffffffffffffffff16021790555085600360006101000a81548173ffffffffffffffffffffffffffffffffffffffff021916908373ffffffffffffffffffffffffffffffffffffffff16021790555084600460006101000a81548173ffffffffffffffffffffffffffffffffffffffff021916908373ffffffffffffffffffffffffffffffffffffffff16021790555083600560006101000a81548173ffffffffffffffffffffffffffffffffffffffff021916908373ffffffffffffffffffffffffffffffffffffffff1602179055508260068190555081600781905550806008819055506001600981905550505050505050505062000401565b600033905090565b60008060009054906101000a900473ffffffffffffffffffffffffffffffffffffffff169050816000806101000a81548173ffffffffffffffffffffffffffffffffffffffff021916908373ffffffffffffffffffffffffffffffffffffffff1602179055508173ffffffffffffffffffffffffffffffffffffffff168173ffffffffffffffffffffffffffffffffffffffff167f8be0079c531659141344cd1fd0a4f28419497f9722a3daafe3b4186f6b6457e060405160405180910390a35050565b600080fd5b600073ffffffffffffffffffffffffffffffffffffffff82169050919050565b6000620002c58262000298565b9050919050565b620002d781620002b8565b8114620002e357600080fd5b50565b600081519050620002f781620002cc565b92915050565b6000819050919050565b6200031281620002fd565b81146200031e57600080fd5b50565b600081519050620003328162000307565b92915050565b600080600080600080600080610100898b0312156200035c576200035b62000293565b5b60006200036c8b828c01620002e6565b98505060206200037f8b828c01620002e6565b9750506040620003928b828c01620002e6565b9650506060620003a58b828c01620002e6565b9550506080620003b88b828c01620002e6565b94505060a0620003cb8b828c0162000321565b93505060c0620003de8b828c0162000321565b92505060e0620003f18b828c0162000321565b9150509295985092959890939650565b61258b80620004116000396000f3fe608060405234801561001057600080fd5b50600436106100b45760003560e01c80638da5cb5b116100715780638da5cb5b14610167578063d79875eb14610185578063d96a094a146101b5578063eb1bc81a146101d1578063f2fde38b14610205578063f9b2df9714610221576100b4565b80630fc638ff146100b95780631c21faed146100e95780633ccfd60b14610105578063715018a61461010f5780637426287514610119578063891922c314610137575b600080fd5b6100d360048036038101906100ce9190611c2d565b61023d565b6040516100e09190611d2d565b60405180910390f35b61010360048036038101906100fe9190611c2d565b6102f9565b005b61010d610939565b005b610117610a2e565b005b610121610a42565b60405161012e9190611d57565b60405180910390f35b610151600480360381019061014c9190611c2d565b610a4c565b60405161015e9190611d57565b60405180910390f35b61016f610aa6565b60405161017c9190611d81565b60405180910390f35b61019f600480360381019061019a9190611d9c565b610acf565b6040516101ac9190611d57565b60405180910390f35b6101cf60048036038101906101ca9190611c2d565b6111d1565b005b6101eb60048036038101906101e69190611c2d565b611614565b6040516101fc959493929190611deb565b60405180910390f35b61021f600480360381019061021a9190611e6a565b611677565b005b61023b60048036038101906102369190611c2d565b6116fa565b005b610245611bab565b600b60008381526020019081526020016000206040518060a00160405290816000820154815260200160018201548152602001600282015481526020016003820160009054906101000a900460ff161515151581526020016003820160019054906101000a900473ffffffffffffffffffffffffffffffffffffffff1673ffffffffffffffffffffffffffffffffffffffff1673ffffffffffffffffffffffffffffffffffffffff16815250509050919050565b600b600082815260200190815260200160002060030160009054906101000a900460ff1661035c576040517f08c379a000000000000000000000000000000000000000000000000000000000815260040161035390611f1a565b60405180910390fd5b3373ffffffffffffffffffffffffffffffffffffffff16600b600083815260200190815260200160002060030160019054906101000a900473ffffffffffffffffffffffffffffffffffffffff1673ffffffffffffffffffffffffffffffffffffffff1614610400576040517f08c379a00000000000000000000000000000000000000000000000000000000081526004016103f790611f86565b60405180910390fd5b6000600b6000838152602001908152602001600020600101549050600160009054906101000a900473ffffffffffffffffffffffffffffffffffffffff1673ffffffffffffffffffffffffffffffffffffffff16632d8a746e826040518263ffffffff1660e01b81526004016104769190611d57565b602060405180830381865afa158015610493573d6000803e3d6000fd5b505050506040513d601f19601f820116820180604052508101906104b79190611fd2565b1561055257600160009054906101000a900473ffffffffffffffffffffffffffffffffffffffff1673ffffffffffffffffffffffffffffffffffffffff166369e9cae13033846040518463ffffffff1660e01b815260040161051b93929190611fff565b600060405180830381600087803b15801561053557600080fd5b505af1158015610549573d6000803e3d6000fd5b50505050610935565b600260009054906101000a900473ffffffffffffffffffffffffffffffffffffffff1673ffffffffffffffffffffffffffffffffffffffff16632d8a746e826040518263ffffffff1660e01b81526004016105ad9190611d57565b602060405180830381865afa1580156105ca573d6000803e3d6000fd5b505050506040513d601f19601f820116820180604052508101906105ee9190611fd2565b1561068957600260009054906101000a900473ffffffffffffffffffffffffffffffffffffffff1673ffffffffffffffffffffffffffffffffffffffff166369e9cae13033846040518463ffffffff1660e01b815260040161065293929190611fff565b600060405180830381600087803b15801561066c57600080fd5b505af1158015610680573d6000803e3d6000fd5b50505050610934565b600360009054906101000a900473ffffffffffffffffffffffffffffffffffffffff1673ffffffffffffffffffffffffffffffffffffffff16632d8a746e826040518263ffffffff1660e01b81526004016106e49190611d57565b602060405180830381865afa158015610701573d6000803e3d6000fd5b505050506040513d601f19601f820116820180604052508101906107259190611fd2565b156107c057600360009054906101000a900473ffffffffffffffffffffffffffffffffffffffff1673ffffffffffffffffffffffffffffffffffffffff166369e9cae13033846040518463ffffffff1660e01b815260040161078993929190611fff565b600060405180830381600087803b1580156107a357600080fd5b505af11580156107b7573d6000803e3d6000fd5b50505050610933565b600460009054906101000a900473ffffffffffffffffffffffffffffffffffffffff1673ffffffffffffffffffffffffffffffffffffffff16632d8a746e826040518263ffffffff1660e01b815260040161081b9190611d57565b602060405180830381865afa158015610838573d6000803e3d6000fd5b505050506040513d601f19601f8201168201806040525081019061085c9190611fd2565b156108f757600460009054906101000a900473ffffffffffffffffffffffffffffffffffffffff1673ffffffffffffffffffffffffffffffffffffffff166369e9cae13033846040518463ffffffff1660e01b81526004016108c093929190611fff565b600060405180830381600087803b1580156108da57600080fd5b505af11580156108ee573d6000803e3d6000fd5b50505050610932565b6040517f08c379a000000000000000000000000000000000000000000000000000000000815260040161092990612082565b60405180910390fd5b5b5b5b5050565b61094161170c565b600560009054906101000a900473ffffffffffffffffffffffffffffffffffffffff1673ffffffffffffffffffffffffffffffffffffffff166323b872dd3033600a546040518463ffffffff1660e01b81526004016109a293929190611fff565b6020604051808303816000875af11580156109c1573d6000803e3d6000fd5b505050506040513d601f19601f820116820180604052508101906109e59190611fd2565b610a24576040517f08c379a0000000000000000000000000000000000000000000000000000000008152600401610a1b90612114565b60405180910390fd5b6000600a81905550565b610a3661170c565b610a40600061178a565b565b6000600654905090565b6000600b6000838152602001908152602001600020600201546064600854610a749190612192565b610a7e91906121c3565b600b600084815260200190815260200160002060020154610a9f9190612205565b9050919050565b60008060009054906101000a900473ffffffffffffffffffffffffffffffffffffffff16905090565b6000600b600084815260200190815260200160002060030160009054906101000a900460ff1615610b35576040517f08c379a0000000000000000000000000000000000000000000000000000000008152600401610b2c906122ab565b60405180910390fd5b6006548211610b79576040517f08c379a0000000000000000000000000000000000000000000000000000000008152600401610b7090612317565b60405180910390fd5b6007548211610bbd576040517f08c379a0000000000000000000000000000000000000000000000000000000008152600401610bb490612383565b60405180910390fd5b600160009054906101000a900473ffffffffffffffffffffffffffffffffffffffff1673ffffffffffffffffffffffffffffffffffffffff16632d8a746e846040518263ffffffff1660e01b8152600401610c189190611d57565b602060405180830381865afa158015610c35573d6000803e3d6000fd5b505050506040513d601f19601f82011682018060405250810190610c599190611fd2565b15610cf457600160009054906101000a900473ffffffffffffffffffffffffffffffffffffffff1673ffffffffffffffffffffffffffffffffffffffff166369e9cae13330866040518463ffffffff1660e01b8152600401610cbd93929190611fff565b600060405180830381600087803b158015610cd757600080fd5b505af1158015610ceb573d6000803e3d6000fd5b505050506110d7565b600260009054906101000a900473ffffffffffffffffffffffffffffffffffffffff1673ffffffffffffffffffffffffffffffffffffffff16632d8a746e846040518263ffffffff1660e01b8152600401610d4f9190611d57565b602060405180830381865afa158015610d6c573d6000803e3d6000fd5b505050506040513d601f19601f82011682018060405250810190610d909190611fd2565b15610e2b57600260009054906101000a900473ffffffffffffffffffffffffffffffffffffffff1673ffffffffffffffffffffffffffffffffffffffff166369e9cae13330866040518463ffffffff1660e01b8152600401610df493929190611fff565b600060405180830381600087803b158015610e0e57600080fd5b505af1158015610e22573d6000803e3d6000fd5b505050506110d6565b600360009054906101000a900473ffffffffffffffffffffffffffffffffffffffff1673ffffffffffffffffffffffffffffffffffffffff16632d8a746e846040518263ffffffff1660e01b8152600401610e869190611d57565b602060405180830381865afa158015610ea3573d6000803e3d6000fd5b505050506040513d601f19601f82011682018060405250810190610ec79190611fd2565b15610f6257600360009054906101000a900473ffffffffffffffffffffffffffffffffffffffff1673ffffffffffffffffffffffffffffffffffffffff166369e9cae13330866040518463ffffffff1660e01b8152600401610f2b93929190611fff565b600060405180830381600087803b158015610f4557600080fd5b505af1158015610f59573d6000803e3d6000fd5b505050506110d5565b600460009054906101000a900473ffffffffffffffffffffffffffffffffffffffff1673ffffffffffffffffffffffffffffffffffffffff16632d8a746e846040518263ffffffff1660e01b8152600401610fbd9190611d57565b602060405180830381865afa158015610fda573d6000803e3d6000fd5b505050506040513d601f19601f82011682018060405250810190610ffe9190611fd2565b1561109957600460009054906101000a900473ffffffffffffffffffffffffffffffffffffffff1673ffffffffffffffffffffffffffffffffffffffff166369e9cae13330866040518463ffffffff1660e01b815260040161106293929190611fff565b600060405180830381600087803b15801561107c57600080fd5b505af1158015611090573d6000803e3d6000fd5b505050506110d4565b6040517f08c379a00000000000000000000000000000000000000000000000000000000081526004016110cb90612082565b60405180910390fd5b5b5b5b6000600960008154809291906110ec906123a3565b91905055905080600b60008381526020019081526020016000206000018190555083600b60008381526020019081526020016000206001018190555082600b6000838152602001908152602001600020600201819055506001600b600083815260200190815260200160002060030160006101000a81548160ff02191690831515021790555033600b600083815260200190815260200160002060030160016101000a81548173ffffffffffffffffffffffffffffffffffffffff021916908373ffffffffffffffffffffffffffffffffffffffff1602179055508091505092915050565b600b600082815260200190815260200160002060030160009054906101000a900460ff16611234576040517f08c379a000000000000000000000000000000000000000000000000000000000815260040161122b90611f1a565b60405180910390fd5b6000600b60008381526020019081526020016000206001015490506000600160009054906101000a900473ffffffffffffffffffffffffffffffffffffffff1673ffffffffffffffffffffffffffffffffffffffff16632d8a746e836040518263ffffffff1660e01b81526004016112ac9190611d57565b602060405180830381865afa1580156112c9573d6000803e3d6000fd5b505050506040513d601f19601f820116820180604052508101906112ed9190611fd2565b1561131c57600160009054906101000a900473ffffffffffffffffffffffffffffffffffffffff1690506115bb565b600260009054906101000a900473ffffffffffffffffffffffffffffffffffffffff1673ffffffffffffffffffffffffffffffffffffffff16632d8a746e836040518263ffffffff1660e01b81526004016113779190611d57565b602060405180830381865afa158015611394573d6000803e3d6000fd5b505050506040513d601f19601f820116820180604052508101906113b89190611fd2565b156113e757600260009054906101000a900473ffffffffffffffffffffffffffffffffffffffff1690506115ba565b600360009054906101000a900473ffffffffffffffffffffffffffffffffffffffff1673ffffffffffffffffffffffffffffffffffffffff16632d8a746e836040518263ffffffff1660e01b81526004016114429190611d57565b602060405180830381865afa15801561145f573d6000803e3d6000fd5b505050506040513d601f19601f820116820180604052508101906114839190611fd2565b156114b257600360009054906101000a900473ffffffffffffffffffffffffffffffffffffffff1690506115b9565b600460009054906101000a900473ffffffffffffffffffffffffffffffffffffffff1673ffffffffffffffffffffffffffffffffffffffff16632d8a746e836040518263ffffffff1660e01b815260040161150d9190611d57565b602060405180830381865afa15801561152a573d6000803e3d6000fd5b505050506040513d601f19601f8201168201806040525081019061154e9190611fd2565b1561157d57600460009054906101000a900473ffffffffffffffffffffffffffffffffffffffff1690506115b8565b6040517f08c379a00000000000000000000000000000000000000000000000000000000081526004016115af90612082565b60405180910390fd5b5b5b5b6115c5828261184e565b6000600b600084815260200190815260200160002060030160006101000a81548160ff021916908315150217905550600854600a60008282546116089190612205565b92505081905550505050565b600b6020528060005260406000206000915090508060000154908060010154908060020154908060030160009054906101000a900460ff16908060030160019054906101000a900473ffffffffffffffffffffffffffffffffffffffff16905085565b61167f61170c565b600073ffffffffffffffffffffffffffffffffffffffff168173ffffffffffffffffffffffffffffffffffffffff16036116ee576040517f08c379a00000000000000000000000000000000000000000000000000000000081526004016116e59061245d565b60405180910390fd5b6116f78161178a565b50565b61170261170c565b8060068190555050565b611714611ba3565b73ffffffffffffffffffffffffffffffffffffffff16611732610aa6565b73ffffffffffffffffffffffffffffffffffffffff1614611788576040517f08c379a000000000000000000000000000000000000000000000000000000000815260040161177f906124c9565b60405180910390fd5b565b60008060009054906101000a900473ffffffffffffffffffffffffffffffffffffffff169050816000806101000a81548173ffffffffffffffffffffffffffffffffffffffff021916908373ffffffffffffffffffffffffffffffffffffffff1602179055508173ffffffffffffffffffffffffffffffffffffffff168173ffffffffffffffffffffffffffffffffffffffff167f8be0079c531659141344cd1fd0a4f28419497f9722a3daafe3b4186f6b6457e060405160405180910390a35050565b600073ffffffffffffffffffffffffffffffffffffffff168173ffffffffffffffffffffffffffffffffffffffff16036118bd576040517f08c379a00000000000000000000000000000000000000000000000000000000081526004016118b490612535565b60405180910390fd5b600560009054906101000a900473ffffffffffffffffffffffffffffffffffffffff1673ffffffffffffffffffffffffffffffffffffffff166323b872dd33600b600086815260200190815260200160002060030160019054906101000a900473ffffffffffffffffffffffffffffffffffffffff16600b6000878152602001908152602001600020600201546040518463ffffffff1660e01b815260040161196893929190611fff565b6020604051808303816000875af1158015611987573d6000803e3d6000fd5b505050506040513d601f19601f820116820180604052508101906119ab9190611fd2565b6119ea576040517f08c379a00000000000000000000000000000000000000000000000000000000081526004016119e190612114565b60405180910390fd5b600560009054906101000a900473ffffffffffffffffffffffffffffffffffffffff1673ffffffffffffffffffffffffffffffffffffffff166323b872dd33600b600086815260200190815260200160002060030160019054906101000a900473ffffffffffffffffffffffffffffffffffffffff16600b6000878152602001908152602001600020600201546064600854611a869190612192565b611a9091906121c3565b6040518463ffffffff1660e01b8152600401611aae93929190611fff565b6020604051808303816000875af1158015611acd573d6000803e3d6000fd5b505050506040513d601f19601f82011682018060405250810190611af19190611fd2565b611b30576040517f08c379a0000000000000000000000000000000000000000000000000000000008152600401611b2790612114565b60405180910390fd5b8073ffffffffffffffffffffffffffffffffffffffff166369e9cae13033856040518463ffffffff1660e01b8152600401611b6d93929190611fff565b600060405180830381600087803b158015611b8757600080fd5b505af1158015611b9b573d6000803e3d6000fd5b505050505050565b600033905090565b6040518060a00160405280600081526020016000815260200160008152602001600015158152602001600073ffffffffffffffffffffffffffffffffffffffff1681525090565b600080fd5b6000819050919050565b611c0a81611bf7565b8114611c1557600080fd5b50565b600081359050611c2781611c01565b92915050565b600060208284031215611c4357611c42611bf2565b5b6000611c5184828501611c18565b91505092915050565b611c6381611bf7565b82525050565b60008115159050919050565b611c7e81611c69565b82525050565b600073ffffffffffffffffffffffffffffffffffffffff82169050919050565b6000611caf82611c84565b9050919050565b611cbf81611ca4565b82525050565b60a082016000820151611cdb6000850182611c5a565b506020820151611cee6020850182611c5a565b506040820151611d016040850182611c5a565b506060820151611d146060850182611c75565b506080820151611d276080850182611cb6565b50505050565b600060a082019050611d426000830184611cc5565b92915050565b611d5181611bf7565b82525050565b6000602082019050611d6c6000830184611d48565b92915050565b611d7b81611ca4565b82525050565b6000602082019050611d966000830184611d72565b92915050565b60008060408385031215611db357611db2611bf2565b5b6000611dc185828601611c18565b9250506020611dd285828601611c18565b9150509250929050565b611de581611c69565b82525050565b600060a082019050611e006000830188611d48565b611e0d6020830187611d48565b611e1a6040830186611d48565b611e276060830185611ddc565b611e346080830184611d72565b9695505050505050565b611e4781611ca4565b8114611e5257600080fd5b50565b600081359050611e6481611e3e565b92915050565b600060208284031215611e8057611e7f611bf2565b5b6000611e8e84828501611e55565b91505092915050565b600082825260208201905092915050565b7f54686973204e46542063616e206e6f7420626520666f756e6420696e2073686f60008201527f702e20436865636b2074686520746f6b656e4964000000000000000000000000602082015250565b6000611f04603483611e97565b9150611f0f82611ea8565b604082019050919050565b60006020820190508181036000830152611f3381611ef7565b9050919050565b7f4f6e6c79206f776e65722063616e20726574697265204e465400000000000000600082015250565b6000611f70601983611e97565b9150611f7b82611f3a565b602082019050919050565b60006020820190508181036000830152611f9f81611f63565b9050919050565b611faf81611c69565b8114611fba57600080fd5b50565b600081519050611fcc81611fa6565b92915050565b600060208284031215611fe857611fe7611bf2565b5b6000611ff684828501611fbd565b91505092915050565b60006060820190506120146000830186611d72565b6120216020830185611d72565b61202e6040830184611d48565b949350505050565b7f546f6b656e206e6f742065786973740000000000000000000000000000000000600082015250565b600061206c600f83611e97565b915061207782612036565b602082019050919050565b6000602082019050818103600083015261209b8161205f565b9050919050565b7f7472616e7366657246726f6d2073656e64657220746f2074686973206661696c60008201527f6564000000000000000000000000000000000000000000000000000000000000602082015250565b60006120fe602283611e97565b9150612109826120a2565b604082019050919050565b6000602082019050818103600083015261212d816120f1565b9050919050565b7f4e487b7100000000000000000000000000000000000000000000000000000000600052601260045260246000fd5b7f4e487b7100000000000000000000000000000000000000000000000000000000600052601160045260246000fd5b600061219d82611bf7565b91506121a883611bf7565b9250826121b8576121b7612134565b5b828204905092915050565b60006121ce82611bf7565b91506121d983611bf7565b92508282026121e781611bf7565b915082820484148315176121fe576121fd612163565b5b5092915050565b600061221082611bf7565b915061221b83611bf7565b925082820190508082111561223357612232612163565b5b92915050565b7f54686973204e46542063616e206e6f742062652073657420696e2073656c6c2060008201527f6d6f7265207468616e206f6e652074696d650000000000000000000000000000602082015250565b6000612295603283611e97565b91506122a082612239565b604082019050919050565b600060208201905081810360008301526122c481612288565b9050919050565b7f4261736520707269636520697320746f6f20736d616c6c000000000000000000600082015250565b6000612301601783611e97565b915061230c826122cb565b602082019050919050565b60006020820190508181036000830152612330816122f4565b9050919050565b7f4261736520707269636520697320746f6f206269670000000000000000000000600082015250565b600061236d601583611e97565b915061237882612337565b602082019050919050565b6000602082019050818103600083015261239c81612360565b9050919050565b60006123ae82611bf7565b91507fffffffffffffffffffffffffffffffffffffffffffffffffffffffffffffffff82036123e0576123df612163565b5b600182019050919050565b7f4f776e61626c653a206e6577206f776e657220697320746865207a65726f206160008201527f6464726573730000000000000000000000000000000000000000000000000000602082015250565b6000612447602683611e97565b9150612452826123eb565b604082019050919050565b600060208201905081810360008301526124768161243a565b9050919050565b7f4f776e61626c653a2063616c6c6572206973206e6f7420746865206f776e6572600082015250565b60006124b3602083611e97565b91506124be8261247d565b602082019050919050565b600060208201905081810360008301526124e2816124a6565b9050919050565b7f4572726f7220696e204e4654207265636f676e6974696f6e0000000000000000600082015250565b600061251f601883611e97565b915061252a826124e9565b602082019050919050565b6000602082019050818103600083015261254e81612512565b905091905056fea264697066735822122022b9a92b6586da5d73f761e50b4dbedf03cca0ee7b8813cc783d45e7b5c456fd64736f6c63430008130033",
  "immutableReferences": {},
  "source": "// SPDX-License-Identifier: MIT\r\npragma solidity ^0.8.0;\r\n\r\nimport \"@openzeppelin/contracts/access/Ownable.sol\";\r\n\r\nimport \"./../Pool/AvatarPool.sol\";\r\nimport \"./../Pool/StonePool.sol\";\r\nimport \"./../Pool/WearablePool.sol\";\r\nimport \"./Box.sol\";\r\n\r\n\r\n/// @custom:security-contact giorgio@allena.it\r\ncontract Shop is Ownable {\r\n\r\n    address private AvatarPoolAddress;\r\n    address private StonePoolAddress;\r\n    address private WearablePoolAddress;\r\n    address private BoxAddress;\r\n    address private token21BJAddress;\r\n\r\n    // TODO: Get and set\r\n    uint256 private baseNFTResellPrice;\r\n    uint256 private MaxNFTResellPrice;\r\n    uint256 private feePercentageShopMaintance;\r\n\r\n\r\n    uint256 private ShopPriceListPointer;\r\n    uint256 private liquidityValue;\r\n\r\n    struct shopInfoBox {\r\n        uint256 ShopPriceListNumber;\r\n        uint256 tokenId;\r\n\r\n        uint256 tokenPrice;\r\n\r\n        bool exist;\r\n        address seller;\r\n    }\r\n\r\n    mapping(uint256 => shopInfoBox) public shopInfoBoxList;\r\n\r\n\r\n\r\n\r\n\r\n    constructor(\r\n\r\n        address _AvatarPoolAddress,\r\n        address _StonePoolAddress,\r\n        address _WearablePoolAddress,\r\n        address _BoxAddress,\r\n        address _token21BJAddress,\r\n        \r\n        uint256 _baseNFTResellPrice,\r\n        uint256 _MaxNFTResellPrice,\r\n        uint256 _feePercentageShopMaintance\r\n\r\n    ) {\r\n        AvatarPoolAddress = _AvatarPoolAddress;\r\n        StonePoolAddress = _StonePoolAddress;\r\n        WearablePoolAddress = _WearablePoolAddress;\r\n        BoxAddress = _BoxAddress;\r\n        token21BJAddress = _token21BJAddress;\r\n\r\n        baseNFTResellPrice = _baseNFTResellPrice;\r\n        MaxNFTResellPrice = _MaxNFTResellPrice;\r\n        feePercentageShopMaintance = _feePercentageShopMaintance;\r\n\r\n        ShopPriceListPointer = 1;\r\n    }\r\n\r\n\r\n    // This function permit to user to sell their NFT to shop\r\n    function sell(uint256 _tokenId, uint256 price) public returns(uint256) {\r\n        require(!shopInfoBoxList[_tokenId].exist, \"This NFT can not be set in sell more than one time\");\r\n        require(price > baseNFTResellPrice, \"Base price is too small\");\r\n        require(price > MaxNFTResellPrice, \"Base price is too big\");\r\n\r\n        if (AvatarPool(AvatarPoolAddress).ownerOfNFT(_tokenId)) {\r\n            AvatarPool(AvatarPoolAddress).transferNFT(msg.sender, address(this), _tokenId);\r\n        } else if (StonePool(StonePoolAddress).ownerOfNFT(_tokenId)) {\r\n           StonePool(StonePoolAddress).transferNFT(msg.sender, address(this), _tokenId);\r\n        } else if (WearablePool(WearablePoolAddress).ownerOfNFT(_tokenId)) {\r\n            WearablePool(WearablePoolAddress).transferNFT(msg.sender, address(this), _tokenId);\r\n        } else if (Box(BoxAddress).ownerOfNFT(_tokenId)) {\r\n            Box(BoxAddress).transferNFT(msg.sender, address(this), _tokenId);\r\n        } else revert(\"Token not exist\");\r\n\r\n\r\n        uint256 splp = ShopPriceListPointer++;\r\n\r\n        shopInfoBoxList[splp].ShopPriceListNumber = splp;\r\n        shopInfoBoxList[splp].tokenId = _tokenId;\r\n        shopInfoBoxList[splp].tokenPrice = price;\r\n        shopInfoBoxList[splp].exist = true;\r\n        shopInfoBoxList[splp].seller = msg.sender;\r\n\r\n        return splp;\r\n    }\r\n\r\n    // This function permit to user to buy a NFT from list. Buy for NFTkey\r\n    function buy(uint256 splp) public {\r\n        require(shopInfoBoxList[splp].exist, \"This NFT can not be found in shop. Check the tokenId\");\r\n        uint256 _tokenId = shopInfoBoxList[splp].tokenId;\r\n        address poolAddressVar = address(0x0);\r\n\r\n        if (AvatarPool(AvatarPoolAddress).ownerOfNFT(_tokenId)) poolAddressVar = AvatarPoolAddress;\r\n        else if (StonePool(StonePoolAddress).ownerOfNFT(_tokenId)) poolAddressVar = StonePoolAddress; \r\n        else if (WearablePool(WearablePoolAddress).ownerOfNFT(_tokenId)) poolAddressVar = WearablePoolAddress;\r\n        else if (Box(BoxAddress).ownerOfNFT(_tokenId)) poolAddressVar = BoxAddress;\r\n        else revert(\"Token not exist\");\r\n\r\n        payFunction(_tokenId, poolAddressVar);\r\n        \r\n        shopInfoBoxList[_tokenId].exist = false;\r\n        liquidityValue += feePercentageShopMaintance;\r\n    }\r\n\r\n    function payFunction (uint256 _tokenId, address poolAddressVar) internal {\r\n        require(poolAddressVar != address(0x0), \"Error in NFT recognition\");\r\n\r\n        if (!IERC20( token21BJAddress ).transferFrom(msg.sender, shopInfoBoxList[_tokenId].seller, shopInfoBoxList[_tokenId].tokenPrice )) \r\n            revert(\"transferFrom sender to this failed\");\r\n        if (!IERC20( token21BJAddress ).transferFrom(msg.sender, shopInfoBoxList[_tokenId].seller, ((feePercentageShopMaintance / 100) * shopInfoBoxList[_tokenId].tokenPrice) )) \r\n            revert(\"transferFrom sender to this failed\");\r\n\r\n        AvatarPool(poolAddressVar).transferNFT(address(this), msg.sender, _tokenId);\r\n    }\r\n\r\n\r\n    // Permit to user to get out from shop an NFT\r\n    function retireNFTFromShop (uint256 splp) public {\r\n        require(shopInfoBoxList[splp].exist, \"This NFT can not be found in shop. Check the tokenId\");\r\n        require(shopInfoBoxList[splp].seller == msg.sender, \"Only owner can retire NFT\");\r\n        uint256 _tokenId = shopInfoBoxList[splp].tokenId;\r\n\r\n        if (AvatarPool(AvatarPoolAddress).ownerOfNFT(_tokenId)) AvatarPool(AvatarPoolAddress).transferNFT(address(this), msg.sender, _tokenId);\r\n        else if (StonePool(StonePoolAddress).ownerOfNFT(_tokenId)) StonePool(StonePoolAddress).transferNFT(address(this), msg.sender, _tokenId); \r\n        else if (WearablePool(WearablePoolAddress).ownerOfNFT(_tokenId)) WearablePool(WearablePoolAddress).transferNFT(address(this), msg.sender, _tokenId);\r\n        else if (Box(BoxAddress).ownerOfNFT(_tokenId)) Box(BoxAddress).transferNFT(address(this), msg.sender, _tokenId);\r\n        else revert(\"Token not exist\");\r\n\r\n    }\r\n\r\n\r\n\r\n    // TODO: Set and Gets ! \r\n    function setBaseNFTResellPrice (uint256 _baseNFTResellPrice) public onlyOwner { baseNFTResellPrice = _baseNFTResellPrice; }\r\n    function getBaseNFTResellPrice () public view returns (uint256) { return baseNFTResellPrice; }\r\n\r\n\r\n    function getNFTResellPriceById (uint256 _tokenId) public view returns(uint256) { return shopInfoBoxList[_tokenId].tokenPrice + ((feePercentageShopMaintance / 100) * shopInfoBoxList[_tokenId].tokenPrice); }\r\n\r\n\r\n    function getShopInfoListById (uint256 _tokenId) public view returns(shopInfoBox memory) { return shopInfoBoxList[_tokenId]; }\r\n\r\n    function withdraw () public onlyOwner {\r\n        if (!IERC20( token21BJAddress ).transferFrom(address(this), msg.sender, liquidityValue)) \r\n            revert(\"transferFrom sender to this failed\");       \r\n        liquidityValue = 0;\r\n    }\r\n\r\n}",
  "sourcePath": "D:\\Lavoro\\21_BJ\\21_BJ_SC\\contracts\\Avatar\\Services\\Shop.sol",
  "compiler": {
    "name": "solc",
    "version": "0.8.19+commit.7dd6d404.Emscripten.clang"
  },
  "schemaVersion": "3.4.15",
  "updatedAt": "2023-10-20T15:35:45.406Z",
  "devdoc": {
    "custom:security-contact": "giorgio@allena.it",
    "kind": "dev",
    "methods": {
      "owner()": {
        "details": "Returns the address of the current owner."
      },
      "renounceOwnership()": {
        "details": "Leaves the contract without owner. It will not be possible to call `onlyOwner` functions. Can only be called by the current owner. NOTE: Renouncing ownership will leave the contract without an owner, thereby disabling any functionality that is only available to the owner."
      },
      "transferOwnership(address)": {
        "details": "Transfers ownership of the contract to a new account (`newOwner`). Can only be called by the current owner."
      }
    },
    "version": 1
  },
  "userdoc": {
    "kind": "user",
    "methods": {},
    "version": 1
  }
}