{
  "contractName": "StonePool",
  "abi": [
    {
      "inputs": [
        {
          "internalType": "address",
          "name": "_NFTManagerAddress",
          "type": "address"
        },
        {
          "internalType": "address",
          "name": "_RandomChoiceAddress",
          "type": "address"
        },
        {
          "internalType": "string",
          "name": "_baseUri",
          "type": "string"
        }
      ],
      "stateMutability": "nonpayable",
      "type": "constructor"
    },
    {
      "anonymous": false,
      "inputs": [
        {
          "indexed": true,
          "internalType": "address",
          "name": "owner",
          "type": "address"
        },
        {
          "indexed": true,
          "internalType": "address",
          "name": "approved",
          "type": "address"
        },
        {
          "indexed": true,
          "internalType": "uint256",
          "name": "tokenId",
          "type": "uint256"
        }
      ],
      "name": "Approval",
      "type": "event"
    },
    {
      "anonymous": false,
      "inputs": [
        {
          "indexed": true,
          "internalType": "address",
          "name": "owner",
          "type": "address"
        },
        {
          "indexed": true,
          "internalType": "address",
          "name": "operator",
          "type": "address"
        },
        {
          "indexed": false,
          "internalType": "bool",
          "name": "approved",
          "type": "bool"
        }
      ],
      "name": "ApprovalForAll",
      "type": "event"
    },
    {
      "anonymous": false,
      "inputs": [
        {
          "indexed": false,
          "internalType": "uint256",
          "name": "_fromTokenId",
          "type": "uint256"
        },
        {
          "indexed": false,
          "internalType": "uint256",
          "name": "_toTokenId",
          "type": "uint256"
        }
      ],
      "name": "BatchMetadataUpdate",
      "type": "event"
    },
    {
      "anonymous": false,
      "inputs": [
        {
          "indexed": false,
          "internalType": "uint256",
          "name": "_tokenId",
          "type": "uint256"
        }
      ],
      "name": "MetadataUpdate",
      "type": "event"
    },
    {
      "anonymous": false,
      "inputs": [
        {
          "indexed": true,
          "internalType": "address",
          "name": "previousOwner",
          "type": "address"
        },
        {
          "indexed": true,
          "internalType": "address",
          "name": "newOwner",
          "type": "address"
        }
      ],
      "name": "OwnershipTransferred",
      "type": "event"
    },
    {
      "anonymous": false,
      "inputs": [
        {
          "indexed": true,
          "internalType": "address",
          "name": "from",
          "type": "address"
        },
        {
          "indexed": true,
          "internalType": "address",
          "name": "to",
          "type": "address"
        },
        {
          "indexed": true,
          "internalType": "uint256",
          "name": "tokenId",
          "type": "uint256"
        }
      ],
      "name": "Transfer",
      "type": "event"
    },
    {
      "inputs": [
        {
          "internalType": "uint256",
          "name": "",
          "type": "uint256"
        }
      ],
      "name": "StoneList",
      "outputs": [
        {
          "internalType": "string",
          "name": "name",
          "type": "string"
        },
        {
          "internalType": "uint256",
          "name": "id",
          "type": "uint256"
        },
        {
          "internalType": "uint256",
          "name": "level",
          "type": "uint256"
        },
        {
          "internalType": "uint256",
          "name": "ar",
          "type": "uint256"
        },
        {
          "internalType": "uint256",
          "name": "stoneType",
          "type": "uint256"
        }
      ],
      "stateMutability": "view",
      "type": "function"
    },
    {
      "inputs": [
        {
          "internalType": "uint256",
          "name": "",
          "type": "uint256"
        },
        {
          "internalType": "uint256",
          "name": "",
          "type": "uint256"
        }
      ],
      "name": "StoneMatrixForSeason",
      "outputs": [
        {
          "internalType": "uint256",
          "name": "quantity",
          "type": "uint256"
        },
        {
          "internalType": "uint256",
          "name": "cost",
          "type": "uint256"
        }
      ],
      "stateMutability": "view",
      "type": "function"
    },
    {
      "inputs": [
        {
          "internalType": "uint256",
          "name": "",
          "type": "uint256"
        },
        {
          "internalType": "uint256",
          "name": "",
          "type": "uint256"
        },
        {
          "internalType": "uint256",
          "name": "",
          "type": "uint256"
        }
      ],
      "name": "StoneRarityMatrix",
      "outputs": [
        {
          "internalType": "uint256",
          "name": "",
          "type": "uint256"
        }
      ],
      "stateMutability": "view",
      "type": "function"
    },
    {
      "inputs": [
        {
          "internalType": "address",
          "name": "to",
          "type": "address"
        },
        {
          "internalType": "uint256",
          "name": "tokenId",
          "type": "uint256"
        }
      ],
      "name": "approve",
      "outputs": [],
      "stateMutability": "nonpayable",
      "type": "function"
    },
    {
      "inputs": [
        {
          "internalType": "address",
          "name": "owner",
          "type": "address"
        }
      ],
      "name": "balanceOf",
      "outputs": [
        {
          "internalType": "uint256",
          "name": "",
          "type": "uint256"
        }
      ],
      "stateMutability": "view",
      "type": "function"
    },
    {
      "inputs": [
        {
          "internalType": "uint256",
          "name": "_tokenId",
          "type": "uint256"
        }
      ],
      "name": "existNFT",
      "outputs": [
        {
          "internalType": "bool",
          "name": "",
          "type": "bool"
        }
      ],
      "stateMutability": "view",
      "type": "function"
    },
    {
      "inputs": [],
      "name": "getActionAddress",
      "outputs": [
        {
          "internalType": "address",
          "name": "",
          "type": "address"
        }
      ],
      "stateMutability": "view",
      "type": "function"
    },
    {
      "inputs": [
        {
          "internalType": "uint256",
          "name": "tokenId",
          "type": "uint256"
        }
      ],
      "name": "getApproved",
      "outputs": [
        {
          "internalType": "address",
          "name": "",
          "type": "address"
        }
      ],
      "stateMutability": "view",
      "type": "function"
    },
    {
      "inputs": [],
      "name": "getBaseUri",
      "outputs": [
        {
          "internalType": "string",
          "name": "",
          "type": "string"
        }
      ],
      "stateMutability": "view",
      "type": "function"
    },
    {
      "inputs": [],
      "name": "getNFTManagerAddress",
      "outputs": [
        {
          "internalType": "address",
          "name": "",
          "type": "address"
        }
      ],
      "stateMutability": "view",
      "type": "function"
    },
    {
      "inputs": [],
      "name": "getRandomChoiceAddress",
      "outputs": [
        {
          "internalType": "address",
          "name": "",
          "type": "address"
        }
      ],
      "stateMutability": "view",
      "type": "function"
    },
    {
      "inputs": [
        {
          "internalType": "address",
          "name": "owner",
          "type": "address"
        },
        {
          "internalType": "address",
          "name": "operator",
          "type": "address"
        }
      ],
      "name": "isApprovedForAll",
      "outputs": [
        {
          "internalType": "bool",
          "name": "",
          "type": "bool"
        }
      ],
      "stateMutability": "view",
      "type": "function"
    },
    {
      "inputs": [],
      "name": "name",
      "outputs": [
        {
          "internalType": "string",
          "name": "",
          "type": "string"
        }
      ],
      "stateMutability": "view",
      "type": "function"
    },
    {
      "inputs": [],
      "name": "owner",
      "outputs": [
        {
          "internalType": "address",
          "name": "",
          "type": "address"
        }
      ],
      "stateMutability": "view",
      "type": "function"
    },
    {
      "inputs": [
        {
          "internalType": "uint256",
          "name": "tokenId",
          "type": "uint256"
        }
      ],
      "name": "ownerOf",
      "outputs": [
        {
          "internalType": "address",
          "name": "",
          "type": "address"
        }
      ],
      "stateMutability": "view",
      "type": "function"
    },
    {
      "inputs": [
        {
          "internalType": "uint256",
          "name": "_tokenId",
          "type": "uint256"
        }
      ],
      "name": "ownerOfNFT",
      "outputs": [
        {
          "internalType": "bool",
          "name": "",
          "type": "bool"
        }
      ],
      "stateMutability": "view",
      "type": "function"
    },
    {
      "inputs": [],
      "name": "renounceOwnership",
      "outputs": [],
      "stateMutability": "nonpayable",
      "type": "function"
    },
    {
      "inputs": [
        {
          "internalType": "address",
          "name": "from",
          "type": "address"
        },
        {
          "internalType": "address",
          "name": "to",
          "type": "address"
        },
        {
          "internalType": "uint256",
          "name": "tokenId",
          "type": "uint256"
        }
      ],
      "name": "safeTransferFrom",
      "outputs": [],
      "stateMutability": "nonpayable",
      "type": "function"
    },
    {
      "inputs": [
        {
          "internalType": "address",
          "name": "from",
          "type": "address"
        },
        {
          "internalType": "address",
          "name": "to",
          "type": "address"
        },
        {
          "internalType": "uint256",
          "name": "tokenId",
          "type": "uint256"
        },
        {
          "internalType": "bytes",
          "name": "data",
          "type": "bytes"
        }
      ],
      "name": "safeTransferFrom",
      "outputs": [],
      "stateMutability": "nonpayable",
      "type": "function"
    },
    {
      "inputs": [
        {
          "internalType": "address",
          "name": "_ActionAddress",
          "type": "address"
        }
      ],
      "name": "setActionAddress",
      "outputs": [],
      "stateMutability": "nonpayable",
      "type": "function"
    },
    {
      "inputs": [
        {
          "internalType": "address",
          "name": "operator",
          "type": "address"
        },
        {
          "internalType": "bool",
          "name": "approved",
          "type": "bool"
        }
      ],
      "name": "setApprovalForAll",
      "outputs": [],
      "stateMutability": "nonpayable",
      "type": "function"
    },
    {
      "inputs": [
        {
          "internalType": "string",
          "name": "_baseUri",
          "type": "string"
        }
      ],
      "name": "setBaseURI",
      "outputs": [],
      "stateMutability": "nonpayable",
      "type": "function"
    },
    {
      "inputs": [
        {
          "internalType": "string",
          "name": "_baseUri",
          "type": "string"
        }
      ],
      "name": "setBaseUri",
      "outputs": [],
      "stateMutability": "nonpayable",
      "type": "function"
    },
    {
      "inputs": [
        {
          "internalType": "address",
          "name": "_NFTManagerAddress",
          "type": "address"
        }
      ],
      "name": "setNFTManagerAddress",
      "outputs": [],
      "stateMutability": "nonpayable",
      "type": "function"
    },
    {
      "inputs": [
        {
          "internalType": "address",
          "name": "_RandomChoiceAddress",
          "type": "address"
        }
      ],
      "name": "setRandomChoiceAddress",
      "outputs": [],
      "stateMutability": "nonpayable",
      "type": "function"
    },
    {
      "inputs": [
        {
          "internalType": "bytes4",
          "name": "interfaceId",
          "type": "bytes4"
        }
      ],
      "name": "supportsInterface",
      "outputs": [
        {
          "internalType": "bool",
          "name": "",
          "type": "bool"
        }
      ],
      "stateMutability": "view",
      "type": "function"
    },
    {
      "inputs": [],
      "name": "symbol",
      "outputs": [
        {
          "internalType": "string",
          "name": "",
          "type": "string"
        }
      ],
      "stateMutability": "view",
      "type": "function"
    },
    {
      "inputs": [
        {
          "internalType": "uint256",
          "name": "index",
          "type": "uint256"
        }
      ],
      "name": "tokenByIndex",
      "outputs": [
        {
          "internalType": "uint256",
          "name": "",
          "type": "uint256"
        }
      ],
      "stateMutability": "view",
      "type": "function"
    },
    {
      "inputs": [
        {
          "internalType": "address",
          "name": "owner",
          "type": "address"
        },
        {
          "internalType": "uint256",
          "name": "index",
          "type": "uint256"
        }
      ],
      "name": "tokenOfOwnerByIndex",
      "outputs": [
        {
          "internalType": "uint256",
          "name": "",
          "type": "uint256"
        }
      ],
      "stateMutability": "view",
      "type": "function"
    },
    {
      "inputs": [
        {
          "internalType": "uint256",
          "name": "tokenId",
          "type": "uint256"
        }
      ],
      "name": "tokenURI",
      "outputs": [
        {
          "internalType": "string",
          "name": "",
          "type": "string"
        }
      ],
      "stateMutability": "view",
      "type": "function"
    },
    {
      "inputs": [],
      "name": "totalSupply",
      "outputs": [
        {
          "internalType": "uint256",
          "name": "",
          "type": "uint256"
        }
      ],
      "stateMutability": "view",
      "type": "function"
    },
    {
      "inputs": [
        {
          "internalType": "address",
          "name": "from",
          "type": "address"
        },
        {
          "internalType": "address",
          "name": "to",
          "type": "address"
        },
        {
          "internalType": "uint256",
          "name": "tokenId",
          "type": "uint256"
        }
      ],
      "name": "transferFrom",
      "outputs": [],
      "stateMutability": "nonpayable",
      "type": "function"
    },
    {
      "inputs": [
        {
          "internalType": "address",
          "name": "from",
          "type": "address"
        },
        {
          "internalType": "address",
          "name": "_to",
          "type": "address"
        },
        {
          "internalType": "uint256",
          "name": "_tokenId",
          "type": "uint256"
        }
      ],
      "name": "transferNFT",
      "outputs": [],
      "stateMutability": "nonpayable",
      "type": "function"
    },
    {
      "inputs": [
        {
          "internalType": "address",
          "name": "newOwner",
          "type": "address"
        }
      ],
      "name": "transferOwnership",
      "outputs": [],
      "stateMutability": "nonpayable",
      "type": "function"
    },
    {
      "inputs": [
        {
          "internalType": "uint256",
          "name": "tokenRarity",
          "type": "uint256"
        },
        {
          "internalType": "uint256",
          "name": "seasonKey",
          "type": "uint256"
        },
        {
          "internalType": "address",
          "name": "to",
          "type": "address"
        },
        {
          "internalType": "string",
          "name": "name",
          "type": "string"
        }
      ],
      "name": "mintingPrivate",
      "outputs": [
        {
          "internalType": "bool",
          "name": "",
          "type": "bool"
        }
      ],
      "stateMutability": "nonpayable",
      "type": "function"
    },
    {
      "inputs": [
        {
          "internalType": "uint256",
          "name": "StonetID",
          "type": "uint256"
        }
      ],
      "name": "getStoneInfo",
      "outputs": [
        {
          "components": [
            {
              "internalType": "string",
              "name": "name",
              "type": "string"
            },
            {
              "internalType": "uint256",
              "name": "id",
              "type": "uint256"
            },
            {
              "internalType": "uint256",
              "name": "level",
              "type": "uint256"
            },
            {
              "internalType": "uint256",
              "name": "ar",
              "type": "uint256"
            },
            {
              "internalType": "uint256",
              "name": "stoneType",
              "type": "uint256"
            }
          ],
          "internalType": "struct BaseStructs.Stone",
          "name": "",
          "type": "tuple"
        }
      ],
      "stateMutability": "view",
      "type": "function"
    },
    {
      "inputs": [
        {
          "internalType": "uint256",
          "name": "seasonID",
          "type": "uint256"
        },
        {
          "internalType": "uint256",
          "name": "rt",
          "type": "uint256"
        },
        {
          "internalType": "uint256",
          "name": "_quantity",
          "type": "uint256"
        },
        {
          "internalType": "uint256",
          "name": "_cost",
          "type": "uint256"
        }
      ],
      "name": "setStonePoolInfo",
      "outputs": [],
      "stateMutability": "nonpayable",
      "type": "function"
    },
    {
      "inputs": [
        {
          "internalType": "uint256",
          "name": "seasonID",
          "type": "uint256"
        },
        {
          "internalType": "uint256",
          "name": "rarityColon",
          "type": "uint256"
        }
      ],
      "name": "getStonePoolInfo",
      "outputs": [
        {
          "components": [
            {
              "internalType": "uint256",
              "name": "quantity",
              "type": "uint256"
            },
            {
              "internalType": "uint256",
              "name": "cost",
              "type": "uint256"
            }
          ],
          "internalType": "struct BaseStructs.NFTPoolInfo",
          "name": "",
          "type": "tuple"
        }
      ],
      "stateMutability": "view",
      "type": "function"
    },
    {
      "inputs": [
        {
          "internalType": "uint256",
          "name": "seasonID",
          "type": "uint256"
        }
      ],
      "name": "PoolIsEmpty",
      "outputs": [
        {
          "internalType": "bool",
          "name": "poolIsEmpty",
          "type": "bool"
        }
      ],
      "stateMutability": "view",
      "type": "function"
    },
    {
      "inputs": [
        {
          "internalType": "uint256",
          "name": "r1",
          "type": "uint256"
        },
        {
          "internalType": "uint256",
          "name": "r2",
          "type": "uint256"
        },
        {
          "internalType": "uint256[]",
          "name": "br",
          "type": "uint256[]"
        }
      ],
      "name": "setStoneRarity",
      "outputs": [],
      "stateMutability": "nonpayable",
      "type": "function"
    },
    {
      "inputs": [
        {
          "internalType": "uint256",
          "name": "r1",
          "type": "uint256"
        },
        {
          "internalType": "uint256",
          "name": "r2",
          "type": "uint256"
        }
      ],
      "name": "getStoneRarity",
      "outputs": [
        {
          "internalType": "uint256[]",
          "name": "rb",
          "type": "uint256[]"
        }
      ],
      "stateMutability": "view",
      "type": "function"
    },
    {
      "inputs": [
        {
          "internalType": "uint256",
          "name": "r1",
          "type": "uint256"
        },
        {
          "internalType": "uint256",
          "name": "r2",
          "type": "uint256"
        }
      ],
      "name": "getRarityForMinting",
      "outputs": [
        {
          "internalType": "uint256",
          "name": "rt",
          "type": "uint256"
        }
      ],
      "stateMutability": "nonpayable",
      "type": "function"
    }
  ],
  "bytecode": "0x60806040523480156200001157600080fd5b50604051620059df380380620059df83398181016040528101906200003791906200045e565b8282826040518060400160405280600581526020017f53746f6e650000000000000000000000000000000000000000000000000000008152506040518060400160405280600381526020017f53544e000000000000000000000000000000000000000000000000000000000081525081818160009081620000b9919062000724565b508060019081620000cb919062000724565b505050620000ee620000e26200019860201b60201c565b620001a060201b60201c565b84600c60006101000a81548173ffffffffffffffffffffffffffffffffffffffff021916908373ffffffffffffffffffffffffffffffffffffffff16021790555083600d60006101000a81548173ffffffffffffffffffffffffffffffffffffffff021916908373ffffffffffffffffffffffffffffffffffffffff16021790555082600f908162000181919062000724565b50505050505060016013819055505050506200080b565b600033905090565b6000600b60009054906101000a900473ffffffffffffffffffffffffffffffffffffffff16905081600b60006101000a81548173ffffffffffffffffffffffffffffffffffffffff021916908373ffffffffffffffffffffffffffffffffffffffff1602179055508173ffffffffffffffffffffffffffffffffffffffff168173ffffffffffffffffffffffffffffffffffffffff167f8be0079c531659141344cd1fd0a4f28419497f9722a3daafe3b4186f6b6457e060405160405180910390a35050565b6000604051905090565b600080fd5b600080fd5b600073ffffffffffffffffffffffffffffffffffffffff82169050919050565b6000620002a7826200027a565b9050919050565b620002b9816200029a565b8114620002c557600080fd5b50565b600081519050620002d981620002ae565b92915050565b600080fd5b600080fd5b6000601f19601f8301169050919050565b7f4e487b7100000000000000000000000000000000000000000000000000000000600052604160045260246000fd5b6200033482620002e9565b810181811067ffffffffffffffff82111715620003565762000355620002fa565b5b80604052505050565b60006200036b62000266565b905062000379828262000329565b919050565b600067ffffffffffffffff8211156200039c576200039b620002fa565b5b620003a782620002e9565b9050602081019050919050565b60005b83811015620003d4578082015181840152602081019050620003b7565b60008484015250505050565b6000620003f7620003f1846200037e565b6200035f565b905082815260208101848484011115620004165762000415620002e4565b5b62000423848285620003b4565b509392505050565b600082601f830112620004435762000442620002df565b5b815162000455848260208601620003e0565b91505092915050565b6000806000606084860312156200047a576200047962000270565b5b60006200048a86828701620002c8565b93505060206200049d86828701620002c8565b925050604084015167ffffffffffffffff811115620004c157620004c062000275565b5b620004cf868287016200042b565b9150509250925092565b600081519050919050565b7f4e487b7100000000000000000000000000000000000000000000000000000000600052602260045260246000fd5b600060028204905060018216806200052c57607f821691505b602082108103620005425762000541620004e4565b5b50919050565b60008190508160005260206000209050919050565b60006020601f8301049050919050565b600082821b905092915050565b600060088302620005ac7fffffffffffffffffffffffffffffffffffffffffffffffffffffffffffffffff826200056d565b620005b886836200056d565b95508019841693508086168417925050509392505050565b6000819050919050565b6000819050919050565b600062000605620005ff620005f984620005d0565b620005da565b620005d0565b9050919050565b6000819050919050565b6200062183620005e4565b6200063962000630826200060c565b8484546200057a565b825550505050565b600090565b6200065062000641565b6200065d81848462000616565b505050565b5b8181101562000685576200067960008262000646565b60018101905062000663565b5050565b601f821115620006d4576200069e8162000548565b620006a9846200055d565b81016020851015620006b9578190505b620006d1620006c8856200055d565b83018262000662565b50505b505050565b600082821c905092915050565b6000620006f960001984600802620006d9565b1980831691505092915050565b6000620007148383620006e6565b9150826002028217905092915050565b6200072f82620004d9565b67ffffffffffffffff8111156200074b576200074a620002fa565b5b62000757825462000513565b6200076482828562000689565b600060209050601f8311600181146200079c576000841562000787578287015190505b62000793858262000706565b86555062000803565b601f198416620007ac8662000548565b60005b82811015620007d657848901518255600182019150602085019450602081019050620007af565b86831015620007f65784890151620007f2601f891682620006e6565b8355505b6001600288020188555050505b505050505050565b6151c4806200081b6000396000f3fe608060405234801561001057600080fd5b506004361061025e5760003560e01c8063876ffe1e11610146578063b88d4fde116100c3578063eecf09d311610087578063eecf09d314610796578063f2fde38b146107c6578063f458e27c146107e2578063f71e388914610812578063fc2a9ea61461082e578063fe33720d1461084a5761025e565b8063b88d4fde146106ba578063c4e89c07146106d6578063c87b56dd14610706578063e4b353e914610736578063e985e9c5146107665761025e565b8063a0bcfc7f1161010a578063a0bcfc7f14610618578063a22cb46514610634578063a510123f14610650578063ab2c1b651461066e578063aed804251461068a5761025e565b8063876ffe1e146105715780638da5cb5b1461058f57806395d89b41146105ad5780639cab0d66146105cb5780639e056ce9146105fc5761025e565b806342842e0e116101df57806365483b8a116101a357806365483b8a1461049957806368f3f6dc146104cd57806369e9cae1146104eb57806370a0823114610507578063715018a61461053757806382036850146105415761025e565b806342842e0e146103e55780634889a404146104015780634f6ccce71461041d57806355f804b31461044d5780636352211e146104695761025e565b806318160ddd1161022657806318160ddd1461031b57806323b872dd146103395780632d8a746e146103555780632f745c59146103855780633ae13fd0146103b55761025e565b806301ffc9a71461026357806306fdde0314610293578063081812fc146102b1578063095ea7b3146102e15780630cac36b2146102fd575b600080fd5b61027d600480360381019061027891906134b8565b61087a565b60405161028a9190613500565b60405180910390f35b61029b61088c565b6040516102a891906135ab565b60405180910390f35b6102cb60048036038101906102c69190613603565b61091e565b6040516102d89190613671565b60405180910390f35b6102fb60048036038101906102f691906136b8565b610964565b005b610305610a7b565b60405161031291906135ab565b60405180910390f35b610323610b0d565b6040516103309190613707565b60405180910390f35b610353600480360381019061034e9190613722565b610b1a565b005b61036f600480360381019061036a9190613603565b610b7a565b60405161037c9190613500565b60405180910390f35b61039f600480360381019061039a91906136b8565b610bba565b6040516103ac9190613707565b60405180910390f35b6103cf60048036038101906103ca91906138aa565b610c5f565b6040516103dc9190613500565b60405180910390f35b6103ff60048036038101906103fa9190613722565b610e01565b005b61041b6004803603810190610416919061392d565b610e21565b005b61043760048036038101906104329190613603565b610f67565b6040516104449190613707565b60405180910390f35b61046760048036038101906104629190613994565b610fd8565b005b610483600480360381019061047e9190613603565b610ff3565b6040516104909190613671565b60405180910390f35b6104b360048036038101906104ae9190613603565b611079565b6040516104c49594939291906139dd565b60405180910390f35b6104d5611137565b6040516104e29190613671565b60405180910390f35b61050560048036038101906105009190613722565b611161565b005b610521600480360381019061051c9190613a37565b61122f565b60405161052e9190613707565b60405180910390f35b61053f6112e6565b005b61055b60048036038101906105569190613603565b6112fa565b6040516105689190613500565b60405180910390f35b61057961130c565b6040516105869190613671565b60405180910390f35b610597611336565b6040516105a49190613671565b60405180910390f35b6105b5611360565b6040516105c291906135ab565b60405180910390f35b6105e560048036038101906105e09190613a64565b6113f2565b6040516105f3929190613aa4565b60405180910390f35b61061660048036038101906106119190613a37565b611423565b005b610632600480360381019061062d9190613994565b61146f565b005b61064e60048036038101906106499190613af9565b61148a565b005b6106586114a0565b6040516106659190613671565b60405180910390f35b61068860048036038101906106839190613a37565b6114ca565b005b6106a4600480360381019061069f9190613a64565b611516565b6040516106b19190613b77565b60405180910390f35b6106d460048036038101906106cf9190613c33565b611569565b005b6106f060048036038101906106eb9190613cb6565b6115cb565b6040516106fd9190613707565b60405180910390f35b610720600480360381019061071b9190613603565b611609565b60405161072d91906135ab565b60405180910390f35b610750600480360381019061074b9190613a64565b61161b565b60405161075d9190613db8565b60405180910390f35b610780600480360381019061077b9190613dda565b611698565b60405161078d9190613500565b60405180910390f35b6107b060048036038101906107ab9190613a64565b61172c565b6040516107bd9190613707565b60405180910390f35b6107e060048036038101906107db9190613a37565b61183a565b005b6107fc60048036038101906107f79190613603565b6118bd565b6040516108099190613500565b60405180910390f35b61082c60048036038101906108279190613ee2565b611a42565b005b61084860048036038101906108439190613a37565b611a88565b005b610864600480360381019061085f9190613603565b611ad4565b6040516108719190614011565b60405180910390f35b600061088582611bbb565b9050919050565b60606000805461089b90614062565b80601f01602080910402602001604051908101604052809291908181526020018280546108c790614062565b80156109145780601f106108e957610100808354040283529160200191610914565b820191906000526020600020905b8154815290600101906020018083116108f757829003601f168201915b5050505050905090565b600061092982611c1c565b6004600083815260200190815260200160002060009054906101000a900473ffffffffffffffffffffffffffffffffffffffff169050919050565b600061096f82610ff3565b90508073ffffffffffffffffffffffffffffffffffffffff168373ffffffffffffffffffffffffffffffffffffffff16036109df576040517f08c379a00000000000000000000000000000000000000000000000000000000081526004016109d690614105565b60405180910390fd5b8073ffffffffffffffffffffffffffffffffffffffff166109fe611c67565b73ffffffffffffffffffffffffffffffffffffffff161480610a2d5750610a2c81610a27611c67565b611698565b5b610a6c576040517f08c379a0000000000000000000000000000000000000000000000000000000008152600401610a6390614197565b60405180910390fd5b610a768383611c6f565b505050565b6060600f8054610a8a90614062565b80601f0160208091040260200160405190810160405280929190818152602001828054610ab690614062565b8015610b035780601f10610ad857610100808354040283529160200191610b03565b820191906000526020600020905b815481529060010190602001808311610ae657829003601f168201915b5050505050905090565b6000600880549050905090565b610b2b610b25611c67565b82611d28565b610b6a576040517f08c379a0000000000000000000000000000000000000000000000000000000008152600401610b6190614229565b60405180910390fd5b610b75838383611dbd565b505050565b60003373ffffffffffffffffffffffffffffffffffffffff16610b9c83610ff3565b73ffffffffffffffffffffffffffffffffffffffff16149050919050565b6000610bc58361122f565b8210610c06576040517f08c379a0000000000000000000000000000000000000000000000000000000008152600401610bfd906142bb565b60405180910390fd5b600660008473ffffffffffffffffffffffffffffffffffffffff1673ffffffffffffffffffffffffffffffffffffffff168152602001908152602001600020600083815260200190815260200160002054905092915050565b6000610c6961130c565b73ffffffffffffffffffffffffffffffffffffffff163373ffffffffffffffffffffffffffffffffffffffff1614610cd6576040517f08c379a0000000000000000000000000000000000000000000000000000000008152600401610ccd90614327565b60405180910390fd5b6000610ce28587611516565b6000015111610d26576040517f08c379a0000000000000000000000000000000000000000000000000000000008152600401610d1d906143b9565b60405180910390fd5b600060136000815480929190610d3b90614408565b91905055905082601060008381526020019081526020016000206000019081610d6491906145fc565b5080601060008381526020019081526020016000206001018190555060006010600083815260200190815260200160002060020181905550856010600083815260200190815260200160002060030181905550610dc184826120b6565b610df48184610dcf846120d4565b604051602001610de092919061470a565b6040516020818303038152906040526121a2565b6001915050949350505050565b610e1c83838360405180602001604052806000815250611569565b505050565b610e29611336565b73ffffffffffffffffffffffffffffffffffffffff163373ffffffffffffffffffffffffffffffffffffffff161480610e8d57503073ffffffffffffffffffffffffffffffffffffffff163373ffffffffffffffffffffffffffffffffffffffff16145b80610eca5750610e9b61130c565b73ffffffffffffffffffffffffffffffffffffffff163373ffffffffffffffffffffffffffffffffffffffff16145b610f09576040517f08c379a0000000000000000000000000000000000000000000000000000000008152600401610f009061477a565b60405180910390fd5b8160116000868152602001908152602001600020600085815260200190815260200160002060000181905550806011600086815260200190815260200160002060008581526020019081526020016000206001018190555050505050565b6000610f71610b0d565b8210610fb2576040517f08c379a0000000000000000000000000000000000000000000000000000000008152600401610fa99061480c565b60405180910390fd5b60088281548110610fc657610fc561482c565b5b90600052602060002001549050919050565b610fe0612246565b80600f9081610fef91906145fc565b5050565b600080610fff836122c4565b9050600073ffffffffffffffffffffffffffffffffffffffff168173ffffffffffffffffffffffffffffffffffffffff1603611070576040517f08c379a0000000000000000000000000000000000000000000000000000000008152600401611067906148a7565b60405180910390fd5b80915050919050565b601060205280600052604060002060009150905080600001805461109c90614062565b80601f01602080910402602001604051908101604052809291908181526020018280546110c890614062565b80156111155780601f106110ea57610100808354040283529160200191611115565b820191906000526020600020905b8154815290600101906020018083116110f857829003601f168201915b5050505050908060010154908060020154908060030154908060040154905085565b6000600e60009054906101000a900473ffffffffffffffffffffffffffffffffffffffff16905090565b61116a81612301565b6111a9576040517f08c379a00000000000000000000000000000000000000000000000000000000081526004016111a090614913565b60405180910390fd5b3373ffffffffffffffffffffffffffffffffffffffff166111c982610ff3565b73ffffffffffffffffffffffffffffffffffffffff161461121f576040517f08c379a0000000000000000000000000000000000000000000000000000000008152600401611216906149a5565b60405180910390fd5b61122a838383610e01565b505050565b60008073ffffffffffffffffffffffffffffffffffffffff168273ffffffffffffffffffffffffffffffffffffffff160361129f576040517f08c379a000000000000000000000000000000000000000000000000000000000815260040161129690614a37565b60405180910390fd5b600360008373ffffffffffffffffffffffffffffffffffffffff1673ffffffffffffffffffffffffffffffffffffffff168152602001908152602001600020549050919050565b6112ee612246565b6112f86000612342565b565b600061130582612301565b9050919050565b6000600c60009054906101000a900473ffffffffffffffffffffffffffffffffffffffff16905090565b6000600b60009054906101000a900473ffffffffffffffffffffffffffffffffffffffff16905090565b60606001805461136f90614062565b80601f016020809104026020016040519081016040528092919081815260200182805461139b90614062565b80156113e85780601f106113bd576101008083540402835291602001916113e8565b820191906000526020600020905b8154815290600101906020018083116113cb57829003601f168201915b5050505050905090565b6011602052816000526040600020602052806000526040600020600091509150508060000154908060010154905082565b61142b612246565b80600e60006101000a81548173ffffffffffffffffffffffffffffffffffffffff021916908373ffffffffffffffffffffffffffffffffffffffff16021790555050565b611477612246565b80600f908161148691906145fc565b5050565b61149c611495611c67565b8383612408565b5050565b6000600d60009054906101000a900473ffffffffffffffffffffffffffffffffffffffff16905090565b6114d2612246565b80600d60006101000a81548173ffffffffffffffffffffffffffffffffffffffff021916908373ffffffffffffffffffffffffffffffffffffffff16021790555050565b61151e613399565b60116000848152602001908152602001600020600083815260200190815260200160002060405180604001604052908160008201548152602001600182015481525050905092915050565b61157a611574611c67565b83611d28565b6115b9576040517f08c379a00000000000000000000000000000000000000000000000000000000081526004016115b090614229565b60405180910390fd5b6115c584848484612574565b50505050565b601260205282600052604060002060205281600052604060002081815481106115f357600080fd5b9060005260206000200160009250925050505481565b6060611614826125d0565b9050919050565b606060126000848152602001908152602001600020600083815260200190815260200160002080548060200260200160405190810160405280929190818152602001828054801561168b57602002820191906000526020600020905b815481526020019060010190808311611677575b5050505050905092915050565b6000600560008473ffffffffffffffffffffffffffffffffffffffff1673ffffffffffffffffffffffffffffffffffffffff16815260200190815260200160002060008373ffffffffffffffffffffffffffffffffffffffff1673ffffffffffffffffffffffffffffffffffffffff16815260200190815260200160002060009054906101000a900460ff16905092915050565b600080611739848461161b565b905060005b8151810361174b57600090505b60008282815181106117605761175f61482c565b5b60200260200101511415801561181257506117796114a0565b73ffffffffffffffffffffffffffffffffffffffff1663726ff2ef8383815181106117a7576117a661482c565b5b602002602001015160646040518363ffffffff1660e01b81526004016117ce929190614a92565b6020604051808303816000875af11580156117ed573d6000803e3d6000fd5b505050506040513d601f19601f820116820180604052508101906118119190614ad0565b5b1561181f57809250611832565b808061182a90614408565b91505061173e565b505092915050565b611842612246565b600073ffffffffffffffffffffffffffffffffffffffff168173ffffffffffffffffffffffffffffffffffffffff16036118b1576040517f08c379a00000000000000000000000000000000000000000000000000000000081526004016118a890614b6f565b60405180910390fd5b6118ba81612342565b50565b60006118c761130c565b73ffffffffffffffffffffffffffffffffffffffff163373ffffffffffffffffffffffffffffffffffffffff1614611934576040517f08c379a000000000000000000000000000000000000000000000000000000000815260040161192b90614327565b60405180910390fd5b60019050600060116000848152602001908152602001600020600080815260200190815260200160002060000154118015611997575060006011600084815260200190815260200160002060006001815260200190815260200160002060000154115b80156119cb575060006011600084815260200190815260200160002060006002815260200190815260200160002060000154115b80156119ff575060006011600084815260200190815260200160002060006003815260200190815260200160002060000154115b8015611a33575060006011600084815260200190815260200160002060006004815260200190815260200160002060000154115b15611a3d57600090505b919050565b611a4a612246565b806012600085815260200190815260200160002060008481526020019081526020016000209080519060200190611a829291906133b3565b50505050565b611a90612246565b80600c60006101000a81548173ffffffffffffffffffffffffffffffffffffffff021916908373ffffffffffffffffffffffffffffffffffffffff16021790555050565b611adc613400565b601060008381526020019081526020016000206040518060a0016040529081600082018054611b0a90614062565b80601f0160208091040260200160405190810160405280929190818152602001828054611b3690614062565b8015611b835780601f10611b5857610100808354040283529160200191611b83565b820191906000526020600020905b815481529060010190602001808311611b6657829003601f168201915b505050505081526020016001820154815260200160028201548152602001600382015481526020016004820154815250509050919050565b6000634906490660e01b7bffffffffffffffffffffffffffffffffffffffffffffffffffffffff1916827bffffffffffffffffffffffffffffffffffffffffffffffffffffffff19161480611c155750611c14826126e2565b5b9050919050565b611c2581612301565b611c64576040517f08c379a0000000000000000000000000000000000000000000000000000000008152600401611c5b906148a7565b60405180910390fd5b50565b600033905090565b816004600083815260200190815260200160002060006101000a81548173ffffffffffffffffffffffffffffffffffffffff021916908373ffffffffffffffffffffffffffffffffffffffff160217905550808273ffffffffffffffffffffffffffffffffffffffff16611ce283610ff3565b73ffffffffffffffffffffffffffffffffffffffff167f8c5be1e5ebec7d5bd14f71427d1e84f3dd0314c0f7b2291e5b200ac8c7c3b92560405160405180910390a45050565b600080611d3483610ff3565b90508073ffffffffffffffffffffffffffffffffffffffff168473ffffffffffffffffffffffffffffffffffffffff161480611d765750611d758185611698565b5b80611db457508373ffffffffffffffffffffffffffffffffffffffff16611d9c8461091e565b73ffffffffffffffffffffffffffffffffffffffff16145b91505092915050565b8273ffffffffffffffffffffffffffffffffffffffff16611ddd82610ff3565b73ffffffffffffffffffffffffffffffffffffffff1614611e33576040517f08c379a0000000000000000000000000000000000000000000000000000000008152600401611e2a90614c01565b60405180910390fd5b600073ffffffffffffffffffffffffffffffffffffffff168273ffffffffffffffffffffffffffffffffffffffff1603611ea2576040517f08c379a0000000000000000000000000000000000000000000000000000000008152600401611e9990614c93565b60405180910390fd5b611eaf838383600161275c565b8273ffffffffffffffffffffffffffffffffffffffff16611ecf82610ff3565b73ffffffffffffffffffffffffffffffffffffffff1614611f25576040517f08c379a0000000000000000000000000000000000000000000000000000000008152600401611f1c90614c01565b60405180910390fd5b6004600082815260200190815260200160002060006101000a81549073ffffffffffffffffffffffffffffffffffffffff02191690556001600360008573ffffffffffffffffffffffffffffffffffffffff1673ffffffffffffffffffffffffffffffffffffffff168152602001908152602001600020600082825403925050819055506001600360008473ffffffffffffffffffffffffffffffffffffffff1673ffffffffffffffffffffffffffffffffffffffff16815260200190815260200160002060008282540192505081905550816002600083815260200190815260200160002060006101000a81548173ffffffffffffffffffffffffffffffffffffffff021916908373ffffffffffffffffffffffffffffffffffffffff160217905550808273ffffffffffffffffffffffffffffffffffffffff168473ffffffffffffffffffffffffffffffffffffffff167fddf252ad1be2c89b69c2b068fc378daa952ba7f163c4a11628f55a4df523b3ef60405160405180910390a46120b1838383600161276e565b505050565b6120d0828260405180602001604052806000815250612774565b5050565b6060600060016120e3846127cf565b01905060008167ffffffffffffffff8111156121025761210161377f565b5b6040519080825280601f01601f1916602001820160405280156121345781602001600182028036833780820191505090505b509050600082602001820190505b600115612197578080600190039150507f3031323334353637383961626364656600000000000000000000000000000000600a86061a8153600a858161218b5761218a614cb3565b5b04945060008503612142575b819350505050919050565b6121ab82612301565b6121ea576040517f08c379a00000000000000000000000000000000000000000000000000000000081526004016121e190614d54565b60405180910390fd5b80600a6000848152602001908152602001600020908161220a91906145fc565b507ff8e1a15aba9398e019f0b49df1a4fde98ee17ae345cb5f6b5e2c27f5033e8ce78260405161223a9190613707565b60405180910390a15050565b61224e611c67565b73ffffffffffffffffffffffffffffffffffffffff1661226c611336565b73ffffffffffffffffffffffffffffffffffffffff16146122c2576040517f08c379a00000000000000000000000000000000000000000000000000000000081526004016122b990614dc0565b60405180910390fd5b565b60006002600083815260200190815260200160002060009054906101000a900473ffffffffffffffffffffffffffffffffffffffff169050919050565b60008073ffffffffffffffffffffffffffffffffffffffff16612323836122c4565b73ffffffffffffffffffffffffffffffffffffffff1614159050919050565b6000600b60009054906101000a900473ffffffffffffffffffffffffffffffffffffffff16905081600b60006101000a81548173ffffffffffffffffffffffffffffffffffffffff021916908373ffffffffffffffffffffffffffffffffffffffff1602179055508173ffffffffffffffffffffffffffffffffffffffff168173ffffffffffffffffffffffffffffffffffffffff167f8be0079c531659141344cd1fd0a4f28419497f9722a3daafe3b4186f6b6457e060405160405180910390a35050565b8173ffffffffffffffffffffffffffffffffffffffff168373ffffffffffffffffffffffffffffffffffffffff1603612476576040517f08c379a000000000000000000000000000000000000000000000000000000000815260040161246d90614e2c565b60405180910390fd5b80600560008573ffffffffffffffffffffffffffffffffffffffff1673ffffffffffffffffffffffffffffffffffffffff16815260200190815260200160002060008473ffffffffffffffffffffffffffffffffffffffff1673ffffffffffffffffffffffffffffffffffffffff16815260200190815260200160002060006101000a81548160ff0219169083151502179055508173ffffffffffffffffffffffffffffffffffffffff168373ffffffffffffffffffffffffffffffffffffffff167f17307eab39ab6107e8899845ad3d59bd9653f200f220920489ca2b5937696c31836040516125679190613500565b60405180910390a3505050565b61257f848484611dbd565b61258b84848484612922565b6125ca576040517f08c379a00000000000000000000000000000000000000000000000000000000081526004016125c190614ebe565b60405180910390fd5b50505050565b60606125db82611c1c565b6000600a600084815260200190815260200160002080546125fb90614062565b80601f016020809104026020016040519081016040528092919081815260200182805461262790614062565b80156126745780601f1061264957610100808354040283529160200191612674565b820191906000526020600020905b81548152906001019060200180831161265757829003601f168201915b505050505090506000612685612aa9565b9050600081510361269a5781925050506126dd565b6000825111156126cf5780826040516020016126b792919061470a565b604051602081830303815290604052925050506126dd565b6126d884612b3b565b925050505b919050565b60007f780e9d63000000000000000000000000000000000000000000000000000000007bffffffffffffffffffffffffffffffffffffffffffffffffffffffff1916827bffffffffffffffffffffffffffffffffffffffffffffffffffffffff19161480612755575061275482612ba3565b5b9050919050565b61276884848484612c85565b50505050565b50505050565b61277e8383612de3565b61278b6000848484612922565b6127ca576040517f08c379a00000000000000000000000000000000000000000000000000000000081526004016127c190614ebe565b60405180910390fd5b505050565b600080600090507a184f03e93ff9f4daa797ed6e38ed64bf6a1f010000000000000000831061282d577a184f03e93ff9f4daa797ed6e38ed64bf6a1f010000000000000000838161282357612822614cb3565b5b0492506040810190505b6d04ee2d6d415b85acef8100000000831061286a576d04ee2d6d415b85acef810000000083816128605761285f614cb3565b5b0492506020810190505b662386f26fc10000831061289957662386f26fc10000838161288f5761288e614cb3565b5b0492506010810190505b6305f5e10083106128c2576305f5e10083816128b8576128b7614cb3565b5b0492506008810190505b61271083106128e75761271083816128dd576128dc614cb3565b5b0492506004810190505b6064831061290a5760648381612900576128ff614cb3565b5b0492506002810190505b600a8310612919576001810190505b80915050919050565b60006129438473ffffffffffffffffffffffffffffffffffffffff16613000565b15612a9c578373ffffffffffffffffffffffffffffffffffffffff1663150b7a0261296c611c67565b8786866040518563ffffffff1660e01b815260040161298e9493929190614f33565b6020604051808303816000875af19250505080156129ca57506040513d601f19601f820116820180604052508101906129c79190614f94565b60015b612a4c573d80600081146129fa576040519150601f19603f3d011682016040523d82523d6000602084013e6129ff565b606091505b506000815103612a44576040517f08c379a0000000000000000000000000000000000000000000000000000000008152600401612a3b90614ebe565b60405180910390fd5b805181602001fd5b63150b7a0260e01b7bffffffffffffffffffffffffffffffffffffffffffffffffffffffff1916817bffffffffffffffffffffffffffffffffffffffffffffffffffffffff191614915050612aa1565b600190505b949350505050565b6060600f8054612ab890614062565b80601f0160208091040260200160405190810160405280929190818152602001828054612ae490614062565b8015612b315780601f10612b0657610100808354040283529160200191612b31565b820191906000526020600020905b815481529060010190602001808311612b1457829003601f168201915b5050505050905090565b6060612b4682611c1c565b6000612b50612aa9565b90506000815111612b705760405180602001604052806000815250612b9b565b80612b7a846120d4565b604051602001612b8b92919061470a565b6040516020818303038152906040525b915050919050565b60007f80ac58cd000000000000000000000000000000000000000000000000000000007bffffffffffffffffffffffffffffffffffffffffffffffffffffffff1916827bffffffffffffffffffffffffffffffffffffffffffffffffffffffff19161480612c6e57507f5b5e139f000000000000000000000000000000000000000000000000000000007bffffffffffffffffffffffffffffffffffffffffffffffffffffffff1916827bffffffffffffffffffffffffffffffffffffffffffffffffffffffff1916145b80612c7e5750612c7d82613023565b5b9050919050565b612c918484848461308d565b6001811115612cd5576040517f08c379a0000000000000000000000000000000000000000000000000000000008152600401612ccc90615033565b60405180910390fd5b6000829050600073ffffffffffffffffffffffffffffffffffffffff168573ffffffffffffffffffffffffffffffffffffffff1603612d1c57612d1781613093565b612d5b565b8373ffffffffffffffffffffffffffffffffffffffff168573ffffffffffffffffffffffffffffffffffffffff1614612d5a57612d5985826130dc565b5b5b600073ffffffffffffffffffffffffffffffffffffffff168473ffffffffffffffffffffffffffffffffffffffff1603612d9d57612d9881613249565b612ddc565b8473ffffffffffffffffffffffffffffffffffffffff168473ffffffffffffffffffffffffffffffffffffffff1614612ddb57612dda848261331a565b5b5b5050505050565b600073ffffffffffffffffffffffffffffffffffffffff168273ffffffffffffffffffffffffffffffffffffffff1603612e52576040517f08c379a0000000000000000000000000000000000000000000000000000000008152600401612e499061509f565b60405180910390fd5b612e5b81612301565b15612e9b576040517f08c379a0000000000000000000000000000000000000000000000000000000008152600401612e929061510b565b60405180910390fd5b612ea960008383600161275c565b612eb281612301565b15612ef2576040517f08c379a0000000000000000000000000000000000000000000000000000000008152600401612ee99061510b565b60405180910390fd5b6001600360008473ffffffffffffffffffffffffffffffffffffffff1673ffffffffffffffffffffffffffffffffffffffff16815260200190815260200160002060008282540192505081905550816002600083815260200190815260200160002060006101000a81548173ffffffffffffffffffffffffffffffffffffffff021916908373ffffffffffffffffffffffffffffffffffffffff160217905550808273ffffffffffffffffffffffffffffffffffffffff16600073ffffffffffffffffffffffffffffffffffffffff167fddf252ad1be2c89b69c2b068fc378daa952ba7f163c4a11628f55a4df523b3ef60405160405180910390a4612ffc60008383600161276e565b5050565b6000808273ffffffffffffffffffffffffffffffffffffffff163b119050919050565b60007f01ffc9a7000000000000000000000000000000000000000000000000000000007bffffffffffffffffffffffffffffffffffffffffffffffffffffffff1916827bffffffffffffffffffffffffffffffffffffffffffffffffffffffff1916149050919050565b50505050565b6008805490506009600083815260200190815260200160002081905550600881908060018154018082558091505060019003906000526020600020016000909190919091505550565b600060016130e98461122f565b6130f3919061512b565b90506000600760008481526020019081526020016000205490508181146131d8576000600660008673ffffffffffffffffffffffffffffffffffffffff1673ffffffffffffffffffffffffffffffffffffffff168152602001908152602001600020600084815260200190815260200160002054905080600660008773ffffffffffffffffffffffffffffffffffffffff1673ffffffffffffffffffffffffffffffffffffffff168152602001908152602001600020600084815260200190815260200160002081905550816007600083815260200190815260200160002081905550505b6007600084815260200190815260200160002060009055600660008573ffffffffffffffffffffffffffffffffffffffff1673ffffffffffffffffffffffffffffffffffffffff16815260200190815260200160002060008381526020019081526020016000206000905550505050565b6000600160088054905061325d919061512b565b905060006009600084815260200190815260200160002054905060006008838154811061328d5761328c61482c565b5b9060005260206000200154905080600883815481106132af576132ae61482c565b5b9060005260206000200181905550816009600083815260200190815260200160002081905550600960008581526020019081526020016000206000905560088054806132fe576132fd61515f565b5b6001900381819060005260206000200160009055905550505050565b60006133258361122f565b905081600660008573ffffffffffffffffffffffffffffffffffffffff1673ffffffffffffffffffffffffffffffffffffffff168152602001908152602001600020600083815260200190815260200160002081905550806007600084815260200190815260200160002081905550505050565b604051806040016040528060008152602001600081525090565b8280548282559060005260206000209081019282156133ef579160200282015b828111156133ee5782518255916020019190600101906133d3565b5b5090506133fc919061342f565b5090565b6040518060a0016040528060608152602001600081526020016000815260200160008152602001600081525090565b5b80821115613448576000816000905550600101613430565b5090565b6000604051905090565b600080fd5b600080fd5b60007fffffffff0000000000000000000000000000000000000000000000000000000082169050919050565b61349581613460565b81146134a057600080fd5b50565b6000813590506134b28161348c565b92915050565b6000602082840312156134ce576134cd613456565b5b60006134dc848285016134a3565b91505092915050565b60008115159050919050565b6134fa816134e5565b82525050565b600060208201905061351560008301846134f1565b92915050565b600081519050919050565b600082825260208201905092915050565b60005b8381101561355557808201518184015260208101905061353a565b60008484015250505050565b6000601f19601f8301169050919050565b600061357d8261351b565b6135878185613526565b9350613597818560208601613537565b6135a081613561565b840191505092915050565b600060208201905081810360008301526135c58184613572565b905092915050565b6000819050919050565b6135e0816135cd565b81146135eb57600080fd5b50565b6000813590506135fd816135d7565b92915050565b60006020828403121561361957613618613456565b5b6000613627848285016135ee565b91505092915050565b600073ffffffffffffffffffffffffffffffffffffffff82169050919050565b600061365b82613630565b9050919050565b61366b81613650565b82525050565b60006020820190506136866000830184613662565b92915050565b61369581613650565b81146136a057600080fd5b50565b6000813590506136b28161368c565b92915050565b600080604083850312156136cf576136ce613456565b5b60006136dd858286016136a3565b92505060206136ee858286016135ee565b9150509250929050565b613701816135cd565b82525050565b600060208201905061371c60008301846136f8565b92915050565b60008060006060848603121561373b5761373a613456565b5b6000613749868287016136a3565b935050602061375a868287016136a3565b925050604061376b868287016135ee565b9150509250925092565b600080fd5b600080fd5b7f4e487b7100000000000000000000000000000000000000000000000000000000600052604160045260246000fd5b6137b782613561565b810181811067ffffffffffffffff821117156137d6576137d561377f565b5b80604052505050565b60006137e961344c565b90506137f582826137ae565b919050565b600067ffffffffffffffff8211156138155761381461377f565b5b61381e82613561565b9050602081019050919050565b82818337600083830152505050565b600061384d613848846137fa565b6137df565b9050828152602081018484840111156138695761386861377a565b5b61387484828561382b565b509392505050565b600082601f83011261389157613890613775565b5b81356138a184826020860161383a565b91505092915050565b600080600080608085870312156138c4576138c3613456565b5b60006138d2878288016135ee565b94505060206138e3878288016135ee565b93505060406138f4878288016136a3565b925050606085013567ffffffffffffffff8111156139155761391461345b565b5b6139218782880161387c565b91505092959194509250565b6000806000806080858703121561394757613946613456565b5b6000613955878288016135ee565b9450506020613966878288016135ee565b9350506040613977878288016135ee565b9250506060613988878288016135ee565b91505092959194509250565b6000602082840312156139aa576139a9613456565b5b600082013567ffffffffffffffff8111156139c8576139c761345b565b5b6139d48482850161387c565b91505092915050565b600060a08201905081810360008301526139f78188613572565b9050613a0660208301876136f8565b613a1360408301866136f8565b613a2060608301856136f8565b613a2d60808301846136f8565b9695505050505050565b600060208284031215613a4d57613a4c613456565b5b6000613a5b848285016136a3565b91505092915050565b60008060408385031215613a7b57613a7a613456565b5b6000613a89858286016135ee565b9250506020613a9a858286016135ee565b9150509250929050565b6000604082019050613ab960008301856136f8565b613ac660208301846136f8565b9392505050565b613ad6816134e5565b8114613ae157600080fd5b50565b600081359050613af381613acd565b92915050565b60008060408385031215613b1057613b0f613456565b5b6000613b1e858286016136a3565b9250506020613b2f85828601613ae4565b9150509250929050565b613b42816135cd565b82525050565b604082016000820151613b5e6000850182613b39565b506020820151613b716020850182613b39565b50505050565b6000604082019050613b8c6000830184613b48565b92915050565b600067ffffffffffffffff821115613bad57613bac61377f565b5b613bb682613561565b9050602081019050919050565b6000613bd6613bd184613b92565b6137df565b905082815260208101848484011115613bf257613bf161377a565b5b613bfd84828561382b565b509392505050565b600082601f830112613c1a57613c19613775565b5b8135613c2a848260208601613bc3565b91505092915050565b60008060008060808587031215613c4d57613c4c613456565b5b6000613c5b878288016136a3565b9450506020613c6c878288016136a3565b9350506040613c7d878288016135ee565b925050606085013567ffffffffffffffff811115613c9e57613c9d61345b565b5b613caa87828801613c05565b91505092959194509250565b600080600060608486031215613ccf57613cce613456565b5b6000613cdd868287016135ee565b9350506020613cee868287016135ee565b9250506040613cff868287016135ee565b9150509250925092565b600081519050919050565b600082825260208201905092915050565b6000819050602082019050919050565b6000613d418383613b39565b60208301905092915050565b6000602082019050919050565b6000613d6582613d09565b613d6f8185613d14565b9350613d7a83613d25565b8060005b83811015613dab578151613d928882613d35565b9750613d9d83613d4d565b925050600181019050613d7e565b5085935050505092915050565b60006020820190508181036000830152613dd28184613d5a565b905092915050565b60008060408385031215613df157613df0613456565b5b6000613dff858286016136a3565b9250506020613e10858286016136a3565b9150509250929050565b600067ffffffffffffffff821115613e3557613e3461377f565b5b602082029050602081019050919050565b600080fd5b6000613e5e613e5984613e1a565b6137df565b90508083825260208201905060208402830185811115613e8157613e80613e46565b5b835b81811015613eaa5780613e9688826135ee565b845260208401935050602081019050613e83565b5050509392505050565b600082601f830112613ec957613ec8613775565b5b8135613ed9848260208601613e4b565b91505092915050565b600080600060608486031215613efb57613efa613456565b5b6000613f09868287016135ee565b9350506020613f1a868287016135ee565b925050604084013567ffffffffffffffff811115613f3b57613f3a61345b565b5b613f4786828701613eb4565b9150509250925092565b600082825260208201905092915050565b6000613f6d8261351b565b613f778185613f51565b9350613f87818560208601613537565b613f9081613561565b840191505092915050565b600060a0830160008301518482036000860152613fb88282613f62565b9150506020830151613fcd6020860182613b39565b506040830151613fe06040860182613b39565b506060830151613ff36060860182613b39565b5060808301516140066080860182613b39565b508091505092915050565b6000602082019050818103600083015261402b8184613f9b565b905092915050565b7f4e487b7100000000000000000000000000000000000000000000000000000000600052602260045260246000fd5b6000600282049050600182168061407a57607f821691505b60208210810361408d5761408c614033565b5b50919050565b7f4552433732313a20617070726f76616c20746f2063757272656e74206f776e6560008201527f7200000000000000000000000000000000000000000000000000000000000000602082015250565b60006140ef602183613526565b91506140fa82614093565b604082019050919050565b6000602082019050818103600083015261411e816140e2565b9050919050565b7f4552433732313a20617070726f76652063616c6c6572206973206e6f7420746f60008201527f6b656e206f776e6572206f7220617070726f76656420666f7220616c6c000000602082015250565b6000614181603d83613526565b915061418c82614125565b604082019050919050565b600060208201905081810360008301526141b081614174565b9050919050565b7f4552433732313a2063616c6c6572206973206e6f7420746f6b656e206f776e6560008201527f72206f7220617070726f76656400000000000000000000000000000000000000602082015250565b6000614213602d83613526565b915061421e826141b7565b604082019050919050565b6000602082019050818103600083015261424281614206565b9050919050565b7f455243373231456e756d657261626c653a206f776e657220696e646578206f7560008201527f74206f6620626f756e6473000000000000000000000000000000000000000000602082015250565b60006142a5602b83613526565b91506142b082614249565b604082019050919050565b600060208201905081810360008301526142d481614298565b9050919050565b7f6d73672e73656e646572206973206e6f7420636f727265637400000000000000600082015250565b6000614311601983613526565b915061431c826142db565b602082019050919050565b6000602082019050818103600083015261434081614304565b9050919050565b7f546865726520617265206e6f206f6e65204e465420696e746f20706f6f6c206660008201527f6f72207468697320726172697479000000000000000000000000000000000000602082015250565b60006143a3602e83613526565b91506143ae82614347565b604082019050919050565b600060208201905081810360008301526143d281614396565b9050919050565b7f4e487b7100000000000000000000000000000000000000000000000000000000600052601160045260246000fd5b6000614413826135cd565b91507fffffffffffffffffffffffffffffffffffffffffffffffffffffffffffffffff8203614445576144446143d9565b5b600182019050919050565b60008190508160005260206000209050919050565b60006020601f8301049050919050565b600082821b905092915050565b6000600883026144b27fffffffffffffffffffffffffffffffffffffffffffffffffffffffffffffffff82614475565b6144bc8683614475565b95508019841693508086168417925050509392505050565b6000819050919050565b60006144f96144f46144ef846135cd565b6144d4565b6135cd565b9050919050565b6000819050919050565b614513836144de565b61452761451f82614500565b848454614482565b825550505050565b600090565b61453c61452f565b61454781848461450a565b505050565b5b8181101561456b57614560600082614534565b60018101905061454d565b5050565b601f8211156145b05761458181614450565b61458a84614465565b81016020851015614599578190505b6145ad6145a585614465565b83018261454c565b50505b505050565b600082821c905092915050565b60006145d3600019846008026145b5565b1980831691505092915050565b60006145ec83836145c2565b9150826002028217905092915050565b6146058261351b565b67ffffffffffffffff81111561461e5761461d61377f565b5b6146288254614062565b61463382828561456f565b600060209050601f8311600181146146665760008415614654578287015190505b61465e85826145e0565b8655506146c6565b601f19841661467486614450565b60005b8281101561469c57848901518255600182019150602085019450602081019050614677565b868310156146b957848901516146b5601f8916826145c2565b8355505b6001600288020188555050505b505050505050565b600081905092915050565b60006146e48261351b565b6146ee81856146ce565b93506146fe818560208601613537565b80840191505092915050565b600061471682856146d9565b915061472282846146d9565b91508190509392505050565b7f596f752063616e206e6f742063616c6c20746869732066756e6374696f6e0000600082015250565b6000614764601e83613526565b915061476f8261472e565b602082019050919050565b6000602082019050818103600083015261479381614757565b9050919050565b7f455243373231456e756d657261626c653a20676c6f62616c20696e646578206f60008201527f7574206f6620626f756e64730000000000000000000000000000000000000000602082015250565b60006147f6602c83613526565b91506148018261479a565b604082019050919050565b60006020820190508181036000830152614825816147e9565b9050919050565b7f4e487b7100000000000000000000000000000000000000000000000000000000600052603260045260246000fd5b7f4552433732313a20696e76616c696420746f6b656e2049440000000000000000600082015250565b6000614891601883613526565b915061489c8261485b565b602082019050919050565b600060208201905081810360008301526148c081614884565b9050919050565b7f546f6b656e20646f6573206e6f74206578697374000000000000000000000000600082015250565b60006148fd601483613526565b9150614908826148c7565b602082019050919050565b6000602082019050818103600083015261492c816148f0565b9050919050565b7f596f7520617265206e6f7420746865206f776e6572206f66207468697320746f60008201527f6b656e0000000000000000000000000000000000000000000000000000000000602082015250565b600061498f602383613526565b915061499a82614933565b604082019050919050565b600060208201905081810360008301526149be81614982565b9050919050565b7f4552433732313a2061646472657373207a65726f206973206e6f74206120766160008201527f6c6964206f776e65720000000000000000000000000000000000000000000000602082015250565b6000614a21602983613526565b9150614a2c826149c5565b604082019050919050565b60006020820190508181036000830152614a5081614a14565b9050919050565b6000819050919050565b6000614a7c614a77614a7284614a57565b6144d4565b6135cd565b9050919050565b614a8c81614a61565b82525050565b6000604082019050614aa760008301856136f8565b614ab46020830184614a83565b9392505050565b600081519050614aca81613acd565b92915050565b600060208284031215614ae657614ae5613456565b5b6000614af484828501614abb565b91505092915050565b7f4f776e61626c653a206e6577206f776e657220697320746865207a65726f206160008201527f6464726573730000000000000000000000000000000000000000000000000000602082015250565b6000614b59602683613526565b9150614b6482614afd565b604082019050919050565b60006020820190508181036000830152614b8881614b4c565b9050919050565b7f4552433732313a207472616e736665722066726f6d20696e636f72726563742060008201527f6f776e6572000000000000000000000000000000000000000000000000000000602082015250565b6000614beb602583613526565b9150614bf682614b8f565b604082019050919050565b60006020820190508181036000830152614c1a81614bde565b9050919050565b7f4552433732313a207472616e7366657220746f20746865207a65726f2061646460008201527f7265737300000000000000000000000000000000000000000000000000000000602082015250565b6000614c7d602483613526565b9150614c8882614c21565b604082019050919050565b60006020820190508181036000830152614cac81614c70565b9050919050565b7f4e487b7100000000000000000000000000000000000000000000000000000000600052601260045260246000fd5b7f45524337323155524953746f726167653a2055524920736574206f66206e6f6e60008201527f6578697374656e7420746f6b656e000000000000000000000000000000000000602082015250565b6000614d3e602e83613526565b9150614d4982614ce2565b604082019050919050565b60006020820190508181036000830152614d6d81614d31565b9050919050565b7f4f776e61626c653a2063616c6c6572206973206e6f7420746865206f776e6572600082015250565b6000614daa602083613526565b9150614db582614d74565b602082019050919050565b60006020820190508181036000830152614dd981614d9d565b9050919050565b7f4552433732313a20617070726f766520746f2063616c6c657200000000000000600082015250565b6000614e16601983613526565b9150614e2182614de0565b602082019050919050565b60006020820190508181036000830152614e4581614e09565b9050919050565b7f4552433732313a207472616e7366657220746f206e6f6e20455243373231526560008201527f63656976657220696d706c656d656e7465720000000000000000000000000000602082015250565b6000614ea8603283613526565b9150614eb382614e4c565b604082019050919050565b60006020820190508181036000830152614ed781614e9b565b9050919050565b600081519050919050565b600082825260208201905092915050565b6000614f0582614ede565b614f0f8185614ee9565b9350614f1f818560208601613537565b614f2881613561565b840191505092915050565b6000608082019050614f486000830187613662565b614f556020830186613662565b614f6260408301856136f8565b8181036060830152614f748184614efa565b905095945050505050565b600081519050614f8e8161348c565b92915050565b600060208284031215614faa57614fa9613456565b5b6000614fb884828501614f7f565b91505092915050565b7f455243373231456e756d657261626c653a20636f6e736563757469766520747260008201527f616e7366657273206e6f7420737570706f727465640000000000000000000000602082015250565b600061501d603583613526565b915061502882614fc1565b604082019050919050565b6000602082019050818103600083015261504c81615010565b9050919050565b7f4552433732313a206d696e7420746f20746865207a65726f2061646472657373600082015250565b6000615089602083613526565b915061509482615053565b602082019050919050565b600060208201905081810360008301526150b88161507c565b9050919050565b7f4552433732313a20746f6b656e20616c7265616479206d696e74656400000000600082015250565b60006150f5601c83613526565b9150615100826150bf565b602082019050919050565b60006020820190508181036000830152615124816150e8565b9050919050565b6000615136826135cd565b9150615141836135cd565b9250828203905081811115615159576151586143d9565b5b92915050565b7f4e487b7100000000000000000000000000000000000000000000000000000000600052603160045260246000fdfea26469706673582212205f321e92b474494566d5f992044573067c0892e691ae46a64b5917378fe058f764736f6c63430008130033",
  "immutableReferences": {},
  "source": "// SPDX-License-Identifier: MIT\r\npragma solidity ^0.8.0;\r\n\r\nimport \"./Extra/PoolBaseStruct.sol\";\r\nimport \"./Extra/PoolVirtual.sol\";\r\nimport \"./../../RandomChoice.sol\";\r\n\r\n\r\ncontract StonePool is PoolBaseStruct, PoolStoneVirtual {\r\n\r\n    // List of Stone and their info\r\n    mapping(uint256 => Stone) public StoneList;\r\n\r\n    /** \r\n        Matrix of all rarity minting info\r\n        For every season (first param) there is a row ( called rarityRow, second param ) that contain info abouth quantity and cost of NFT\r\n    */\r\n    mapping(uint256 =>  mapping(uint256 => NFTPoolInfo)) public StoneMatrixForSeason;\r\n\r\n    // Matrix for minting probability\r\n    // mapping(uint256 => RarityRow) public StoneRarityMatrix;\r\n    mapping(uint256 => mapping(uint256 => uint256[])) public StoneRarityMatrix;\r\n\r\n\r\n\r\n    // SET BASE INFO\r\n    uint256 baseIDNFTCounter;\r\n\r\n\r\n\r\n    constructor (\r\n        address _NFTManagerAddress,\r\n        address _RandomChoiceAddress,\r\n\r\n        string memory _baseUri\r\n    ) \r\n        \r\n        PoolBaseStruct (\r\n            _NFTManagerAddress, _RandomChoiceAddress,\r\n            _baseUri, \"Stone\", \"STN\"\r\n        ) \r\n\r\n    {\r\n        baseIDNFTCounter = 1;\r\n    }\r\n\r\n\r\n\r\n    \r\n\r\n    function mintingPrivate (\r\n        uint256 tokenRarity,\r\n        uint256 seasonKey,\r\n\r\n        address to,\r\n        string memory name\r\n    ) public override returns (bool) {\r\n        require(msg.sender == getNFTManagerAddress(), \"msg.sender is not correct\");\r\n        require(getStonePoolInfo(seasonKey, tokenRarity).quantity > 0,\"There are no one NFT into pool for this rarity\");\r\n\r\n        uint256 bIDC = baseIDNFTCounter++;\r\n\r\n        StoneList[bIDC].name = name;\r\n        StoneList[bIDC].id = bIDC;\r\n        StoneList[bIDC].level = 0;\r\n        StoneList[bIDC].ar = tokenRarity;\r\n\r\n        _safeMint(to, bIDC);\r\n        _setTokenURI(bIDC, string.concat(name, Strings.toString(bIDC)));\r\n\r\n        return true;\r\n    }\r\n    function getStoneInfo(uint256 StonetID) public override view returns (Stone memory) { return StoneList[StonetID]; }\r\n\r\n    \r\n    \r\n    function setStonePoolInfo(uint256 seasonID, uint256 rt, uint256 _quantity, uint256 _cost ) public override { \r\n        require(msg.sender == owner() || msg.sender == address(this) || msg.sender == getNFTManagerAddress(), \"You can not call this function\");\r\n        StoneMatrixForSeason[seasonID][rt].quantity = _quantity;\r\n        StoneMatrixForSeason[seasonID][rt].cost = _cost;\r\n    }\r\n    \r\n    function getStonePoolInfo (uint256 seasonID, uint256 rarityColon) public override view returns(NFTPoolInfo memory) \r\n        { return StoneMatrixForSeason[seasonID][rarityColon]; }\r\n    \r\n\r\n\r\n    function PoolIsEmpty (uint256 seasonID) public view override returns(bool poolIsEmpty) { \r\n        require(msg.sender == getNFTManagerAddress(), \"msg.sender is not correct\");\r\n        poolIsEmpty = true;\r\n\r\n        if ( StoneMatrixForSeason[seasonID][0].quantity > 0 &&\r\n            StoneMatrixForSeason[seasonID][1].quantity > 0 && \r\n            StoneMatrixForSeason[seasonID][2].quantity > 0 && \r\n            StoneMatrixForSeason[seasonID][3].quantity > 0 && \r\n            StoneMatrixForSeason[seasonID][4].quantity > 0\r\n        ) { poolIsEmpty = false; }\r\n\r\n    }\r\n\r\n\r\n\r\n\r\n    function setStoneRarity(uint256 r1, uint256 r2, uint256[] memory br) public override onlyOwner \r\n        { StoneRarityMatrix[r1][r2] = br; }\r\n    function getStoneRarity(uint256 r1, uint256 r2) public view override returns (uint256[] memory rb) \r\n        { rb = StoneRarityMatrix[r1][r2]; }\r\n    \r\n    \r\n    function getRarityForMinting(uint256 r1, uint256 r2) public override returns(uint256 rt) {\r\n        uint256[] memory rb = getStoneRarity(r1, r2);\r\n        \r\n        for (uint i=0; ; i++) {\r\n            if (i == rb.length) i = 0;\r\n\r\n            if ( rb[i] != 0 && RandomChoice(getRandomChoiceAddress()).choice(rb[i], 100) ) \r\n                { rt = i; break; }\r\n            \r\n        }\r\n\r\n    }\r\n\r\n\r\n}",
  "sourcePath": "D:\\Lavoro\\21_BJ\\21_BJ_SC\\contracts\\Avatar\\Pool\\StonePool.sol",
  "compiler": {
    "name": "solc",
    "version": "0.8.19+commit.7dd6d404.Emscripten.clang"
  },
  "schemaVersion": "3.4.15",
  "updatedAt": "2023-10-20T15:35:45.299Z",
  "devdoc": {
    "events": {
      "Approval(address,address,uint256)": {
        "details": "Emitted when `owner` enables `approved` to manage the `tokenId` token."
      },
      "ApprovalForAll(address,address,bool)": {
        "details": "Emitted when `owner` enables or disables (`approved`) `operator` to manage all of its assets."
      },
      "BatchMetadataUpdate(uint256,uint256)": {
        "details": "This event emits when the metadata of a range of tokens is changed. So that the third-party platforms such as NFT market could timely update the images and related attributes of the NFTs."
      },
      "MetadataUpdate(uint256)": {
        "details": "This event emits when the metadata of a token is changed. So that the third-party platforms such as NFT market could timely update the images and related attributes of the NFT."
      },
      "Transfer(address,address,uint256)": {
        "details": "Emitted when `tokenId` token is transferred from `from` to `to`."
      }
    },
    "kind": "dev",
    "methods": {
      "approve(address,uint256)": {
        "details": "See {IERC721-approve}."
      },
      "balanceOf(address)": {
        "details": "See {IERC721-balanceOf}."
      },
      "getApproved(uint256)": {
        "details": "See {IERC721-getApproved}."
      },
      "isApprovedForAll(address,address)": {
        "details": "See {IERC721-isApprovedForAll}."
      },
      "name()": {
        "details": "See {IERC721Metadata-name}."
      },
      "owner()": {
        "details": "Returns the address of the current owner."
      },
      "ownerOf(uint256)": {
        "details": "See {IERC721-ownerOf}."
      },
      "renounceOwnership()": {
        "details": "Leaves the contract without owner. It will not be possible to call `onlyOwner` functions. Can only be called by the current owner. NOTE: Renouncing ownership will leave the contract without an owner, thereby disabling any functionality that is only available to the owner."
      },
      "safeTransferFrom(address,address,uint256)": {
        "details": "See {IERC721-safeTransferFrom}."
      },
      "safeTransferFrom(address,address,uint256,bytes)": {
        "details": "See {IERC721-safeTransferFrom}."
      },
      "setApprovalForAll(address,bool)": {
        "details": "See {IERC721-setApprovalForAll}."
      },
      "symbol()": {
        "details": "See {IERC721Metadata-symbol}."
      },
      "tokenByIndex(uint256)": {
        "details": "See {IERC721Enumerable-tokenByIndex}."
      },
      "tokenOfOwnerByIndex(address,uint256)": {
        "details": "See {IERC721Enumerable-tokenOfOwnerByIndex}."
      },
      "totalSupply()": {
        "details": "See {IERC721Enumerable-totalSupply}."
      },
      "transferFrom(address,address,uint256)": {
        "details": "See {IERC721-transferFrom}."
      },
      "transferOwnership(address)": {
        "details": "Transfers ownership of the contract to a new account (`newOwner`). Can only be called by the current owner."
      }
    },
    "version": 1
  },
  "userdoc": {
    "kind": "user",
    "methods": {
      "StoneMatrixForSeason(uint256,uint256)": {
        "notice": "Matrix of all rarity minting info For every season (first param) there is a row ( called rarityRow, second param ) that contain info abouth quantity and cost of NFT"
      },
      "getNFTManagerAddress()": {
        "notice": "GET & SET ADDRESS"
      },
      "getStoneInfo(uint256)": {
        "notice": "ABSTRACT FUNCTION TO INERITANCE"
      },
      "transferNFT(address,address,uint256)": {
        "notice": "DEFAULT FUNCTIONS"
      }
    },
    "version": 1
  }
}