{
  "contractName": "Token21BJ",
  "abi": [
    {
      "inputs": [
        {
          "internalType": "uint256",
          "name": "_price",
          "type": "uint256"
        }
      ],
      "stateMutability": "nonpayable",
      "type": "constructor"
    },
    {
      "inputs": [],
      "name": "InvalidShortString",
      "type": "error"
    },
    {
      "inputs": [
        {
          "internalType": "string",
          "name": "str",
          "type": "string"
        }
      ],
      "name": "StringTooLong",
      "type": "error"
    },
    {
      "anonymous": false,
      "inputs": [
        {
          "indexed": true,
          "internalType": "address",
          "name": "owner",
          "type": "address"
        },
        {
          "indexed": true,
          "internalType": "address",
          "name": "spender",
          "type": "address"
        },
        {
          "indexed": false,
          "internalType": "uint256",
          "name": "value",
          "type": "uint256"
        }
      ],
      "name": "Approval",
      "type": "event"
    },
    {
      "anonymous": false,
      "inputs": [],
      "name": "EIP712DomainChanged",
      "type": "event"
    },
    {
      "anonymous": false,
      "inputs": [
        {
          "indexed": true,
          "internalType": "address",
          "name": "previousOwner",
          "type": "address"
        },
        {
          "indexed": true,
          "internalType": "address",
          "name": "newOwner",
          "type": "address"
        }
      ],
      "name": "OwnershipTransferred",
      "type": "event"
    },
    {
      "anonymous": false,
      "inputs": [
        {
          "indexed": false,
          "internalType": "address",
          "name": "account",
          "type": "address"
        }
      ],
      "name": "Paused",
      "type": "event"
    },
    {
      "anonymous": false,
      "inputs": [
        {
          "indexed": true,
          "internalType": "address",
          "name": "from",
          "type": "address"
        },
        {
          "indexed": true,
          "internalType": "address",
          "name": "to",
          "type": "address"
        },
        {
          "indexed": false,
          "internalType": "uint256",
          "name": "value",
          "type": "uint256"
        }
      ],
      "name": "Transfer",
      "type": "event"
    },
    {
      "anonymous": false,
      "inputs": [
        {
          "indexed": false,
          "internalType": "address",
          "name": "account",
          "type": "address"
        }
      ],
      "name": "Unpaused",
      "type": "event"
    },
    {
      "inputs": [],
      "name": "DOMAIN_SEPARATOR",
      "outputs": [
        {
          "internalType": "bytes32",
          "name": "",
          "type": "bytes32"
        }
      ],
      "stateMutability": "view",
      "type": "function"
    },
    {
      "inputs": [
        {
          "internalType": "address",
          "name": "owner",
          "type": "address"
        },
        {
          "internalType": "address",
          "name": "spender",
          "type": "address"
        }
      ],
      "name": "allowance",
      "outputs": [
        {
          "internalType": "uint256",
          "name": "",
          "type": "uint256"
        }
      ],
      "stateMutability": "view",
      "type": "function"
    },
    {
      "inputs": [
        {
          "internalType": "address",
          "name": "spender",
          "type": "address"
        },
        {
          "internalType": "uint256",
          "name": "amount",
          "type": "uint256"
        }
      ],
      "name": "approve",
      "outputs": [
        {
          "internalType": "bool",
          "name": "",
          "type": "bool"
        }
      ],
      "stateMutability": "nonpayable",
      "type": "function"
    },
    {
      "inputs": [
        {
          "internalType": "address",
          "name": "account",
          "type": "address"
        }
      ],
      "name": "balanceOf",
      "outputs": [
        {
          "internalType": "uint256",
          "name": "",
          "type": "uint256"
        }
      ],
      "stateMutability": "view",
      "type": "function"
    },
    {
      "inputs": [],
      "name": "decimals",
      "outputs": [
        {
          "internalType": "uint8",
          "name": "",
          "type": "uint8"
        }
      ],
      "stateMutability": "view",
      "type": "function"
    },
    {
      "inputs": [
        {
          "internalType": "address",
          "name": "spender",
          "type": "address"
        },
        {
          "internalType": "uint256",
          "name": "subtractedValue",
          "type": "uint256"
        }
      ],
      "name": "decreaseAllowance",
      "outputs": [
        {
          "internalType": "bool",
          "name": "",
          "type": "bool"
        }
      ],
      "stateMutability": "nonpayable",
      "type": "function"
    },
    {
      "inputs": [],
      "name": "eip712Domain",
      "outputs": [
        {
          "internalType": "bytes1",
          "name": "fields",
          "type": "bytes1"
        },
        {
          "internalType": "string",
          "name": "name",
          "type": "string"
        },
        {
          "internalType": "string",
          "name": "version",
          "type": "string"
        },
        {
          "internalType": "uint256",
          "name": "chainId",
          "type": "uint256"
        },
        {
          "internalType": "address",
          "name": "verifyingContract",
          "type": "address"
        },
        {
          "internalType": "bytes32",
          "name": "salt",
          "type": "bytes32"
        },
        {
          "internalType": "uint256[]",
          "name": "extensions",
          "type": "uint256[]"
        }
      ],
      "stateMutability": "view",
      "type": "function"
    },
    {
      "inputs": [
        {
          "internalType": "address",
          "name": "spender",
          "type": "address"
        },
        {
          "internalType": "uint256",
          "name": "addedValue",
          "type": "uint256"
        }
      ],
      "name": "increaseAllowance",
      "outputs": [
        {
          "internalType": "bool",
          "name": "",
          "type": "bool"
        }
      ],
      "stateMutability": "nonpayable",
      "type": "function"
    },
    {
      "inputs": [],
      "name": "name",
      "outputs": [
        {
          "internalType": "string",
          "name": "",
          "type": "string"
        }
      ],
      "stateMutability": "view",
      "type": "function"
    },
    {
      "inputs": [
        {
          "internalType": "address",
          "name": "owner",
          "type": "address"
        }
      ],
      "name": "nonces",
      "outputs": [
        {
          "internalType": "uint256",
          "name": "",
          "type": "uint256"
        }
      ],
      "stateMutability": "view",
      "type": "function"
    },
    {
      "inputs": [],
      "name": "owner",
      "outputs": [
        {
          "internalType": "address",
          "name": "",
          "type": "address"
        }
      ],
      "stateMutability": "view",
      "type": "function"
    },
    {
      "inputs": [],
      "name": "paused",
      "outputs": [
        {
          "internalType": "bool",
          "name": "",
          "type": "bool"
        }
      ],
      "stateMutability": "view",
      "type": "function"
    },
    {
      "inputs": [
        {
          "internalType": "address",
          "name": "owner",
          "type": "address"
        },
        {
          "internalType": "address",
          "name": "spender",
          "type": "address"
        },
        {
          "internalType": "uint256",
          "name": "value",
          "type": "uint256"
        },
        {
          "internalType": "uint256",
          "name": "deadline",
          "type": "uint256"
        },
        {
          "internalType": "uint8",
          "name": "v",
          "type": "uint8"
        },
        {
          "internalType": "bytes32",
          "name": "r",
          "type": "bytes32"
        },
        {
          "internalType": "bytes32",
          "name": "s",
          "type": "bytes32"
        }
      ],
      "name": "permit",
      "outputs": [],
      "stateMutability": "nonpayable",
      "type": "function"
    },
    {
      "inputs": [],
      "name": "renounceOwnership",
      "outputs": [],
      "stateMutability": "nonpayable",
      "type": "function"
    },
    {
      "inputs": [],
      "name": "symbol",
      "outputs": [
        {
          "internalType": "string",
          "name": "",
          "type": "string"
        }
      ],
      "stateMutability": "view",
      "type": "function"
    },
    {
      "inputs": [],
      "name": "totalSupply",
      "outputs": [
        {
          "internalType": "uint256",
          "name": "",
          "type": "uint256"
        }
      ],
      "stateMutability": "view",
      "type": "function"
    },
    {
      "inputs": [
        {
          "internalType": "address",
          "name": "to",
          "type": "address"
        },
        {
          "internalType": "uint256",
          "name": "amount",
          "type": "uint256"
        }
      ],
      "name": "transfer",
      "outputs": [
        {
          "internalType": "bool",
          "name": "",
          "type": "bool"
        }
      ],
      "stateMutability": "nonpayable",
      "type": "function"
    },
    {
      "inputs": [
        {
          "internalType": "address",
          "name": "from",
          "type": "address"
        },
        {
          "internalType": "address",
          "name": "to",
          "type": "address"
        },
        {
          "internalType": "uint256",
          "name": "amount",
          "type": "uint256"
        }
      ],
      "name": "transferFrom",
      "outputs": [
        {
          "internalType": "bool",
          "name": "",
          "type": "bool"
        }
      ],
      "stateMutability": "nonpayable",
      "type": "function"
    },
    {
      "inputs": [
        {
          "internalType": "address",
          "name": "newOwner",
          "type": "address"
        }
      ],
      "name": "transferOwnership",
      "outputs": [],
      "stateMutability": "nonpayable",
      "type": "function"
    },
    {
      "inputs": [],
      "name": "pause",
      "outputs": [],
      "stateMutability": "nonpayable",
      "type": "function"
    },
    {
      "inputs": [],
      "name": "unpause",
      "outputs": [],
      "stateMutability": "nonpayable",
      "type": "function"
    },
    {
      "inputs": [
        {
          "internalType": "address",
          "name": "to",
          "type": "address"
        },
        {
          "internalType": "uint256",
          "name": "amount",
          "type": "uint256"
        }
      ],
      "name": "mint",
      "outputs": [],
      "stateMutability": "nonpayable",
      "type": "function"
    },
    {
      "inputs": [
        {
          "internalType": "uint256",
          "name": "amount",
          "type": "uint256"
        }
      ],
      "name": "BuyToken",
      "outputs": [
        {
          "internalType": "string",
          "name": "",
          "type": "string"
        }
      ],
      "stateMutability": "payable",
      "type": "function"
    },
    {
      "inputs": [],
      "name": "getBalance",
      "outputs": [
        {
          "internalType": "uint256",
          "name": "",
          "type": "uint256"
        }
      ],
      "stateMutability": "view",
      "type": "function"
    },
    {
      "inputs": [],
      "name": "withdraw",
      "outputs": [],
      "stateMutability": "nonpayable",
      "type": "function"
    },
    {
      "inputs": [
        {
          "internalType": "uint256",
          "name": "newPrice",
          "type": "uint256"
        }
      ],
      "name": "setPrice",
      "outputs": [],
      "stateMutability": "nonpayable",
      "type": "function"
    },
    {
      "inputs": [
        {
          "internalType": "uint256",
          "name": "newPrice",
          "type": "uint256"
        }
      ],
      "name": "getPriceForUnit",
      "outputs": [],
      "stateMutability": "nonpayable",
      "type": "function"
    }
  ],
  "bytecode": "0x6101606040523480156200001257600080fd5b5060405162003f8438038062003f848339818101604052810190620000389190620006c0565b6040518060400160405280600781526020017f4d79546f6b656e00000000000000000000000000000000000000000000000000815250806040518060400160405280600181526020017f31000000000000000000000000000000000000000000000000000000000000008152506040518060400160405280600981526020017f546f6b656e3231424a00000000000000000000000000000000000000000000008152506040518060400160405280600481526020017f3231544b00000000000000000000000000000000000000000000000000000000815250816003908162000122919062000962565b50806004908162000134919062000962565b5050506000600560006101000a81548160ff02191690831515021790555062000172620001666200027260201b60201c565b6200027a60201b60201c565b620001886006836200034060201b90919060201c565b6101208181525050620001a66007826200034060201b90919060201c565b6101408181525050818051906020012060e08181525050808051906020012061010081815250504660a08181525050620001e56200039860201b60201c565b608081815250503073ffffffffffffffffffffffffffffffffffffffff1660c08173ffffffffffffffffffffffffffffffffffffffff1681525050505050620002643362000238620003f560201b60201c565b600a62000246919062000bd9565b64746a52880062000258919062000c2a565b620003fe60201b60201c565b80600a819055505062000fd4565b600033905090565b6000600560019054906101000a900473ffffffffffffffffffffffffffffffffffffffff16905081600560016101000a81548173ffffffffffffffffffffffffffffffffffffffff021916908373ffffffffffffffffffffffffffffffffffffffff1602179055508173ffffffffffffffffffffffffffffffffffffffff168173ffffffffffffffffffffffffffffffffffffffff167f8be0079c531659141344cd1fd0a4f28419497f9722a3daafe3b4186f6b6457e060405160405180910390a35050565b600060208351101562000366576200035e836200056b60201b60201c565b905062000392565b826200037883620005d860201b60201c565b600001908162000389919062000962565b5060ff60001b90505b92915050565b60007f8b73c3c69bb8fe3d512ecc4cf759cc79239f7b179b0ffacaa9a75d522b39400f60e051610100514630604051602001620003da95949392919062000ce6565b60405160208183030381529060405280519060200120905090565b60006012905090565b600073ffffffffffffffffffffffffffffffffffffffff168273ffffffffffffffffffffffffffffffffffffffff160362000470576040517f08c379a0000000000000000000000000000000000000000000000000000000008152600401620004679062000da4565b60405180910390fd5b6200048460008383620005e260201b60201c565b806002600082825462000498919062000dc6565b92505081905550806000808473ffffffffffffffffffffffffffffffffffffffff1673ffffffffffffffffffffffffffffffffffffffff168152602001908152602001600020600082825401925050819055508173ffffffffffffffffffffffffffffffffffffffff16600073ffffffffffffffffffffffffffffffffffffffff167fddf252ad1be2c89b69c2b068fc378daa952ba7f163c4a11628f55a4df523b3ef836040516200054b919062000e01565b60405180910390a362000567600083836200060a60201b60201c565b5050565b600080829050601f81511115620005bb57826040517f305a27a9000000000000000000000000000000000000000000000000000000008152600401620005b2919062000e9c565b60405180910390fd5b805181620005c99062000ef2565b60001c1760001b915050919050565b6000819050919050565b620005f26200060f60201b60201c565b620006058383836200066460201b60201c565b505050565b505050565b6200061f6200066960201b60201c565b1562000662576040517f08c379a0000000000000000000000000000000000000000000000000000000008152600401620006599062000fb2565b60405180910390fd5b565b505050565b6000600560009054906101000a900460ff16905090565b600080fd5b6000819050919050565b6200069a8162000685565b8114620006a657600080fd5b50565b600081519050620006ba816200068f565b92915050565b600060208284031215620006d957620006d862000680565b5b6000620006e984828501620006a9565b91505092915050565b600081519050919050565b7f4e487b7100000000000000000000000000000000000000000000000000000000600052604160045260246000fd5b7f4e487b7100000000000000000000000000000000000000000000000000000000600052602260045260246000fd5b600060028204905060018216806200077457607f821691505b6020821081036200078a57620007896200072c565b5b50919050565b60008190508160005260206000209050919050565b60006020601f8301049050919050565b600082821b905092915050565b600060088302620007f47fffffffffffffffffffffffffffffffffffffffffffffffffffffffffffffffff82620007b5565b620008008683620007b5565b95508019841693508086168417925050509392505050565b6000819050919050565b6000620008436200083d620008378462000685565b62000818565b62000685565b9050919050565b6000819050919050565b6200085f8362000822565b620008776200086e826200084a565b848454620007c2565b825550505050565b600090565b6200088e6200087f565b6200089b81848462000854565b505050565b5b81811015620008c357620008b760008262000884565b600181019050620008a1565b5050565b601f8211156200091257620008dc8162000790565b620008e784620007a5565b81016020851015620008f7578190505b6200090f6200090685620007a5565b830182620008a0565b50505b505050565b600082821c905092915050565b6000620009376000198460080262000917565b1980831691505092915050565b600062000952838362000924565b9150826002028217905092915050565b6200096d82620006f2565b67ffffffffffffffff811115620009895762000988620006fd565b5b6200099582546200075b565b620009a2828285620008c7565b600060209050601f831160018114620009da5760008415620009c5578287015190505b620009d1858262000944565b86555062000a41565b601f198416620009ea8662000790565b60005b8281101562000a1457848901518255600182019150602085019450602081019050620009ed565b8683101562000a34578489015162000a30601f89168262000924565b8355505b6001600288020188555050505b505050505050565b7f4e487b7100000000000000000000000000000000000000000000000000000000600052601160045260246000fd5b60008160011c9050919050565b6000808291508390505b600185111562000ad75780860481111562000aaf5762000aae62000a49565b5b600185161562000abf5780820291505b808102905062000acf8562000a78565b945062000a8f565b94509492505050565b60008262000af2576001905062000bc5565b8162000b02576000905062000bc5565b816001811462000b1b576002811462000b265762000b5c565b600191505062000bc5565b60ff84111562000b3b5762000b3a62000a49565b5b8360020a91508482111562000b555762000b5462000a49565b5b5062000bc5565b5060208310610133831016604e8410600b841016171562000b965782820a90508381111562000b905762000b8f62000a49565b5b62000bc5565b62000ba5848484600162000a85565b9250905081840481111562000bbf5762000bbe62000a49565b5b81810290505b9392505050565b600060ff82169050919050565b600062000be68262000685565b915062000bf38362000bcc565b925062000c227fffffffffffffffffffffffffffffffffffffffffffffffffffffffffffffffff848462000ae0565b905092915050565b600062000c378262000685565b915062000c448362000685565b925082820262000c548162000685565b9150828204841483151762000c6e5762000c6d62000a49565b5b5092915050565b6000819050919050565b62000c8a8162000c75565b82525050565b62000c9b8162000685565b82525050565b600073ffffffffffffffffffffffffffffffffffffffff82169050919050565b600062000cce8262000ca1565b9050919050565b62000ce08162000cc1565b82525050565b600060a08201905062000cfd600083018862000c7f565b62000d0c602083018762000c7f565b62000d1b604083018662000c7f565b62000d2a606083018562000c90565b62000d39608083018462000cd5565b9695505050505050565b600082825260208201905092915050565b7f45524332303a206d696e7420746f20746865207a65726f206164647265737300600082015250565b600062000d8c601f8362000d43565b915062000d998262000d54565b602082019050919050565b6000602082019050818103600083015262000dbf8162000d7d565b9050919050565b600062000dd38262000685565b915062000de08362000685565b925082820190508082111562000dfb5762000dfa62000a49565b5b92915050565b600060208201905062000e18600083018462000c90565b92915050565b60005b8381101562000e3e57808201518184015260208101905062000e21565b60008484015250505050565b6000601f19601f8301169050919050565b600062000e6882620006f2565b62000e74818562000d43565b935062000e8681856020860162000e1e565b62000e918162000e4a565b840191505092915050565b6000602082019050818103600083015262000eb8818462000e5b565b905092915050565b600081519050919050565b6000819050602082019050919050565b600062000ee9825162000c75565b80915050919050565b600062000eff8262000ec0565b8262000f0b8462000ecb565b905062000f188162000edb565b9250602082101562000f5b5762000f567fffffffffffffffffffffffffffffffffffffffffffffffffffffffffffffffff83602003600802620007b5565b831692505b5050919050565b7f5061757361626c653a2070617573656400000000000000000000000000000000600082015250565b600062000f9a60108362000d43565b915062000fa78262000f62565b602082019050919050565b6000602082019050818103600083015262000fcd8162000f8b565b9050919050565b60805160a05160c05160e051610100516101205161014051612f556200102f600039600061096601526000610932015260006119600152600061193f015260006114070152600061145d015260006114860152612f556000f3fe60806040526004361061019c5760003560e01c806370a08231116100ec57806395d89b411161008a578063d505accf11610064578063d505accf146105ac578063dd62ed3e146105d5578063f2fde38b14610612578063fcb0368c1461063b5761019c565b806395d89b4114610507578063a457c2d714610532578063a9059cbb1461056f5761019c565b80638456cb59116100c65780638456cb591461046b57806384b0196e146104825780638da5cb5b146104b357806391b7f5ed146104de5761019c565b806370a08231146103da578063715018a6146104175780637ecebe001461042e5761019c565b8063313ce567116101595780633ccfd60b116101335780633ccfd60b146103585780633f4ba83a1461036f57806340c10f19146103865780635c975abb146103af5761019c565b8063313ce567146102c55780633644e515146102f0578063395093511461031b5761019c565b806306fdde03146101a1578063095ea7b3146101cc57806312065fe01461020957806318160ddd1461023457806323b872dd1461025f578063311b78971461029c575b600080fd5b3480156101ad57600080fd5b506101b661066b565b6040516101c39190611e3b565b60405180910390f35b3480156101d857600080fd5b506101f360048036038101906101ee9190611ef6565b6106fd565b6040516102009190611f51565b60405180910390f35b34801561021557600080fd5b5061021e610720565b60405161022b9190611f7b565b60405180910390f35b34801561024057600080fd5b50610249610730565b6040516102569190611f7b565b60405180910390f35b34801561026b57600080fd5b5061028660048036038101906102819190611f96565b61073a565b6040516102939190611f51565b60405180910390f35b3480156102a857600080fd5b506102c360048036038101906102be9190611fe9565b610769565b005b3480156102d157600080fd5b506102da61077b565b6040516102e79190612032565b60405180910390f35b3480156102fc57600080fd5b50610305610784565b6040516103129190612066565b60405180910390f35b34801561032757600080fd5b50610342600480360381019061033d9190611ef6565b610793565b60405161034f9190611f51565b60405180910390f35b34801561036457600080fd5b5061036d6107ca565b005b34801561037b57600080fd5b50610384610822565b005b34801561039257600080fd5b506103ad60048036038101906103a89190611ef6565b610834565b005b3480156103bb57600080fd5b506103c461084a565b6040516103d19190611f51565b60405180910390f35b3480156103e657600080fd5b5061040160048036038101906103fc9190612081565b610861565b60405161040e9190611f7b565b60405180910390f35b34801561042357600080fd5b5061042c6108a9565b005b34801561043a57600080fd5b5061045560048036038101906104509190612081565b6108bd565b6040516104629190611f7b565b60405180910390f35b34801561047757600080fd5b5061048061090d565b005b34801561048e57600080fd5b5061049761091f565b6040516104aa97969594939291906121b6565b60405180910390f35b3480156104bf57600080fd5b506104c8610a21565b6040516104d5919061223a565b60405180910390f35b3480156104ea57600080fd5b5061050560048036038101906105009190611fe9565b610a4b565b005b34801561051357600080fd5b5061051c610a5d565b6040516105299190611e3b565b60405180910390f35b34801561053e57600080fd5b5061055960048036038101906105549190611ef6565b610aef565b6040516105669190611f51565b60405180910390f35b34801561057b57600080fd5b5061059660048036038101906105919190611ef6565b610b66565b6040516105a39190611f51565b60405180910390f35b3480156105b857600080fd5b506105d360048036038101906105ce91906122ad565b610b89565b005b3480156105e157600080fd5b506105fc60048036038101906105f7919061234f565b610ccb565b6040516106099190611f7b565b60405180910390f35b34801561061e57600080fd5b5061063960048036038101906106349190612081565b610d52565b005b61065560048036038101906106509190611fe9565b610dd5565b6040516106629190611e3b565b60405180910390f35b60606003805461067a906123be565b80601f01602080910402602001604051908101604052809291908181526020018280546106a6906123be565b80156106f35780601f106106c8576101008083540402835291602001916106f3565b820191906000526020600020905b8154815290600101906020018083116106d657829003601f168201915b5050505050905090565b600080610708610eb2565b9050610715818585610eba565b600191505092915050565b600061072b33610861565b905090565b6000600254905090565b600080610745610eb2565b9050610752858285611083565b61075d85858561110f565b60019150509392505050565b610771611385565b80600a8190555050565b60006012905090565b600061078e611403565b905090565b60008061079e610eb2565b90506107bf8185856107b08589610ccb565b6107ba919061241e565b610eba565b600191505092915050565b6107d2611385565b6107da610a21565b73ffffffffffffffffffffffffffffffffffffffff166108fc479081150290604051600060405180830381858888f1935050505015801561081f573d6000803e3d6000fd5b50565b61082a611385565b6108326114ba565b565b61083c611385565b610846828261151d565b5050565b6000600560009054906101000a900460ff16905090565b60008060008373ffffffffffffffffffffffffffffffffffffffff1673ffffffffffffffffffffffffffffffffffffffff168152602001908152602001600020549050919050565b6108b1611385565b6108bb6000611673565b565b6000610906600860008473ffffffffffffffffffffffffffffffffffffffff1673ffffffffffffffffffffffffffffffffffffffff168152602001908152602001600020611739565b9050919050565b610915611385565b61091d611747565b565b60006060806000806000606061095f60067f00000000000000000000000000000000000000000000000000000000000000006117aa90919063ffffffff16565b61099360077f00000000000000000000000000000000000000000000000000000000000000006117aa90919063ffffffff16565b46306000801b600067ffffffffffffffff8111156109b4576109b3612452565b5b6040519080825280602002602001820160405280156109e25781602001602082028036833780820191505090505b507f0f00000000000000000000000000000000000000000000000000000000000000959493929190965096509650965096509650965090919293949596565b6000600560019054906101000a900473ffffffffffffffffffffffffffffffffffffffff16905090565b610a53611385565b80600a8190555050565b606060048054610a6c906123be565b80601f0160208091040260200160405190810160405280929190818152602001828054610a98906123be565b8015610ae55780601f10610aba57610100808354040283529160200191610ae5565b820191906000526020600020905b815481529060010190602001808311610ac857829003601f168201915b5050505050905090565b600080610afa610eb2565b90506000610b088286610ccb565b905083811015610b4d576040517f08c379a0000000000000000000000000000000000000000000000000000000008152600401610b44906124f3565b60405180910390fd5b610b5a8286868403610eba565b60019250505092915050565b600080610b71610eb2565b9050610b7e81858561110f565b600191505092915050565b83421115610bcc576040517f08c379a0000000000000000000000000000000000000000000000000000000008152600401610bc39061255f565b60405180910390fd5b60007f6e71edae12b1b97f4d1f60370fef10105fa2faae0126114a169c64845d6126c9888888610bfb8c61185a565b89604051602001610c119695949392919061257f565b6040516020818303038152906040528051906020012090506000610c34826118b8565b90506000610c44828787876118d2565b90508973ffffffffffffffffffffffffffffffffffffffff168173ffffffffffffffffffffffffffffffffffffffff1614610cb4576040517f08c379a0000000000000000000000000000000000000000000000000000000008152600401610cab9061262c565b60405180910390fd5b610cbf8a8a8a610eba565b50505050505050505050565b6000600160008473ffffffffffffffffffffffffffffffffffffffff1673ffffffffffffffffffffffffffffffffffffffff16815260200190815260200160002060008373ffffffffffffffffffffffffffffffffffffffff1673ffffffffffffffffffffffffffffffffffffffff16815260200190815260200160002054905092915050565b610d5a611385565b600073ffffffffffffffffffffffffffffffffffffffff168173ffffffffffffffffffffffffffffffffffffffff1603610dc9576040517f08c379a0000000000000000000000000000000000000000000000000000000008152600401610dc0906126be565b60405180910390fd5b610dd281611673565b50565b60606001821015610e1b576040517f08c379a0000000000000000000000000000000000000000000000000000000008152600401610e129061272a565b60405180910390fd5b34600a5483610e2a919061274a565b1115610e6b576040517f08c379a0000000000000000000000000000000000000000000000000000000008152600401610e62906127d8565b60405180910390fd5b610e75338361151d565b6040518060400160405280600381526020017f42757900000000000000000000000000000000000000000000000000000000008152509050919050565b600033905090565b600073ffffffffffffffffffffffffffffffffffffffff168373ffffffffffffffffffffffffffffffffffffffff1603610f29576040517f08c379a0000000000000000000000000000000000000000000000000000000008152600401610f209061286a565b60405180910390fd5b600073ffffffffffffffffffffffffffffffffffffffff168273ffffffffffffffffffffffffffffffffffffffff1603610f98576040517f08c379a0000000000000000000000000000000000000000000000000000000008152600401610f8f906128fc565b60405180910390fd5b80600160008573ffffffffffffffffffffffffffffffffffffffff1673ffffffffffffffffffffffffffffffffffffffff16815260200190815260200160002060008473ffffffffffffffffffffffffffffffffffffffff1673ffffffffffffffffffffffffffffffffffffffff168152602001908152602001600020819055508173ffffffffffffffffffffffffffffffffffffffff168373ffffffffffffffffffffffffffffffffffffffff167f8c5be1e5ebec7d5bd14f71427d1e84f3dd0314c0f7b2291e5b200ac8c7c3b925836040516110769190611f7b565b60405180910390a3505050565b600061108f8484610ccb565b90507fffffffffffffffffffffffffffffffffffffffffffffffffffffffffffffffff811461110957818110156110fb576040517f08c379a00000000000000000000000000000000000000000000000000000000081526004016110f290612968565b60405180910390fd5b6111088484848403610eba565b5b50505050565b600073ffffffffffffffffffffffffffffffffffffffff168373ffffffffffffffffffffffffffffffffffffffff160361117e576040517f08c379a0000000000000000000000000000000000000000000000000000000008152600401611175906129fa565b60405180910390fd5b600073ffffffffffffffffffffffffffffffffffffffff168273ffffffffffffffffffffffffffffffffffffffff16036111ed576040517f08c379a00000000000000000000000000000000000000000000000000000000081526004016111e490612a8c565b60405180910390fd5b6111f88383836118fd565b60008060008573ffffffffffffffffffffffffffffffffffffffff1673ffffffffffffffffffffffffffffffffffffffff1681526020019081526020016000205490508181101561127e576040517f08c379a000000000000000000000000000000000000000000000000000000000815260040161127590612b1e565b60405180910390fd5b8181036000808673ffffffffffffffffffffffffffffffffffffffff1673ffffffffffffffffffffffffffffffffffffffff16815260200190815260200160002081905550816000808573ffffffffffffffffffffffffffffffffffffffff1673ffffffffffffffffffffffffffffffffffffffff168152602001908152602001600020600082825401925050819055508273ffffffffffffffffffffffffffffffffffffffff168473ffffffffffffffffffffffffffffffffffffffff167fddf252ad1be2c89b69c2b068fc378daa952ba7f163c4a11628f55a4df523b3ef8460405161136c9190611f7b565b60405180910390a361137f848484611915565b50505050565b61138d610eb2565b73ffffffffffffffffffffffffffffffffffffffff166113ab610a21565b73ffffffffffffffffffffffffffffffffffffffff1614611401576040517f08c379a00000000000000000000000000000000000000000000000000000000081526004016113f890612b8a565b60405180910390fd5b565b60007f000000000000000000000000000000000000000000000000000000000000000073ffffffffffffffffffffffffffffffffffffffff163073ffffffffffffffffffffffffffffffffffffffff1614801561147f57507f000000000000000000000000000000000000000000000000000000000000000046145b156114ac577f000000000000000000000000000000000000000000000000000000000000000090506114b7565b6114b461191a565b90505b90565b6114c26119b0565b6000600560006101000a81548160ff0219169083151502179055507f5db9ee0a495bf2e6ff9c91a7834c1ba4fdd244a5e8aa4e537bd38aeae4b073aa611506610eb2565b604051611513919061223a565b60405180910390a1565b600073ffffffffffffffffffffffffffffffffffffffff168273ffffffffffffffffffffffffffffffffffffffff160361158c576040517f08c379a000000000000000000000000000000000000000000000000000000000815260040161158390612bf6565b60405180910390fd5b611598600083836118fd565b80600260008282546115aa919061241e565b92505081905550806000808473ffffffffffffffffffffffffffffffffffffffff1673ffffffffffffffffffffffffffffffffffffffff168152602001908152602001600020600082825401925050819055508173ffffffffffffffffffffffffffffffffffffffff16600073ffffffffffffffffffffffffffffffffffffffff167fddf252ad1be2c89b69c2b068fc378daa952ba7f163c4a11628f55a4df523b3ef8360405161165b9190611f7b565b60405180910390a361166f60008383611915565b5050565b6000600560019054906101000a900473ffffffffffffffffffffffffffffffffffffffff16905081600560016101000a81548173ffffffffffffffffffffffffffffffffffffffff021916908373ffffffffffffffffffffffffffffffffffffffff1602179055508173ffffffffffffffffffffffffffffffffffffffff168173ffffffffffffffffffffffffffffffffffffffff167f8be0079c531659141344cd1fd0a4f28419497f9722a3daafe3b4186f6b6457e060405160405180910390a35050565b600081600001549050919050565b61174f6119f9565b6001600560006101000a81548160ff0219169083151502179055507f62e78cea01bee320cd4e420270b5ea74000d11b0c9f74754ebdbfc544b05a258611793610eb2565b6040516117a0919061223a565b60405180910390a1565b606060ff60001b83146117c7576117c083611a43565b9050611854565b8180546117d3906123be565b80601f01602080910402602001604051908101604052809291908181526020018280546117ff906123be565b801561184c5780601f106118215761010080835404028352916020019161184c565b820191906000526020600020905b81548152906001019060200180831161182f57829003601f168201915b505050505090505b92915050565b600080600860008473ffffffffffffffffffffffffffffffffffffffff1673ffffffffffffffffffffffffffffffffffffffff16815260200190815260200160002090506118a781611739565b91506118b281611ab7565b50919050565b60006118cb6118c5611403565b83611acd565b9050919050565b60008060006118e387878787611b0e565b915091506118f081611bf0565b8192505050949350505050565b6119056119f9565b611910838383611d56565b505050565b505050565b60007f8b73c3c69bb8fe3d512ecc4cf759cc79239f7b179b0ffacaa9a75d522b39400f7f00000000000000000000000000000000000000000000000000000000000000007f00000000000000000000000000000000000000000000000000000000000000004630604051602001611995959493929190612c16565b60405160208183030381529060405280519060200120905090565b6119b861084a565b6119f7576040517f08c379a00000000000000000000000000000000000000000000000000000000081526004016119ee90612cb5565b60405180910390fd5b565b611a0161084a565b15611a41576040517f08c379a0000000000000000000000000000000000000000000000000000000008152600401611a3890612d21565b60405180910390fd5b565b60606000611a5083611d5b565b90506000602067ffffffffffffffff811115611a6f57611a6e612452565b5b6040519080825280601f01601f191660200182016040528015611aa15781602001600182028036833780820191505090505b5090508181528360208201528092505050919050565b6001816000016000828254019250508190555050565b60006040517f190100000000000000000000000000000000000000000000000000000000000081528360028201528260228201526042812091505092915050565b6000807f7fffffffffffffffffffffffffffffff5d576e7357a4501ddfe92f46681b20a08360001c1115611b49576000600391509150611be7565b600060018787878760405160008152602001604052604051611b6e9493929190612d41565b6020604051602081039080840390855afa158015611b90573d6000803e3d6000fd5b505050602060405103519050600073ffffffffffffffffffffffffffffffffffffffff168173ffffffffffffffffffffffffffffffffffffffff1603611bde57600060019250925050611be7565b80600092509250505b94509492505050565b60006004811115611c0457611c03612d86565b5b816004811115611c1757611c16612d86565b5b0315611d535760016004811115611c3157611c30612d86565b5b816004811115611c4457611c43612d86565b5b03611c84576040517f08c379a0000000000000000000000000000000000000000000000000000000008152600401611c7b90612e01565b60405180910390fd5b60026004811115611c9857611c97612d86565b5b816004811115611cab57611caa612d86565b5b03611ceb576040517f08c379a0000000000000000000000000000000000000000000000000000000008152600401611ce290612e6d565b60405180910390fd5b60036004811115611cff57611cfe612d86565b5b816004811115611d1257611d11612d86565b5b03611d52576040517f08c379a0000000000000000000000000000000000000000000000000000000008152600401611d4990612eff565b60405180910390fd5b5b50565b505050565b60008060ff8360001c169050601f811115611da2576040517fb3512b0c00000000000000000000000000000000000000000000000000000000815260040160405180910390fd5b80915050919050565b600081519050919050565b600082825260208201905092915050565b60005b83811015611de5578082015181840152602081019050611dca565b60008484015250505050565b6000601f19601f8301169050919050565b6000611e0d82611dab565b611e178185611db6565b9350611e27818560208601611dc7565b611e3081611df1565b840191505092915050565b60006020820190508181036000830152611e558184611e02565b905092915050565b600080fd5b600073ffffffffffffffffffffffffffffffffffffffff82169050919050565b6000611e8d82611e62565b9050919050565b611e9d81611e82565b8114611ea857600080fd5b50565b600081359050611eba81611e94565b92915050565b6000819050919050565b611ed381611ec0565b8114611ede57600080fd5b50565b600081359050611ef081611eca565b92915050565b60008060408385031215611f0d57611f0c611e5d565b5b6000611f1b85828601611eab565b9250506020611f2c85828601611ee1565b9150509250929050565b60008115159050919050565b611f4b81611f36565b82525050565b6000602082019050611f666000830184611f42565b92915050565b611f7581611ec0565b82525050565b6000602082019050611f906000830184611f6c565b92915050565b600080600060608486031215611faf57611fae611e5d565b5b6000611fbd86828701611eab565b9350506020611fce86828701611eab565b9250506040611fdf86828701611ee1565b9150509250925092565b600060208284031215611fff57611ffe611e5d565b5b600061200d84828501611ee1565b91505092915050565b600060ff82169050919050565b61202c81612016565b82525050565b60006020820190506120476000830184612023565b92915050565b6000819050919050565b6120608161204d565b82525050565b600060208201905061207b6000830184612057565b92915050565b60006020828403121561209757612096611e5d565b5b60006120a584828501611eab565b91505092915050565b60007fff0000000000000000000000000000000000000000000000000000000000000082169050919050565b6120e3816120ae565b82525050565b6120f281611e82565b82525050565b600081519050919050565b600082825260208201905092915050565b6000819050602082019050919050565b61212d81611ec0565b82525050565b600061213f8383612124565b60208301905092915050565b6000602082019050919050565b6000612163826120f8565b61216d8185612103565b935061217883612114565b8060005b838110156121a95781516121908882612133565b975061219b8361214b565b92505060018101905061217c565b5085935050505092915050565b600060e0820190506121cb600083018a6120da565b81810360208301526121dd8189611e02565b905081810360408301526121f18188611e02565b90506122006060830187611f6c565b61220d60808301866120e9565b61221a60a0830185612057565b81810360c083015261222c8184612158565b905098975050505050505050565b600060208201905061224f60008301846120e9565b92915050565b61225e81612016565b811461226957600080fd5b50565b60008135905061227b81612255565b92915050565b61228a8161204d565b811461229557600080fd5b50565b6000813590506122a781612281565b92915050565b600080600080600080600060e0888a0312156122cc576122cb611e5d565b5b60006122da8a828b01611eab565b97505060206122eb8a828b01611eab565b96505060406122fc8a828b01611ee1565b955050606061230d8a828b01611ee1565b945050608061231e8a828b0161226c565b93505060a061232f8a828b01612298565b92505060c06123408a828b01612298565b91505092959891949750929550565b6000806040838503121561236657612365611e5d565b5b600061237485828601611eab565b925050602061238585828601611eab565b9150509250929050565b7f4e487b7100000000000000000000000000000000000000000000000000000000600052602260045260246000fd5b600060028204905060018216806123d657607f821691505b6020821081036123e9576123e861238f565b5b50919050565b7f4e487b7100000000000000000000000000000000000000000000000000000000600052601160045260246000fd5b600061242982611ec0565b915061243483611ec0565b925082820190508082111561244c5761244b6123ef565b5b92915050565b7f4e487b7100000000000000000000000000000000000000000000000000000000600052604160045260246000fd5b7f45524332303a2064656372656173656420616c6c6f77616e63652062656c6f7760008201527f207a65726f000000000000000000000000000000000000000000000000000000602082015250565b60006124dd602583611db6565b91506124e882612481565b604082019050919050565b6000602082019050818103600083015261250c816124d0565b9050919050565b7f45524332305065726d69743a206578706972656420646561646c696e65000000600082015250565b6000612549601d83611db6565b915061255482612513565b602082019050919050565b600060208201905081810360008301526125788161253c565b9050919050565b600060c0820190506125946000830189612057565b6125a160208301886120e9565b6125ae60408301876120e9565b6125bb6060830186611f6c565b6125c86080830185611f6c565b6125d560a0830184611f6c565b979650505050505050565b7f45524332305065726d69743a20696e76616c6964207369676e61747572650000600082015250565b6000612616601e83611db6565b9150612621826125e0565b602082019050919050565b6000602082019050818103600083015261264581612609565b9050919050565b7f4f776e61626c653a206e6577206f776e657220697320746865207a65726f206160008201527f6464726573730000000000000000000000000000000000000000000000000000602082015250565b60006126a8602683611db6565b91506126b38261264c565b604082019050919050565b600060208201905081810360008301526126d78161269b565b9050919050565b7f4d696e696d756d20616d6f756e74206973203120756e69742100000000000000600082015250565b6000612714601983611db6565b915061271f826126de565b602082019050919050565b6000602082019050818103600083015261274381612707565b9050919050565b600061275582611ec0565b915061276083611ec0565b925082820261276e81611ec0565b91508282048414831517612785576127846123ef565b5b5092915050565b7f56616c6f726520696e73756666696369656e7465000000000000000000000000600082015250565b60006127c2601483611db6565b91506127cd8261278c565b602082019050919050565b600060208201905081810360008301526127f1816127b5565b9050919050565b7f45524332303a20617070726f76652066726f6d20746865207a65726f2061646460008201527f7265737300000000000000000000000000000000000000000000000000000000602082015250565b6000612854602483611db6565b915061285f826127f8565b604082019050919050565b6000602082019050818103600083015261288381612847565b9050919050565b7f45524332303a20617070726f766520746f20746865207a65726f20616464726560008201527f7373000000000000000000000000000000000000000000000000000000000000602082015250565b60006128e6602283611db6565b91506128f18261288a565b604082019050919050565b60006020820190508181036000830152612915816128d9565b9050919050565b7f45524332303a20696e73756666696369656e7420616c6c6f77616e6365000000600082015250565b6000612952601d83611db6565b915061295d8261291c565b602082019050919050565b6000602082019050818103600083015261298181612945565b9050919050565b7f45524332303a207472616e736665722066726f6d20746865207a65726f20616460008201527f6472657373000000000000000000000000000000000000000000000000000000602082015250565b60006129e4602583611db6565b91506129ef82612988565b604082019050919050565b60006020820190508181036000830152612a13816129d7565b9050919050565b7f45524332303a207472616e7366657220746f20746865207a65726f206164647260008201527f6573730000000000000000000000000000000000000000000000000000000000602082015250565b6000612a76602383611db6565b9150612a8182612a1a565b604082019050919050565b60006020820190508181036000830152612aa581612a69565b9050919050565b7f45524332303a207472616e7366657220616d6f756e742065786365656473206260008201527f616c616e63650000000000000000000000000000000000000000000000000000602082015250565b6000612b08602683611db6565b9150612b1382612aac565b604082019050919050565b60006020820190508181036000830152612b3781612afb565b9050919050565b7f4f776e61626c653a2063616c6c6572206973206e6f7420746865206f776e6572600082015250565b6000612b74602083611db6565b9150612b7f82612b3e565b602082019050919050565b60006020820190508181036000830152612ba381612b67565b9050919050565b7f45524332303a206d696e7420746f20746865207a65726f206164647265737300600082015250565b6000612be0601f83611db6565b9150612beb82612baa565b602082019050919050565b60006020820190508181036000830152612c0f81612bd3565b9050919050565b600060a082019050612c2b6000830188612057565b612c386020830187612057565b612c456040830186612057565b612c526060830185611f6c565b612c5f60808301846120e9565b9695505050505050565b7f5061757361626c653a206e6f7420706175736564000000000000000000000000600082015250565b6000612c9f601483611db6565b9150612caa82612c69565b602082019050919050565b60006020820190508181036000830152612cce81612c92565b9050919050565b7f5061757361626c653a2070617573656400000000000000000000000000000000600082015250565b6000612d0b601083611db6565b9150612d1682612cd5565b602082019050919050565b60006020820190508181036000830152612d3a81612cfe565b9050919050565b6000608082019050612d566000830187612057565b612d636020830186612023565b612d706040830185612057565b612d7d6060830184612057565b95945050505050565b7f4e487b7100000000000000000000000000000000000000000000000000000000600052602160045260246000fd5b7f45434453413a20696e76616c6964207369676e61747572650000000000000000600082015250565b6000612deb601883611db6565b9150612df682612db5565b602082019050919050565b60006020820190508181036000830152612e1a81612dde565b9050919050565b7f45434453413a20696e76616c6964207369676e6174757265206c656e67746800600082015250565b6000612e57601f83611db6565b9150612e6282612e21565b602082019050919050565b60006020820190508181036000830152612e8681612e4a565b9050919050565b7f45434453413a20696e76616c6964207369676e6174757265202773272076616c60008201527f7565000000000000000000000000000000000000000000000000000000000000602082015250565b6000612ee9602283611db6565b9150612ef482612e8d565b604082019050919050565b60006020820190508181036000830152612f1881612edc565b905091905056fea264697066735822122071877c9c9d664c4c503bb0393102746eaa56a525116c9d1d5ac5ae38f1f3b01c64736f6c63430008130033",
  "immutableReferences": {
    "4167": [
      {
        "length": 32,
        "start": 5254
      }
    ],
    "4169": [
      {
        "length": 32,
        "start": 5213
      }
    ],
    "4171": [
      {
        "length": 32,
        "start": 5127
      }
    ],
    "4173": [
      {
        "length": 32,
        "start": 6463
      }
    ],
    "4175": [
      {
        "length": 32,
        "start": 6496
      }
    ],
    "4178": [
      {
        "length": 32,
        "start": 2354
      }
    ],
    "4181": [
      {
        "length": 32,
        "start": 2406
      }
    ]
  },
  "source": "// SPDX-License-Identifier: MIT\r\npragma solidity ^0.8.0;\r\n\r\nimport \"@openzeppelin/contracts/token/ERC20/ERC20.sol\";\r\nimport \"@openzeppelin/contracts/security/Pausable.sol\";\r\nimport \"@openzeppelin/contracts/access/Ownable.sol\";\r\nimport \"@openzeppelin/contracts/token/ERC20/extensions/draft-ERC20Permit.sol\";\r\n\r\n/// @custom:security-contact giorgio@allena.it\r\n// TODO: periodo di vesting\r\n// TODO: inizializzazione per token dove cambia prezzo ( 0.01 / 0.02 Dollari ) \r\ncontract Token21BJ is ERC20, Pausable, Ownable, ERC20Permit {\r\n\r\n    uint256 price;\r\n\r\n    constructor(uint256 _price) ERC20(\"Token21BJ\", \"21TK\") ERC20Permit(\"MyToken\") {\r\n        _mint(msg.sender, 500000000000 * 10 ** decimals());\r\n\r\n        price = _price;\r\n    }\r\n\r\n    function pause() public onlyOwner {\r\n        _pause();\r\n    }\r\n\r\n    function unpause() public onlyOwner {\r\n        _unpause();\r\n    }\r\n\r\n    \r\n\r\n\r\n\r\n\r\n\r\n\r\n    \r\n    function mint(address to, uint256 amount) public onlyOwner {\r\n        _mint(to, amount);\r\n    }\r\n\r\n    // TODO: pay for token\r\n    function BuyToken (uint256 amount) public payable returns (string memory) {\r\n        require(amount >= 1, \"Minimum amount is 1 unit!\");\r\n        require(amount * price <= msg.value, \"Valore insufficiente\"); // controllo che il valore inviato sia uguale o maggiore al prezzo\r\n        \r\n        _mint(msg.sender, amount);\r\n\r\n        return \"Buy\";\r\n    }\r\n\r\n\r\n\r\n\r\n\r\n\r\n\r\n    function getBalance() public view returns (uint256) {\r\n        return balanceOf(msg.sender);\r\n    }\r\n\r\n    function _beforeTokenTransfer(address from, address to, uint256 amount)\r\n        internal\r\n        whenNotPaused\r\n        override\r\n    {\r\n        super._beforeTokenTransfer(from, to, amount);\r\n    }\r\n\r\n\r\n\r\n    function withdraw() public onlyOwner {\r\n        payable(owner()).transfer(address(this).balance);\r\n    }\r\n\r\n    function setPrice(uint256 newPrice) public onlyOwner {\r\n        price = newPrice;\r\n    } \r\n\r\n    function getPriceForUnit(uint256 newPrice) public onlyOwner {\r\n        price = newPrice;\r\n    } \r\n\r\n\r\n}\r\n",
  "sourcePath": "D:\\Lavoro\\21_BJ\\21_BJ_SC\\contracts\\Token21BJ.sol",
  "compiler": {
    "name": "solc",
    "version": "0.8.19+commit.7dd6d404.Emscripten.clang"
  },
  "schemaVersion": "3.4.15",
  "updatedAt": "2023-10-20T15:35:45.444Z",
  "devdoc": {
    "custom:security-contact": "giorgio@allena.it",
    "events": {
      "Approval(address,address,uint256)": {
        "details": "Emitted when the allowance of a `spender` for an `owner` is set by a call to {approve}. `value` is the new allowance."
      },
      "EIP712DomainChanged()": {
        "details": "MAY be emitted to signal that the domain could have changed."
      },
      "Paused(address)": {
        "details": "Emitted when the pause is triggered by `account`."
      },
      "Transfer(address,address,uint256)": {
        "details": "Emitted when `value` tokens are moved from one account (`from`) to another (`to`). Note that `value` may be zero."
      },
      "Unpaused(address)": {
        "details": "Emitted when the pause is lifted by `account`."
      }
    },
    "kind": "dev",
    "methods": {
      "DOMAIN_SEPARATOR()": {
        "details": "See {IERC20Permit-DOMAIN_SEPARATOR}."
      },
      "allowance(address,address)": {
        "details": "See {IERC20-allowance}."
      },
      "approve(address,uint256)": {
        "details": "See {IERC20-approve}. NOTE: If `amount` is the maximum `uint256`, the allowance is not updated on `transferFrom`. This is semantically equivalent to an infinite approval. Requirements: - `spender` cannot be the zero address."
      },
      "balanceOf(address)": {
        "details": "See {IERC20-balanceOf}."
      },
      "decimals()": {
        "details": "Returns the number of decimals used to get its user representation. For example, if `decimals` equals `2`, a balance of `505` tokens should be displayed to a user as `5.05` (`505 / 10 ** 2`). Tokens usually opt for a value of 18, imitating the relationship between Ether and Wei. This is the default value returned by this function, unless it's overridden. NOTE: This information is only used for _display_ purposes: it in no way affects any of the arithmetic of the contract, including {IERC20-balanceOf} and {IERC20-transfer}."
      },
      "decreaseAllowance(address,uint256)": {
        "details": "Atomically decreases the allowance granted to `spender` by the caller. This is an alternative to {approve} that can be used as a mitigation for problems described in {IERC20-approve}. Emits an {Approval} event indicating the updated allowance. Requirements: - `spender` cannot be the zero address. - `spender` must have allowance for the caller of at least `subtractedValue`."
      },
      "eip712Domain()": {
        "details": "See {EIP-5267}. _Available since v4.9._"
      },
      "increaseAllowance(address,uint256)": {
        "details": "Atomically increases the allowance granted to `spender` by the caller. This is an alternative to {approve} that can be used as a mitigation for problems described in {IERC20-approve}. Emits an {Approval} event indicating the updated allowance. Requirements: - `spender` cannot be the zero address."
      },
      "name()": {
        "details": "Returns the name of the token."
      },
      "nonces(address)": {
        "details": "See {IERC20Permit-nonces}."
      },
      "owner()": {
        "details": "Returns the address of the current owner."
      },
      "paused()": {
        "details": "Returns true if the contract is paused, and false otherwise."
      },
      "permit(address,address,uint256,uint256,uint8,bytes32,bytes32)": {
        "details": "See {IERC20Permit-permit}."
      },
      "renounceOwnership()": {
        "details": "Leaves the contract without owner. It will not be possible to call `onlyOwner` functions. Can only be called by the current owner. NOTE: Renouncing ownership will leave the contract without an owner, thereby disabling any functionality that is only available to the owner."
      },
      "symbol()": {
        "details": "Returns the symbol of the token, usually a shorter version of the name."
      },
      "totalSupply()": {
        "details": "See {IERC20-totalSupply}."
      },
      "transfer(address,uint256)": {
        "details": "See {IERC20-transfer}. Requirements: - `to` cannot be the zero address. - the caller must have a balance of at least `amount`."
      },
      "transferFrom(address,address,uint256)": {
        "details": "See {IERC20-transferFrom}. Emits an {Approval} event indicating the updated allowance. This is not required by the EIP. See the note at the beginning of {ERC20}. NOTE: Does not update the allowance if the current allowance is the maximum `uint256`. Requirements: - `from` and `to` cannot be the zero address. - `from` must have a balance of at least `amount`. - the caller must have allowance for ``from``'s tokens of at least `amount`."
      },
      "transferOwnership(address)": {
        "details": "Transfers ownership of the contract to a new account (`newOwner`). Can only be called by the current owner."
      }
    },
    "version": 1
  },
  "userdoc": {
    "kind": "user",
    "methods": {},
    "version": 1
  }
}