{
  "contractName": "WearablePool",
  "abi": [
    {
      "inputs": [
        {
          "internalType": "address",
          "name": "_NFTManagerAddress",
          "type": "address"
        },
        {
          "internalType": "address",
          "name": "_RandomChoiceAddress",
          "type": "address"
        },
        {
          "internalType": "string",
          "name": "_baseUri",
          "type": "string"
        }
      ],
      "stateMutability": "nonpayable",
      "type": "constructor"
    },
    {
      "anonymous": false,
      "inputs": [
        {
          "indexed": true,
          "internalType": "address",
          "name": "owner",
          "type": "address"
        },
        {
          "indexed": true,
          "internalType": "address",
          "name": "approved",
          "type": "address"
        },
        {
          "indexed": true,
          "internalType": "uint256",
          "name": "tokenId",
          "type": "uint256"
        }
      ],
      "name": "Approval",
      "type": "event"
    },
    {
      "anonymous": false,
      "inputs": [
        {
          "indexed": true,
          "internalType": "address",
          "name": "owner",
          "type": "address"
        },
        {
          "indexed": true,
          "internalType": "address",
          "name": "operator",
          "type": "address"
        },
        {
          "indexed": false,
          "internalType": "bool",
          "name": "approved",
          "type": "bool"
        }
      ],
      "name": "ApprovalForAll",
      "type": "event"
    },
    {
      "anonymous": false,
      "inputs": [
        {
          "indexed": false,
          "internalType": "uint256",
          "name": "_fromTokenId",
          "type": "uint256"
        },
        {
          "indexed": false,
          "internalType": "uint256",
          "name": "_toTokenId",
          "type": "uint256"
        }
      ],
      "name": "BatchMetadataUpdate",
      "type": "event"
    },
    {
      "anonymous": false,
      "inputs": [
        {
          "indexed": false,
          "internalType": "uint256",
          "name": "_tokenId",
          "type": "uint256"
        }
      ],
      "name": "MetadataUpdate",
      "type": "event"
    },
    {
      "anonymous": false,
      "inputs": [
        {
          "indexed": true,
          "internalType": "address",
          "name": "previousOwner",
          "type": "address"
        },
        {
          "indexed": true,
          "internalType": "address",
          "name": "newOwner",
          "type": "address"
        }
      ],
      "name": "OwnershipTransferred",
      "type": "event"
    },
    {
      "anonymous": false,
      "inputs": [
        {
          "indexed": true,
          "internalType": "address",
          "name": "from",
          "type": "address"
        },
        {
          "indexed": true,
          "internalType": "address",
          "name": "to",
          "type": "address"
        },
        {
          "indexed": true,
          "internalType": "uint256",
          "name": "tokenId",
          "type": "uint256"
        }
      ],
      "name": "Transfer",
      "type": "event"
    },
    {
      "inputs": [
        {
          "internalType": "uint256",
          "name": "",
          "type": "uint256"
        }
      ],
      "name": "WearableList",
      "outputs": [
        {
          "internalType": "string",
          "name": "name",
          "type": "string"
        },
        {
          "internalType": "uint256",
          "name": "id",
          "type": "uint256"
        },
        {
          "internalType": "uint256",
          "name": "ar",
          "type": "uint256"
        },
        {
          "internalType": "uint256",
          "name": "wearableType",
          "type": "uint256"
        }
      ],
      "stateMutability": "view",
      "type": "function"
    },
    {
      "inputs": [
        {
          "internalType": "uint256",
          "name": "",
          "type": "uint256"
        },
        {
          "internalType": "uint256",
          "name": "",
          "type": "uint256"
        }
      ],
      "name": "WearableMatrixForSeason",
      "outputs": [
        {
          "internalType": "uint256",
          "name": "quantity",
          "type": "uint256"
        },
        {
          "internalType": "uint256",
          "name": "cost",
          "type": "uint256"
        }
      ],
      "stateMutability": "view",
      "type": "function"
    },
    {
      "inputs": [
        {
          "internalType": "uint256",
          "name": "",
          "type": "uint256"
        },
        {
          "internalType": "uint256",
          "name": "",
          "type": "uint256"
        },
        {
          "internalType": "uint256",
          "name": "",
          "type": "uint256"
        }
      ],
      "name": "WearableRarityMatrix",
      "outputs": [
        {
          "internalType": "uint256",
          "name": "",
          "type": "uint256"
        }
      ],
      "stateMutability": "view",
      "type": "function"
    },
    {
      "inputs": [
        {
          "internalType": "address",
          "name": "to",
          "type": "address"
        },
        {
          "internalType": "uint256",
          "name": "tokenId",
          "type": "uint256"
        }
      ],
      "name": "approve",
      "outputs": [],
      "stateMutability": "nonpayable",
      "type": "function"
    },
    {
      "inputs": [
        {
          "internalType": "address",
          "name": "owner",
          "type": "address"
        }
      ],
      "name": "balanceOf",
      "outputs": [
        {
          "internalType": "uint256",
          "name": "",
          "type": "uint256"
        }
      ],
      "stateMutability": "view",
      "type": "function"
    },
    {
      "inputs": [
        {
          "internalType": "uint256",
          "name": "_tokenId",
          "type": "uint256"
        }
      ],
      "name": "existNFT",
      "outputs": [
        {
          "internalType": "bool",
          "name": "",
          "type": "bool"
        }
      ],
      "stateMutability": "view",
      "type": "function"
    },
    {
      "inputs": [],
      "name": "getActionAddress",
      "outputs": [
        {
          "internalType": "address",
          "name": "",
          "type": "address"
        }
      ],
      "stateMutability": "view",
      "type": "function"
    },
    {
      "inputs": [
        {
          "internalType": "uint256",
          "name": "tokenId",
          "type": "uint256"
        }
      ],
      "name": "getApproved",
      "outputs": [
        {
          "internalType": "address",
          "name": "",
          "type": "address"
        }
      ],
      "stateMutability": "view",
      "type": "function"
    },
    {
      "inputs": [],
      "name": "getBaseUri",
      "outputs": [
        {
          "internalType": "string",
          "name": "",
          "type": "string"
        }
      ],
      "stateMutability": "view",
      "type": "function"
    },
    {
      "inputs": [],
      "name": "getNFTManagerAddress",
      "outputs": [
        {
          "internalType": "address",
          "name": "",
          "type": "address"
        }
      ],
      "stateMutability": "view",
      "type": "function"
    },
    {
      "inputs": [],
      "name": "getRandomChoiceAddress",
      "outputs": [
        {
          "internalType": "address",
          "name": "",
          "type": "address"
        }
      ],
      "stateMutability": "view",
      "type": "function"
    },
    {
      "inputs": [
        {
          "internalType": "address",
          "name": "owner",
          "type": "address"
        },
        {
          "internalType": "address",
          "name": "operator",
          "type": "address"
        }
      ],
      "name": "isApprovedForAll",
      "outputs": [
        {
          "internalType": "bool",
          "name": "",
          "type": "bool"
        }
      ],
      "stateMutability": "view",
      "type": "function"
    },
    {
      "inputs": [],
      "name": "name",
      "outputs": [
        {
          "internalType": "string",
          "name": "",
          "type": "string"
        }
      ],
      "stateMutability": "view",
      "type": "function"
    },
    {
      "inputs": [],
      "name": "owner",
      "outputs": [
        {
          "internalType": "address",
          "name": "",
          "type": "address"
        }
      ],
      "stateMutability": "view",
      "type": "function"
    },
    {
      "inputs": [
        {
          "internalType": "uint256",
          "name": "tokenId",
          "type": "uint256"
        }
      ],
      "name": "ownerOf",
      "outputs": [
        {
          "internalType": "address",
          "name": "",
          "type": "address"
        }
      ],
      "stateMutability": "view",
      "type": "function"
    },
    {
      "inputs": [
        {
          "internalType": "uint256",
          "name": "_tokenId",
          "type": "uint256"
        }
      ],
      "name": "ownerOfNFT",
      "outputs": [
        {
          "internalType": "bool",
          "name": "",
          "type": "bool"
        }
      ],
      "stateMutability": "view",
      "type": "function"
    },
    {
      "inputs": [],
      "name": "renounceOwnership",
      "outputs": [],
      "stateMutability": "nonpayable",
      "type": "function"
    },
    {
      "inputs": [
        {
          "internalType": "address",
          "name": "from",
          "type": "address"
        },
        {
          "internalType": "address",
          "name": "to",
          "type": "address"
        },
        {
          "internalType": "uint256",
          "name": "tokenId",
          "type": "uint256"
        }
      ],
      "name": "safeTransferFrom",
      "outputs": [],
      "stateMutability": "nonpayable",
      "type": "function"
    },
    {
      "inputs": [
        {
          "internalType": "address",
          "name": "from",
          "type": "address"
        },
        {
          "internalType": "address",
          "name": "to",
          "type": "address"
        },
        {
          "internalType": "uint256",
          "name": "tokenId",
          "type": "uint256"
        },
        {
          "internalType": "bytes",
          "name": "data",
          "type": "bytes"
        }
      ],
      "name": "safeTransferFrom",
      "outputs": [],
      "stateMutability": "nonpayable",
      "type": "function"
    },
    {
      "inputs": [
        {
          "internalType": "address",
          "name": "_ActionAddress",
          "type": "address"
        }
      ],
      "name": "setActionAddress",
      "outputs": [],
      "stateMutability": "nonpayable",
      "type": "function"
    },
    {
      "inputs": [
        {
          "internalType": "address",
          "name": "operator",
          "type": "address"
        },
        {
          "internalType": "bool",
          "name": "approved",
          "type": "bool"
        }
      ],
      "name": "setApprovalForAll",
      "outputs": [],
      "stateMutability": "nonpayable",
      "type": "function"
    },
    {
      "inputs": [
        {
          "internalType": "string",
          "name": "_baseUri",
          "type": "string"
        }
      ],
      "name": "setBaseURI",
      "outputs": [],
      "stateMutability": "nonpayable",
      "type": "function"
    },
    {
      "inputs": [
        {
          "internalType": "string",
          "name": "_baseUri",
          "type": "string"
        }
      ],
      "name": "setBaseUri",
      "outputs": [],
      "stateMutability": "nonpayable",
      "type": "function"
    },
    {
      "inputs": [
        {
          "internalType": "address",
          "name": "_NFTManagerAddress",
          "type": "address"
        }
      ],
      "name": "setNFTManagerAddress",
      "outputs": [],
      "stateMutability": "nonpayable",
      "type": "function"
    },
    {
      "inputs": [
        {
          "internalType": "address",
          "name": "_RandomChoiceAddress",
          "type": "address"
        }
      ],
      "name": "setRandomChoiceAddress",
      "outputs": [],
      "stateMutability": "nonpayable",
      "type": "function"
    },
    {
      "inputs": [
        {
          "internalType": "bytes4",
          "name": "interfaceId",
          "type": "bytes4"
        }
      ],
      "name": "supportsInterface",
      "outputs": [
        {
          "internalType": "bool",
          "name": "",
          "type": "bool"
        }
      ],
      "stateMutability": "view",
      "type": "function"
    },
    {
      "inputs": [],
      "name": "symbol",
      "outputs": [
        {
          "internalType": "string",
          "name": "",
          "type": "string"
        }
      ],
      "stateMutability": "view",
      "type": "function"
    },
    {
      "inputs": [
        {
          "internalType": "uint256",
          "name": "index",
          "type": "uint256"
        }
      ],
      "name": "tokenByIndex",
      "outputs": [
        {
          "internalType": "uint256",
          "name": "",
          "type": "uint256"
        }
      ],
      "stateMutability": "view",
      "type": "function"
    },
    {
      "inputs": [
        {
          "internalType": "address",
          "name": "owner",
          "type": "address"
        },
        {
          "internalType": "uint256",
          "name": "index",
          "type": "uint256"
        }
      ],
      "name": "tokenOfOwnerByIndex",
      "outputs": [
        {
          "internalType": "uint256",
          "name": "",
          "type": "uint256"
        }
      ],
      "stateMutability": "view",
      "type": "function"
    },
    {
      "inputs": [
        {
          "internalType": "uint256",
          "name": "tokenId",
          "type": "uint256"
        }
      ],
      "name": "tokenURI",
      "outputs": [
        {
          "internalType": "string",
          "name": "",
          "type": "string"
        }
      ],
      "stateMutability": "view",
      "type": "function"
    },
    {
      "inputs": [],
      "name": "totalSupply",
      "outputs": [
        {
          "internalType": "uint256",
          "name": "",
          "type": "uint256"
        }
      ],
      "stateMutability": "view",
      "type": "function"
    },
    {
      "inputs": [
        {
          "internalType": "address",
          "name": "from",
          "type": "address"
        },
        {
          "internalType": "address",
          "name": "to",
          "type": "address"
        },
        {
          "internalType": "uint256",
          "name": "tokenId",
          "type": "uint256"
        }
      ],
      "name": "transferFrom",
      "outputs": [],
      "stateMutability": "nonpayable",
      "type": "function"
    },
    {
      "inputs": [
        {
          "internalType": "address",
          "name": "from",
          "type": "address"
        },
        {
          "internalType": "address",
          "name": "_to",
          "type": "address"
        },
        {
          "internalType": "uint256",
          "name": "_tokenId",
          "type": "uint256"
        }
      ],
      "name": "transferNFT",
      "outputs": [],
      "stateMutability": "nonpayable",
      "type": "function"
    },
    {
      "inputs": [
        {
          "internalType": "address",
          "name": "newOwner",
          "type": "address"
        }
      ],
      "name": "transferOwnership",
      "outputs": [],
      "stateMutability": "nonpayable",
      "type": "function"
    },
    {
      "inputs": [
        {
          "internalType": "uint256",
          "name": "tokenRarity",
          "type": "uint256"
        },
        {
          "internalType": "uint256",
          "name": "seasonKey",
          "type": "uint256"
        },
        {
          "internalType": "address",
          "name": "to",
          "type": "address"
        },
        {
          "internalType": "string",
          "name": "name",
          "type": "string"
        }
      ],
      "name": "mintingPrivate",
      "outputs": [
        {
          "internalType": "bool",
          "name": "",
          "type": "bool"
        }
      ],
      "stateMutability": "nonpayable",
      "type": "function"
    },
    {
      "inputs": [
        {
          "internalType": "uint256",
          "name": "WearabletID",
          "type": "uint256"
        }
      ],
      "name": "getWearableInfo",
      "outputs": [
        {
          "components": [
            {
              "internalType": "string",
              "name": "name",
              "type": "string"
            },
            {
              "internalType": "uint256",
              "name": "id",
              "type": "uint256"
            },
            {
              "internalType": "uint256",
              "name": "ar",
              "type": "uint256"
            },
            {
              "internalType": "uint256",
              "name": "wearableType",
              "type": "uint256"
            }
          ],
          "internalType": "struct BaseStructs.Wearable",
          "name": "",
          "type": "tuple"
        }
      ],
      "stateMutability": "view",
      "type": "function"
    },
    {
      "inputs": [
        {
          "internalType": "uint256",
          "name": "seasonID",
          "type": "uint256"
        },
        {
          "internalType": "uint256",
          "name": "rt",
          "type": "uint256"
        },
        {
          "internalType": "uint256",
          "name": "_quantity",
          "type": "uint256"
        },
        {
          "internalType": "uint256",
          "name": "_cost",
          "type": "uint256"
        }
      ],
      "name": "setWearablePoolInfo",
      "outputs": [],
      "stateMutability": "nonpayable",
      "type": "function"
    },
    {
      "inputs": [
        {
          "internalType": "uint256",
          "name": "seasonID",
          "type": "uint256"
        },
        {
          "internalType": "uint256",
          "name": "rarityColon",
          "type": "uint256"
        }
      ],
      "name": "getWearablePoolInfo",
      "outputs": [
        {
          "components": [
            {
              "internalType": "uint256",
              "name": "quantity",
              "type": "uint256"
            },
            {
              "internalType": "uint256",
              "name": "cost",
              "type": "uint256"
            }
          ],
          "internalType": "struct BaseStructs.NFTPoolInfo",
          "name": "",
          "type": "tuple"
        }
      ],
      "stateMutability": "view",
      "type": "function"
    },
    {
      "inputs": [
        {
          "internalType": "uint256",
          "name": "seasonID",
          "type": "uint256"
        }
      ],
      "name": "PoolIsEmpty",
      "outputs": [
        {
          "internalType": "bool",
          "name": "poolIsEmpty",
          "type": "bool"
        }
      ],
      "stateMutability": "view",
      "type": "function"
    },
    {
      "inputs": [
        {
          "internalType": "uint256",
          "name": "r1",
          "type": "uint256"
        },
        {
          "internalType": "uint256",
          "name": "r2",
          "type": "uint256"
        },
        {
          "internalType": "uint256[]",
          "name": "br",
          "type": "uint256[]"
        }
      ],
      "name": "setWearableRarity",
      "outputs": [],
      "stateMutability": "nonpayable",
      "type": "function"
    },
    {
      "inputs": [
        {
          "internalType": "uint256",
          "name": "r1",
          "type": "uint256"
        },
        {
          "internalType": "uint256",
          "name": "r2",
          "type": "uint256"
        }
      ],
      "name": "getWearableRarity",
      "outputs": [
        {
          "internalType": "uint256[]",
          "name": "rb",
          "type": "uint256[]"
        }
      ],
      "stateMutability": "view",
      "type": "function"
    },
    {
      "inputs": [
        {
          "internalType": "uint256",
          "name": "r1",
          "type": "uint256"
        },
        {
          "internalType": "uint256",
          "name": "r2",
          "type": "uint256"
        }
      ],
      "name": "getRarityForMinting",
      "outputs": [
        {
          "internalType": "uint256",
          "name": "rt",
          "type": "uint256"
        }
      ],
      "stateMutability": "nonpayable",
      "type": "function"
    }
  ],
  "bytecode": "0x60806040523480156200001157600080fd5b5060405162005b0538038062005b0583398181016040528101906200003791906200045e565b8282826040518060400160405280600881526020017f5765617261626c650000000000000000000000000000000000000000000000008152506040518060400160405280600481526020017f5752424c0000000000000000000000000000000000000000000000000000000081525081818160009081620000b9919062000724565b508060019081620000cb919062000724565b505050620000ee620000e26200019860201b60201c565b620001a060201b60201c565b84600c60006101000a81548173ffffffffffffffffffffffffffffffffffffffff021916908373ffffffffffffffffffffffffffffffffffffffff16021790555083600d60006101000a81548173ffffffffffffffffffffffffffffffffffffffff021916908373ffffffffffffffffffffffffffffffffffffffff16021790555082600f908162000181919062000724565b50505050505060016013819055505050506200080b565b600033905090565b6000600b60009054906101000a900473ffffffffffffffffffffffffffffffffffffffff16905081600b60006101000a81548173ffffffffffffffffffffffffffffffffffffffff021916908373ffffffffffffffffffffffffffffffffffffffff1602179055508173ffffffffffffffffffffffffffffffffffffffff168173ffffffffffffffffffffffffffffffffffffffff167f8be0079c531659141344cd1fd0a4f28419497f9722a3daafe3b4186f6b6457e060405160405180910390a35050565b6000604051905090565b600080fd5b600080fd5b600073ffffffffffffffffffffffffffffffffffffffff82169050919050565b6000620002a7826200027a565b9050919050565b620002b9816200029a565b8114620002c557600080fd5b50565b600081519050620002d981620002ae565b92915050565b600080fd5b600080fd5b6000601f19601f8301169050919050565b7f4e487b7100000000000000000000000000000000000000000000000000000000600052604160045260246000fd5b6200033482620002e9565b810181811067ffffffffffffffff82111715620003565762000355620002fa565b5b80604052505050565b60006200036b62000266565b905062000379828262000329565b919050565b600067ffffffffffffffff8211156200039c576200039b620002fa565b5b620003a782620002e9565b9050602081019050919050565b60005b83811015620003d4578082015181840152602081019050620003b7565b60008484015250505050565b6000620003f7620003f1846200037e565b6200035f565b905082815260208101848484011115620004165762000415620002e4565b5b62000423848285620003b4565b509392505050565b600082601f830112620004435762000442620002df565b5b815162000455848260208601620003e0565b91505092915050565b6000806000606084860312156200047a576200047962000270565b5b60006200048a86828701620002c8565b93505060206200049d86828701620002c8565b925050604084015167ffffffffffffffff811115620004c157620004c062000275565b5b620004cf868287016200042b565b9150509250925092565b600081519050919050565b7f4e487b7100000000000000000000000000000000000000000000000000000000600052602260045260246000fd5b600060028204905060018216806200052c57607f821691505b602082108103620005425762000541620004e4565b5b50919050565b60008190508160005260206000209050919050565b60006020601f8301049050919050565b600082821b905092915050565b600060088302620005ac7fffffffffffffffffffffffffffffffffffffffffffffffffffffffffffffffff826200056d565b620005b886836200056d565b95508019841693508086168417925050509392505050565b6000819050919050565b6000819050919050565b600062000605620005ff620005f984620005d0565b620005da565b620005d0565b9050919050565b6000819050919050565b6200062183620005e4565b6200063962000630826200060c565b8484546200057a565b825550505050565b600090565b6200065062000641565b6200065d81848462000616565b505050565b5b8181101562000685576200067960008262000646565b60018101905062000663565b5050565b601f821115620006d4576200069e8162000548565b620006a9846200055d565b81016020851015620006b9578190505b620006d1620006c8856200055d565b83018262000662565b50505b505050565b600082821c905092915050565b6000620006f960001984600802620006d9565b1980831691505092915050565b6000620007148383620006e6565b9150826002028217905092915050565b6200072f82620004d9565b67ffffffffffffffff8111156200074b576200074a620002fa565b5b62000757825462000513565b6200076482828562000689565b600060209050601f8311600181146200079c576000841562000787578287015190505b62000793858262000706565b86555062000803565b601f198416620007ac8662000548565b60005b82811015620007d657848901518255600182019150602085019450602081019050620007af565b86831015620007f65784890151620007f2601f891682620006e6565b8355505b6001600288020188555050505b505050505050565b6152ea806200081b6000396000f3fe608060405234801561001057600080fd5b506004361061025e5760003560e01c806369e9cae111610146578063a510123f116100c3578063e985e9c511610087578063e985e9c514610781578063eecf09d3146107b1578063f2fde38b146107e1578063f458e27c146107fd578063f8b535211461082d578063fc2a9ea61461085d5761025e565b8063a510123f146106cb578063ab2c1b65146106e9578063b88d4fde14610705578063bd02afe314610721578063c87b56dd146107515761025e565b80638da5cb5b1161010a5780638da5cb5b1461063b57806395d89b41146106595780639e056ce914610677578063a0bcfc7f14610693578063a22cb465146106af5761025e565b806369e9cae11461059757806370a08231146105b3578063715018a6146105e357806382036850146105ed578063876ffe1e1461061d5761025e565b806325b7e2e6116101df5780634f6ccce7116101a35780634f6ccce71461049a5780635382d749146104ca57806355f804b3146104fd5780636352211e1461051957806366419c571461054957806368f3f6dc146105795761025e565b806325b7e2e6146103be5780632d8a746e146103ee5780632f745c591461041e5780633ae13fd01461044e57806342842e0e1461047e5761025e565b80630cac36b2116102265780630cac36b2146103195780630f1293c11461033757806318160ddd146103535780631bdf197d1461037157806323b872dd146103a25761025e565b806301ffc9a71461026357806305664a301461029357806306fdde03146102af578063081812fc146102cd578063095ea7b3146102fd575b600080fd5b61027d60048036038101906102789190613567565b610879565b60405161028a91906135af565b60405180910390f35b6102ad60048036038101906102a89190613600565b61088b565b005b6102b7610a16565b6040516102c491906136f7565b60405180910390f35b6102e760048036038101906102e29190613719565b610aa8565b6040516102f49190613787565b60405180910390f35b610317600480360381019061031291906137ce565b610aee565b005b610321610c05565b60405161032e91906136f7565b60405180910390f35b610351600480360381019061034c9190613956565b610c97565b005b61035b610cdd565b60405161036891906139d4565b60405180910390f35b61038b600480360381019061038691906139ef565b610cea565b604051610399929190613a2f565b60405180910390f35b6103bc60048036038101906103b79190613a58565b610d1b565b005b6103d860048036038101906103d391906139ef565b610d7b565b6040516103e59190613ae9565b60405180910390f35b61040860048036038101906104039190613719565b610dce565b60405161041591906135af565b60405180910390f35b610438600480360381019061043391906137ce565b610e0e565b60405161044591906139d4565b60405180910390f35b61046860048036038101906104639190613bb9565b610eb3565b60405161047591906135af565b60405180910390f35b61049860048036038101906104939190613a58565b6110d7565b005b6104b460048036038101906104af9190613719565b6110f7565b6040516104c191906139d4565b60405180910390f35b6104e460048036038101906104df9190613719565b611168565b6040516104f49493929190613c3c565b60405180910390f35b61051760048036038101906105129190613c88565b611220565b005b610533600480360381019061052e9190613719565b61123b565b6040516105409190613787565b60405180910390f35b610563600480360381019061055e91906139ef565b6112c1565b6040516105709190613d80565b60405180910390f35b61058161133e565b60405161058e9190613787565b60405180910390f35b6105b160048036038101906105ac9190613a58565b611368565b005b6105cd60048036038101906105c89190613da2565b611436565b6040516105da91906139d4565b60405180910390f35b6105eb6114ed565b005b61060760048036038101906106029190613719565b611501565b60405161061491906135af565b60405180910390f35b610625611513565b6040516106329190613787565b60405180910390f35b61064361153d565b6040516106509190613787565b60405180910390f35b610661611567565b60405161066e91906136f7565b60405180910390f35b610691600480360381019061068c9190613da2565b6115f9565b005b6106ad60048036038101906106a89190613c88565b611645565b005b6106c960048036038101906106c49190613dfb565b611660565b005b6106d3611676565b6040516106e09190613787565b60405180910390f35b61070360048036038101906106fe9190613da2565b6116a0565b005b61071f600480360381019061071a9190613edc565b6116ec565b005b61073b60048036038101906107369190613f5f565b61174e565b60405161074891906139d4565b60405180910390f35b61076b60048036038101906107669190613719565b61178c565b60405161077891906136f7565b60405180910390f35b61079b60048036038101906107969190613fb2565b61179e565b6040516107a891906135af565b60405180910390f35b6107cb60048036038101906107c691906139ef565b611832565b6040516107d891906139d4565b60405180910390f35b6107fb60048036038101906107f69190613da2565b611940565b005b61081760048036038101906108129190613719565b6119c3565b60405161082491906135af565b60405180910390f35b61084760048036038101906108429190613719565b611b48565b604051610854919061409f565b60405180910390f35b61087760048036038101906108729190613da2565b611c25565b005b600061088482611c71565b9050919050565b610893611cd2565b61089b61153d565b73ffffffffffffffffffffffffffffffffffffffff163373ffffffffffffffffffffffffffffffffffffffff1614806108ff57503073ffffffffffffffffffffffffffffffffffffffff163373ffffffffffffffffffffffffffffffffffffffff16145b8061093c575061090d611513565b73ffffffffffffffffffffffffffffffffffffffff163373ffffffffffffffffffffffffffffffffffffffff16145b80610979575061094a61133e565b73ffffffffffffffffffffffffffffffffffffffff163373ffffffffffffffffffffffffffffffffffffffff16145b6109b8576040517f08c379a00000000000000000000000000000000000000000000000000000000081526004016109af9061410d565b60405180910390fd5b8160116000868152602001908152602001600020600085815260200190815260200160002060000181905550806011600086815260200190815260200160002060008581526020019081526020016000206001018190555050505050565b606060008054610a259061415c565b80601f0160208091040260200160405190810160405280929190818152602001828054610a519061415c565b8015610a9e5780601f10610a7357610100808354040283529160200191610a9e565b820191906000526020600020905b815481529060010190602001808311610a8157829003601f168201915b5050505050905090565b6000610ab382611d50565b6004600083815260200190815260200160002060009054906101000a900473ffffffffffffffffffffffffffffffffffffffff169050919050565b6000610af98261123b565b90508073ffffffffffffffffffffffffffffffffffffffff168373ffffffffffffffffffffffffffffffffffffffff1603610b69576040517f08c379a0000000000000000000000000000000000000000000000000000000008152600401610b60906141ff565b60405180910390fd5b8073ffffffffffffffffffffffffffffffffffffffff16610b88611d9b565b73ffffffffffffffffffffffffffffffffffffffff161480610bb75750610bb681610bb1611d9b565b61179e565b5b610bf6576040517f08c379a0000000000000000000000000000000000000000000000000000000008152600401610bed90614291565b60405180910390fd5b610c008383611da3565b505050565b6060600f8054610c149061415c565b80601f0160208091040260200160405190810160405280929190818152602001828054610c409061415c565b8015610c8d5780601f10610c6257610100808354040283529160200191610c8d565b820191906000526020600020905b815481529060010190602001808311610c7057829003601f168201915b5050505050905090565b610c9f611cd2565b806012600085815260200190815260200160002060008481526020019081526020016000209080519060200190610cd792919061344f565b50505050565b6000600880549050905090565b6011602052816000526040600020602052806000526040600020600091509150508060000154908060010154905082565b610d2c610d26611d9b565b82611e5c565b610d6b576040517f08c379a0000000000000000000000000000000000000000000000000000000008152600401610d6290614323565b60405180910390fd5b610d76838383611ef1565b505050565b610d8361349c565b60116000848152602001908152602001600020600083815260200190815260200160002060405180604001604052908160008201548152602001600182015481525050905092915050565b60003373ffffffffffffffffffffffffffffffffffffffff16610df08361123b565b73ffffffffffffffffffffffffffffffffffffffff16149050919050565b6000610e1983611436565b8210610e5a576040517f08c379a0000000000000000000000000000000000000000000000000000000008152600401610e51906143b5565b60405180910390fd5b600660008473ffffffffffffffffffffffffffffffffffffffff1673ffffffffffffffffffffffffffffffffffffffff168152602001908152602001600020600083815260200190815260200160002054905092915050565b6000610ebd611513565b73ffffffffffffffffffffffffffffffffffffffff163373ffffffffffffffffffffffffffffffffffffffff1614610f2a576040517f08c379a0000000000000000000000000000000000000000000000000000000008152600401610f2190614421565b60405180910390fd5b6000610f368587610d7b565b6000015111610f7a576040517f08c379a0000000000000000000000000000000000000000000000000000000008152600401610f71906144b3565b60405180910390fd5b600060136000815480929190610f8f90614502565b91905055905082601060008381526020019081526020016000206000019081610fb891906146f6565b50806010600083815260200190815260200160002060010181905550856010600083815260200190815260200160002060020181905550610ff7611676565b73ffffffffffffffffffffffffffffffffffffffff1663805553e860056040518263ffffffff1660e01b81526004016110309190614803565b6020604051808303816000875af115801561104f573d6000803e3d6000fd5b505050506040513d601f19601f820116820180604052508101906110739190614833565b601060008381526020019081526020016000206003018190555061109784826121ea565b6110ca81846110a584612208565b6040516020016110b692919061489c565b6040516020818303038152906040526122d6565b6001915050949350505050565b6110f2838383604051806020016040528060008152506116ec565b505050565b6000611101610cdd565b8210611142576040517f08c379a000000000000000000000000000000000000000000000000000000000815260040161113990614932565b60405180910390fd5b6008828154811061115657611155614952565b5b90600052602060002001549050919050565b601060205280600052604060002060009150905080600001805461118b9061415c565b80601f01602080910402602001604051908101604052809291908181526020018280546111b79061415c565b80156112045780601f106111d957610100808354040283529160200191611204565b820191906000526020600020905b8154815290600101906020018083116111e757829003601f168201915b5050505050908060010154908060020154908060030154905084565b611228611cd2565b80600f908161123791906146f6565b5050565b6000806112478361237a565b9050600073ffffffffffffffffffffffffffffffffffffffff168173ffffffffffffffffffffffffffffffffffffffff16036112b8576040517f08c379a00000000000000000000000000000000000000000000000000000000081526004016112af906149cd565b60405180910390fd5b80915050919050565b606060126000848152602001908152602001600020600083815260200190815260200160002080548060200260200160405190810160405280929190818152602001828054801561133157602002820191906000526020600020905b81548152602001906001019080831161131d575b5050505050905092915050565b6000600e60009054906101000a900473ffffffffffffffffffffffffffffffffffffffff16905090565b611371816123b7565b6113b0576040517f08c379a00000000000000000000000000000000000000000000000000000000081526004016113a790614a39565b60405180910390fd5b3373ffffffffffffffffffffffffffffffffffffffff166113d08261123b565b73ffffffffffffffffffffffffffffffffffffffff1614611426576040517f08c379a000000000000000000000000000000000000000000000000000000000815260040161141d90614acb565b60405180910390fd5b6114318383836110d7565b505050565b60008073ffffffffffffffffffffffffffffffffffffffff168273ffffffffffffffffffffffffffffffffffffffff16036114a6576040517f08c379a000000000000000000000000000000000000000000000000000000000815260040161149d90614b5d565b60405180910390fd5b600360008373ffffffffffffffffffffffffffffffffffffffff1673ffffffffffffffffffffffffffffffffffffffff168152602001908152602001600020549050919050565b6114f5611cd2565b6114ff60006123f8565b565b600061150c826123b7565b9050919050565b6000600c60009054906101000a900473ffffffffffffffffffffffffffffffffffffffff16905090565b6000600b60009054906101000a900473ffffffffffffffffffffffffffffffffffffffff16905090565b6060600180546115769061415c565b80601f01602080910402602001604051908101604052809291908181526020018280546115a29061415c565b80156115ef5780601f106115c4576101008083540402835291602001916115ef565b820191906000526020600020905b8154815290600101906020018083116115d257829003601f168201915b5050505050905090565b611601611cd2565b80600e60006101000a81548173ffffffffffffffffffffffffffffffffffffffff021916908373ffffffffffffffffffffffffffffffffffffffff16021790555050565b61164d611cd2565b80600f908161165c91906146f6565b5050565b61167261166b611d9b565b83836124be565b5050565b6000600d60009054906101000a900473ffffffffffffffffffffffffffffffffffffffff16905090565b6116a8611cd2565b80600d60006101000a81548173ffffffffffffffffffffffffffffffffffffffff021916908373ffffffffffffffffffffffffffffffffffffffff16021790555050565b6116fd6116f7611d9b565b83611e5c565b61173c576040517f08c379a000000000000000000000000000000000000000000000000000000000815260040161173390614323565b60405180910390fd5b6117488484848461262a565b50505050565b6012602052826000526040600020602052816000526040600020818154811061177657600080fd5b9060005260206000200160009250925050505481565b606061179782612686565b9050919050565b6000600560008473ffffffffffffffffffffffffffffffffffffffff1673ffffffffffffffffffffffffffffffffffffffff16815260200190815260200160002060008373ffffffffffffffffffffffffffffffffffffffff1673ffffffffffffffffffffffffffffffffffffffff16815260200190815260200160002060009054906101000a900460ff16905092915050565b60008061183f84846112c1565b905060005b8151810361185157600090505b600082828151811061186657611865614952565b5b602002602001015114158015611918575061187f611676565b73ffffffffffffffffffffffffffffffffffffffff1663726ff2ef8383815181106118ad576118ac614952565b5b602002602001015160646040518363ffffffff1660e01b81526004016118d4929190614bb8565b6020604051808303816000875af11580156118f3573d6000803e3d6000fd5b505050506040513d601f19601f820116820180604052508101906119179190614bf6565b5b1561192557809250611938565b808061193090614502565b915050611844565b505092915050565b611948611cd2565b600073ffffffffffffffffffffffffffffffffffffffff168173ffffffffffffffffffffffffffffffffffffffff16036119b7576040517f08c379a00000000000000000000000000000000000000000000000000000000081526004016119ae90614c95565b60405180910390fd5b6119c0816123f8565b50565b60006119cd611513565b73ffffffffffffffffffffffffffffffffffffffff163373ffffffffffffffffffffffffffffffffffffffff1614611a3a576040517f08c379a0000000000000000000000000000000000000000000000000000000008152600401611a3190614421565b60405180910390fd5b60019050600060116000848152602001908152602001600020600080815260200190815260200160002060000154118015611a9d575060006011600084815260200190815260200160002060006001815260200190815260200160002060000154115b8015611ad1575060006011600084815260200190815260200160002060006002815260200190815260200160002060000154115b8015611b05575060006011600084815260200190815260200160002060006003815260200190815260200160002060000154115b8015611b39575060006011600084815260200190815260200160002060006004815260200190815260200160002060000154115b15611b4357600090505b919050565b611b506134b6565b60106000838152602001908152602001600020604051806080016040529081600082018054611b7e9061415c565b80601f0160208091040260200160405190810160405280929190818152602001828054611baa9061415c565b8015611bf75780601f10611bcc57610100808354040283529160200191611bf7565b820191906000526020600020905b815481529060010190602001808311611bda57829003601f168201915b5050505050815260200160018201548152602001600282015481526020016003820154815250509050919050565b611c2d611cd2565b80600c60006101000a81548173ffffffffffffffffffffffffffffffffffffffff021916908373ffffffffffffffffffffffffffffffffffffffff16021790555050565b6000634906490660e01b7bffffffffffffffffffffffffffffffffffffffffffffffffffffffff1916827bffffffffffffffffffffffffffffffffffffffffffffffffffffffff19161480611ccb5750611cca82612798565b5b9050919050565b611cda611d9b565b73ffffffffffffffffffffffffffffffffffffffff16611cf861153d565b73ffffffffffffffffffffffffffffffffffffffff1614611d4e576040517f08c379a0000000000000000000000000000000000000000000000000000000008152600401611d4590614d01565b60405180910390fd5b565b611d59816123b7565b611d98576040517f08c379a0000000000000000000000000000000000000000000000000000000008152600401611d8f906149cd565b60405180910390fd5b50565b600033905090565b816004600083815260200190815260200160002060006101000a81548173ffffffffffffffffffffffffffffffffffffffff021916908373ffffffffffffffffffffffffffffffffffffffff160217905550808273ffffffffffffffffffffffffffffffffffffffff16611e168361123b565b73ffffffffffffffffffffffffffffffffffffffff167f8c5be1e5ebec7d5bd14f71427d1e84f3dd0314c0f7b2291e5b200ac8c7c3b92560405160405180910390a45050565b600080611e688361123b565b90508073ffffffffffffffffffffffffffffffffffffffff168473ffffffffffffffffffffffffffffffffffffffff161480611eaa5750611ea9818561179e565b5b80611ee857508373ffffffffffffffffffffffffffffffffffffffff16611ed084610aa8565b73ffffffffffffffffffffffffffffffffffffffff16145b91505092915050565b8273ffffffffffffffffffffffffffffffffffffffff16611f118261123b565b73ffffffffffffffffffffffffffffffffffffffff1614611f67576040517f08c379a0000000000000000000000000000000000000000000000000000000008152600401611f5e90614d93565b60405180910390fd5b600073ffffffffffffffffffffffffffffffffffffffff168273ffffffffffffffffffffffffffffffffffffffff1603611fd6576040517f08c379a0000000000000000000000000000000000000000000000000000000008152600401611fcd90614e25565b60405180910390fd5b611fe38383836001612812565b8273ffffffffffffffffffffffffffffffffffffffff166120038261123b565b73ffffffffffffffffffffffffffffffffffffffff1614612059576040517f08c379a000000000000000000000000000000000000000000000000000000000815260040161205090614d93565b60405180910390fd5b6004600082815260200190815260200160002060006101000a81549073ffffffffffffffffffffffffffffffffffffffff02191690556001600360008573ffffffffffffffffffffffffffffffffffffffff1673ffffffffffffffffffffffffffffffffffffffff168152602001908152602001600020600082825403925050819055506001600360008473ffffffffffffffffffffffffffffffffffffffff1673ffffffffffffffffffffffffffffffffffffffff16815260200190815260200160002060008282540192505081905550816002600083815260200190815260200160002060006101000a81548173ffffffffffffffffffffffffffffffffffffffff021916908373ffffffffffffffffffffffffffffffffffffffff160217905550808273ffffffffffffffffffffffffffffffffffffffff168473ffffffffffffffffffffffffffffffffffffffff167fddf252ad1be2c89b69c2b068fc378daa952ba7f163c4a11628f55a4df523b3ef60405160405180910390a46121e58383836001612824565b505050565b61220482826040518060200160405280600081525061282a565b5050565b60606000600161221784612885565b01905060008167ffffffffffffffff81111561223657612235613813565b5b6040519080825280601f01601f1916602001820160405280156122685781602001600182028036833780820191505090505b509050600082602001820190505b6001156122cb578080600190039150507f3031323334353637383961626364656600000000000000000000000000000000600a86061a8153600a85816122bf576122be614e45565b5b04945060008503612276575b819350505050919050565b6122df826123b7565b61231e576040517f08c379a000000000000000000000000000000000000000000000000000000000815260040161231590614ee6565b60405180910390fd5b80600a6000848152602001908152602001600020908161233e91906146f6565b507ff8e1a15aba9398e019f0b49df1a4fde98ee17ae345cb5f6b5e2c27f5033e8ce78260405161236e91906139d4565b60405180910390a15050565b60006002600083815260200190815260200160002060009054906101000a900473ffffffffffffffffffffffffffffffffffffffff169050919050565b60008073ffffffffffffffffffffffffffffffffffffffff166123d98361237a565b73ffffffffffffffffffffffffffffffffffffffff1614159050919050565b6000600b60009054906101000a900473ffffffffffffffffffffffffffffffffffffffff16905081600b60006101000a81548173ffffffffffffffffffffffffffffffffffffffff021916908373ffffffffffffffffffffffffffffffffffffffff1602179055508173ffffffffffffffffffffffffffffffffffffffff168173ffffffffffffffffffffffffffffffffffffffff167f8be0079c531659141344cd1fd0a4f28419497f9722a3daafe3b4186f6b6457e060405160405180910390a35050565b8173ffffffffffffffffffffffffffffffffffffffff168373ffffffffffffffffffffffffffffffffffffffff160361252c576040517f08c379a000000000000000000000000000000000000000000000000000000000815260040161252390614f52565b60405180910390fd5b80600560008573ffffffffffffffffffffffffffffffffffffffff1673ffffffffffffffffffffffffffffffffffffffff16815260200190815260200160002060008473ffffffffffffffffffffffffffffffffffffffff1673ffffffffffffffffffffffffffffffffffffffff16815260200190815260200160002060006101000a81548160ff0219169083151502179055508173ffffffffffffffffffffffffffffffffffffffff168373ffffffffffffffffffffffffffffffffffffffff167f17307eab39ab6107e8899845ad3d59bd9653f200f220920489ca2b5937696c318360405161261d91906135af565b60405180910390a3505050565b612635848484611ef1565b612641848484846129d8565b612680576040517f08c379a000000000000000000000000000000000000000000000000000000000815260040161267790614fe4565b60405180910390fd5b50505050565b606061269182611d50565b6000600a600084815260200190815260200160002080546126b19061415c565b80601f01602080910402602001604051908101604052809291908181526020018280546126dd9061415c565b801561272a5780601f106126ff5761010080835404028352916020019161272a565b820191906000526020600020905b81548152906001019060200180831161270d57829003601f168201915b50505050509050600061273b612b5f565b90506000815103612750578192505050612793565b60008251111561278557808260405160200161276d92919061489c565b60405160208183030381529060405292505050612793565b61278e84612bf1565b925050505b919050565b60007f780e9d63000000000000000000000000000000000000000000000000000000007bffffffffffffffffffffffffffffffffffffffffffffffffffffffff1916827bffffffffffffffffffffffffffffffffffffffffffffffffffffffff1916148061280b575061280a82612c59565b5b9050919050565b61281e84848484612d3b565b50505050565b50505050565b6128348383612e99565b61284160008484846129d8565b612880576040517f08c379a000000000000000000000000000000000000000000000000000000000815260040161287790614fe4565b60405180910390fd5b505050565b600080600090507a184f03e93ff9f4daa797ed6e38ed64bf6a1f01000000000000000083106128e3577a184f03e93ff9f4daa797ed6e38ed64bf6a1f01000000000000000083816128d9576128d8614e45565b5b0492506040810190505b6d04ee2d6d415b85acef81000000008310612920576d04ee2d6d415b85acef8100000000838161291657612915614e45565b5b0492506020810190505b662386f26fc10000831061294f57662386f26fc10000838161294557612944614e45565b5b0492506010810190505b6305f5e1008310612978576305f5e100838161296e5761296d614e45565b5b0492506008810190505b612710831061299d57612710838161299357612992614e45565b5b0492506004810190505b606483106129c057606483816129b6576129b5614e45565b5b0492506002810190505b600a83106129cf576001810190505b80915050919050565b60006129f98473ffffffffffffffffffffffffffffffffffffffff166130b6565b15612b52578373ffffffffffffffffffffffffffffffffffffffff1663150b7a02612a22611d9b565b8786866040518563ffffffff1660e01b8152600401612a449493929190615059565b6020604051808303816000875af1925050508015612a8057506040513d601f19601f82011682018060405250810190612a7d91906150ba565b60015b612b02573d8060008114612ab0576040519150601f19603f3d011682016040523d82523d6000602084013e612ab5565b606091505b506000815103612afa576040517f08c379a0000000000000000000000000000000000000000000000000000000008152600401612af190614fe4565b60405180910390fd5b805181602001fd5b63150b7a0260e01b7bffffffffffffffffffffffffffffffffffffffffffffffffffffffff1916817bffffffffffffffffffffffffffffffffffffffffffffffffffffffff191614915050612b57565b600190505b949350505050565b6060600f8054612b6e9061415c565b80601f0160208091040260200160405190810160405280929190818152602001828054612b9a9061415c565b8015612be75780601f10612bbc57610100808354040283529160200191612be7565b820191906000526020600020905b815481529060010190602001808311612bca57829003601f168201915b5050505050905090565b6060612bfc82611d50565b6000612c06612b5f565b90506000815111612c265760405180602001604052806000815250612c51565b80612c3084612208565b604051602001612c4192919061489c565b6040516020818303038152906040525b915050919050565b60007f80ac58cd000000000000000000000000000000000000000000000000000000007bffffffffffffffffffffffffffffffffffffffffffffffffffffffff1916827bffffffffffffffffffffffffffffffffffffffffffffffffffffffff19161480612d2457507f5b5e139f000000000000000000000000000000000000000000000000000000007bffffffffffffffffffffffffffffffffffffffffffffffffffffffff1916827bffffffffffffffffffffffffffffffffffffffffffffffffffffffff1916145b80612d345750612d33826130d9565b5b9050919050565b612d4784848484613143565b6001811115612d8b576040517f08c379a0000000000000000000000000000000000000000000000000000000008152600401612d8290615159565b60405180910390fd5b6000829050600073ffffffffffffffffffffffffffffffffffffffff168573ffffffffffffffffffffffffffffffffffffffff1603612dd257612dcd81613149565b612e11565b8373ffffffffffffffffffffffffffffffffffffffff168573ffffffffffffffffffffffffffffffffffffffff1614612e1057612e0f8582613192565b5b5b600073ffffffffffffffffffffffffffffffffffffffff168473ffffffffffffffffffffffffffffffffffffffff1603612e5357612e4e816132ff565b612e92565b8473ffffffffffffffffffffffffffffffffffffffff168473ffffffffffffffffffffffffffffffffffffffff1614612e9157612e9084826133d0565b5b5b5050505050565b600073ffffffffffffffffffffffffffffffffffffffff168273ffffffffffffffffffffffffffffffffffffffff1603612f08576040517f08c379a0000000000000000000000000000000000000000000000000000000008152600401612eff906151c5565b60405180910390fd5b612f11816123b7565b15612f51576040517f08c379a0000000000000000000000000000000000000000000000000000000008152600401612f4890615231565b60405180910390fd5b612f5f600083836001612812565b612f68816123b7565b15612fa8576040517f08c379a0000000000000000000000000000000000000000000000000000000008152600401612f9f90615231565b60405180910390fd5b6001600360008473ffffffffffffffffffffffffffffffffffffffff1673ffffffffffffffffffffffffffffffffffffffff16815260200190815260200160002060008282540192505081905550816002600083815260200190815260200160002060006101000a81548173ffffffffffffffffffffffffffffffffffffffff021916908373ffffffffffffffffffffffffffffffffffffffff160217905550808273ffffffffffffffffffffffffffffffffffffffff16600073ffffffffffffffffffffffffffffffffffffffff167fddf252ad1be2c89b69c2b068fc378daa952ba7f163c4a11628f55a4df523b3ef60405160405180910390a46130b2600083836001612824565b5050565b6000808273ffffffffffffffffffffffffffffffffffffffff163b119050919050565b60007f01ffc9a7000000000000000000000000000000000000000000000000000000007bffffffffffffffffffffffffffffffffffffffffffffffffffffffff1916827bffffffffffffffffffffffffffffffffffffffffffffffffffffffff1916149050919050565b50505050565b6008805490506009600083815260200190815260200160002081905550600881908060018154018082558091505060019003906000526020600020016000909190919091505550565b6000600161319f84611436565b6131a99190615251565b905060006007600084815260200190815260200160002054905081811461328e576000600660008673ffffffffffffffffffffffffffffffffffffffff1673ffffffffffffffffffffffffffffffffffffffff168152602001908152602001600020600084815260200190815260200160002054905080600660008773ffffffffffffffffffffffffffffffffffffffff1673ffffffffffffffffffffffffffffffffffffffff168152602001908152602001600020600084815260200190815260200160002081905550816007600083815260200190815260200160002081905550505b6007600084815260200190815260200160002060009055600660008573ffffffffffffffffffffffffffffffffffffffff1673ffffffffffffffffffffffffffffffffffffffff16815260200190815260200160002060008381526020019081526020016000206000905550505050565b600060016008805490506133139190615251565b905060006009600084815260200190815260200160002054905060006008838154811061334357613342614952565b5b90600052602060002001549050806008838154811061336557613364614952565b5b9060005260206000200181905550816009600083815260200190815260200160002081905550600960008581526020019081526020016000206000905560088054806133b4576133b3615285565b5b6001900381819060005260206000200160009055905550505050565b60006133db83611436565b905081600660008573ffffffffffffffffffffffffffffffffffffffff1673ffffffffffffffffffffffffffffffffffffffff168152602001908152602001600020600083815260200190815260200160002081905550806007600084815260200190815260200160002081905550505050565b82805482825590600052602060002090810192821561348b579160200282015b8281111561348a57825182559160200191906001019061346f565b5b50905061349891906134de565b5090565b604051806040016040528060008152602001600081525090565b6040518060800160405280606081526020016000815260200160008152602001600081525090565b5b808211156134f75760008160009055506001016134df565b5090565b6000604051905090565b600080fd5b600080fd5b60007fffffffff0000000000000000000000000000000000000000000000000000000082169050919050565b6135448161350f565b811461354f57600080fd5b50565b6000813590506135618161353b565b92915050565b60006020828403121561357d5761357c613505565b5b600061358b84828501613552565b91505092915050565b60008115159050919050565b6135a981613594565b82525050565b60006020820190506135c460008301846135a0565b92915050565b6000819050919050565b6135dd816135ca565b81146135e857600080fd5b50565b6000813590506135fa816135d4565b92915050565b6000806000806080858703121561361a57613619613505565b5b6000613628878288016135eb565b9450506020613639878288016135eb565b935050604061364a878288016135eb565b925050606061365b878288016135eb565b91505092959194509250565b600081519050919050565b600082825260208201905092915050565b60005b838110156136a1578082015181840152602081019050613686565b60008484015250505050565b6000601f19601f8301169050919050565b60006136c982613667565b6136d38185613672565b93506136e3818560208601613683565b6136ec816136ad565b840191505092915050565b6000602082019050818103600083015261371181846136be565b905092915050565b60006020828403121561372f5761372e613505565b5b600061373d848285016135eb565b91505092915050565b600073ffffffffffffffffffffffffffffffffffffffff82169050919050565b600061377182613746565b9050919050565b61378181613766565b82525050565b600060208201905061379c6000830184613778565b92915050565b6137ab81613766565b81146137b657600080fd5b50565b6000813590506137c8816137a2565b92915050565b600080604083850312156137e5576137e4613505565b5b60006137f3858286016137b9565b9250506020613804858286016135eb565b9150509250929050565b600080fd5b7f4e487b7100000000000000000000000000000000000000000000000000000000600052604160045260246000fd5b61384b826136ad565b810181811067ffffffffffffffff8211171561386a57613869613813565b5b80604052505050565b600061387d6134fb565b90506138898282613842565b919050565b600067ffffffffffffffff8211156138a9576138a8613813565b5b602082029050602081019050919050565b600080fd5b60006138d26138cd8461388e565b613873565b905080838252602082019050602084028301858111156138f5576138f46138ba565b5b835b8181101561391e578061390a88826135eb565b8452602084019350506020810190506138f7565b5050509392505050565b600082601f83011261393d5761393c61380e565b5b813561394d8482602086016138bf565b91505092915050565b60008060006060848603121561396f5761396e613505565b5b600061397d868287016135eb565b935050602061398e868287016135eb565b925050604084013567ffffffffffffffff8111156139af576139ae61350a565b5b6139bb86828701613928565b9150509250925092565b6139ce816135ca565b82525050565b60006020820190506139e960008301846139c5565b92915050565b60008060408385031215613a0657613a05613505565b5b6000613a14858286016135eb565b9250506020613a25858286016135eb565b9150509250929050565b6000604082019050613a4460008301856139c5565b613a5160208301846139c5565b9392505050565b600080600060608486031215613a7157613a70613505565b5b6000613a7f868287016137b9565b9350506020613a90868287016137b9565b9250506040613aa1868287016135eb565b9150509250925092565b613ab4816135ca565b82525050565b604082016000820151613ad06000850182613aab565b506020820151613ae36020850182613aab565b50505050565b6000604082019050613afe6000830184613aba565b92915050565b600080fd5b600067ffffffffffffffff821115613b2457613b23613813565b5b613b2d826136ad565b9050602081019050919050565b82818337600083830152505050565b6000613b5c613b5784613b09565b613873565b905082815260208101848484011115613b7857613b77613b04565b5b613b83848285613b3a565b509392505050565b600082601f830112613ba057613b9f61380e565b5b8135613bb0848260208601613b49565b91505092915050565b60008060008060808587031215613bd357613bd2613505565b5b6000613be1878288016135eb565b9450506020613bf2878288016135eb565b9350506040613c03878288016137b9565b925050606085013567ffffffffffffffff811115613c2457613c2361350a565b5b613c3087828801613b8b565b91505092959194509250565b60006080820190508181036000830152613c5681876136be565b9050613c6560208301866139c5565b613c7260408301856139c5565b613c7f60608301846139c5565b95945050505050565b600060208284031215613c9e57613c9d613505565b5b600082013567ffffffffffffffff811115613cbc57613cbb61350a565b5b613cc884828501613b8b565b91505092915050565b600081519050919050565b600082825260208201905092915050565b6000819050602082019050919050565b6000613d098383613aab565b60208301905092915050565b6000602082019050919050565b6000613d2d82613cd1565b613d378185613cdc565b9350613d4283613ced565b8060005b83811015613d73578151613d5a8882613cfd565b9750613d6583613d15565b925050600181019050613d46565b5085935050505092915050565b60006020820190508181036000830152613d9a8184613d22565b905092915050565b600060208284031215613db857613db7613505565b5b6000613dc6848285016137b9565b91505092915050565b613dd881613594565b8114613de357600080fd5b50565b600081359050613df581613dcf565b92915050565b60008060408385031215613e1257613e11613505565b5b6000613e20858286016137b9565b9250506020613e3185828601613de6565b9150509250929050565b600067ffffffffffffffff821115613e5657613e55613813565b5b613e5f826136ad565b9050602081019050919050565b6000613e7f613e7a84613e3b565b613873565b905082815260208101848484011115613e9b57613e9a613b04565b5b613ea6848285613b3a565b509392505050565b600082601f830112613ec357613ec261380e565b5b8135613ed3848260208601613e6c565b91505092915050565b60008060008060808587031215613ef657613ef5613505565b5b6000613f04878288016137b9565b9450506020613f15878288016137b9565b9350506040613f26878288016135eb565b925050606085013567ffffffffffffffff811115613f4757613f4661350a565b5b613f5387828801613eae565b91505092959194509250565b600080600060608486031215613f7857613f77613505565b5b6000613f86868287016135eb565b9350506020613f97868287016135eb565b9250506040613fa8868287016135eb565b9150509250925092565b60008060408385031215613fc957613fc8613505565b5b6000613fd7858286016137b9565b9250506020613fe8858286016137b9565b9150509250929050565b600082825260208201905092915050565b600061400e82613667565b6140188185613ff2565b9350614028818560208601613683565b614031816136ad565b840191505092915050565b600060808301600083015184820360008601526140598282614003565b915050602083015161406e6020860182613aab565b5060408301516140816040860182613aab565b5060608301516140946060860182613aab565b508091505092915050565b600060208201905081810360008301526140b9818461403c565b905092915050565b7f596f752063616e206e6f742063616c6c20746869732066756e6374696f6e0000600082015250565b60006140f7601e83613672565b9150614102826140c1565b602082019050919050565b60006020820190508181036000830152614126816140ea565b9050919050565b7f4e487b7100000000000000000000000000000000000000000000000000000000600052602260045260246000fd5b6000600282049050600182168061417457607f821691505b6020821081036141875761418661412d565b5b50919050565b7f4552433732313a20617070726f76616c20746f2063757272656e74206f776e6560008201527f7200000000000000000000000000000000000000000000000000000000000000602082015250565b60006141e9602183613672565b91506141f48261418d565b604082019050919050565b60006020820190508181036000830152614218816141dc565b9050919050565b7f4552433732313a20617070726f76652063616c6c6572206973206e6f7420746f60008201527f6b656e206f776e6572206f7220617070726f76656420666f7220616c6c000000602082015250565b600061427b603d83613672565b91506142868261421f565b604082019050919050565b600060208201905081810360008301526142aa8161426e565b9050919050565b7f4552433732313a2063616c6c6572206973206e6f7420746f6b656e206f776e6560008201527f72206f7220617070726f76656400000000000000000000000000000000000000602082015250565b600061430d602d83613672565b9150614318826142b1565b604082019050919050565b6000602082019050818103600083015261433c81614300565b9050919050565b7f455243373231456e756d657261626c653a206f776e657220696e646578206f7560008201527f74206f6620626f756e6473000000000000000000000000000000000000000000602082015250565b600061439f602b83613672565b91506143aa82614343565b604082019050919050565b600060208201905081810360008301526143ce81614392565b9050919050565b7f6d73672e73656e646572206973206e6f7420636f727265637400000000000000600082015250565b600061440b601983613672565b9150614416826143d5565b602082019050919050565b6000602082019050818103600083015261443a816143fe565b9050919050565b7f546865726520617265206e6f206f6e65204e465420696e746f20706f6f6c206660008201527f6f72207468697320726172697479000000000000000000000000000000000000602082015250565b600061449d602e83613672565b91506144a882614441565b604082019050919050565b600060208201905081810360008301526144cc81614490565b9050919050565b7f4e487b7100000000000000000000000000000000000000000000000000000000600052601160045260246000fd5b600061450d826135ca565b91507fffffffffffffffffffffffffffffffffffffffffffffffffffffffffffffffff820361453f5761453e6144d3565b5b600182019050919050565b60008190508160005260206000209050919050565b60006020601f8301049050919050565b600082821b905092915050565b6000600883026145ac7fffffffffffffffffffffffffffffffffffffffffffffffffffffffffffffffff8261456f565b6145b6868361456f565b95508019841693508086168417925050509392505050565b6000819050919050565b60006145f36145ee6145e9846135ca565b6145ce565b6135ca565b9050919050565b6000819050919050565b61460d836145d8565b614621614619826145fa565b84845461457c565b825550505050565b600090565b614636614629565b614641818484614604565b505050565b5b818110156146655761465a60008261462e565b600181019050614647565b5050565b601f8211156146aa5761467b8161454a565b6146848461455f565b81016020851015614693578190505b6146a761469f8561455f565b830182614646565b50505b505050565b600082821c905092915050565b60006146cd600019846008026146af565b1980831691505092915050565b60006146e683836146bc565b9150826002028217905092915050565b6146ff82613667565b67ffffffffffffffff81111561471857614717613813565b5b614722825461415c565b61472d828285614669565b600060209050601f831160018114614760576000841561474e578287015190505b61475885826146da565b8655506147c0565b601f19841661476e8661454a565b60005b8281101561479657848901518255600182019150602085019450602081019050614771565b868310156147b357848901516147af601f8916826146bc565b8355505b6001600288020188555050505b505050505050565b6000819050919050565b60006147ed6147e86147e3846147c8565b6145ce565b6135ca565b9050919050565b6147fd816147d2565b82525050565b600060208201905061481860008301846147f4565b92915050565b60008151905061482d816135d4565b92915050565b60006020828403121561484957614848613505565b5b60006148578482850161481e565b91505092915050565b600081905092915050565b600061487682613667565b6148808185614860565b9350614890818560208601613683565b80840191505092915050565b60006148a8828561486b565b91506148b4828461486b565b91508190509392505050565b7f455243373231456e756d657261626c653a20676c6f62616c20696e646578206f60008201527f7574206f6620626f756e64730000000000000000000000000000000000000000602082015250565b600061491c602c83613672565b9150614927826148c0565b604082019050919050565b6000602082019050818103600083015261494b8161490f565b9050919050565b7f4e487b7100000000000000000000000000000000000000000000000000000000600052603260045260246000fd5b7f4552433732313a20696e76616c696420746f6b656e2049440000000000000000600082015250565b60006149b7601883613672565b91506149c282614981565b602082019050919050565b600060208201905081810360008301526149e6816149aa565b9050919050565b7f546f6b656e20646f6573206e6f74206578697374000000000000000000000000600082015250565b6000614a23601483613672565b9150614a2e826149ed565b602082019050919050565b60006020820190508181036000830152614a5281614a16565b9050919050565b7f596f7520617265206e6f7420746865206f776e6572206f66207468697320746f60008201527f6b656e0000000000000000000000000000000000000000000000000000000000602082015250565b6000614ab5602383613672565b9150614ac082614a59565b604082019050919050565b60006020820190508181036000830152614ae481614aa8565b9050919050565b7f4552433732313a2061646472657373207a65726f206973206e6f74206120766160008201527f6c6964206f776e65720000000000000000000000000000000000000000000000602082015250565b6000614b47602983613672565b9150614b5282614aeb565b604082019050919050565b60006020820190508181036000830152614b7681614b3a565b9050919050565b6000819050919050565b6000614ba2614b9d614b9884614b7d565b6145ce565b6135ca565b9050919050565b614bb281614b87565b82525050565b6000604082019050614bcd60008301856139c5565b614bda6020830184614ba9565b9392505050565b600081519050614bf081613dcf565b92915050565b600060208284031215614c0c57614c0b613505565b5b6000614c1a84828501614be1565b91505092915050565b7f4f776e61626c653a206e6577206f776e657220697320746865207a65726f206160008201527f6464726573730000000000000000000000000000000000000000000000000000602082015250565b6000614c7f602683613672565b9150614c8a82614c23565b604082019050919050565b60006020820190508181036000830152614cae81614c72565b9050919050565b7f4f776e61626c653a2063616c6c6572206973206e6f7420746865206f776e6572600082015250565b6000614ceb602083613672565b9150614cf682614cb5565b602082019050919050565b60006020820190508181036000830152614d1a81614cde565b9050919050565b7f4552433732313a207472616e736665722066726f6d20696e636f72726563742060008201527f6f776e6572000000000000000000000000000000000000000000000000000000602082015250565b6000614d7d602583613672565b9150614d8882614d21565b604082019050919050565b60006020820190508181036000830152614dac81614d70565b9050919050565b7f4552433732313a207472616e7366657220746f20746865207a65726f2061646460008201527f7265737300000000000000000000000000000000000000000000000000000000602082015250565b6000614e0f602483613672565b9150614e1a82614db3565b604082019050919050565b60006020820190508181036000830152614e3e81614e02565b9050919050565b7f4e487b7100000000000000000000000000000000000000000000000000000000600052601260045260246000fd5b7f45524337323155524953746f726167653a2055524920736574206f66206e6f6e60008201527f6578697374656e7420746f6b656e000000000000000000000000000000000000602082015250565b6000614ed0602e83613672565b9150614edb82614e74565b604082019050919050565b60006020820190508181036000830152614eff81614ec3565b9050919050565b7f4552433732313a20617070726f766520746f2063616c6c657200000000000000600082015250565b6000614f3c601983613672565b9150614f4782614f06565b602082019050919050565b60006020820190508181036000830152614f6b81614f2f565b9050919050565b7f4552433732313a207472616e7366657220746f206e6f6e20455243373231526560008201527f63656976657220696d706c656d656e7465720000000000000000000000000000602082015250565b6000614fce603283613672565b9150614fd982614f72565b604082019050919050565b60006020820190508181036000830152614ffd81614fc1565b9050919050565b600081519050919050565b600082825260208201905092915050565b600061502b82615004565b615035818561500f565b9350615045818560208601613683565b61504e816136ad565b840191505092915050565b600060808201905061506e6000830187613778565b61507b6020830186613778565b61508860408301856139c5565b818103606083015261509a8184615020565b905095945050505050565b6000815190506150b48161353b565b92915050565b6000602082840312156150d0576150cf613505565b5b60006150de848285016150a5565b91505092915050565b7f455243373231456e756d657261626c653a20636f6e736563757469766520747260008201527f616e7366657273206e6f7420737570706f727465640000000000000000000000602082015250565b6000615143603583613672565b915061514e826150e7565b604082019050919050565b6000602082019050818103600083015261517281615136565b9050919050565b7f4552433732313a206d696e7420746f20746865207a65726f2061646472657373600082015250565b60006151af602083613672565b91506151ba82615179565b602082019050919050565b600060208201905081810360008301526151de816151a2565b9050919050565b7f4552433732313a20746f6b656e20616c7265616479206d696e74656400000000600082015250565b600061521b601c83613672565b9150615226826151e5565b602082019050919050565b6000602082019050818103600083015261524a8161520e565b9050919050565b600061525c826135ca565b9150615267836135ca565b925082820390508181111561527f5761527e6144d3565b5b92915050565b7f4e487b7100000000000000000000000000000000000000000000000000000000600052603160045260246000fdfea2646970667358221220db3737e9e03e9ab9de25db532f577b06b2cd61b88fae27ac3167c3e8fe94473a64736f6c63430008130033",
  "immutableReferences": {},
  "source": "// SPDX-License-Identifier: MIT\r\npragma solidity ^0.8.0;\r\n\r\nimport \"./Extra/PoolBaseStruct.sol\";\r\nimport \"./Extra/PoolVirtual.sol\";\r\nimport \"./../../RandomChoice.sol\";\r\n\r\n\r\n\r\ncontract WearablePool is PoolBaseStruct, PoolWearableVirtual {\r\n\r\n    // List of Wearable and their info\r\n    mapping(uint256 => Wearable) public WearableList;\r\n\r\n    /** \r\n        Matrix of all rarity minting info\r\n        For every season (first param) there is a row ( called rarityRow, second param ) that contain info abouth quantity and cost of NFT\r\n    */\r\n    mapping(uint256 =>  mapping(uint256 => NFTPoolInfo)) public WearableMatrixForSeason;\r\n\r\n    // Matrix for minting probability\r\n    // mapping(uint256 => RarityRow) public WearableRarityMatrix;\r\n    mapping(uint256 => mapping(uint256 => uint256[])) public WearableRarityMatrix;\r\n\r\n\r\n\r\n    // SET BASE INFO\r\n    uint256 baseIDNFTCounter;\r\n\r\n\r\n\r\n    constructor (\r\n        address _NFTManagerAddress,\r\n        address _RandomChoiceAddress,\r\n\r\n        string memory _baseUri\r\n    ) \r\n        \r\n        PoolBaseStruct (\r\n            _NFTManagerAddress, _RandomChoiceAddress,\r\n            _baseUri, \"Wearable\", \"WRBL\"\r\n        ) \r\n\r\n    {\r\n        baseIDNFTCounter = 1;\r\n    }\r\n\r\n\r\n\r\n    \r\n\r\n    function mintingPrivate (\r\n        uint256 tokenRarity,\r\n        uint256 seasonKey,\r\n\r\n        address to,\r\n        string memory name\r\n    ) public override returns (bool) {\r\n        require(msg.sender == getNFTManagerAddress(), \"msg.sender is not correct\");\r\n        require(getWearablePoolInfo(seasonKey, tokenRarity).quantity > 0,\"There are no one NFT into pool for this rarity\");\r\n\r\n        uint256 bIDC = baseIDNFTCounter++;\r\n\r\n        WearableList[bIDC].name = name;\r\n        WearableList[bIDC].id = bIDC;\r\n        WearableList[bIDC].ar = tokenRarity;\r\n        // TODO: Check base number\r\n        WearableList[bIDC].wearableType = RandomChoice(getRandomChoiceAddress()).randMod(5);\r\n\r\n        _safeMint(to, bIDC);\r\n        _setTokenURI(bIDC, string.concat(name, Strings.toString(bIDC)));\r\n\r\n        return true;\r\n    }\r\n    function getWearableInfo(uint256 WearabletID) public override view returns (Wearable memory) { return WearableList[WearabletID]; }\r\n\r\n\r\n    \r\n    \r\n    function setWearablePoolInfo(uint256 seasonID, uint256 rt, uint256 _quantity, uint256 _cost ) public onlyOwner override { \r\n        require(msg.sender == owner() || msg.sender == address(this) || msg.sender == getNFTManagerAddress() || msg.sender == getActionAddress(), \"You can not call this function\");\r\n        WearableMatrixForSeason[seasonID][rt].quantity = _quantity;\r\n        WearableMatrixForSeason[seasonID][rt].cost = _cost;\r\n    }\r\n    \r\n    \r\n    function getWearablePoolInfo (uint256 seasonID, uint256 rarityColon) public override view returns(NFTPoolInfo memory) \r\n        { return WearableMatrixForSeason[seasonID][rarityColon]; }\r\n    \r\n\r\n\r\n    function PoolIsEmpty (uint256 seasonID) public view override returns(bool poolIsEmpty) { \r\n        require(msg.sender == getNFTManagerAddress(), \"msg.sender is not correct\");\r\n        poolIsEmpty = true;\r\n\r\n        if ( WearableMatrixForSeason[seasonID][0].quantity > 0 &&\r\n            WearableMatrixForSeason[seasonID][1].quantity > 0 && \r\n            WearableMatrixForSeason[seasonID][2].quantity > 0 && \r\n            WearableMatrixForSeason[seasonID][3].quantity > 0 && \r\n            WearableMatrixForSeason[seasonID][4].quantity > 0\r\n        ) { poolIsEmpty = false; }\r\n\r\n    }\r\n\r\n\r\n\r\n\r\n    function setWearableRarity(uint256 r1, uint256 r2, uint256[] memory br) public override onlyOwner \r\n        { WearableRarityMatrix[r1][r2] = br; }\r\n    function getWearableRarity(uint256 r1, uint256 r2) public view override returns (uint256[] memory rb) \r\n        { rb = WearableRarityMatrix[r1][r2]; }\r\n    \r\n    \r\n    function getRarityForMinting(uint256 r1, uint256 r2) public override returns(uint256 rt) {\r\n        uint256[] memory rb = getWearableRarity(r1, r2);\r\n        \r\n        for (uint i=0; ; i++) {\r\n            if (i == rb.length) i = 0;\r\n\r\n            if ( rb[i] != 0 && RandomChoice(getRandomChoiceAddress()).choice(rb[i], 100) ) \r\n                { rt = i; break; }\r\n            \r\n        }\r\n\r\n    }\r\n\r\n\r\n}",
  "sourcePath": "D:\\Lavoro\\21_BJ\\21_BJ_SC\\contracts\\Avatar\\Pool\\WearablePool.sol",
  "compiler": {
    "name": "solc",
    "version": "0.8.19+commit.7dd6d404.Emscripten.clang"
  },
  "schemaVersion": "3.4.15",
  "updatedAt": "2023-10-20T15:35:45.329Z",
  "devdoc": {
    "events": {
      "Approval(address,address,uint256)": {
        "details": "Emitted when `owner` enables `approved` to manage the `tokenId` token."
      },
      "ApprovalForAll(address,address,bool)": {
        "details": "Emitted when `owner` enables or disables (`approved`) `operator` to manage all of its assets."
      },
      "BatchMetadataUpdate(uint256,uint256)": {
        "details": "This event emits when the metadata of a range of tokens is changed. So that the third-party platforms such as NFT market could timely update the images and related attributes of the NFTs."
      },
      "MetadataUpdate(uint256)": {
        "details": "This event emits when the metadata of a token is changed. So that the third-party platforms such as NFT market could timely update the images and related attributes of the NFT."
      },
      "Transfer(address,address,uint256)": {
        "details": "Emitted when `tokenId` token is transferred from `from` to `to`."
      }
    },
    "kind": "dev",
    "methods": {
      "approve(address,uint256)": {
        "details": "See {IERC721-approve}."
      },
      "balanceOf(address)": {
        "details": "See {IERC721-balanceOf}."
      },
      "getApproved(uint256)": {
        "details": "See {IERC721-getApproved}."
      },
      "isApprovedForAll(address,address)": {
        "details": "See {IERC721-isApprovedForAll}."
      },
      "name()": {
        "details": "See {IERC721Metadata-name}."
      },
      "owner()": {
        "details": "Returns the address of the current owner."
      },
      "ownerOf(uint256)": {
        "details": "See {IERC721-ownerOf}."
      },
      "renounceOwnership()": {
        "details": "Leaves the contract without owner. It will not be possible to call `onlyOwner` functions. Can only be called by the current owner. NOTE: Renouncing ownership will leave the contract without an owner, thereby disabling any functionality that is only available to the owner."
      },
      "safeTransferFrom(address,address,uint256)": {
        "details": "See {IERC721-safeTransferFrom}."
      },
      "safeTransferFrom(address,address,uint256,bytes)": {
        "details": "See {IERC721-safeTransferFrom}."
      },
      "setApprovalForAll(address,bool)": {
        "details": "See {IERC721-setApprovalForAll}."
      },
      "symbol()": {
        "details": "See {IERC721Metadata-symbol}."
      },
      "tokenByIndex(uint256)": {
        "details": "See {IERC721Enumerable-tokenByIndex}."
      },
      "tokenOfOwnerByIndex(address,uint256)": {
        "details": "See {IERC721Enumerable-tokenOfOwnerByIndex}."
      },
      "totalSupply()": {
        "details": "See {IERC721Enumerable-totalSupply}."
      },
      "transferFrom(address,address,uint256)": {
        "details": "See {IERC721-transferFrom}."
      },
      "transferOwnership(address)": {
        "details": "Transfers ownership of the contract to a new account (`newOwner`). Can only be called by the current owner."
      }
    },
    "version": 1
  },
  "userdoc": {
    "kind": "user",
    "methods": {
      "WearableMatrixForSeason(uint256,uint256)": {
        "notice": "Matrix of all rarity minting info For every season (first param) there is a row ( called rarityRow, second param ) that contain info abouth quantity and cost of NFT"
      },
      "getNFTManagerAddress()": {
        "notice": "GET & SET ADDRESS"
      },
      "getWearableInfo(uint256)": {
        "notice": "ABSTRACT FUNCTION TO INERITANCE"
      },
      "transferNFT(address,address,uint256)": {
        "notice": "DEFAULT FUNCTIONS"
      }
    },
    "version": 1
  }
}